{"contracts/TournamentEscrowV2.sol":{"TournamentEscrowV2":{"abi":[{"inputs":[],"stateMutability":"nonpayable","type":"constructor"},{"inputs":[{"internalType":"address","name":"target","type":"address"}],"name":"AddressEmptyCode","type":"error"},{"inputs":[{"internalType":"address","name":"account","type":"address"}],"name":"AddressInsufficientBalance","type":"error"},{"inputs":[{"internalType":"address","name":"implementation","type":"address"}],"name":"ERC1967InvalidImplementation","type":"error"},{"inputs":[],"name":"ERC1967NonPayable","type":"error"},{"inputs":[],"name":"FailedInnerCall","type":"error"},{"inputs":[],"name":"InvalidInitialization","type":"error"},{"inputs":[],"name":"NotInitializing","type":"error"},{"inputs":[{"internalType":"address","name":"owner","type":"address"}],"name":"OwnableInvalidOwner","type":"error"},{"inputs":[{"internalType":"address","name":"account","type":"address"}],"name":"OwnableUnauthorizedAccount","type":"error"},{"inputs":[],"name":"ReentrancyGuardReentrantCall","type":"error"},{"inputs":[{"internalType":"address","name":"token","type":"address"}],"name":"SafeERC20FailedOperation","type":"error"},{"inputs":[],"name":"UUPSUnauthorizedCallContext","type":"error"},{"inputs":[{"internalType":"bytes32","name":"slot","type":"bytes32"}],"name":"UUPSUnsupportedProxiableUUID","type":"error"},{"anonymous":false,"inputs":[{"indexed":true,"internalType":"uint256","name":"tournamentId","type":"uint256"},{"indexed":true,"internalType":"address","name":"participant","type":"address"},{"indexed":false,"internalType":"uint256","name":"amount","type":"uint256"}],"name":"EntryFeeRefunded","type":"event"},{"anonymous":false,"inputs":[{"indexed":true,"internalType":"uint256","name":"tournamentId","type":"uint256"},{"indexed":true,"internalType":"address","name":"creator","type":"address"},{"indexed":false,"internalType":"uint256","name":"creatorAmount","type":"uint256"},{"indexed":false,"internalType":"uint256","name":"platformFeeAmount","type":"uint256"}],"name":"EntryFeesDistributed","type":"event"},{"anonymous":false,"inputs":[{"indexed":false,"internalType":"uint64","name":"version","type":"uint64"}],"name":"Initialized","type":"event"},{"anonymous":false,"inputs":[{"indexed":true,"internalType":"address","name":"previousOwner","type":"address"},{"indexed":true,"internalType":"address","name":"newOwner","type":"address"}],"name":"OwnershipTransferred","type":"event"},{"anonymous":false,"inputs":[{"indexed":true,"internalType":"uint256","name":"tournamentId","type":"uint256"},{"indexed":true,"internalType":"address","name":"participant","type":"address"}],"name":"ParticipantRegistered","type":"event"},{"anonymous":false,"inputs":[{"indexed":true,"internalType":"address","name":"token","type":"address"},{"indexed":true,"internalType":"address","name":"recipient","type":"address"},{"indexed":false,"internalType":"uint256","name":"amount","type":"uint256"}],"name":"PlatformFeesWithdrawn","type":"event"},{"anonymous":false,"inputs":[{"indexed":true,"internalType":"uint256","name":"tournamentId","type":"uint256"},{"indexed":false,"internalType":"uint256","name":"position","type":"uint256"},{"indexed":false,"internalType":"address","name":"winner","type":"address"},{"indexed":false,"internalType":"uint256","name":"amount","type":"uint256"}],"name":"RewardClaimed","type":"event"},{"anonymous":false,"inputs":[{"indexed":true,"internalType":"uint256","name":"tournamentId","type":"uint256"}],"name":"TournamentCancelled","type":"event"},{"anonymous":false,"inputs":[{"indexed":true,"internalType":"uint256","name":"tournamentId","type":"uint256"},{"indexed":true,"internalType":"address","name":"creator","type":"address"},{"indexed":false,"internalType":"string","name":"name","type":"string"}],"name":"TournamentCreated","type":"event"},{"anonymous":false,"inputs":[{"indexed":true,"internalType":"address","name":"implementation","type":"address"}],"name":"Upgraded","type":"event"},{"anonymous":false,"inputs":[{"indexed":true,"internalType":"uint256","name":"tournamentId","type":"uint256"},{"indexed":false,"internalType":"uint256","name":"position","type":"uint256"},{"indexed":false,"internalType":"address","name":"winner","type":"address"}],"name":"WinnerDeclared","type":"event"},{"inputs":[],"name":"MAX_WINNER_POSITIONS","outputs":[{"internalType":"uint256","name":"","type":"uint256"}],"stateMutability":"view","type":"function"},{"inputs":[],"name":"MIN_REGISTRATION_PERIOD","outputs":[{"internalType":"uint256","name":"","type":"uint256"}],"stateMutability":"view","type":"function"},{"inputs":[],"name":"PERCENTAGE_BASE","outputs":[{"internalType":"uint256","name":"","type":"uint256"}],"stateMutability":"view","type":"function"},{"inputs":[],"name":"PLATFORM_FEE_PERCENTAGE","outputs":[{"internalType":"uint256","name":"","type":"uint256"}],"stateMutability":"view","type":"function"},{"inputs":[],"name":"UPGRADE_INTERFACE_VERSION","outputs":[{"internalType":"string","name":"","type":"string"}],"stateMutability":"view","type":"function"},{"inputs":[{"internalType":"uint256","name":"tournamentId","type":"uint256"}],"name":"cancelTournament","outputs":[],"stateMutability":"nonpayable","type":"function"},{"inputs":[{"internalType":"uint256","name":"tournamentId","type":"uint256"}],"name":"claimEntryFeeRefund","outputs":[],"stateMutability":"nonpayable","type":"function"},{"inputs":[{"internalType":"uint256","name":"tournamentId","type":"uint256"},{"internalType":"uint256","name":"position","type":"uint256"}],"name":"claimReward","outputs":[],"stateMutability":"nonpayable","type":"function"},{"inputs":[{"internalType":"string","name":"name","type":"string"},{"internalType":"string","name":"description","type":"string"},{"internalType":"string","name":"gameId","type":"string"},{"internalType":"uint256","name":"maxParticipants","type":"uint256"},{"internalType":"uint256","name":"registrationEndTime","type":"uint256"},{"internalType":"uint256","name":"startTime","type":"uint256"},{"internalType":"address","name":"rewardTokenAddress","type":"address"},{"internalType":"uint256[]","name":"positionRewardAmounts","type":"uint256[]"}],"name":"createTournament","outputs":[{"internalType":"uint256","name":"","type":"uint256"}],"stateMutability":"payable","type":"function"},{"inputs":[{"internalType":"string","name":"name","type":"string"},{"internalType":"string","name":"description","type":"string"},{"internalType":"string","name":"gameId","type":"string"},{"internalType":"uint256","name":"maxParticipants","type":"uint256"},{"internalType":"uint256","name":"registrationEndTime","type":"uint256"},{"internalType":"uint256","name":"startTime","type":"uint256"},{"internalType":"address","name":"rewardTokenAddress","type":"address"},{"internalType":"uint256[]","name":"positionRewardAmounts","type":"uint256[]"},{"internalType":"address","name":"entryFeeTokenAddress","type":"address"},{"internalType":"uint256","name":"entryFeeAmount","type":"uint256"}],"name":"createTournamentWithEntryFee","outputs":[{"internalType":"uint256","name":"","type":"uint256"}],"stateMutability":"payable","type":"function"},{"inputs":[{"internalType":"uint256","name":"tournamentId","type":"uint256"},{"internalType":"uint256","name":"position","type":"uint256"},{"internalType":"address","name":"winner","type":"address"}],"name":"declareWinner","outputs":[],"stateMutability":"nonpayable","type":"function"},{"inputs":[{"internalType":"uint256","name":"tournamentId","type":"uint256"},{"internalType":"uint256[]","name":"positions","type":"uint256[]"},{"internalType":"address[]","name":"winners","type":"address[]"}],"name":"declareWinners","outputs":[],"stateMutability":"nonpayable","type":"function"},{"inputs":[{"internalType":"uint256","name":"tournamentId","type":"uint256"}],"name":"distributeEntryFees","outputs":[],"stateMutability":"nonpayable","type":"function"},{"inputs":[{"internalType":"uint256","name":"","type":"uint256"},{"internalType":"address","name":"","type":"address"}],"name":"entryFeesPaid","outputs":[{"internalType":"uint256","name":"","type":"uint256"}],"stateMutability":"view","type":"function"},{"inputs":[{"internalType":"uint256","name":"tournamentId","type":"uint256"},{"internalType":"address","name":"participant","type":"address"}],"name":"getEntryFeePaid","outputs":[{"internalType":"uint256","name":"","type":"uint256"}],"stateMutability":"view","type":"function"},{"inputs":[{"internalType":"uint256","name":"tournamentId","type":"uint256"},{"internalType":"uint256","name":"position","type":"uint256"}],"name":"getPositionInfo","outputs":[{"internalType":"uint256","name":"rewardAmount","type":"uint256"},{"internalType":"address","name":"winner","type":"address"},{"internalType":"bool","name":"claimed","type":"bool"}],"stateMutability":"view","type":"function"},{"inputs":[{"internalType":"uint256","name":"tournamentId","type":"uint256"}],"name":"getPositionRewardAmounts","outputs":[{"internalType":"uint256[]","name":"","type":"uint256[]"}],"stateMutability":"view","type":"function"},{"inputs":[{"internalType":"uint256","name":"tournamentId","type":"uint256"}],"name":"getTournamentInfo","outputs":[{"internalType":"address","name":"creator","type":"address"},{"internalType":"string","name":"name","type":"string"},{"internalType":"string","name":"description","type":"string"},{"internalType":"string","name":"gameId","type":"string"},{"internalType":"uint256","name":"maxParticipants","type":"uint256"},{"internalType":"uint256","name":"createdAt","type":"uint256"},{"internalType":"uint256","name":"startTime","type":"uint256"},{"internalType":"uint256","name":"registrationEndTime","type":"uint256"},{"internalType":"bool","name":"isActive","type":"bool"},{"internalType":"address","name":"rewardTokenAddress","type":"address"},{"internalType":"uint256","name":"totalRewardAmount","type":"uint256"},{"internalType":"uint256","name":"positionCount","type":"uint256"},{"internalType":"bool","name":"hasEntryFee","type":"bool"},{"internalType":"address","name":"entryFeeTokenAddress","type":"address"},{"internalType":"uint256","name":"entryFeeAmount","type":"uint256"},{"internalType":"bool","name":"feesDistributed","type":"bool"},{"internalType":"uint256","name":"participantCount","type":"uint256"}],"stateMutability":"view","type":"function"},{"inputs":[],"name":"initialize","outputs":[],"stateMutability":"nonpayable","type":"function"},{"inputs":[{"internalType":"uint256","name":"tournamentId","type":"uint256"},{"internalType":"address","name":"participant","type":"address"}],"name":"isParticipantRegistered","outputs":[{"internalType":"bool","name":"","type":"bool"}],"stateMutability":"view","type":"function"},{"inputs":[],"name":"nextTournamentId","outputs":[{"internalType":"uint256","name":"","type":"uint256"}],"stateMutability":"view","type":"function"},{"inputs":[],"name":"owner","outputs":[{"internalType":"address","name":"","type":"address"}],"stateMutability":"view","type":"function"},{"inputs":[{"internalType":"address","name":"","type":"address"}],"name":"platformFees","outputs":[{"internalType":"uint256","name":"","type":"uint256"}],"stateMutability":"view","type":"function"},{"inputs":[],"name":"proxiableUUID","outputs":[{"internalType":"bytes32","name":"","type":"bytes32"}],"stateMutability":"view","type":"function"},{"inputs":[{"internalType":"uint256","name":"tournamentId","type":"uint256"}],"name":"registerForTournament","outputs":[],"stateMutability":"nonpayable","type":"function"},{"inputs":[{"internalType":"uint256","name":"tournamentId","type":"uint256"}],"name":"registerWithEntryFee","outputs":[],"stateMutability":"payable","type":"function"},{"inputs":[],"name":"renounceOwnership","outputs":[],"stateMutability":"nonpayable","type":"function"},{"inputs":[{"internalType":"uint256","name":"","type":"uint256"}],"name":"tournaments","outputs":[{"internalType":"uint256","name":"id","type":"uint256"},{"internalType":"address","name":"creator","type":"address"},{"internalType":"string","name":"name","type":"string"},{"internalType":"string","name":"description","type":"string"},{"internalType":"string","name":"gameId","type":"string"},{"internalType":"uint256","name":"maxParticipants","type":"uint256"},{"internalType":"uint256","name":"createdAt","type":"uint256"},{"internalType":"uint256","name":"startTime","type":"uint256"},{"internalType":"uint256","name":"registrationEndTime","type":"uint256"},{"internalType":"bool","name":"isActive","type":"bool"},{"internalType":"address","name":"rewardTokenAddress","type":"address"},{"internalType":"uint256","name":"totalRewardAmount","type":"uint256"},{"internalType":"bool","name":"hasEntryFee","type":"bool"},{"internalType":"address","name":"entryFeeTokenAddress","type":"address"},{"internalType":"uint256","name":"entryFeeAmount","type":"uint256"},{"internalType":"bool","name":"feesDistributed","type":"bool"},{"internalType":"uint256","name":"participantCount","type":"uint256"}],"stateMutability":"view","type":"function"},{"inputs":[{"internalType":"address","name":"newOwner","type":"address"}],"name":"transferOwnership","outputs":[],"stateMutability":"nonpayable","type":"function"},{"inputs":[{"internalType":"address","name":"newImplementation","type":"address"},{"internalType":"bytes","name":"data","type":"bytes"}],"name":"upgradeToAndCall","outputs":[],"stateMutability":"payable","type":"function"},{"inputs":[{"internalType":"address","name":"tokenAddress","type":"address"}],"name":"withdrawPlatformFees","outputs":[],"stateMutability":"nonpayable","type":"function"}],"evm":{"bytecode":{"linkReferences":{},"object":"60a08060405234620000d157306080527ff0c57e16840df040f15088dc2f81fe391c3923bec73e23a9662efc9c229c6a009081549060ff8260401c16620000c257506001600160401b036002600160401b0319828216016200007c575b60405161391f9081620000d7823960805181818161190101526119ba0152f35b6001600160401b031990911681179091556040519081527fc7f505b2f371ae2175ee4913f4499e1f2633a7b5936321eed1cdaeb6115181d290602090a13880806200005c565b63f92ee8a960e01b8152600490fd5b600080fdfe608080604052600436101561001357600080fd5b600090813560e01c908163155482321461208d575080633243223314611d6757806332e8bc7214611d2e578063334f7deb14611c185780633d1f643814611b755780634f1ef2861461196b57806352d1902d146118ee578063564d6579146118d25780635909eccd146115625780635c3977a2146114a057806366025a7e1461123f57806367e820ad146111b3578063715018a6146111495780637503e1b7146110025780638129fc1c14610ea8578063852efc3d14610e8a57806386bb8f3714610b9157806387c1394314610b745780638da5cb5b14610b3e5780639ee5f60014610afa578063ad3cb1cc14610a8a578063c00b69fe14610a6d578063c56aab81146108a9578063cac766d214610742578063cb84e537146106e2578063d533344f1461063a578063dcc0463a146105e1578063ec3889b514610452578063f2fde38b14610425578063f37aa5091461036e5763f40668691461017657600080fd5b61014036600319011261036b576001600160401b0390600435828111610367576101a4903690600401612178565b91602435818111610363576101bd903690600401612178565b60443582811161035f576101d5903690600401612178565b906101de6120c3565b9260e43590811161035b576101f79036906004016121ad565b61010435936001600160a01b0385169384860361035757610124359461021b6124c2565b8515610312576102a7575b9260209760409361024a93600d97963494339460a435926084359260643592612572565b8086528587529420600b810180546001600160a81b03191660089590951b610100600160a81b03169490941760011790935560ff199290600c8201550190815416905560016000805160206138aa83398151915255604051908152f35b90919392853b156102bb5792939190610226565b60405162461bcd60e51b815260206004820152602960248201527f456e7472792066656520746f6b656e2061646472657373206973206e6f7420616044820152680818dbdb9d1c9858dd60ba1b6064820152608490fd5b60405162461bcd60e51b815260206004820152601a60248201527f456e74727920666565206d75737420626520706f7369746976650000000000006044820152606490fd5b8680fd5b8480fd5b8380fd5b8280fd5b5080fd5b80fd5b503461036b576020806003193601126103675760043580835282825261039981604085205414613026565b8252818152600e604083200160405192838383549182815201908193835284832090835b81811061041157505050846103d39103856120ef565b60405193838594850191818652518092526040850193925b8281106103fa57505050500390f35b8351855286955093810193928101926001016103eb565b8254845292860192600192830192016103bd565b503461036b57602036600319011261036b5761044f6104426120a8565b61044a612341565b61237a565b80f35b503461036b576020806003193601126103675761046d6120a8565b90610476612341565b61047e6124c2565b6001600160a01b0391821680845260038252604084205492909190831561058e578285526003825284604081205560008051602061388a833981519152541692821560001461055b578480808084885af16104d76123ee565b501561051d57907fc0f01729b0d2f4ee8f47286e5cf926377eab5d6e58a981836e2f30705db2362c915b604051908152a360016000805160206138aa8339815191525580f35b60405162461bcd60e51b815260048101839052601660248201527513985d1a5d99481d1c985b9cd9995c8819985a5b195960521b6044820152606490fd5b90816105897fc0f01729b0d2f4ee8f47286e5cf926377eab5d6e58a981836e2f30705db2362c93868661359a565b610501565b60405162461bcd60e51b815260048101839052602560248201527f4e6f206665657320746f2077697468647261772066726f6d2074686973206d616044820152647070696e6760d81b6064820152608490fd5b503461036b57604036600319011261036b5760406020916004356106036120d9565b90808352828552610618818585205414613026565b8252600284528282206001600160a01b03909116825283522054604051908152f35b503461036b57606036600319011261036b576001600160a01b03604435600435828216820361035f576106b96106cd936106726124c2565b8286528560205261068883604088205414613026565b828652856020526106a260ff600960408920015416613072565b8286528560205260016040872001541633146135e9565b8084528360205260243590604085206136bf565b60016000805160206138aa8339815191525580f35b503461036b57604036600319011261036b5760ff60406020926004356107066120d9565b9080835282865261071b818585205414613026565b82528185528282206001600160a01b03909116825260120184522054604051911615158152f35b503461036b57602036600319011261036b57600435808252816020528060408320541461076e90613026565b81528060205260409020600160a01b600190036001820154169060058101546006820154600783015460088401546009850154600a860154600e87015490600b88015492600c89015494600d8a015460ff169660118b01549860028c016107d49061225b565b9b6107e16003820161225b565b906004016107ee9061225b565b906040519e8f9e8f918252610220806020840152820161080d91612301565b90808203906040015261081f91612301565b8d810360608f015261083091612301565b9a60808d015260a08c015260c08b015260e08a015260ff811615156101008a0152600160a01b600190039060081c1661012089015261014088015261016087015260ff81161515610180870152600160a01b600190039060081c166101a08601526101c085015215156101e08401526102008301520390f35b503461036b57606036600319011261036b576004356001600160401b0360243581811161035f576108de9036906004016121ad565b9060443590811161035f573660238201121561035f5780600401359261090384612196565b9161091160405193846120ef565b84835260209460248685019160051b83010191368311610a6957602401905b828210610a46575050506109426124c2565b80855284845261095781604087205414613026565b80855284845261097060ff600960408820015416613072565b80855284845260018060a01b03600194610993828760408a2001541633146135e9565b8451845103610a09579086839287959482525260408720948488905b6109c9575b88866000805160206138aa8339815191525580f35b8151811015610a0457806109f96109e36109fe9385612524565b51856109ef848a612524565b511690878b6136bf565b612515565b856109af565b6109b4565b6064906040519062461bcd60e51b825260048201526016602482015275082e4e4c2f2e640d8cadccee8d040dad2e6dac2e8c6d60531b6044820152fd5b81356001600160a01b0381168103610a65578152908601908601610930565b8880fd5b8780fd5b503461036b578060031936011261036b576020604051610e108152f35b503461036b578060031936011261036b57604051604081018181106001600160401b03821117610ae657610ae2925060405260058152640352e302e360dc1b6020820152604051918291602083526020830190612301565b0390f35b634e487b7160e01b83526041600452602483fd5b503461036b57604036600319011261036b576040602091610b196120d9565b6004358252600284528282206001600160a01b03909116825283522054604051908152f35b503461036b578060031936011261036b5760008051602061388a833981519152546040516001600160a01b039091168152602090f35b503461036b578060031936011261036b5760206040516127108152f35b503461036b57610ba03661220b565b610ba86124c2565b8183526020838152610bbf83604086205414613026565b828452838152610bd860ff600960408720015416613072565b8284528381526040842090600e8201610bf38154851061362e565b6010830190848752818352610c0f60ff60408920541615613673565b848752600f8401835260408720546001600160a01b0392903390841603610e475785600992610c5192828b52865260408a20600160ff19825416179055613871565b90549060031b1c93015460081c168015600014610d805750814710610d36578480808085335af1610c806123ee565b5015610cf2575b60018301809311610cde57916060917fa8325f46ec9623d7ced8f695ff820511a4acef4f5d5c4933bd5d992141a2b9059360405192835233908301526040820152a260016000805160206138aa8339815191525580f35b634e487b7160e01b85526011600452602485fd5b6064906040519062461bcd60e51b82526004820152601d60248201527f4e617469766520726577617264207472616e73666572206661696c65640000006044820152fd5b6084906040519062461bcd60e51b82526004820152602f60248201526000805160206138ca83398151915260448201526e1c881b985d1a5d99481c995dd85c99608a1b6064820152fd5b6040516370a0823160e01b81523060048201528281602481855afa8015610e3c5784918891610e0b575b5010610dc15782610dbc91339061359a565b610c87565b60405162461bcd60e51b815260048101839052602e60248201526000805160206138ca83398151915260448201526d1c881d1bdad95b881c995dd85c9960921b6064820152608490fd5b809250848092503d8311610e35575b610e2481836120ef565b810103126103575783905138610daa565b503d610e1a565b6040513d89823e3d90fd5b6064846040519062461bcd60e51b825280600483015260248201527f4e6f74207468652077696e6e657220666f72207468697320706f736974696f6e6044820152fd5b503461036b578060031936011261036b576020600154604051908152f35b503461036b578060031936011261036b577ff0c57e16840df040f15088dc2f81fe391c3923bec73e23a9662efc9c229c6a0080549060ff8260401c16156001600160401b03831692831580610ffb575b60018095149081610ff1575b159081610fe8575b50610fd65767ffffffffffffffff1981168417835581610fb7575b50610f30612481565b610f38612481565b610f413361237a565b610f49612481565b610f51612481565b826000805160206138aa83398151915255610f6a612481565b828055610f75578280f35b805468ff0000000000000000191690556040519081527fc7f505b2f371ae2175ee4913f4499e1f2633a7b5936321eed1cdaeb6115181d290602090a138808280f35b68ffffffffffffffffff19166801000000000000000117825538610f27565b60405163f92ee8a960e01b8152600490fd5b90501538610f0c565b303b159150610f04565b5081610ef8565b503461036b57602036600319011261036b576004358152602081905260409020805460018201546001600160a01b03169161103f6002820161225b565b61104b6003830161225b565b916110586004820161225b565b92600582015493600683015460078401546008850154600986015491600a87015493600b88015495600c89015497600d8a015460ff1699601101549a6040519e8f9e8f908152602001528d61022090816040820152016110b791612301565b8d810360608f01526110c891612301565b8c810360808e01526110d991612301565b60a08c019a909a5260c08b015260e08a015261010089015260ff81811615156101208a01526001600160a01b03600892831c81166101408b01526101608a0193909352831615156101808901529190911c166101a08601526101c085015215156101e08401526102008301520390f35b503461036b578060031936011261036b57611162612341565b60008051602061388a83398151915280546001600160a01b0319811690915581906001600160a01b03167f8be0079c531659141344cd1fd0a4f28419497f9722a3daafe3b4186f6b6457e08280a380f35b503461036b576060906111c53661220b565b90808352826020526111dc81604085205414613026565b8252816020526040822060ff604061120384600e85016111fe8154831061362e565b613871565b959054948152600f8401602052601060018060a01b0383832054169401602052205416916040519360031b1c8352602083015215156040820152f35b506020908160031936011261036b576004356112596124c2565b80825281835261126e81604084205414613026565b80825281835261128760ff600960408520015416613072565b808252818352604082206112a160088201544211156130b6565b600b81015460ff8116156114505760128201903385528186526112cb60ff60408720541615613102565b60058301548061143b575b5060081c6001600160a01b0316806113bb5750600c820154340361136c5760119293945b600c8301548587526002825260408720338852825260408720555260408420600160ff198254161790550161132f8154612515565b905533907f78337b3a0cfc36faafab5a292dc7571f6bd68ba681c22e15c97b1e3469b51a028380a360016000805160206138aa8339815191525580f35b60405162461bcd60e51b815260048101869052602160248201527f496e636f7272656374206e617469766520656e7472792066656520616d6f756e6044820152601d60fa1b6064820152608490fd5b346113dd57946113d86011949596600c8501549030903390612f50565b6112fa565b60405162461bcd60e51b815260048101879052603060248201527f446f206e6f742073656e64206e61746976652063757272656e6379207769746860448201526f20746f6b656e20656e7472792066656560801b6064820152608490fd5b61144a90601185015410613143565b386112d6565b60405162461bcd60e51b815260048101869052602260248201527f546f75726e616d656e7420646f6573206e6f74206861766520656e7472792066604482015261656560f01b6064820152608490fd5b5061010036600319011261036b576001600160401b03600435818111610363576114ce903690600401612178565b9060243581811161035f576114e7903690600401612178565b9260443582811161036757611500903690600401612178565b916115096120c3565b9160e43591821161036b5760206115488787878761152a3660048a016121ad565b916115336124c2565b3494339460a435926084359260643592612572565b60016000805160206138aa83398151915255604051908152f35b503461036b57602080600319360112610367576004356115806124c2565b80835282825261159581604085205414613026565b808352828252604083209160ff60098401541661188e5760ff600d600b8501946115c183875416613184565b015416611839578184526002815260408420338552815260408420549283156117e657828552600282526040808620338752835285208590555460081c6001600160a01b0316806116f957508247106116af578380808086335af16116246123ee565b501561166b577f2d8fea80d3388cba87acc61459012ecef6c1a5470a1fa4e698333e2335158b58905b6040519384523393a360016000805160206138aa8339815191525580f35b6064906040519062461bcd60e51b82526004820152601e60248201527f4e617469766520656e7472792066656520726566756e64206661696c656400006044820152fd5b6084906040519062461bcd60e51b82526004820152602f60248201526000805160206138ca83398151915260448201526e1c881b985d1a5d99481c99599d5b99608a1b6064820152fd5b6040516370a0823160e01b81523060048201528281602481855afa80156117db57859187916117a6575b501061175c5790611757847f2d8fea80d3388cba87acc61459012ecef6c1a5470a1fa4e698333e2335158b5893339061359a565b61164d565b60405162461bcd60e51b815260048101839052602e60248201526000805160206138ca83398151915260448201526d1c881d1bdad95b881c99599d5b9960921b6064820152608490fd5b809250848092503d83116117d4575b6117bf81836120ef565b810103126117d05784905138611723565b8580fd5b503d6117b5565b6040513d88823e3d90fd5b60405162461bcd60e51b815260048101839052602560248201527f4e6f20656e747279206665652070616964206f7220616c7265616479207265666044820152641d5b99195960da1b6064820152608490fd5b6084906040519062461bcd60e51b82526004820152602860248201527f4665657320616c7265616479206469737472696275746564202863616e6e6f7460448201526720726566756e642960c01b6064820152fd5b6064906040519062461bcd60e51b82526004820152601860248201527f546f75726e616d656e74206e6f742063616e63656c6c656400000000000000006044820152fd5b503461036b578060031936011261036b576020604051600a8152f35b503461036b578060031936011261036b577f00000000000000000000000000000000000000000000000000000000000000006001600160a01b031630036119595760206040517f360894a13ba1a3210667c828492db98dca3e2076cc3735a920a3ca505d382bbc8152f35b60405163703e46dd60e11b8152600490fd5b50604036600319011261036b576119806120a8565b6024356001600160401b0381116103635736602382011215610363576119b0903690602481600401359101612141565b6001600160a01b037f00000000000000000000000000000000000000000000000000000000000000008116308114908115611b47575b50611959576119f3612341565b8216916040516352d1902d60e01b8152602081600481875afa859181611b14575b50611a3257604051634c9c8ce360e01b815260048101859052602490fd5b9284937f360894a13ba1a3210667c828492db98dca3e2076cc3735a920a3ca505d382bbc90818103611afc5750823b15611ae35780546001600160a01b0319168217905560405184917fbc7cd75a20ee27fd9adebab32041f755214dbc6bffa90cc0225b39da2e5c2d3b8380a2835115611ac7575080836020611ac395519101845af4611abd6123ee565b9161241e565b5080f35b9250505034611ad4575080f35b63b398979f60e01b8152600490fd5b604051634c9c8ce360e01b815260048101839052602490fd5b60249060405190632a87526960e21b82526004820152fd5b9091506020813d8211611b3f575b81611b2f602093836120ef565b810103126117d057519038611a14565b3d9150611b22565b9050817f360894a13ba1a3210667c828492db98dca3e2076cc3735a920a3ca505d382bbc54161415386119e6565b503461036b57602036600319011261036b57600435611b926124c2565b80825281602052611ba881604084205414613026565b8082528160205260408220906008820154421115611bc9576106cd916131d0565b60405162461bcd60e51b815260206004820152602160248201527f526567697374726174696f6e20706572696f64206e6f7420656e6465642079656044820152601d60fa1b6064820152608490fd5b503461036b576020806003193601126103675760043590611c376124c2565b818352828152611c4c82604085205414613026565b818352828152611c6560ff600960408620015416613072565b8183528281526040832090611c8060088301544211156130b6565b60ff600b83015416611cea57906011916012820190338652818152611cac60ff60408820541615613102565b600583015480611cd6575b503386525260408420600160ff198254161790550161132f8154612515565b611ce4908585015410613143565b38611cb7565b6064906040519062461bcd60e51b82526004820152601d60248201527f546f75726e616d656e7420726571756972657320656e747279206665650000006044820152fd5b503461036b57602036600319011261036b576020906040906001600160a01b03611d566120a8565b168152600383522054604051908152f35b503461036b576020806003193601126103675760043590611d866124c2565b818352828152611d9b82604085205414613026565b81835282815260ff611db581600960408720015416613072565b82845283825260408420600101546001600160a01b0390611dd990821633146135e9565b8385528483526040852090600982019182549260ff198416905586938790600e8301805491600f8501905b838510611ff957505050505083611e51575b86867ffa61ec8d7e5a58ceba17772b10ba0c6caa65b40b200302be35f00efc264c78958280a260016000805160206138aa8339815191525580f35b6001015481169160081c1680611f305750814710611ede578480809381935af1611e796123ee565b5015611e8b57505b3880808080611e16565b6084906040519062461bcd60e51b82526004820152602660248201527f4e61746976652072657761726420726566756e6420746f2063726561746f722060448201526519985a5b195960d21b6064820152fd5b60405162461bcd60e51b815260048101849052603660248201526000805160206138ca8339815191526044820152751c881b985d1a5d99481c995dd85c99081c99599d5b9960521b6064820152608490fd5b6040516370a0823160e01b8152306004820152939594938681602481855afa9081156117db579084918791611fc8575b5010611f7757611f729394955061359a565b611e81565b60405162461bcd60e51b815260048101879052603560248201526000805160206138ca8339815191526044820152741c881d1bdad95b881c995dd85c99081c99599d5b99605a1b6064820152608490fd5b809250888092503d8311611ff2575b611fe181836120ef565b810103126117d05783905138611f60565b503d611fd7565b9091929397888c52828a528660408d205416151580612079575b156120455761203661203c916120298b87613871565b90549060031b1c9061254e565b98612515565b93929190611e04565b97828a528660408d2054161561205f575b61203c90612515565b9761207161203c916120298b87613871565b989050612056565b50601086018a528160408d20541615612013565b9050346103675781600319360112610367578060fa60209252f35b600435906001600160a01b03821682036120be57565b600080fd5b60c435906001600160a01b03821682036120be57565b602435906001600160a01b03821682036120be57565b90601f801991011681019081106001600160401b0382111761211057604052565b634e487b7160e01b600052604160045260246000fd5b6001600160401b03811161211057601f01601f191660200190565b92919261214d82612126565b9161215b60405193846120ef565b8294818452818301116120be578281602093846000960137010152565b9080601f830112156120be5781602061219393359101612141565b90565b6001600160401b0381116121105760051b60200190565b81601f820112156120be578035916121c483612196565b926121d260405194856120ef565b808452602092838086019260051b8201019283116120be578301905b8282106121fc575050505090565b813581529083019083016121ee565b60409060031901126120be576004359060243590565b90600182811c92168015612251575b602083101461223b57565b634e487b7160e01b600052602260045260246000fd5b91607f1691612230565b906040519182600082549261226f84612221565b9081845260019485811690816000146122de575060011461229b575b5050612299925003836120ef565b565b9093915060005260209081600020936000915b8183106122c65750506122999350820101388061228b565b855488840185015294850194879450918301916122ae565b91505061229994506020925060ff191682840152151560051b820101388061228b565b919082519283825260005b84811061232d575050826000602080949584010152601f8019910116010190565b60208183018101518483018201520161230c565b60008051602061388a833981519152546001600160a01b0316330361236257565b60405163118cdaa760e01b8152336004820152602490fd5b6001600160a01b039081169081156123d55760008051602061388a83398151915280546001600160a01b031981168417909155167f8be0079c531659141344cd1fd0a4f28419497f9722a3daafe3b4186f6b6457e0600080a3565b604051631e4fbdf760e01b815260006004820152602490fd5b3d15612419573d906123ff82612126565b9161240d60405193846120ef565b82523d6000602084013e565b606090565b90612445575080511561243357805190602001fd5b604051630a12f52160e11b8152600490fd5b81511580612478575b612456575090565b604051639996b31560e01b81526001600160a01b039091166004820152602490fd5b50803b1561244e565b60ff7ff0c57e16840df040f15088dc2f81fe391c3923bec73e23a9662efc9c229c6a005460401c16156124b057565b604051631afcd79f60e31b8152600490fd5b6000805160206138aa83398151915260028154146124e05760029055565b604051633ee5aeb560e01b8152600490fd5b919082039182116124ff57565b634e487b7160e01b600052601160045260246000fd5b60001981146124ff5760010190565b80518210156125385760209160051b010190565b634e487b7160e01b600052603260045260246000fd5b919082018092116124ff57565b818110612566575050565b6000815560010161255b565b9298919697939995909499835115612f1457885115612ed757600a895111612e925742811115612e3957808b1115612ddd57610e106125b1828d6124f2565b10612d985760009a8b5b8a518d101561263d576125ce8d8c612524565b51156125f8576125ec6125f2916125e58f8e612524565b519061254e565b9c612515565b9b6125bb565b60405162461bcd60e51b815260206004820152601e60248201527f52657761726420616d6f756e74206d75737420626520706f73697469766500006044820152606490fd5b9395989b5090919396999895988315612d53576001600160a01b0395849086881680612b50575003612aff575b600154996126778b612515565b6001558a60005260006020526040600020968b8855600188019a16998a6bffffffffffffffffffffffff60a01b82541617905588516001600160401b038111612110576126c76002890154612221565b601f8111612aca575b50806020601f8211600114612a5c57600091612a51575b508160011b916000199060031b1c19161760028801555b8051906001600160401b03821161211057819061271e60038a0154612221565b601f8111612a1c575b50602090601f83116001146129aa5760009261299f575b50508160011b916000199060031b1c19161760038701555b8b516001600160401b038111612110576127736004880154612221565b601f811161295f575b506020601f82116001146128e4578190600e999a9b9c9d9e6000926128d9575b50508160011b916000199060031b1c19161760048701555b600586015542600686015560078501556008808501919091556009840180546001600160a81b0319169390911b610100600160a81b03169290921760011790915560ff1990600a830155600b82018181541690556001600d830191825416179055018151916001600160401b038311612110576801000000000000000083116121105760209082548484558085106128bc575b509086949392910190600052602060002060005b8381106128a5575050505061289f7fbd34ba7c23e010b2fa639a38c057cf452062c6645a1c102adbee46d0b37b866991604051918291602083526020830190612301565b0390a390565b82518183015587955060209092019160010161285b565b6128d390846000528584600020918201910161255b565b38612847565b01519050388061279c565b6004880160005260206000209d60005b601f198416811061294257509d8291600e9a9b9c9d9e9f600194601f19811610612929575b505050811b0160048701556127b4565b015160001960f88460031b161c19169055388080612919565b909e8f60016020928584930151815501930191019e90919e6128f4565b61298f90600489016000526020600020601f840160051c81019160208510612995575b601f0160051c019061255b565b3861277c565b9091508190612982565b01519050388061273e565b9250600389016000526020600020906000935b601f1984168510612a01576001945083601f198116106129e8575b505050811b016003870155612756565b015160001960f88460031b161c191690553880806129d8565b818101518355602094850194600190930192909101906129bd565b612a4b9060038b016000526020600020601f850160051c8101916020861061299557601f0160051c019061255b565b38612727565b90508a0151386126e7565b91506002890160005260206000206000925b8c601f1984168510612ab357506001935082601f19811610612a9a575b5050811b0160028801556126fe565b8c015160001960f88460031b161c191690553880612a8b565b810151825560209384019360019092019101612a6e565b612af99060028a016000526020600020601f840160051c8101916020851061299557601f0160051c019061255b565b386126d0565b60405162461bcd60e51b815260206004820152602360248201527f496e636f7272656374206e61746976652072657761726420616d6f756e742073604482015262195b9d60ea1b6064820152608490fd5b9150612cf757853b15612ca3576040516370a0823160e01b808252306004830152602092918381602481865afa918215612c5d57888e8693600095612c69575b5090612b9e91309087612f50565b60246040518095819382523060048301525afa8015612c5d578792600091612c29575b5090612bcc916124f2565b03612bd7575061266a565b6084906040519062461bcd60e51b82526004820152602560248201527f52657761726420746f6b656e207472616e7366657220616d6f756e74206d69736044820152640dac2e8c6d60db1b6064820152fd5b9192508382813d8311612c56575b612c4181836120ef565b8101031261036b575051869190612bcc612bc1565b503d612c37565b6040513d6000823e3d90fd5b938092508491509492943d8311612c9c575b612c8581836120ef565b8101031261036b575051908390888e612b9e612b90565b503d612c7b565b60405162461bcd60e51b815260206004820152602660248201527f52657761726420746f6b656e2061646472657373206973206e6f74206120636f6044820152651b9d1c9858dd60d21b6064820152608490fd5b60405162461bcd60e51b815260206004820152602e60248201527f446f206e6f742073656e64206e61746976652063757272656e6379207769746860448201526d20746f6b656e207265776172647360901b6064820152608490fd5b60405162461bcd60e51b815260206004820152601d60248201527f546f74616c20726577617264206d75737420626520706f7369746976650000006044820152606490fd5b60405162461bcd60e51b815260206004820152601d60248201527f526567697374726174696f6e20706572696f6420746f6f2073686f72740000006044820152606490fd5b60405162461bcd60e51b815260206004820152602e60248201527f53746172742074696d65206d757374206265206166746572207265676973747260448201526d6174696f6e20656e642074696d6560901b6064820152608490fd5b60405162461bcd60e51b815260206004820152602b60248201527f526567697374726174696f6e20656e642074696d65206d75737420626520696e60448201526a207468652066757475726560a81b6064820152608490fd5b60405162461bcd60e51b815260206004820152601c60248201527f45786365656473206d61782077696e6e657220706f736974696f6e73000000006044820152606490fd5b60405162461bcd60e51b8152602060048201526015602482015274139bc81c1bdcda5d1a5bdb9cc81c1c9bdd9a591959605a1b6044820152606490fd5b60405162461bcd60e51b81526020600482015260146024820152734e616d652063616e6e6f7420626520656d70747960601b6044820152606490fd5b6040516323b872dd60e01b60208201526001600160a01b03928316602482015292909116604483015260648083019390935291815260a08101918183106001600160401b0384111761211057612299926040525b60018060a01b031690612fce600080836020829551910182875af1612fc76123ee565b908461241e565b908151918215159283612ffe575b505050612fe65750565b60249060405190635274afe760e01b82526004820152fd5b81929350906020918101031261036757602001519081159182150361036b5750388080612fdc565b1561302d57565b60405162461bcd60e51b815260206004820152601960248201527f546f75726e616d656e7420646f6573206e6f74206578697374000000000000006044820152606490fd5b1561307957565b60405162461bcd60e51b8152602060048201526015602482015274546f75726e616d656e74206e6f742061637469766560581b6044820152606490fd5b156130bd57565b60405162461bcd60e51b815260206004820152601960248201527f526567697374726174696f6e20706572696f6420656e646564000000000000006044820152606490fd5b1561310957565b60405162461bcd60e51b8152602060048201526012602482015271105b1c9958591e481c9959da5cdd195c995960721b6044820152606490fd5b1561314a57565b60405162461bcd60e51b8152602060048201526012602482015271151bdd5c9b985b595b9d081a5cc8199d5b1b60721b6044820152606490fd5b1561318b57565b60405162461bcd60e51b815260206004820152601b60248201527f546f75726e616d656e7420686173206e6f20656e7472792066656500000000006044820152606490fd5b90600d820180549260ff84166135555760ff600982015416156134f857600b8101546131fe60ff8216613184565b601182015494600c830154958681029681880414901517156124ff5785156134e8575060fa850285810460fa036124ff5761271090049461323f86826124f2565b60008051602061388a8339815191525490926001600160a01b0392918316919060081c8316806133e45750471061338b5760009081808080878760018b0154165af16132896123ee565b50156133385781808981935af161329e6123ee565b50156132e75760016040937f48111311b30366b1c196f3a6a4818d02a01c7fcb89bc97023643c5e27c5df6cb955b8260ff198254161790550154169482519182526020820152a3565b60405162461bcd60e51b815260206004820152602360248201527f4e617469766520666565207472616e7366657220746f206f776e6572206661696044820152621b195960ea1b6064820152608490fd5b60405162461bcd60e51b815260206004820152602560248201527f4e617469766520666565207472616e7366657220746f2063726561746f722066604482015264185a5b195960da1b6064820152608490fd5b60405162461bcd60e51b815260206004820152603960248201526000805160206138ca83398151915260448201527f72206e61746976652066656520646973747269627574696f6e000000000000006064820152608490fd5b9194906040516370a0823160e01b8152306004820152602081602481875afa908115612c5d576000916134b7575b501061345e577f48111311b30366b1c196f3a6a4818d02a01c7fcb89bc97023643c5e27c5df6cb9561345989604097600195613454898989890154168361359a565b61359a565b6132cc565b60405162461bcd60e51b815260206004820152603860248201526000805160206138ca83398151915260448201527f7220746f6b656e2066656520646973747269627574696f6e00000000000000006064820152608490fd5b906020823d82116134e0575b816134d0602093836120ef565b8101031261036b57505138613412565b3d91506134c3565b60ff191660011790925550505050565b60405162461bcd60e51b815260206004820152602f60248201527f43616e6e6f742064697374726962757465206665657320666f722063616e636560448201526e1b1b1959081d1bdd5c9b985b595b9d608a1b6064820152608490fd5b60405162461bcd60e51b815260206004820152601860248201527f4665657320616c726561647920646973747269627574656400000000000000006044820152606490fd5b60405163a9059cbb60e01b60208201526001600160a01b03909216602483015260448083019390935291815260808101916001600160401b038311828410176121105761229992604052612fa4565b156135f057565b60405162461bcd60e51b81526020600482015260166024820152752737ba103a37bab93730b6b2b73a1031b932b0ba37b960511b6044820152606490fd5b1561363557565b60405162461bcd60e51b8152602060048201526016602482015275092dcecc2d8d2c840e0dee6d2e8d2dedc40d2dcc8caf60531b6044820152606490fd5b1561367a57565b60405162461bcd60e51b815260206004820152601860248201527f506f736974696f6e20616c726561647920636c61696d656400000000000000006044820152606490fd5b939290916136d2600e860154821061362e565b60009481865260206010820181526040936136f360ff868a20541615613673565b6001600160a01b031691821561382d57600781015442106137e9576011810154613782575b838852600f01815283872080546001600160a01b031916831790556001830192831061376e577f8981fdd74bd05da9ef8f2aeb472f541ee871b1e9e3908c19d01a9bf51ce5f7ab949596508351928352820152a2565b634e487b7160e01b87526011600452602487fd5b82885260128101825260ff858920541661371857845162461bcd60e51b815260048101839052602660248201527f57696e6e6572206973206e6f742061207265676973746572656420706172746960448201526518da5c185b9d60d21b6064820152608490fd5b845162461bcd60e51b815260048101839052601e60248201527f546f75726e616d656e7420686173206e6f7420737461727465642079657400006044820152606490fd5b845162461bcd60e51b815260048101839052601d60248201527f57696e6e65722063616e6e6f74206265207a65726f20616464726573730000006044820152606490fd5b8054821015612538576000526020600020019060009056fe9016d09d72d40fdae2fd8ceac6b6234c7706214fd39c1cd1e609a0528c1993009b779b17422d0df92223018b32b4d1fa46e071723d6817e2486d003becc55f00496e73756666696369656e7420636f6e74726163742062616c616e636520666fa264697066735822122037091ca090e9a853c58f04bb4222f881774e009ede0442c142c1c1b160ee37da64736f6c63430008140033","opcodes":"PUSH1 0xA0 DUP1 PUSH1 0x40 MSTORE CALLVALUE PUSH3 0xD1 JUMPI ADDRESS PUSH1 0x80 MSTORE PUSH32 0xF0C57E16840DF040F15088DC2F81FE391C3923BEC73E23A9662EFC9C229C6A00 SWAP1 DUP2 SLOAD SWAP1 PUSH1 0xFF DUP3 PUSH1 0x40 SHR AND PUSH3 0xC2 JUMPI POP PUSH1 0x1 PUSH1 0x1 PUSH1 0x40 SHL SUB PUSH1 0x2 PUSH1 0x1 PUSH1 0x40 SHL SUB NOT DUP3 DUP3 AND ADD PUSH3 0x7C JUMPI JUMPDEST PUSH1 0x40 MLOAD PUSH2 0x391F SWAP1 DUP2 PUSH3 0xD7 DUP3 CODECOPY PUSH1 0x80 MLOAD DUP2 DUP2 DUP2 PUSH2 0x1901 ADD MSTORE PUSH2 0x19BA ADD MSTORE RETURN JUMPDEST PUSH1 0x1 PUSH1 0x1 PUSH1 0x40 SHL SUB NOT SWAP1 SWAP2 AND DUP2 OR SWAP1 SWAP2 SSTORE PUSH1 0x40 MLOAD SWAP1 DUP2 MSTORE PUSH32 0xC7F505B2F371AE2175EE4913F4499E1F2633A7B5936321EED1CDAEB6115181D2 SWAP1 PUSH1 0x20 SWAP1 LOG1 CODESIZE DUP1 DUP1 PUSH3 0x5C JUMP JUMPDEST PUSH4 0xF92EE8A9 PUSH1 0xE0 SHL DUP2 MSTORE PUSH1 0x4 SWAP1 REVERT JUMPDEST PUSH1 0x0 DUP1 REVERT INVALID PUSH1 0x80 DUP1 PUSH1 0x40 MSTORE PUSH1 0x4 CALLDATASIZE LT ISZERO PUSH2 0x13 JUMPI PUSH1 0x0 DUP1 REVERT JUMPDEST PUSH1 0x0 SWAP1 DUP2 CALLDATALOAD PUSH1 0xE0 SHR SWAP1 DUP2 PUSH4 0x15548232 EQ PUSH2 0x208D JUMPI POP DUP1 PUSH4 0x32432233 EQ PUSH2 0x1D67 JUMPI DUP1 PUSH4 0x32E8BC72 EQ PUSH2 0x1D2E JUMPI DUP1 PUSH4 0x334F7DEB EQ PUSH2 0x1C18 JUMPI DUP1 PUSH4 0x3D1F6438 EQ PUSH2 0x1B75 JUMPI DUP1 PUSH4 0x4F1EF286 EQ PUSH2 0x196B JUMPI DUP1 PUSH4 0x52D1902D EQ PUSH2 0x18EE JUMPI DUP1 PUSH4 0x564D6579 EQ PUSH2 0x18D2 JUMPI DUP1 PUSH4 0x5909ECCD EQ PUSH2 0x1562 JUMPI DUP1 PUSH4 0x5C3977A2 EQ PUSH2 0x14A0 JUMPI DUP1 PUSH4 0x66025A7E EQ PUSH2 0x123F JUMPI DUP1 PUSH4 0x67E820AD EQ PUSH2 0x11B3 JUMPI DUP1 PUSH4 0x715018A6 EQ PUSH2 0x1149 JUMPI DUP1 PUSH4 0x7503E1B7 EQ PUSH2 0x1002 JUMPI DUP1 PUSH4 0x8129FC1C EQ PUSH2 0xEA8 JUMPI DUP1 PUSH4 0x852EFC3D EQ PUSH2 0xE8A JUMPI DUP1 PUSH4 0x86BB8F37 EQ PUSH2 0xB91 JUMPI DUP1 PUSH4 0x87C13943 EQ PUSH2 0xB74 JUMPI DUP1 PUSH4 0x8DA5CB5B EQ PUSH2 0xB3E JUMPI DUP1 PUSH4 0x9EE5F600 EQ PUSH2 0xAFA JUMPI DUP1 PUSH4 0xAD3CB1CC EQ PUSH2 0xA8A JUMPI DUP1 PUSH4 0xC00B69FE EQ PUSH2 0xA6D JUMPI DUP1 PUSH4 0xC56AAB81 EQ PUSH2 0x8A9 JUMPI DUP1 PUSH4 0xCAC766D2 EQ PUSH2 0x742 JUMPI DUP1 PUSH4 0xCB84E537 EQ PUSH2 0x6E2 JUMPI DUP1 PUSH4 0xD533344F EQ PUSH2 0x63A JUMPI DUP1 PUSH4 0xDCC0463A EQ PUSH2 0x5E1 JUMPI DUP1 PUSH4 0xEC3889B5 EQ PUSH2 0x452 JUMPI DUP1 PUSH4 0xF2FDE38B EQ PUSH2 0x425 JUMPI DUP1 PUSH4 0xF37AA509 EQ PUSH2 0x36E JUMPI PUSH4 0xF4066869 EQ PUSH2 0x176 JUMPI PUSH1 0x0 DUP1 REVERT JUMPDEST PUSH2 0x140 CALLDATASIZE PUSH1 0x3 NOT ADD SLT PUSH2 0x36B JUMPI PUSH1 0x1 PUSH1 0x1 PUSH1 0x40 SHL SUB SWAP1 PUSH1 0x4 CALLDATALOAD DUP3 DUP2 GT PUSH2 0x367 JUMPI PUSH2 0x1A4 SWAP1 CALLDATASIZE SWAP1 PUSH1 0x4 ADD PUSH2 0x2178 JUMP JUMPDEST SWAP2 PUSH1 0x24 CALLDATALOAD DUP2 DUP2 GT PUSH2 0x363 JUMPI PUSH2 0x1BD SWAP1 CALLDATASIZE SWAP1 PUSH1 0x4 ADD PUSH2 0x2178 JUMP JUMPDEST PUSH1 0x44 CALLDATALOAD DUP3 DUP2 GT PUSH2 0x35F JUMPI PUSH2 0x1D5 SWAP1 CALLDATASIZE SWAP1 PUSH1 0x4 ADD PUSH2 0x2178 JUMP JUMPDEST SWAP1 PUSH2 0x1DE PUSH2 0x20C3 JUMP JUMPDEST SWAP3 PUSH1 0xE4 CALLDATALOAD SWAP1 DUP2 GT PUSH2 0x35B JUMPI PUSH2 0x1F7 SWAP1 CALLDATASIZE SWAP1 PUSH1 0x4 ADD PUSH2 0x21AD JUMP JUMPDEST PUSH2 0x104 CALLDATALOAD SWAP4 PUSH1 0x1 PUSH1 0x1 PUSH1 0xA0 SHL SUB DUP6 AND SWAP4 DUP5 DUP7 SUB PUSH2 0x357 JUMPI PUSH2 0x124 CALLDATALOAD SWAP5 PUSH2 0x21B PUSH2 0x24C2 JUMP JUMPDEST DUP6 ISZERO PUSH2 0x312 JUMPI PUSH2 0x2A7 JUMPI JUMPDEST SWAP3 PUSH1 0x20 SWAP8 PUSH1 0x40 SWAP4 PUSH2 0x24A SWAP4 PUSH1 0xD SWAP8 SWAP7 CALLVALUE SWAP5 CALLER SWAP5 PUSH1 0xA4 CALLDATALOAD SWAP3 PUSH1 0x84 CALLDATALOAD SWAP3 PUSH1 0x64 CALLDATALOAD SWAP3 PUSH2 0x2572 JUMP JUMPDEST DUP1 DUP7 MSTORE DUP6 DUP8 MSTORE SWAP5 KECCAK256 PUSH1 0xB DUP2 ADD DUP1 SLOAD PUSH1 0x1 PUSH1 0x1 PUSH1 0xA8 SHL SUB NOT AND PUSH1 0x8 SWAP6 SWAP1 SWAP6 SHL PUSH2 0x100 PUSH1 0x1 PUSH1 0xA8 SHL SUB AND SWAP5 SWAP1 SWAP5 OR PUSH1 0x1 OR SWAP1 SWAP4 SSTORE PUSH1 0xFF NOT SWAP3 SWAP1 PUSH1 0xC DUP3 ADD SSTORE ADD SWAP1 DUP2 SLOAD AND SWAP1 SSTORE PUSH1 0x1 PUSH1 0x0 DUP1 MLOAD PUSH1 0x20 PUSH2 0x38AA DUP4 CODECOPY DUP2 MLOAD SWAP2 MSTORE SSTORE PUSH1 0x40 MLOAD SWAP1 DUP2 MSTORE RETURN JUMPDEST SWAP1 SWAP2 SWAP4 SWAP3 DUP6 EXTCODESIZE ISZERO PUSH2 0x2BB JUMPI SWAP3 SWAP4 SWAP2 SWAP1 PUSH2 0x226 JUMP JUMPDEST PUSH1 0x40 MLOAD PUSH3 0x461BCD PUSH1 0xE5 SHL DUP2 MSTORE PUSH1 0x20 PUSH1 0x4 DUP3 ADD MSTORE PUSH1 0x29 PUSH1 0x24 DUP3 ADD MSTORE PUSH32 0x456E7472792066656520746F6B656E2061646472657373206973206E6F742061 PUSH1 0x44 DUP3 ADD MSTORE PUSH9 0x818DBDB9D1C9858DD PUSH1 0xBA SHL PUSH1 0x64 DUP3 ADD MSTORE PUSH1 0x84 SWAP1 REVERT JUMPDEST PUSH1 0x40 MLOAD PUSH3 0x461BCD PUSH1 0xE5 SHL DUP2 MSTORE PUSH1 0x20 PUSH1 0x4 DUP3 ADD MSTORE PUSH1 0x1A PUSH1 0x24 DUP3 ADD MSTORE PUSH32 0x456E74727920666565206D75737420626520706F736974697665000000000000 PUSH1 0x44 DUP3 ADD MSTORE PUSH1 0x64 SWAP1 REVERT JUMPDEST DUP7 DUP1 REVERT JUMPDEST DUP5 DUP1 REVERT JUMPDEST DUP4 DUP1 REVERT JUMPDEST DUP3 DUP1 REVERT JUMPDEST POP DUP1 REVERT JUMPDEST DUP1 REVERT JUMPDEST POP CALLVALUE PUSH2 0x36B JUMPI PUSH1 0x20 DUP1 PUSH1 0x3 NOT CALLDATASIZE ADD SLT PUSH2 0x367 JUMPI PUSH1 0x4 CALLDATALOAD DUP1 DUP4 MSTORE DUP3 DUP3 MSTORE PUSH2 0x399 DUP2 PUSH1 0x40 DUP6 KECCAK256 SLOAD EQ PUSH2 0x3026 JUMP JUMPDEST DUP3 MSTORE DUP2 DUP2 MSTORE PUSH1 0xE PUSH1 0x40 DUP4 KECCAK256 ADD PUSH1 0x40 MLOAD SWAP3 DUP4 DUP4 DUP4 SLOAD SWAP2 DUP3 DUP2 MSTORE ADD SWAP1 DUP2 SWAP4 DUP4 MSTORE DUP5 DUP4 KECCAK256 SWAP1 DUP4 JUMPDEST DUP2 DUP2 LT PUSH2 0x411 JUMPI POP POP POP DUP5 PUSH2 0x3D3 SWAP2 SUB DUP6 PUSH2 0x20EF JUMP JUMPDEST PUSH1 0x40 MLOAD SWAP4 DUP4 DUP6 SWAP5 DUP6 ADD SWAP2 DUP2 DUP7 MSTORE MLOAD DUP1 SWAP3 MSTORE PUSH1 0x40 DUP6 ADD SWAP4 SWAP3 JUMPDEST DUP3 DUP2 LT PUSH2 0x3FA JUMPI POP POP POP POP SUB SWAP1 RETURN JUMPDEST DUP4 MLOAD DUP6 MSTORE DUP7 SWAP6 POP SWAP4 DUP2 ADD SWAP4 SWAP3 DUP2 ADD SWAP3 PUSH1 0x1 ADD PUSH2 0x3EB JUMP JUMPDEST DUP3 SLOAD DUP5 MSTORE SWAP3 DUP7 ADD SWAP3 PUSH1 0x1 SWAP3 DUP4 ADD SWAP3 ADD PUSH2 0x3BD JUMP JUMPDEST POP CALLVALUE PUSH2 0x36B JUMPI PUSH1 0x20 CALLDATASIZE PUSH1 0x3 NOT ADD SLT PUSH2 0x36B JUMPI PUSH2 0x44F PUSH2 0x442 PUSH2 0x20A8 JUMP JUMPDEST PUSH2 0x44A PUSH2 0x2341 JUMP JUMPDEST PUSH2 0x237A JUMP JUMPDEST DUP1 RETURN JUMPDEST POP CALLVALUE PUSH2 0x36B JUMPI PUSH1 0x20 DUP1 PUSH1 0x3 NOT CALLDATASIZE ADD SLT PUSH2 0x367 JUMPI PUSH2 0x46D PUSH2 0x20A8 JUMP JUMPDEST SWAP1 PUSH2 0x476 PUSH2 0x2341 JUMP JUMPDEST PUSH2 0x47E PUSH2 0x24C2 JUMP JUMPDEST PUSH1 0x1 PUSH1 0x1 PUSH1 0xA0 SHL SUB SWAP2 DUP3 AND DUP1 DUP5 MSTORE PUSH1 0x3 DUP3 MSTORE PUSH1 0x40 DUP5 KECCAK256 SLOAD SWAP3 SWAP1 SWAP2 SWAP1 DUP4 ISZERO PUSH2 0x58E JUMPI DUP3 DUP6 MSTORE PUSH1 0x3 DUP3 MSTORE DUP5 PUSH1 0x40 DUP2 KECCAK256 SSTORE PUSH1 0x0 DUP1 MLOAD PUSH1 0x20 PUSH2 0x388A DUP4 CODECOPY DUP2 MLOAD SWAP2 MSTORE SLOAD AND SWAP3 DUP3 ISZERO PUSH1 0x0 EQ PUSH2 0x55B JUMPI DUP5 DUP1 DUP1 DUP1 DUP5 DUP9 GAS CALL PUSH2 0x4D7 PUSH2 0x23EE JUMP JUMPDEST POP ISZERO PUSH2 0x51D JUMPI SWAP1 PUSH32 0xC0F01729B0D2F4EE8F47286E5CF926377EAB5D6E58A981836E2F30705DB2362C SWAP2 JUMPDEST PUSH1 0x40 MLOAD SWAP1 DUP2 MSTORE LOG3 PUSH1 0x1 PUSH1 0x0 DUP1 MLOAD PUSH1 0x20 PUSH2 0x38AA DUP4 CODECOPY DUP2 MLOAD SWAP2 MSTORE SSTORE DUP1 RETURN JUMPDEST PUSH1 0x40 MLOAD PUSH3 0x461BCD PUSH1 0xE5 SHL DUP2 MSTORE PUSH1 0x4 DUP2 ADD DUP4 SWAP1 MSTORE PUSH1 0x16 PUSH1 0x24 DUP3 ADD MSTORE PUSH22 0x13985D1A5D99481D1C985B9CD9995C8819985A5B1959 PUSH1 0x52 SHL PUSH1 0x44 DUP3 ADD MSTORE PUSH1 0x64 SWAP1 REVERT JUMPDEST SWAP1 DUP2 PUSH2 0x589 PUSH32 0xC0F01729B0D2F4EE8F47286E5CF926377EAB5D6E58A981836E2F30705DB2362C SWAP4 DUP7 DUP7 PUSH2 0x359A JUMP JUMPDEST PUSH2 0x501 JUMP JUMPDEST PUSH1 0x40 MLOAD PUSH3 0x461BCD PUSH1 0xE5 SHL DUP2 MSTORE PUSH1 0x4 DUP2 ADD DUP4 SWAP1 MSTORE PUSH1 0x25 PUSH1 0x24 DUP3 ADD MSTORE PUSH32 0x4E6F206665657320746F2077697468647261772066726F6D2074686973206D61 PUSH1 0x44 DUP3 ADD MSTORE PUSH5 0x7070696E67 PUSH1 0xD8 SHL PUSH1 0x64 DUP3 ADD MSTORE PUSH1 0x84 SWAP1 REVERT JUMPDEST POP CALLVALUE PUSH2 0x36B JUMPI PUSH1 0x40 CALLDATASIZE PUSH1 0x3 NOT ADD SLT PUSH2 0x36B JUMPI PUSH1 0x40 PUSH1 0x20 SWAP2 PUSH1 0x4 CALLDATALOAD PUSH2 0x603 PUSH2 0x20D9 JUMP JUMPDEST SWAP1 DUP1 DUP4 MSTORE DUP3 DUP6 MSTORE PUSH2 0x618 DUP2 DUP6 DUP6 KECCAK256 SLOAD EQ PUSH2 0x3026 JUMP JUMPDEST DUP3 MSTORE PUSH1 0x2 DUP5 MSTORE DUP3 DUP3 KECCAK256 PUSH1 0x1 PUSH1 0x1 PUSH1 0xA0 SHL SUB SWAP1 SWAP2 AND DUP3 MSTORE DUP4 MSTORE KECCAK256 SLOAD PUSH1 0x40 MLOAD SWAP1 DUP2 MSTORE RETURN JUMPDEST POP CALLVALUE PUSH2 0x36B JUMPI PUSH1 0x60 CALLDATASIZE PUSH1 0x3 NOT ADD SLT PUSH2 0x36B JUMPI PUSH1 0x1 PUSH1 0x1 PUSH1 0xA0 SHL SUB PUSH1 0x44 CALLDATALOAD PUSH1 0x4 CALLDATALOAD DUP3 DUP3 AND DUP3 SUB PUSH2 0x35F JUMPI PUSH2 0x6B9 PUSH2 0x6CD SWAP4 PUSH2 0x672 PUSH2 0x24C2 JUMP JUMPDEST DUP3 DUP7 MSTORE DUP6 PUSH1 0x20 MSTORE PUSH2 0x688 DUP4 PUSH1 0x40 DUP9 KECCAK256 SLOAD EQ PUSH2 0x3026 JUMP JUMPDEST DUP3 DUP7 MSTORE DUP6 PUSH1 0x20 MSTORE PUSH2 0x6A2 PUSH1 0xFF PUSH1 0x9 PUSH1 0x40 DUP10 KECCAK256 ADD SLOAD AND PUSH2 0x3072 JUMP JUMPDEST DUP3 DUP7 MSTORE DUP6 PUSH1 0x20 MSTORE PUSH1 0x1 PUSH1 0x40 DUP8 KECCAK256 ADD SLOAD AND CALLER EQ PUSH2 0x35E9 JUMP JUMPDEST DUP1 DUP5 MSTORE DUP4 PUSH1 0x20 MSTORE PUSH1 0x24 CALLDATALOAD SWAP1 PUSH1 0x40 DUP6 KECCAK256 PUSH2 0x36BF JUMP JUMPDEST PUSH1 0x1 PUSH1 0x0 DUP1 MLOAD PUSH1 0x20 PUSH2 0x38AA DUP4 CODECOPY DUP2 MLOAD SWAP2 MSTORE SSTORE DUP1 RETURN JUMPDEST POP CALLVALUE PUSH2 0x36B JUMPI PUSH1 0x40 CALLDATASIZE PUSH1 0x3 NOT ADD SLT PUSH2 0x36B JUMPI PUSH1 0xFF PUSH1 0x40 PUSH1 0x20 SWAP3 PUSH1 0x4 CALLDATALOAD PUSH2 0x706 PUSH2 0x20D9 JUMP JUMPDEST SWAP1 DUP1 DUP4 MSTORE DUP3 DUP7 MSTORE PUSH2 0x71B DUP2 DUP6 DUP6 KECCAK256 SLOAD EQ PUSH2 0x3026 JUMP JUMPDEST DUP3 MSTORE DUP2 DUP6 MSTORE DUP3 DUP3 KECCAK256 PUSH1 0x1 PUSH1 0x1 PUSH1 0xA0 SHL SUB SWAP1 SWAP2 AND DUP3 MSTORE PUSH1 0x12 ADD DUP5 MSTORE KECCAK256 SLOAD PUSH1 0x40 MLOAD SWAP2 AND ISZERO ISZERO DUP2 MSTORE RETURN JUMPDEST POP CALLVALUE PUSH2 0x36B JUMPI PUSH1 0x20 CALLDATASIZE PUSH1 0x3 NOT ADD SLT PUSH2 0x36B JUMPI PUSH1 0x4 CALLDATALOAD DUP1 DUP3 MSTORE DUP2 PUSH1 0x20 MSTORE DUP1 PUSH1 0x40 DUP4 KECCAK256 SLOAD EQ PUSH2 0x76E SWAP1 PUSH2 0x3026 JUMP JUMPDEST DUP2 MSTORE DUP1 PUSH1 0x20 MSTORE PUSH1 0x40 SWAP1 KECCAK256 PUSH1 0x1 PUSH1 0xA0 SHL PUSH1 0x1 SWAP1 SUB PUSH1 0x1 DUP3 ADD SLOAD AND SWAP1 PUSH1 0x5 DUP2 ADD SLOAD PUSH1 0x6 DUP3 ADD SLOAD PUSH1 0x7 DUP4 ADD SLOAD PUSH1 0x8 DUP5 ADD SLOAD PUSH1 0x9 DUP6 ADD SLOAD PUSH1 0xA DUP7 ADD SLOAD PUSH1 0xE DUP8 ADD SLOAD SWAP1 PUSH1 0xB DUP9 ADD SLOAD SWAP3 PUSH1 0xC DUP10 ADD SLOAD SWAP5 PUSH1 0xD DUP11 ADD SLOAD PUSH1 0xFF AND SWAP7 PUSH1 0x11 DUP12 ADD SLOAD SWAP9 PUSH1 0x2 DUP13 ADD PUSH2 0x7D4 SWAP1 PUSH2 0x225B JUMP JUMPDEST SWAP12 PUSH2 0x7E1 PUSH1 0x3 DUP3 ADD PUSH2 0x225B JUMP JUMPDEST SWAP1 PUSH1 0x4 ADD PUSH2 0x7EE SWAP1 PUSH2 0x225B JUMP JUMPDEST SWAP1 PUSH1 0x40 MLOAD SWAP15 DUP16 SWAP15 DUP16 SWAP2 DUP3 MSTORE PUSH2 0x220 DUP1 PUSH1 0x20 DUP5 ADD MSTORE DUP3 ADD PUSH2 0x80D SWAP2 PUSH2 0x2301 JUMP JUMPDEST SWAP1 DUP1 DUP3 SUB SWAP1 PUSH1 0x40 ADD MSTORE PUSH2 0x81F SWAP2 PUSH2 0x2301 JUMP JUMPDEST DUP14 DUP2 SUB PUSH1 0x60 DUP16 ADD MSTORE PUSH2 0x830 SWAP2 PUSH2 0x2301 JUMP JUMPDEST SWAP11 PUSH1 0x80 DUP14 ADD MSTORE PUSH1 0xA0 DUP13 ADD MSTORE PUSH1 0xC0 DUP12 ADD MSTORE PUSH1 0xE0 DUP11 ADD MSTORE PUSH1 0xFF DUP2 AND ISZERO ISZERO PUSH2 0x100 DUP11 ADD MSTORE PUSH1 0x1 PUSH1 0xA0 SHL PUSH1 0x1 SWAP1 SUB SWAP1 PUSH1 0x8 SHR AND PUSH2 0x120 DUP10 ADD MSTORE PUSH2 0x140 DUP9 ADD MSTORE PUSH2 0x160 DUP8 ADD MSTORE PUSH1 0xFF DUP2 AND ISZERO ISZERO PUSH2 0x180 DUP8 ADD MSTORE PUSH1 0x1 PUSH1 0xA0 SHL PUSH1 0x1 SWAP1 SUB SWAP1 PUSH1 0x8 SHR AND PUSH2 0x1A0 DUP7 ADD MSTORE PUSH2 0x1C0 DUP6 ADD MSTORE ISZERO ISZERO PUSH2 0x1E0 DUP5 ADD MSTORE PUSH2 0x200 DUP4 ADD MSTORE SUB SWAP1 RETURN JUMPDEST POP CALLVALUE PUSH2 0x36B JUMPI PUSH1 0x60 CALLDATASIZE PUSH1 0x3 NOT ADD SLT PUSH2 0x36B JUMPI PUSH1 0x4 CALLDATALOAD PUSH1 0x1 PUSH1 0x1 PUSH1 0x40 SHL SUB PUSH1 0x24 CALLDATALOAD DUP2 DUP2 GT PUSH2 0x35F JUMPI PUSH2 0x8DE SWAP1 CALLDATASIZE SWAP1 PUSH1 0x4 ADD PUSH2 0x21AD JUMP JUMPDEST SWAP1 PUSH1 0x44 CALLDATALOAD SWAP1 DUP2 GT PUSH2 0x35F JUMPI CALLDATASIZE PUSH1 0x23 DUP3 ADD SLT ISZERO PUSH2 0x35F JUMPI DUP1 PUSH1 0x4 ADD CALLDATALOAD SWAP3 PUSH2 0x903 DUP5 PUSH2 0x2196 JUMP JUMPDEST SWAP2 PUSH2 0x911 PUSH1 0x40 MLOAD SWAP4 DUP5 PUSH2 0x20EF JUMP JUMPDEST DUP5 DUP4 MSTORE PUSH1 0x20 SWAP5 PUSH1 0x24 DUP7 DUP6 ADD SWAP2 PUSH1 0x5 SHL DUP4 ADD ADD SWAP2 CALLDATASIZE DUP4 GT PUSH2 0xA69 JUMPI PUSH1 0x24 ADD SWAP1 JUMPDEST DUP3 DUP3 LT PUSH2 0xA46 JUMPI POP POP POP PUSH2 0x942 PUSH2 0x24C2 JUMP JUMPDEST DUP1 DUP6 MSTORE DUP5 DUP5 MSTORE PUSH2 0x957 DUP2 PUSH1 0x40 DUP8 KECCAK256 SLOAD EQ PUSH2 0x3026 JUMP JUMPDEST DUP1 DUP6 MSTORE DUP5 DUP5 MSTORE PUSH2 0x970 PUSH1 0xFF PUSH1 0x9 PUSH1 0x40 DUP9 KECCAK256 ADD SLOAD AND PUSH2 0x3072 JUMP JUMPDEST DUP1 DUP6 MSTORE DUP5 DUP5 MSTORE PUSH1 0x1 DUP1 PUSH1 0xA0 SHL SUB PUSH1 0x1 SWAP5 PUSH2 0x993 DUP3 DUP8 PUSH1 0x40 DUP11 KECCAK256 ADD SLOAD AND CALLER EQ PUSH2 0x35E9 JUMP JUMPDEST DUP5 MLOAD DUP5 MLOAD SUB PUSH2 0xA09 JUMPI SWAP1 DUP7 DUP4 SWAP3 DUP8 SWAP6 SWAP5 DUP3 MSTORE MSTORE PUSH1 0x40 DUP8 KECCAK256 SWAP5 DUP5 DUP9 SWAP1 JUMPDEST PUSH2 0x9C9 JUMPI JUMPDEST DUP9 DUP7 PUSH1 0x0 DUP1 MLOAD PUSH1 0x20 PUSH2 0x38AA DUP4 CODECOPY DUP2 MLOAD SWAP2 MSTORE SSTORE DUP1 RETURN JUMPDEST DUP2 MLOAD DUP2 LT ISZERO PUSH2 0xA04 JUMPI DUP1 PUSH2 0x9F9 PUSH2 0x9E3 PUSH2 0x9FE SWAP4 DUP6 PUSH2 0x2524 JUMP JUMPDEST MLOAD DUP6 PUSH2 0x9EF DUP5 DUP11 PUSH2 0x2524 JUMP JUMPDEST MLOAD AND SWAP1 DUP8 DUP12 PUSH2 0x36BF JUMP JUMPDEST PUSH2 0x2515 JUMP JUMPDEST DUP6 PUSH2 0x9AF JUMP JUMPDEST PUSH2 0x9B4 JUMP JUMPDEST PUSH1 0x64 SWAP1 PUSH1 0x40 MLOAD SWAP1 PUSH3 0x461BCD PUSH1 0xE5 SHL DUP3 MSTORE PUSH1 0x4 DUP3 ADD MSTORE PUSH1 0x16 PUSH1 0x24 DUP3 ADD MSTORE PUSH22 0x82E4E4C2F2E640D8CADCCEE8D040DAD2E6DAC2E8C6D PUSH1 0x53 SHL PUSH1 0x44 DUP3 ADD MSTORE REVERT JUMPDEST DUP2 CALLDATALOAD PUSH1 0x1 PUSH1 0x1 PUSH1 0xA0 SHL SUB DUP2 AND DUP2 SUB PUSH2 0xA65 JUMPI DUP2 MSTORE SWAP1 DUP7 ADD SWAP1 DUP7 ADD PUSH2 0x930 JUMP JUMPDEST DUP9 DUP1 REVERT JUMPDEST DUP8 DUP1 REVERT JUMPDEST POP CALLVALUE PUSH2 0x36B JUMPI DUP1 PUSH1 0x3 NOT CALLDATASIZE ADD SLT PUSH2 0x36B JUMPI PUSH1 0x20 PUSH1 0x40 MLOAD PUSH2 0xE10 DUP2 MSTORE RETURN JUMPDEST POP CALLVALUE PUSH2 0x36B JUMPI DUP1 PUSH1 0x3 NOT CALLDATASIZE ADD SLT PUSH2 0x36B JUMPI PUSH1 0x40 MLOAD PUSH1 0x40 DUP2 ADD DUP2 DUP2 LT PUSH1 0x1 PUSH1 0x1 PUSH1 0x40 SHL SUB DUP3 GT OR PUSH2 0xAE6 JUMPI PUSH2 0xAE2 SWAP3 POP PUSH1 0x40 MSTORE PUSH1 0x5 DUP2 MSTORE PUSH5 0x352E302E3 PUSH1 0xDC SHL PUSH1 0x20 DUP3 ADD MSTORE PUSH1 0x40 MLOAD SWAP2 DUP3 SWAP2 PUSH1 0x20 DUP4 MSTORE PUSH1 0x20 DUP4 ADD SWAP1 PUSH2 0x2301 JUMP JUMPDEST SUB SWAP1 RETURN JUMPDEST PUSH4 0x4E487B71 PUSH1 0xE0 SHL DUP4 MSTORE PUSH1 0x41 PUSH1 0x4 MSTORE PUSH1 0x24 DUP4 REVERT JUMPDEST POP CALLVALUE PUSH2 0x36B JUMPI PUSH1 0x40 CALLDATASIZE PUSH1 0x3 NOT ADD SLT PUSH2 0x36B JUMPI PUSH1 0x40 PUSH1 0x20 SWAP2 PUSH2 0xB19 PUSH2 0x20D9 JUMP JUMPDEST PUSH1 0x4 CALLDATALOAD DUP3 MSTORE PUSH1 0x2 DUP5 MSTORE DUP3 DUP3 KECCAK256 PUSH1 0x1 PUSH1 0x1 PUSH1 0xA0 SHL SUB SWAP1 SWAP2 AND DUP3 MSTORE DUP4 MSTORE KECCAK256 SLOAD PUSH1 0x40 MLOAD SWAP1 DUP2 MSTORE RETURN JUMPDEST POP CALLVALUE PUSH2 0x36B JUMPI DUP1 PUSH1 0x3 NOT CALLDATASIZE ADD SLT PUSH2 0x36B JUMPI PUSH1 0x0 DUP1 MLOAD PUSH1 0x20 PUSH2 0x388A DUP4 CODECOPY DUP2 MLOAD SWAP2 MSTORE SLOAD PUSH1 0x40 MLOAD PUSH1 0x1 PUSH1 0x1 PUSH1 0xA0 SHL SUB SWAP1 SWAP2 AND DUP2 MSTORE PUSH1 0x20 SWAP1 RETURN JUMPDEST POP CALLVALUE PUSH2 0x36B JUMPI DUP1 PUSH1 0x3 NOT CALLDATASIZE ADD SLT PUSH2 0x36B JUMPI PUSH1 0x20 PUSH1 0x40 MLOAD PUSH2 0x2710 DUP2 MSTORE RETURN JUMPDEST POP CALLVALUE PUSH2 0x36B JUMPI PUSH2 0xBA0 CALLDATASIZE PUSH2 0x220B JUMP JUMPDEST PUSH2 0xBA8 PUSH2 0x24C2 JUMP JUMPDEST DUP2 DUP4 MSTORE PUSH1 0x20 DUP4 DUP2 MSTORE PUSH2 0xBBF DUP4 PUSH1 0x40 DUP7 KECCAK256 SLOAD EQ PUSH2 0x3026 JUMP JUMPDEST DUP3 DUP5 MSTORE DUP4 DUP2 MSTORE PUSH2 0xBD8 PUSH1 0xFF PUSH1 0x9 PUSH1 0x40 DUP8 KECCAK256 ADD SLOAD AND PUSH2 0x3072 JUMP JUMPDEST DUP3 DUP5 MSTORE DUP4 DUP2 MSTORE PUSH1 0x40 DUP5 KECCAK256 SWAP1 PUSH1 0xE DUP3 ADD PUSH2 0xBF3 DUP2 SLOAD DUP6 LT PUSH2 0x362E JUMP JUMPDEST PUSH1 0x10 DUP4 ADD SWAP1 DUP5 DUP8 MSTORE DUP2 DUP4 MSTORE PUSH2 0xC0F PUSH1 0xFF PUSH1 0x40 DUP10 KECCAK256 SLOAD AND ISZERO PUSH2 0x3673 JUMP JUMPDEST DUP5 DUP8 MSTORE PUSH1 0xF DUP5 ADD DUP4 MSTORE PUSH1 0x40 DUP8 KECCAK256 SLOAD PUSH1 0x1 PUSH1 0x1 PUSH1 0xA0 SHL SUB SWAP3 SWAP1 CALLER SWAP1 DUP5 AND SUB PUSH2 0xE47 JUMPI DUP6 PUSH1 0x9 SWAP3 PUSH2 0xC51 SWAP3 DUP3 DUP12 MSTORE DUP7 MSTORE PUSH1 0x40 DUP11 KECCAK256 PUSH1 0x1 PUSH1 0xFF NOT DUP3 SLOAD AND OR SWAP1 SSTORE PUSH2 0x3871 JUMP JUMPDEST SWAP1 SLOAD SWAP1 PUSH1 0x3 SHL SHR SWAP4 ADD SLOAD PUSH1 0x8 SHR AND DUP1 ISZERO PUSH1 0x0 EQ PUSH2 0xD80 JUMPI POP DUP2 SELFBALANCE LT PUSH2 0xD36 JUMPI DUP5 DUP1 DUP1 DUP1 DUP6 CALLER GAS CALL PUSH2 0xC80 PUSH2 0x23EE JUMP JUMPDEST POP ISZERO PUSH2 0xCF2 JUMPI JUMPDEST PUSH1 0x1 DUP4 ADD DUP1 SWAP4 GT PUSH2 0xCDE JUMPI SWAP2 PUSH1 0x60 SWAP2 PUSH32 0xA8325F46EC9623D7CED8F695FF820511A4ACEF4F5D5C4933BD5D992141A2B905 SWAP4 PUSH1 0x40 MLOAD SWAP3 DUP4 MSTORE CALLER SWAP1 DUP4 ADD MSTORE PUSH1 0x40 DUP3 ADD MSTORE LOG2 PUSH1 0x1 PUSH1 0x0 DUP1 MLOAD PUSH1 0x20 PUSH2 0x38AA DUP4 CODECOPY DUP2 MLOAD SWAP2 MSTORE SSTORE DUP1 RETURN JUMPDEST PUSH4 0x4E487B71 PUSH1 0xE0 SHL DUP6 MSTORE PUSH1 0x11 PUSH1 0x4 MSTORE PUSH1 0x24 DUP6 REVERT JUMPDEST PUSH1 0x64 SWAP1 PUSH1 0x40 MLOAD SWAP1 PUSH3 0x461BCD PUSH1 0xE5 SHL DUP3 MSTORE PUSH1 0x4 DUP3 ADD MSTORE PUSH1 0x1D PUSH1 0x24 DUP3 ADD MSTORE PUSH32 0x4E617469766520726577617264207472616E73666572206661696C6564000000 PUSH1 0x44 DUP3 ADD MSTORE REVERT JUMPDEST PUSH1 0x84 SWAP1 PUSH1 0x40 MLOAD SWAP1 PUSH3 0x461BCD PUSH1 0xE5 SHL DUP3 MSTORE PUSH1 0x4 DUP3 ADD MSTORE PUSH1 0x2F PUSH1 0x24 DUP3 ADD MSTORE PUSH1 0x0 DUP1 MLOAD PUSH1 0x20 PUSH2 0x38CA DUP4 CODECOPY DUP2 MLOAD SWAP2 MSTORE PUSH1 0x44 DUP3 ADD MSTORE PUSH15 0x1C881B985D1A5D99481C995DD85C99 PUSH1 0x8A SHL PUSH1 0x64 DUP3 ADD MSTORE REVERT JUMPDEST PUSH1 0x40 MLOAD PUSH4 0x70A08231 PUSH1 0xE0 SHL DUP2 MSTORE ADDRESS PUSH1 0x4 DUP3 ADD MSTORE DUP3 DUP2 PUSH1 0x24 DUP2 DUP6 GAS STATICCALL DUP1 ISZERO PUSH2 0xE3C JUMPI DUP5 SWAP2 DUP9 SWAP2 PUSH2 0xE0B JUMPI JUMPDEST POP LT PUSH2 0xDC1 JUMPI DUP3 PUSH2 0xDBC SWAP2 CALLER SWAP1 PUSH2 0x359A JUMP JUMPDEST PUSH2 0xC87 JUMP JUMPDEST PUSH1 0x40 MLOAD PUSH3 0x461BCD PUSH1 0xE5 SHL DUP2 MSTORE PUSH1 0x4 DUP2 ADD DUP4 SWAP1 MSTORE PUSH1 0x2E PUSH1 0x24 DUP3 ADD MSTORE PUSH1 0x0 DUP1 MLOAD PUSH1 0x20 PUSH2 0x38CA DUP4 CODECOPY DUP2 MLOAD SWAP2 MSTORE PUSH1 0x44 DUP3 ADD MSTORE PUSH14 0x1C881D1BDAD95B881C995DD85C99 PUSH1 0x92 SHL PUSH1 0x64 DUP3 ADD MSTORE PUSH1 0x84 SWAP1 REVERT JUMPDEST DUP1 SWAP3 POP DUP5 DUP1 SWAP3 POP RETURNDATASIZE DUP4 GT PUSH2 0xE35 JUMPI JUMPDEST PUSH2 0xE24 DUP2 DUP4 PUSH2 0x20EF JUMP JUMPDEST DUP2 ADD SUB SLT PUSH2 0x357 JUMPI DUP4 SWAP1 MLOAD CODESIZE PUSH2 0xDAA JUMP JUMPDEST POP RETURNDATASIZE PUSH2 0xE1A JUMP JUMPDEST PUSH1 0x40 MLOAD RETURNDATASIZE DUP10 DUP3 RETURNDATACOPY RETURNDATASIZE SWAP1 REVERT JUMPDEST PUSH1 0x64 DUP5 PUSH1 0x40 MLOAD SWAP1 PUSH3 0x461BCD PUSH1 0xE5 SHL DUP3 MSTORE DUP1 PUSH1 0x4 DUP4 ADD MSTORE PUSH1 0x24 DUP3 ADD MSTORE PUSH32 0x4E6F74207468652077696E6E657220666F72207468697320706F736974696F6E PUSH1 0x44 DUP3 ADD MSTORE REVERT JUMPDEST POP CALLVALUE PUSH2 0x36B JUMPI DUP1 PUSH1 0x3 NOT CALLDATASIZE ADD SLT PUSH2 0x36B JUMPI PUSH1 0x20 PUSH1 0x1 SLOAD PUSH1 0x40 MLOAD SWAP1 DUP2 MSTORE RETURN JUMPDEST POP CALLVALUE PUSH2 0x36B JUMPI DUP1 PUSH1 0x3 NOT CALLDATASIZE ADD SLT PUSH2 0x36B JUMPI PUSH32 0xF0C57E16840DF040F15088DC2F81FE391C3923BEC73E23A9662EFC9C229C6A00 DUP1 SLOAD SWAP1 PUSH1 0xFF DUP3 PUSH1 0x40 SHR AND ISZERO PUSH1 0x1 PUSH1 0x1 PUSH1 0x40 SHL SUB DUP4 AND SWAP3 DUP4 ISZERO DUP1 PUSH2 0xFFB JUMPI JUMPDEST PUSH1 0x1 DUP1 SWAP6 EQ SWAP1 DUP2 PUSH2 0xFF1 JUMPI JUMPDEST ISZERO SWAP1 DUP2 PUSH2 0xFE8 JUMPI JUMPDEST POP PUSH2 0xFD6 JUMPI PUSH8 0xFFFFFFFFFFFFFFFF NOT DUP2 AND DUP5 OR DUP4 SSTORE DUP2 PUSH2 0xFB7 JUMPI JUMPDEST POP PUSH2 0xF30 PUSH2 0x2481 JUMP JUMPDEST PUSH2 0xF38 PUSH2 0x2481 JUMP JUMPDEST PUSH2 0xF41 CALLER PUSH2 0x237A JUMP JUMPDEST PUSH2 0xF49 PUSH2 0x2481 JUMP JUMPDEST PUSH2 0xF51 PUSH2 0x2481 JUMP JUMPDEST DUP3 PUSH1 0x0 DUP1 MLOAD PUSH1 0x20 PUSH2 0x38AA DUP4 CODECOPY DUP2 MLOAD SWAP2 MSTORE SSTORE PUSH2 0xF6A PUSH2 0x2481 JUMP JUMPDEST DUP3 DUP1 SSTORE PUSH2 0xF75 JUMPI DUP3 DUP1 RETURN JUMPDEST DUP1 SLOAD PUSH9 0xFF0000000000000000 NOT AND SWAP1 SSTORE PUSH1 0x40 MLOAD SWAP1 DUP2 MSTORE PUSH32 0xC7F505B2F371AE2175EE4913F4499E1F2633A7B5936321EED1CDAEB6115181D2 SWAP1 PUSH1 0x20 SWAP1 LOG1 CODESIZE DUP1 DUP3 DUP1 RETURN JUMPDEST PUSH9 0xFFFFFFFFFFFFFFFFFF NOT AND PUSH9 0x10000000000000001 OR DUP3 SSTORE CODESIZE PUSH2 0xF27 JUMP JUMPDEST PUSH1 0x40 MLOAD PUSH4 0xF92EE8A9 PUSH1 0xE0 SHL DUP2 MSTORE PUSH1 0x4 SWAP1 REVERT JUMPDEST SWAP1 POP ISZERO CODESIZE PUSH2 0xF0C JUMP JUMPDEST ADDRESS EXTCODESIZE ISZERO SWAP2 POP PUSH2 0xF04 JUMP JUMPDEST POP DUP2 PUSH2 0xEF8 JUMP JUMPDEST POP CALLVALUE PUSH2 0x36B JUMPI PUSH1 0x20 CALLDATASIZE PUSH1 0x3 NOT ADD SLT PUSH2 0x36B JUMPI PUSH1 0x4 CALLDATALOAD DUP2 MSTORE PUSH1 0x20 DUP2 SWAP1 MSTORE PUSH1 0x40 SWAP1 KECCAK256 DUP1 SLOAD PUSH1 0x1 DUP3 ADD SLOAD PUSH1 0x1 PUSH1 0x1 PUSH1 0xA0 SHL SUB AND SWAP2 PUSH2 0x103F PUSH1 0x2 DUP3 ADD PUSH2 0x225B JUMP JUMPDEST PUSH2 0x104B PUSH1 0x3 DUP4 ADD PUSH2 0x225B JUMP JUMPDEST SWAP2 PUSH2 0x1058 PUSH1 0x4 DUP3 ADD PUSH2 0x225B JUMP JUMPDEST SWAP3 PUSH1 0x5 DUP3 ADD SLOAD SWAP4 PUSH1 0x6 DUP4 ADD SLOAD PUSH1 0x7 DUP5 ADD SLOAD PUSH1 0x8 DUP6 ADD SLOAD PUSH1 0x9 DUP7 ADD SLOAD SWAP2 PUSH1 0xA DUP8 ADD SLOAD SWAP4 PUSH1 0xB DUP9 ADD SLOAD SWAP6 PUSH1 0xC DUP10 ADD SLOAD SWAP8 PUSH1 0xD DUP11 ADD SLOAD PUSH1 0xFF AND SWAP10 PUSH1 0x11 ADD SLOAD SWAP11 PUSH1 0x40 MLOAD SWAP15 DUP16 SWAP15 DUP16 SWAP1 DUP2 MSTORE PUSH1 0x20 ADD MSTORE DUP14 PUSH2 0x220 SWAP1 DUP2 PUSH1 0x40 DUP3 ADD MSTORE ADD PUSH2 0x10B7 SWAP2 PUSH2 0x2301 JUMP JUMPDEST DUP14 DUP2 SUB PUSH1 0x60 DUP16 ADD MSTORE PUSH2 0x10C8 SWAP2 PUSH2 0x2301 JUMP JUMPDEST DUP13 DUP2 SUB PUSH1 0x80 DUP15 ADD MSTORE PUSH2 0x10D9 SWAP2 PUSH2 0x2301 JUMP JUMPDEST PUSH1 0xA0 DUP13 ADD SWAP11 SWAP1 SWAP11 MSTORE PUSH1 0xC0 DUP12 ADD MSTORE PUSH1 0xE0 DUP11 ADD MSTORE PUSH2 0x100 DUP10 ADD MSTORE PUSH1 0xFF DUP2 DUP2 AND ISZERO ISZERO PUSH2 0x120 DUP11 ADD MSTORE PUSH1 0x1 PUSH1 0x1 PUSH1 0xA0 SHL SUB PUSH1 0x8 SWAP3 DUP4 SHR DUP2 AND PUSH2 0x140 DUP12 ADD MSTORE PUSH2 0x160 DUP11 ADD SWAP4 SWAP1 SWAP4 MSTORE DUP4 AND ISZERO ISZERO PUSH2 0x180 DUP10 ADD MSTORE SWAP2 SWAP1 SWAP2 SHR AND PUSH2 0x1A0 DUP7 ADD MSTORE PUSH2 0x1C0 DUP6 ADD MSTORE ISZERO ISZERO PUSH2 0x1E0 DUP5 ADD MSTORE PUSH2 0x200 DUP4 ADD MSTORE SUB SWAP1 RETURN JUMPDEST POP CALLVALUE PUSH2 0x36B JUMPI DUP1 PUSH1 0x3 NOT CALLDATASIZE ADD SLT PUSH2 0x36B JUMPI PUSH2 0x1162 PUSH2 0x2341 JUMP JUMPDEST PUSH1 0x0 DUP1 MLOAD PUSH1 0x20 PUSH2 0x388A DUP4 CODECOPY DUP2 MLOAD SWAP2 MSTORE DUP1 SLOAD PUSH1 0x1 PUSH1 0x1 PUSH1 0xA0 SHL SUB NOT DUP2 AND SWAP1 SWAP2 SSTORE DUP2 SWAP1 PUSH1 0x1 PUSH1 0x1 PUSH1 0xA0 SHL SUB AND PUSH32 0x8BE0079C531659141344CD1FD0A4F28419497F9722A3DAAFE3B4186F6B6457E0 DUP3 DUP1 LOG3 DUP1 RETURN JUMPDEST POP CALLVALUE PUSH2 0x36B JUMPI PUSH1 0x60 SWAP1 PUSH2 0x11C5 CALLDATASIZE PUSH2 0x220B JUMP JUMPDEST SWAP1 DUP1 DUP4 MSTORE DUP3 PUSH1 0x20 MSTORE PUSH2 0x11DC DUP2 PUSH1 0x40 DUP6 KECCAK256 SLOAD EQ PUSH2 0x3026 JUMP JUMPDEST DUP3 MSTORE DUP2 PUSH1 0x20 MSTORE PUSH1 0x40 DUP3 KECCAK256 PUSH1 0xFF PUSH1 0x40 PUSH2 0x1203 DUP5 PUSH1 0xE DUP6 ADD PUSH2 0x11FE DUP2 SLOAD DUP4 LT PUSH2 0x362E JUMP JUMPDEST PUSH2 0x3871 JUMP JUMPDEST SWAP6 SWAP1 SLOAD SWAP5 DUP2 MSTORE PUSH1 0xF DUP5 ADD PUSH1 0x20 MSTORE PUSH1 0x10 PUSH1 0x1 DUP1 PUSH1 0xA0 SHL SUB DUP4 DUP4 KECCAK256 SLOAD AND SWAP5 ADD PUSH1 0x20 MSTORE KECCAK256 SLOAD AND SWAP2 PUSH1 0x40 MLOAD SWAP4 PUSH1 0x3 SHL SHR DUP4 MSTORE PUSH1 0x20 DUP4 ADD MSTORE ISZERO ISZERO PUSH1 0x40 DUP3 ADD MSTORE RETURN JUMPDEST POP PUSH1 0x20 SWAP1 DUP2 PUSH1 0x3 NOT CALLDATASIZE ADD SLT PUSH2 0x36B JUMPI PUSH1 0x4 CALLDATALOAD PUSH2 0x1259 PUSH2 0x24C2 JUMP JUMPDEST DUP1 DUP3 MSTORE DUP2 DUP4 MSTORE PUSH2 0x126E DUP2 PUSH1 0x40 DUP5 KECCAK256 SLOAD EQ PUSH2 0x3026 JUMP JUMPDEST DUP1 DUP3 MSTORE DUP2 DUP4 MSTORE PUSH2 0x1287 PUSH1 0xFF PUSH1 0x9 PUSH1 0x40 DUP6 KECCAK256 ADD SLOAD AND PUSH2 0x3072 JUMP JUMPDEST DUP1 DUP3 MSTORE DUP2 DUP4 MSTORE PUSH1 0x40 DUP3 KECCAK256 PUSH2 0x12A1 PUSH1 0x8 DUP3 ADD SLOAD TIMESTAMP GT ISZERO PUSH2 0x30B6 JUMP JUMPDEST PUSH1 0xB DUP2 ADD SLOAD PUSH1 0xFF DUP2 AND ISZERO PUSH2 0x1450 JUMPI PUSH1 0x12 DUP3 ADD SWAP1 CALLER DUP6 MSTORE DUP2 DUP7 MSTORE PUSH2 0x12CB PUSH1 0xFF PUSH1 0x40 DUP8 KECCAK256 SLOAD AND ISZERO PUSH2 0x3102 JUMP JUMPDEST PUSH1 0x5 DUP4 ADD SLOAD DUP1 PUSH2 0x143B JUMPI JUMPDEST POP PUSH1 0x8 SHR PUSH1 0x1 PUSH1 0x1 PUSH1 0xA0 SHL SUB AND DUP1 PUSH2 0x13BB JUMPI POP PUSH1 0xC DUP3 ADD SLOAD CALLVALUE SUB PUSH2 0x136C JUMPI PUSH1 0x11 SWAP3 SWAP4 SWAP5 JUMPDEST PUSH1 0xC DUP4 ADD SLOAD DUP6 DUP8 MSTORE PUSH1 0x2 DUP3 MSTORE PUSH1 0x40 DUP8 KECCAK256 CALLER DUP9 MSTORE DUP3 MSTORE PUSH1 0x40 DUP8 KECCAK256 SSTORE MSTORE PUSH1 0x40 DUP5 KECCAK256 PUSH1 0x1 PUSH1 0xFF NOT DUP3 SLOAD AND OR SWAP1 SSTORE ADD PUSH2 0x132F DUP2 SLOAD PUSH2 0x2515 JUMP JUMPDEST SWAP1 SSTORE CALLER SWAP1 PUSH32 0x78337B3A0CFC36FAAFAB5A292DC7571F6BD68BA681C22E15C97B1E3469B51A02 DUP4 DUP1 LOG3 PUSH1 0x1 PUSH1 0x0 DUP1 MLOAD PUSH1 0x20 PUSH2 0x38AA DUP4 CODECOPY DUP2 MLOAD SWAP2 MSTORE SSTORE DUP1 RETURN JUMPDEST PUSH1 0x40 MLOAD PUSH3 0x461BCD PUSH1 0xE5 SHL DUP2 MSTORE PUSH1 0x4 DUP2 ADD DUP7 SWAP1 MSTORE PUSH1 0x21 PUSH1 0x24 DUP3 ADD MSTORE PUSH32 0x496E636F7272656374206E617469766520656E7472792066656520616D6F756E PUSH1 0x44 DUP3 ADD MSTORE PUSH1 0x1D PUSH1 0xFA SHL PUSH1 0x64 DUP3 ADD MSTORE PUSH1 0x84 SWAP1 REVERT JUMPDEST CALLVALUE PUSH2 0x13DD JUMPI SWAP5 PUSH2 0x13D8 PUSH1 0x11 SWAP5 SWAP6 SWAP7 PUSH1 0xC DUP6 ADD SLOAD SWAP1 ADDRESS SWAP1 CALLER SWAP1 PUSH2 0x2F50 JUMP JUMPDEST PUSH2 0x12FA JUMP JUMPDEST PUSH1 0x40 MLOAD PUSH3 0x461BCD PUSH1 0xE5 SHL DUP2 MSTORE PUSH1 0x4 DUP2 ADD DUP8 SWAP1 MSTORE PUSH1 0x30 PUSH1 0x24 DUP3 ADD MSTORE PUSH32 0x446F206E6F742073656E64206E61746976652063757272656E63792077697468 PUSH1 0x44 DUP3 ADD MSTORE PUSH16 0x20746F6B656E20656E74727920666565 PUSH1 0x80 SHL PUSH1 0x64 DUP3 ADD MSTORE PUSH1 0x84 SWAP1 REVERT JUMPDEST PUSH2 0x144A SWAP1 PUSH1 0x11 DUP6 ADD SLOAD LT PUSH2 0x3143 JUMP JUMPDEST CODESIZE PUSH2 0x12D6 JUMP JUMPDEST PUSH1 0x40 MLOAD PUSH3 0x461BCD PUSH1 0xE5 SHL DUP2 MSTORE PUSH1 0x4 DUP2 ADD DUP7 SWAP1 MSTORE PUSH1 0x22 PUSH1 0x24 DUP3 ADD MSTORE PUSH32 0x546F75726E616D656E7420646F6573206E6F74206861766520656E7472792066 PUSH1 0x44 DUP3 ADD MSTORE PUSH2 0x6565 PUSH1 0xF0 SHL PUSH1 0x64 DUP3 ADD MSTORE PUSH1 0x84 SWAP1 REVERT JUMPDEST POP PUSH2 0x100 CALLDATASIZE PUSH1 0x3 NOT ADD SLT PUSH2 0x36B JUMPI PUSH1 0x1 PUSH1 0x1 PUSH1 0x40 SHL SUB PUSH1 0x4 CALLDATALOAD DUP2 DUP2 GT PUSH2 0x363 JUMPI PUSH2 0x14CE SWAP1 CALLDATASIZE SWAP1 PUSH1 0x4 ADD PUSH2 0x2178 JUMP JUMPDEST SWAP1 PUSH1 0x24 CALLDATALOAD DUP2 DUP2 GT PUSH2 0x35F JUMPI PUSH2 0x14E7 SWAP1 CALLDATASIZE SWAP1 PUSH1 0x4 ADD PUSH2 0x2178 JUMP JUMPDEST SWAP3 PUSH1 0x44 CALLDATALOAD DUP3 DUP2 GT PUSH2 0x367 JUMPI PUSH2 0x1500 SWAP1 CALLDATASIZE SWAP1 PUSH1 0x4 ADD PUSH2 0x2178 JUMP JUMPDEST SWAP2 PUSH2 0x1509 PUSH2 0x20C3 JUMP JUMPDEST SWAP2 PUSH1 0xE4 CALLDATALOAD SWAP2 DUP3 GT PUSH2 0x36B JUMPI PUSH1 0x20 PUSH2 0x1548 DUP8 DUP8 DUP8 DUP8 PUSH2 0x152A CALLDATASIZE PUSH1 0x4 DUP11 ADD PUSH2 0x21AD JUMP JUMPDEST SWAP2 PUSH2 0x1533 PUSH2 0x24C2 JUMP JUMPDEST CALLVALUE SWAP5 CALLER SWAP5 PUSH1 0xA4 CALLDATALOAD SWAP3 PUSH1 0x84 CALLDATALOAD SWAP3 PUSH1 0x64 CALLDATALOAD SWAP3 PUSH2 0x2572 JUMP JUMPDEST PUSH1 0x1 PUSH1 0x0 DUP1 MLOAD PUSH1 0x20 PUSH2 0x38AA DUP4 CODECOPY DUP2 MLOAD SWAP2 MSTORE SSTORE PUSH1 0x40 MLOAD SWAP1 DUP2 MSTORE RETURN JUMPDEST POP CALLVALUE PUSH2 0x36B JUMPI PUSH1 0x20 DUP1 PUSH1 0x3 NOT CALLDATASIZE ADD SLT PUSH2 0x367 JUMPI PUSH1 0x4 CALLDATALOAD PUSH2 0x1580 PUSH2 0x24C2 JUMP JUMPDEST DUP1 DUP4 MSTORE DUP3 DUP3 MSTORE PUSH2 0x1595 DUP2 PUSH1 0x40 DUP6 KECCAK256 SLOAD EQ PUSH2 0x3026 JUMP JUMPDEST DUP1 DUP4 MSTORE DUP3 DUP3 MSTORE PUSH1 0x40 DUP4 KECCAK256 SWAP2 PUSH1 0xFF PUSH1 0x9 DUP5 ADD SLOAD AND PUSH2 0x188E JUMPI PUSH1 0xFF PUSH1 0xD PUSH1 0xB DUP6 ADD SWAP5 PUSH2 0x15C1 DUP4 DUP8 SLOAD AND PUSH2 0x3184 JUMP JUMPDEST ADD SLOAD AND PUSH2 0x1839 JUMPI DUP2 DUP5 MSTORE PUSH1 0x2 DUP2 MSTORE PUSH1 0x40 DUP5 KECCAK256 CALLER DUP6 MSTORE DUP2 MSTORE PUSH1 0x40 DUP5 KECCAK256 SLOAD SWAP3 DUP4 ISZERO PUSH2 0x17E6 JUMPI DUP3 DUP6 MSTORE PUSH1 0x2 DUP3 MSTORE PUSH1 0x40 DUP1 DUP7 KECCAK256 CALLER DUP8 MSTORE DUP4 MSTORE DUP6 KECCAK256 DUP6 SWAP1 SSTORE SLOAD PUSH1 0x8 SHR PUSH1 0x1 PUSH1 0x1 PUSH1 0xA0 SHL SUB AND DUP1 PUSH2 0x16F9 JUMPI POP DUP3 SELFBALANCE LT PUSH2 0x16AF JUMPI DUP4 DUP1 DUP1 DUP1 DUP7 CALLER GAS CALL PUSH2 0x1624 PUSH2 0x23EE JUMP JUMPDEST POP ISZERO PUSH2 0x166B JUMPI PUSH32 0x2D8FEA80D3388CBA87ACC61459012ECEF6C1A5470A1FA4E698333E2335158B58 SWAP1 JUMPDEST PUSH1 0x40 MLOAD SWAP4 DUP5 MSTORE CALLER SWAP4 LOG3 PUSH1 0x1 PUSH1 0x0 DUP1 MLOAD PUSH1 0x20 PUSH2 0x38AA DUP4 CODECOPY DUP2 MLOAD SWAP2 MSTORE SSTORE DUP1 RETURN JUMPDEST PUSH1 0x64 SWAP1 PUSH1 0x40 MLOAD SWAP1 PUSH3 0x461BCD PUSH1 0xE5 SHL DUP3 MSTORE PUSH1 0x4 DUP3 ADD MSTORE PUSH1 0x1E PUSH1 0x24 DUP3 ADD MSTORE PUSH32 0x4E617469766520656E7472792066656520726566756E64206661696C65640000 PUSH1 0x44 DUP3 ADD MSTORE REVERT JUMPDEST PUSH1 0x84 SWAP1 PUSH1 0x40 MLOAD SWAP1 PUSH3 0x461BCD PUSH1 0xE5 SHL DUP3 MSTORE PUSH1 0x4 DUP3 ADD MSTORE PUSH1 0x2F PUSH1 0x24 DUP3 ADD MSTORE PUSH1 0x0 DUP1 MLOAD PUSH1 0x20 PUSH2 0x38CA DUP4 CODECOPY DUP2 MLOAD SWAP2 MSTORE PUSH1 0x44 DUP3 ADD MSTORE PUSH15 0x1C881B985D1A5D99481C99599D5B99 PUSH1 0x8A SHL PUSH1 0x64 DUP3 ADD MSTORE REVERT JUMPDEST PUSH1 0x40 MLOAD PUSH4 0x70A08231 PUSH1 0xE0 SHL DUP2 MSTORE ADDRESS PUSH1 0x4 DUP3 ADD MSTORE DUP3 DUP2 PUSH1 0x24 DUP2 DUP6 GAS STATICCALL DUP1 ISZERO PUSH2 0x17DB JUMPI DUP6 SWAP2 DUP8 SWAP2 PUSH2 0x17A6 JUMPI JUMPDEST POP LT PUSH2 0x175C JUMPI SWAP1 PUSH2 0x1757 DUP5 PUSH32 0x2D8FEA80D3388CBA87ACC61459012ECEF6C1A5470A1FA4E698333E2335158B58 SWAP4 CALLER SWAP1 PUSH2 0x359A JUMP JUMPDEST PUSH2 0x164D JUMP JUMPDEST PUSH1 0x40 MLOAD PUSH3 0x461BCD PUSH1 0xE5 SHL DUP2 MSTORE PUSH1 0x4 DUP2 ADD DUP4 SWAP1 MSTORE PUSH1 0x2E PUSH1 0x24 DUP3 ADD MSTORE PUSH1 0x0 DUP1 MLOAD PUSH1 0x20 PUSH2 0x38CA DUP4 CODECOPY DUP2 MLOAD SWAP2 MSTORE PUSH1 0x44 DUP3 ADD MSTORE PUSH14 0x1C881D1BDAD95B881C99599D5B99 PUSH1 0x92 SHL PUSH1 0x64 DUP3 ADD MSTORE PUSH1 0x84 SWAP1 REVERT JUMPDEST DUP1 SWAP3 POP DUP5 DUP1 SWAP3 POP RETURNDATASIZE DUP4 GT PUSH2 0x17D4 JUMPI JUMPDEST PUSH2 0x17BF DUP2 DUP4 PUSH2 0x20EF JUMP JUMPDEST DUP2 ADD SUB SLT PUSH2 0x17D0 JUMPI DUP5 SWAP1 MLOAD CODESIZE PUSH2 0x1723 JUMP JUMPDEST DUP6 DUP1 REVERT JUMPDEST POP RETURNDATASIZE PUSH2 0x17B5 JUMP JUMPDEST PUSH1 0x40 MLOAD RETURNDATASIZE DUP9 DUP3 RETURNDATACOPY RETURNDATASIZE SWAP1 REVERT JUMPDEST PUSH1 0x40 MLOAD PUSH3 0x461BCD PUSH1 0xE5 SHL DUP2 MSTORE PUSH1 0x4 DUP2 ADD DUP4 SWAP1 MSTORE PUSH1 0x25 PUSH1 0x24 DUP3 ADD MSTORE PUSH32 0x4E6F20656E747279206665652070616964206F7220616C726561647920726566 PUSH1 0x44 DUP3 ADD MSTORE PUSH5 0x1D5B991959 PUSH1 0xDA SHL PUSH1 0x64 DUP3 ADD MSTORE PUSH1 0x84 SWAP1 REVERT JUMPDEST PUSH1 0x84 SWAP1 PUSH1 0x40 MLOAD SWAP1 PUSH3 0x461BCD PUSH1 0xE5 SHL DUP3 MSTORE PUSH1 0x4 DUP3 ADD MSTORE PUSH1 0x28 PUSH1 0x24 DUP3 ADD MSTORE PUSH32 0x4665657320616C7265616479206469737472696275746564202863616E6E6F74 PUSH1 0x44 DUP3 ADD MSTORE PUSH8 0x20726566756E6429 PUSH1 0xC0 SHL PUSH1 0x64 DUP3 ADD MSTORE REVERT JUMPDEST PUSH1 0x64 SWAP1 PUSH1 0x40 MLOAD SWAP1 PUSH3 0x461BCD PUSH1 0xE5 SHL DUP3 MSTORE PUSH1 0x4 DUP3 ADD MSTORE PUSH1 0x18 PUSH1 0x24 DUP3 ADD MSTORE PUSH32 0x546F75726E616D656E74206E6F742063616E63656C6C65640000000000000000 PUSH1 0x44 DUP3 ADD MSTORE REVERT JUMPDEST POP CALLVALUE PUSH2 0x36B JUMPI DUP1 PUSH1 0x3 NOT CALLDATASIZE ADD SLT PUSH2 0x36B JUMPI PUSH1 0x20 PUSH1 0x40 MLOAD PUSH1 0xA DUP2 MSTORE RETURN JUMPDEST POP CALLVALUE PUSH2 0x36B JUMPI DUP1 PUSH1 0x3 NOT CALLDATASIZE ADD SLT PUSH2 0x36B JUMPI PUSH32 0x0 PUSH1 0x1 PUSH1 0x1 PUSH1 0xA0 SHL SUB AND ADDRESS SUB PUSH2 0x1959 JUMPI PUSH1 0x20 PUSH1 0x40 MLOAD PUSH32 0x360894A13BA1A3210667C828492DB98DCA3E2076CC3735A920A3CA505D382BBC DUP2 MSTORE RETURN JUMPDEST PUSH1 0x40 MLOAD PUSH4 0x703E46DD PUSH1 0xE1 SHL DUP2 MSTORE PUSH1 0x4 SWAP1 REVERT JUMPDEST POP PUSH1 0x40 CALLDATASIZE PUSH1 0x3 NOT ADD SLT PUSH2 0x36B JUMPI PUSH2 0x1980 PUSH2 0x20A8 JUMP JUMPDEST PUSH1 0x24 CALLDATALOAD PUSH1 0x1 PUSH1 0x1 PUSH1 0x40 SHL SUB DUP2 GT PUSH2 0x363 JUMPI CALLDATASIZE PUSH1 0x23 DUP3 ADD SLT ISZERO PUSH2 0x363 JUMPI PUSH2 0x19B0 SWAP1 CALLDATASIZE SWAP1 PUSH1 0x24 DUP2 PUSH1 0x4 ADD CALLDATALOAD SWAP2 ADD PUSH2 0x2141 JUMP JUMPDEST PUSH1 0x1 PUSH1 0x1 PUSH1 0xA0 SHL SUB PUSH32 0x0 DUP2 AND ADDRESS DUP2 EQ SWAP1 DUP2 ISZERO PUSH2 0x1B47 JUMPI JUMPDEST POP PUSH2 0x1959 JUMPI PUSH2 0x19F3 PUSH2 0x2341 JUMP JUMPDEST DUP3 AND SWAP2 PUSH1 0x40 MLOAD PUSH4 0x52D1902D PUSH1 0xE0 SHL DUP2 MSTORE PUSH1 0x20 DUP2 PUSH1 0x4 DUP2 DUP8 GAS STATICCALL DUP6 SWAP2 DUP2 PUSH2 0x1B14 JUMPI JUMPDEST POP PUSH2 0x1A32 JUMPI PUSH1 0x40 MLOAD PUSH4 0x4C9C8CE3 PUSH1 0xE0 SHL DUP2 MSTORE PUSH1 0x4 DUP2 ADD DUP6 SWAP1 MSTORE PUSH1 0x24 SWAP1 REVERT JUMPDEST SWAP3 DUP5 SWAP4 PUSH32 0x360894A13BA1A3210667C828492DB98DCA3E2076CC3735A920A3CA505D382BBC SWAP1 DUP2 DUP2 SUB PUSH2 0x1AFC JUMPI POP DUP3 EXTCODESIZE ISZERO PUSH2 0x1AE3 JUMPI DUP1 SLOAD PUSH1 0x1 PUSH1 0x1 PUSH1 0xA0 SHL SUB NOT AND DUP3 OR SWAP1 SSTORE PUSH1 0x40 MLOAD DUP5 SWAP2 PUSH32 0xBC7CD75A20EE27FD9ADEBAB32041F755214DBC6BFFA90CC0225B39DA2E5C2D3B DUP4 DUP1 LOG2 DUP4 MLOAD ISZERO PUSH2 0x1AC7 JUMPI POP DUP1 DUP4 PUSH1 0x20 PUSH2 0x1AC3 SWAP6 MLOAD SWAP2 ADD DUP5 GAS DELEGATECALL PUSH2 0x1ABD PUSH2 0x23EE JUMP JUMPDEST SWAP2 PUSH2 0x241E JUMP JUMPDEST POP DUP1 RETURN JUMPDEST SWAP3 POP POP POP CALLVALUE PUSH2 0x1AD4 JUMPI POP DUP1 RETURN JUMPDEST PUSH4 0xB398979F PUSH1 0xE0 SHL DUP2 MSTORE PUSH1 0x4 SWAP1 REVERT JUMPDEST PUSH1 0x40 MLOAD PUSH4 0x4C9C8CE3 PUSH1 0xE0 SHL DUP2 MSTORE PUSH1 0x4 DUP2 ADD DUP4 SWAP1 MSTORE PUSH1 0x24 SWAP1 REVERT JUMPDEST PUSH1 0x24 SWAP1 PUSH1 0x40 MLOAD SWAP1 PUSH4 0x2A875269 PUSH1 0xE2 SHL DUP3 MSTORE PUSH1 0x4 DUP3 ADD MSTORE REVERT JUMPDEST SWAP1 SWAP2 POP PUSH1 0x20 DUP2 RETURNDATASIZE DUP3 GT PUSH2 0x1B3F JUMPI JUMPDEST DUP2 PUSH2 0x1B2F PUSH1 0x20 SWAP4 DUP4 PUSH2 0x20EF JUMP JUMPDEST DUP2 ADD SUB SLT PUSH2 0x17D0 JUMPI MLOAD SWAP1 CODESIZE PUSH2 0x1A14 JUMP JUMPDEST RETURNDATASIZE SWAP2 POP PUSH2 0x1B22 JUMP JUMPDEST SWAP1 POP DUP2 PUSH32 0x360894A13BA1A3210667C828492DB98DCA3E2076CC3735A920A3CA505D382BBC SLOAD AND EQ ISZERO CODESIZE PUSH2 0x19E6 JUMP JUMPDEST POP CALLVALUE PUSH2 0x36B JUMPI PUSH1 0x20 CALLDATASIZE PUSH1 0x3 NOT ADD SLT PUSH2 0x36B JUMPI PUSH1 0x4 CALLDATALOAD PUSH2 0x1B92 PUSH2 0x24C2 JUMP JUMPDEST DUP1 DUP3 MSTORE DUP2 PUSH1 0x20 MSTORE PUSH2 0x1BA8 DUP2 PUSH1 0x40 DUP5 KECCAK256 SLOAD EQ PUSH2 0x3026 JUMP JUMPDEST DUP1 DUP3 MSTORE DUP2 PUSH1 0x20 MSTORE PUSH1 0x40 DUP3 KECCAK256 SWAP1 PUSH1 0x8 DUP3 ADD SLOAD TIMESTAMP GT ISZERO PUSH2 0x1BC9 JUMPI PUSH2 0x6CD SWAP2 PUSH2 0x31D0 JUMP JUMPDEST PUSH1 0x40 MLOAD PUSH3 0x461BCD PUSH1 0xE5 SHL DUP2 MSTORE PUSH1 0x20 PUSH1 0x4 DUP3 ADD MSTORE PUSH1 0x21 PUSH1 0x24 DUP3 ADD MSTORE PUSH32 0x526567697374726174696F6E20706572696F64206E6F7420656E646564207965 PUSH1 0x44 DUP3 ADD MSTORE PUSH1 0x1D PUSH1 0xFA SHL PUSH1 0x64 DUP3 ADD MSTORE PUSH1 0x84 SWAP1 REVERT JUMPDEST POP CALLVALUE PUSH2 0x36B JUMPI PUSH1 0x20 DUP1 PUSH1 0x3 NOT CALLDATASIZE ADD SLT PUSH2 0x367 JUMPI PUSH1 0x4 CALLDATALOAD SWAP1 PUSH2 0x1C37 PUSH2 0x24C2 JUMP JUMPDEST DUP2 DUP4 MSTORE DUP3 DUP2 MSTORE PUSH2 0x1C4C DUP3 PUSH1 0x40 DUP6 KECCAK256 SLOAD EQ PUSH2 0x3026 JUMP JUMPDEST DUP2 DUP4 MSTORE DUP3 DUP2 MSTORE PUSH2 0x1C65 PUSH1 0xFF PUSH1 0x9 PUSH1 0x40 DUP7 KECCAK256 ADD SLOAD AND PUSH2 0x3072 JUMP JUMPDEST DUP2 DUP4 MSTORE DUP3 DUP2 MSTORE PUSH1 0x40 DUP4 KECCAK256 SWAP1 PUSH2 0x1C80 PUSH1 0x8 DUP4 ADD SLOAD TIMESTAMP GT ISZERO PUSH2 0x30B6 JUMP JUMPDEST PUSH1 0xFF PUSH1 0xB DUP4 ADD SLOAD AND PUSH2 0x1CEA JUMPI SWAP1 PUSH1 0x11 SWAP2 PUSH1 0x12 DUP3 ADD SWAP1 CALLER DUP7 MSTORE DUP2 DUP2 MSTORE PUSH2 0x1CAC PUSH1 0xFF PUSH1 0x40 DUP9 KECCAK256 SLOAD AND ISZERO PUSH2 0x3102 JUMP JUMPDEST PUSH1 0x5 DUP4 ADD SLOAD DUP1 PUSH2 0x1CD6 JUMPI JUMPDEST POP CALLER DUP7 MSTORE MSTORE PUSH1 0x40 DUP5 KECCAK256 PUSH1 0x1 PUSH1 0xFF NOT DUP3 SLOAD AND OR SWAP1 SSTORE ADD PUSH2 0x132F DUP2 SLOAD PUSH2 0x2515 JUMP JUMPDEST PUSH2 0x1CE4 SWAP1 DUP6 DUP6 ADD SLOAD LT PUSH2 0x3143 JUMP JUMPDEST CODESIZE PUSH2 0x1CB7 JUMP JUMPDEST PUSH1 0x64 SWAP1 PUSH1 0x40 MLOAD SWAP1 PUSH3 0x461BCD PUSH1 0xE5 SHL DUP3 MSTORE PUSH1 0x4 DUP3 ADD MSTORE PUSH1 0x1D PUSH1 0x24 DUP3 ADD MSTORE PUSH32 0x546F75726E616D656E7420726571756972657320656E74727920666565000000 PUSH1 0x44 DUP3 ADD MSTORE REVERT JUMPDEST POP CALLVALUE PUSH2 0x36B JUMPI PUSH1 0x20 CALLDATASIZE PUSH1 0x3 NOT ADD SLT PUSH2 0x36B JUMPI PUSH1 0x20 SWAP1 PUSH1 0x40 SWAP1 PUSH1 0x1 PUSH1 0x1 PUSH1 0xA0 SHL SUB PUSH2 0x1D56 PUSH2 0x20A8 JUMP JUMPDEST AND DUP2 MSTORE PUSH1 0x3 DUP4 MSTORE KECCAK256 SLOAD PUSH1 0x40 MLOAD SWAP1 DUP2 MSTORE RETURN JUMPDEST POP CALLVALUE PUSH2 0x36B JUMPI PUSH1 0x20 DUP1 PUSH1 0x3 NOT CALLDATASIZE ADD SLT PUSH2 0x367 JUMPI PUSH1 0x4 CALLDATALOAD SWAP1 PUSH2 0x1D86 PUSH2 0x24C2 JUMP JUMPDEST DUP2 DUP4 MSTORE DUP3 DUP2 MSTORE PUSH2 0x1D9B DUP3 PUSH1 0x40 DUP6 KECCAK256 SLOAD EQ PUSH2 0x3026 JUMP JUMPDEST DUP2 DUP4 MSTORE DUP3 DUP2 MSTORE PUSH1 0xFF PUSH2 0x1DB5 DUP2 PUSH1 0x9 PUSH1 0x40 DUP8 KECCAK256 ADD SLOAD AND PUSH2 0x3072 JUMP JUMPDEST DUP3 DUP5 MSTORE DUP4 DUP3 MSTORE PUSH1 0x40 DUP5 KECCAK256 PUSH1 0x1 ADD SLOAD PUSH1 0x1 PUSH1 0x1 PUSH1 0xA0 SHL SUB SWAP1 PUSH2 0x1DD9 SWAP1 DUP3 AND CALLER EQ PUSH2 0x35E9 JUMP JUMPDEST DUP4 DUP6 MSTORE DUP5 DUP4 MSTORE PUSH1 0x40 DUP6 KECCAK256 SWAP1 PUSH1 0x9 DUP3 ADD SWAP2 DUP3 SLOAD SWAP3 PUSH1 0xFF NOT DUP5 AND SWAP1 SSTORE DUP7 SWAP4 DUP8 SWAP1 PUSH1 0xE DUP4 ADD DUP1 SLOAD SWAP2 PUSH1 0xF DUP6 ADD SWAP1 JUMPDEST DUP4 DUP6 LT PUSH2 0x1FF9 JUMPI POP POP POP POP POP DUP4 PUSH2 0x1E51 JUMPI JUMPDEST DUP7 DUP7 PUSH32 0xFA61EC8D7E5A58CEBA17772B10BA0C6CAA65B40B200302BE35F00EFC264C7895 DUP3 DUP1 LOG2 PUSH1 0x1 PUSH1 0x0 DUP1 MLOAD PUSH1 0x20 PUSH2 0x38AA DUP4 CODECOPY DUP2 MLOAD SWAP2 MSTORE SSTORE DUP1 RETURN JUMPDEST PUSH1 0x1 ADD SLOAD DUP2 AND SWAP2 PUSH1 0x8 SHR AND DUP1 PUSH2 0x1F30 JUMPI POP DUP2 SELFBALANCE LT PUSH2 0x1EDE JUMPI DUP5 DUP1 DUP1 SWAP4 DUP2 SWAP4 GAS CALL PUSH2 0x1E79 PUSH2 0x23EE JUMP JUMPDEST POP ISZERO PUSH2 0x1E8B JUMPI POP JUMPDEST CODESIZE DUP1 DUP1 DUP1 DUP1 PUSH2 0x1E16 JUMP JUMPDEST PUSH1 0x84 SWAP1 PUSH1 0x40 MLOAD SWAP1 PUSH3 0x461BCD PUSH1 0xE5 SHL DUP3 MSTORE PUSH1 0x4 DUP3 ADD MSTORE PUSH1 0x26 PUSH1 0x24 DUP3 ADD MSTORE PUSH32 0x4E61746976652072657761726420726566756E6420746F2063726561746F7220 PUSH1 0x44 DUP3 ADD MSTORE PUSH6 0x19985A5B1959 PUSH1 0xD2 SHL PUSH1 0x64 DUP3 ADD MSTORE REVERT JUMPDEST PUSH1 0x40 MLOAD PUSH3 0x461BCD PUSH1 0xE5 SHL DUP2 MSTORE PUSH1 0x4 DUP2 ADD DUP5 SWAP1 MSTORE PUSH1 0x36 PUSH1 0x24 DUP3 ADD MSTORE PUSH1 0x0 DUP1 MLOAD PUSH1 0x20 PUSH2 0x38CA DUP4 CODECOPY DUP2 MLOAD SWAP2 MSTORE PUSH1 0x44 DUP3 ADD MSTORE PUSH22 0x1C881B985D1A5D99481C995DD85C99081C99599D5B99 PUSH1 0x52 SHL PUSH1 0x64 DUP3 ADD MSTORE PUSH1 0x84 SWAP1 REVERT JUMPDEST PUSH1 0x40 MLOAD PUSH4 0x70A08231 PUSH1 0xE0 SHL DUP2 MSTORE ADDRESS PUSH1 0x4 DUP3 ADD MSTORE SWAP4 SWAP6 SWAP5 SWAP4 DUP7 DUP2 PUSH1 0x24 DUP2 DUP6 GAS STATICCALL SWAP1 DUP2 ISZERO PUSH2 0x17DB JUMPI SWAP1 DUP5 SWAP2 DUP8 SWAP2 PUSH2 0x1FC8 JUMPI JUMPDEST POP LT PUSH2 0x1F77 JUMPI PUSH2 0x1F72 SWAP4 SWAP5 SWAP6 POP PUSH2 0x359A JUMP JUMPDEST PUSH2 0x1E81 JUMP JUMPDEST PUSH1 0x40 MLOAD PUSH3 0x461BCD PUSH1 0xE5 SHL DUP2 MSTORE PUSH1 0x4 DUP2 ADD DUP8 SWAP1 MSTORE PUSH1 0x35 PUSH1 0x24 DUP3 ADD MSTORE PUSH1 0x0 DUP1 MLOAD PUSH1 0x20 PUSH2 0x38CA DUP4 CODECOPY DUP2 MLOAD SWAP2 MSTORE PUSH1 0x44 DUP3 ADD MSTORE PUSH21 0x1C881D1BDAD95B881C995DD85C99081C99599D5B99 PUSH1 0x5A SHL PUSH1 0x64 DUP3 ADD MSTORE PUSH1 0x84 SWAP1 REVERT JUMPDEST DUP1 SWAP3 POP DUP9 DUP1 SWAP3 POP RETURNDATASIZE DUP4 GT PUSH2 0x1FF2 JUMPI JUMPDEST PUSH2 0x1FE1 DUP2 DUP4 PUSH2 0x20EF JUMP JUMPDEST DUP2 ADD SUB SLT PUSH2 0x17D0 JUMPI DUP4 SWAP1 MLOAD CODESIZE PUSH2 0x1F60 JUMP JUMPDEST POP RETURNDATASIZE PUSH2 0x1FD7 JUMP JUMPDEST SWAP1 SWAP2 SWAP3 SWAP4 SWAP8 DUP9 DUP13 MSTORE DUP3 DUP11 MSTORE DUP7 PUSH1 0x40 DUP14 KECCAK256 SLOAD AND ISZERO ISZERO DUP1 PUSH2 0x2079 JUMPI JUMPDEST ISZERO PUSH2 0x2045 JUMPI PUSH2 0x2036 PUSH2 0x203C SWAP2 PUSH2 0x2029 DUP12 DUP8 PUSH2 0x3871 JUMP JUMPDEST SWAP1 SLOAD SWAP1 PUSH1 0x3 SHL SHR SWAP1 PUSH2 0x254E JUMP JUMPDEST SWAP9 PUSH2 0x2515 JUMP JUMPDEST SWAP4 SWAP3 SWAP2 SWAP1 PUSH2 0x1E04 JUMP JUMPDEST SWAP8 DUP3 DUP11 MSTORE DUP7 PUSH1 0x40 DUP14 KECCAK256 SLOAD AND ISZERO PUSH2 0x205F JUMPI JUMPDEST PUSH2 0x203C SWAP1 PUSH2 0x2515 JUMP JUMPDEST SWAP8 PUSH2 0x2071 PUSH2 0x203C SWAP2 PUSH2 0x2029 DUP12 DUP8 PUSH2 0x3871 JUMP JUMPDEST SWAP9 SWAP1 POP PUSH2 0x2056 JUMP JUMPDEST POP PUSH1 0x10 DUP7 ADD DUP11 MSTORE DUP2 PUSH1 0x40 DUP14 KECCAK256 SLOAD AND ISZERO PUSH2 0x2013 JUMP JUMPDEST SWAP1 POP CALLVALUE PUSH2 0x367 JUMPI DUP2 PUSH1 0x3 NOT CALLDATASIZE ADD SLT PUSH2 0x367 JUMPI DUP1 PUSH1 0xFA PUSH1 0x20 SWAP3 MSTORE RETURN JUMPDEST PUSH1 0x4 CALLDATALOAD SWAP1 PUSH1 0x1 PUSH1 0x1 PUSH1 0xA0 SHL SUB DUP3 AND DUP3 SUB PUSH2 0x20BE JUMPI JUMP JUMPDEST PUSH1 0x0 DUP1 REVERT JUMPDEST PUSH1 0xC4 CALLDATALOAD SWAP1 PUSH1 0x1 PUSH1 0x1 PUSH1 0xA0 SHL SUB DUP3 AND DUP3 SUB PUSH2 0x20BE JUMPI JUMP JUMPDEST PUSH1 0x24 CALLDATALOAD SWAP1 PUSH1 0x1 PUSH1 0x1 PUSH1 0xA0 SHL SUB DUP3 AND DUP3 SUB PUSH2 0x20BE JUMPI JUMP JUMPDEST SWAP1 PUSH1 0x1F DUP1 NOT SWAP2 ADD AND DUP2 ADD SWAP1 DUP2 LT PUSH1 0x1 PUSH1 0x1 PUSH1 0x40 SHL SUB DUP3 GT OR PUSH2 0x2110 JUMPI PUSH1 0x40 MSTORE JUMP JUMPDEST PUSH4 0x4E487B71 PUSH1 0xE0 SHL PUSH1 0x0 MSTORE PUSH1 0x41 PUSH1 0x4 MSTORE PUSH1 0x24 PUSH1 0x0 REVERT JUMPDEST PUSH1 0x1 PUSH1 0x1 PUSH1 0x40 SHL SUB DUP2 GT PUSH2 0x2110 JUMPI PUSH1 0x1F ADD PUSH1 0x1F NOT AND PUSH1 0x20 ADD SWAP1 JUMP JUMPDEST SWAP3 SWAP2 SWAP3 PUSH2 0x214D DUP3 PUSH2 0x2126 JUMP JUMPDEST SWAP2 PUSH2 0x215B PUSH1 0x40 MLOAD SWAP4 DUP5 PUSH2 0x20EF JUMP JUMPDEST DUP3 SWAP5 DUP2 DUP5 MSTORE DUP2 DUP4 ADD GT PUSH2 0x20BE JUMPI DUP3 DUP2 PUSH1 0x20 SWAP4 DUP5 PUSH1 0x0 SWAP7 ADD CALLDATACOPY ADD ADD MSTORE JUMP JUMPDEST SWAP1 DUP1 PUSH1 0x1F DUP4 ADD SLT ISZERO PUSH2 0x20BE JUMPI DUP2 PUSH1 0x20 PUSH2 0x2193 SWAP4 CALLDATALOAD SWAP2 ADD PUSH2 0x2141 JUMP JUMPDEST SWAP1 JUMP JUMPDEST PUSH1 0x1 PUSH1 0x1 PUSH1 0x40 SHL SUB DUP2 GT PUSH2 0x2110 JUMPI PUSH1 0x5 SHL PUSH1 0x20 ADD SWAP1 JUMP JUMPDEST DUP2 PUSH1 0x1F DUP3 ADD SLT ISZERO PUSH2 0x20BE JUMPI DUP1 CALLDATALOAD SWAP2 PUSH2 0x21C4 DUP4 PUSH2 0x2196 JUMP JUMPDEST SWAP3 PUSH2 0x21D2 PUSH1 0x40 MLOAD SWAP5 DUP6 PUSH2 0x20EF JUMP JUMPDEST DUP1 DUP5 MSTORE PUSH1 0x20 SWAP3 DUP4 DUP1 DUP7 ADD SWAP3 PUSH1 0x5 SHL DUP3 ADD ADD SWAP3 DUP4 GT PUSH2 0x20BE JUMPI DUP4 ADD SWAP1 JUMPDEST DUP3 DUP3 LT PUSH2 0x21FC JUMPI POP POP POP POP SWAP1 JUMP JUMPDEST DUP2 CALLDATALOAD DUP2 MSTORE SWAP1 DUP4 ADD SWAP1 DUP4 ADD PUSH2 0x21EE JUMP JUMPDEST PUSH1 0x40 SWAP1 PUSH1 0x3 NOT ADD SLT PUSH2 0x20BE JUMPI PUSH1 0x4 CALLDATALOAD SWAP1 PUSH1 0x24 CALLDATALOAD SWAP1 JUMP JUMPDEST SWAP1 PUSH1 0x1 DUP3 DUP2 SHR SWAP3 AND DUP1 ISZERO PUSH2 0x2251 JUMPI JUMPDEST PUSH1 0x20 DUP4 LT EQ PUSH2 0x223B JUMPI JUMP JUMPDEST PUSH4 0x4E487B71 PUSH1 0xE0 SHL PUSH1 0x0 MSTORE PUSH1 0x22 PUSH1 0x4 MSTORE PUSH1 0x24 PUSH1 0x0 REVERT JUMPDEST SWAP2 PUSH1 0x7F AND SWAP2 PUSH2 0x2230 JUMP JUMPDEST SWAP1 PUSH1 0x40 MLOAD SWAP2 DUP3 PUSH1 0x0 DUP3 SLOAD SWAP3 PUSH2 0x226F DUP5 PUSH2 0x2221 JUMP JUMPDEST SWAP1 DUP2 DUP5 MSTORE PUSH1 0x1 SWAP5 DUP6 DUP2 AND SWAP1 DUP2 PUSH1 0x0 EQ PUSH2 0x22DE JUMPI POP PUSH1 0x1 EQ PUSH2 0x229B JUMPI JUMPDEST POP POP PUSH2 0x2299 SWAP3 POP SUB DUP4 PUSH2 0x20EF JUMP JUMPDEST JUMP JUMPDEST SWAP1 SWAP4 SWAP2 POP PUSH1 0x0 MSTORE PUSH1 0x20 SWAP1 DUP2 PUSH1 0x0 KECCAK256 SWAP4 PUSH1 0x0 SWAP2 JUMPDEST DUP2 DUP4 LT PUSH2 0x22C6 JUMPI POP POP PUSH2 0x2299 SWAP4 POP DUP3 ADD ADD CODESIZE DUP1 PUSH2 0x228B JUMP JUMPDEST DUP6 SLOAD DUP9 DUP5 ADD DUP6 ADD MSTORE SWAP5 DUP6 ADD SWAP5 DUP8 SWAP5 POP SWAP2 DUP4 ADD SWAP2 PUSH2 0x22AE JUMP JUMPDEST SWAP2 POP POP PUSH2 0x2299 SWAP5 POP PUSH1 0x20 SWAP3 POP PUSH1 0xFF NOT AND DUP3 DUP5 ADD MSTORE ISZERO ISZERO PUSH1 0x5 SHL DUP3 ADD ADD CODESIZE DUP1 PUSH2 0x228B JUMP JUMPDEST SWAP2 SWAP1 DUP3 MLOAD SWAP3 DUP4 DUP3 MSTORE PUSH1 0x0 JUMPDEST DUP5 DUP2 LT PUSH2 0x232D JUMPI POP POP DUP3 PUSH1 0x0 PUSH1 0x20 DUP1 SWAP5 SWAP6 DUP5 ADD ADD MSTORE PUSH1 0x1F DUP1 NOT SWAP2 ADD AND ADD ADD SWAP1 JUMP JUMPDEST PUSH1 0x20 DUP2 DUP4 ADD DUP2 ADD MLOAD DUP5 DUP4 ADD DUP3 ADD MSTORE ADD PUSH2 0x230C JUMP JUMPDEST PUSH1 0x0 DUP1 MLOAD PUSH1 0x20 PUSH2 0x388A DUP4 CODECOPY DUP2 MLOAD SWAP2 MSTORE SLOAD PUSH1 0x1 PUSH1 0x1 PUSH1 0xA0 SHL SUB AND CALLER SUB PUSH2 0x2362 JUMPI JUMP JUMPDEST PUSH1 0x40 MLOAD PUSH4 0x118CDAA7 PUSH1 0xE0 SHL DUP2 MSTORE CALLER PUSH1 0x4 DUP3 ADD MSTORE PUSH1 0x24 SWAP1 REVERT JUMPDEST PUSH1 0x1 PUSH1 0x1 PUSH1 0xA0 SHL SUB SWAP1 DUP2 AND SWAP1 DUP2 ISZERO PUSH2 0x23D5 JUMPI PUSH1 0x0 DUP1 MLOAD PUSH1 0x20 PUSH2 0x388A DUP4 CODECOPY DUP2 MLOAD SWAP2 MSTORE DUP1 SLOAD PUSH1 0x1 PUSH1 0x1 PUSH1 0xA0 SHL SUB NOT DUP2 AND DUP5 OR SWAP1 SWAP2 SSTORE AND PUSH32 0x8BE0079C531659141344CD1FD0A4F28419497F9722A3DAAFE3B4186F6B6457E0 PUSH1 0x0 DUP1 LOG3 JUMP JUMPDEST PUSH1 0x40 MLOAD PUSH4 0x1E4FBDF7 PUSH1 0xE0 SHL DUP2 MSTORE PUSH1 0x0 PUSH1 0x4 DUP3 ADD MSTORE PUSH1 0x24 SWAP1 REVERT JUMPDEST RETURNDATASIZE ISZERO PUSH2 0x2419 JUMPI RETURNDATASIZE SWAP1 PUSH2 0x23FF DUP3 PUSH2 0x2126 JUMP JUMPDEST SWAP2 PUSH2 0x240D PUSH1 0x40 MLOAD SWAP4 DUP5 PUSH2 0x20EF JUMP JUMPDEST DUP3 MSTORE RETURNDATASIZE PUSH1 0x0 PUSH1 0x20 DUP5 ADD RETURNDATACOPY JUMP JUMPDEST PUSH1 0x60 SWAP1 JUMP JUMPDEST SWAP1 PUSH2 0x2445 JUMPI POP DUP1 MLOAD ISZERO PUSH2 0x2433 JUMPI DUP1 MLOAD SWAP1 PUSH1 0x20 ADD REVERT JUMPDEST PUSH1 0x40 MLOAD PUSH4 0xA12F521 PUSH1 0xE1 SHL DUP2 MSTORE PUSH1 0x4 SWAP1 REVERT JUMPDEST DUP2 MLOAD ISZERO DUP1 PUSH2 0x2478 JUMPI JUMPDEST PUSH2 0x2456 JUMPI POP SWAP1 JUMP JUMPDEST PUSH1 0x40 MLOAD PUSH4 0x9996B315 PUSH1 0xE0 SHL DUP2 MSTORE PUSH1 0x1 PUSH1 0x1 PUSH1 0xA0 SHL SUB SWAP1 SWAP2 AND PUSH1 0x4 DUP3 ADD MSTORE PUSH1 0x24 SWAP1 REVERT JUMPDEST POP DUP1 EXTCODESIZE ISZERO PUSH2 0x244E JUMP JUMPDEST PUSH1 0xFF PUSH32 0xF0C57E16840DF040F15088DC2F81FE391C3923BEC73E23A9662EFC9C229C6A00 SLOAD PUSH1 0x40 SHR AND ISZERO PUSH2 0x24B0 JUMPI JUMP JUMPDEST PUSH1 0x40 MLOAD PUSH4 0x1AFCD79F PUSH1 0xE3 SHL DUP2 MSTORE PUSH1 0x4 SWAP1 REVERT JUMPDEST PUSH1 0x0 DUP1 MLOAD PUSH1 0x20 PUSH2 0x38AA DUP4 CODECOPY DUP2 MLOAD SWAP2 MSTORE PUSH1 0x2 DUP2 SLOAD EQ PUSH2 0x24E0 JUMPI PUSH1 0x2 SWAP1 SSTORE JUMP JUMPDEST PUSH1 0x40 MLOAD PUSH4 0x3EE5AEB5 PUSH1 0xE0 SHL DUP2 MSTORE PUSH1 0x4 SWAP1 REVERT JUMPDEST SWAP2 SWAP1 DUP3 SUB SWAP2 DUP3 GT PUSH2 0x24FF JUMPI JUMP JUMPDEST PUSH4 0x4E487B71 PUSH1 0xE0 SHL PUSH1 0x0 MSTORE PUSH1 0x11 PUSH1 0x4 MSTORE PUSH1 0x24 PUSH1 0x0 REVERT JUMPDEST PUSH1 0x0 NOT DUP2 EQ PUSH2 0x24FF JUMPI PUSH1 0x1 ADD SWAP1 JUMP JUMPDEST DUP1 MLOAD DUP3 LT ISZERO PUSH2 0x2538 JUMPI PUSH1 0x20 SWAP2 PUSH1 0x5 SHL ADD ADD SWAP1 JUMP JUMPDEST PUSH4 0x4E487B71 PUSH1 0xE0 SHL PUSH1 0x0 MSTORE PUSH1 0x32 PUSH1 0x4 MSTORE PUSH1 0x24 PUSH1 0x0 REVERT JUMPDEST SWAP2 SWAP1 DUP3 ADD DUP1 SWAP3 GT PUSH2 0x24FF JUMPI JUMP JUMPDEST DUP2 DUP2 LT PUSH2 0x2566 JUMPI POP POP JUMP JUMPDEST PUSH1 0x0 DUP2 SSTORE PUSH1 0x1 ADD PUSH2 0x255B JUMP JUMPDEST SWAP3 SWAP9 SWAP2 SWAP7 SWAP8 SWAP4 SWAP10 SWAP6 SWAP1 SWAP5 SWAP10 DUP4 MLOAD ISZERO PUSH2 0x2F14 JUMPI DUP9 MLOAD ISZERO PUSH2 0x2ED7 JUMPI PUSH1 0xA DUP10 MLOAD GT PUSH2 0x2E92 JUMPI TIMESTAMP DUP2 GT ISZERO PUSH2 0x2E39 JUMPI DUP1 DUP12 GT ISZERO PUSH2 0x2DDD JUMPI PUSH2 0xE10 PUSH2 0x25B1 DUP3 DUP14 PUSH2 0x24F2 JUMP JUMPDEST LT PUSH2 0x2D98 JUMPI PUSH1 0x0 SWAP11 DUP12 JUMPDEST DUP11 MLOAD DUP14 LT ISZERO PUSH2 0x263D JUMPI PUSH2 0x25CE DUP14 DUP13 PUSH2 0x2524 JUMP JUMPDEST MLOAD ISZERO PUSH2 0x25F8 JUMPI PUSH2 0x25EC PUSH2 0x25F2 SWAP2 PUSH2 0x25E5 DUP16 DUP15 PUSH2 0x2524 JUMP JUMPDEST MLOAD SWAP1 PUSH2 0x254E JUMP JUMPDEST SWAP13 PUSH2 0x2515 JUMP JUMPDEST SWAP12 PUSH2 0x25BB JUMP JUMPDEST PUSH1 0x40 MLOAD PUSH3 0x461BCD PUSH1 0xE5 SHL DUP2 MSTORE PUSH1 0x20 PUSH1 0x4 DUP3 ADD MSTORE PUSH1 0x1E PUSH1 0x24 DUP3 ADD MSTORE PUSH32 0x52657761726420616D6F756E74206D75737420626520706F7369746976650000 PUSH1 0x44 DUP3 ADD MSTORE PUSH1 0x64 SWAP1 REVERT JUMPDEST SWAP4 SWAP6 SWAP9 SWAP12 POP SWAP1 SWAP2 SWAP4 SWAP7 SWAP10 SWAP9 SWAP6 SWAP9 DUP4 ISZERO PUSH2 0x2D53 JUMPI PUSH1 0x1 PUSH1 0x1 PUSH1 0xA0 SHL SUB SWAP6 DUP5 SWAP1 DUP7 DUP9 AND DUP1 PUSH2 0x2B50 JUMPI POP SUB PUSH2 0x2AFF JUMPI JUMPDEST PUSH1 0x1 SLOAD SWAP10 PUSH2 0x2677 DUP12 PUSH2 0x2515 JUMP JUMPDEST PUSH1 0x1 SSTORE DUP11 PUSH1 0x0 MSTORE PUSH1 0x0 PUSH1 0x20 MSTORE PUSH1 0x40 PUSH1 0x0 KECCAK256 SWAP7 DUP12 DUP9 SSTORE PUSH1 0x1 DUP9 ADD SWAP11 AND SWAP10 DUP11 PUSH12 0xFFFFFFFFFFFFFFFFFFFFFFFF PUSH1 0xA0 SHL DUP3 SLOAD AND OR SWAP1 SSTORE DUP9 MLOAD PUSH1 0x1 PUSH1 0x1 PUSH1 0x40 SHL SUB DUP2 GT PUSH2 0x2110 JUMPI PUSH2 0x26C7 PUSH1 0x2 DUP10 ADD SLOAD PUSH2 0x2221 JUMP JUMPDEST PUSH1 0x1F DUP2 GT PUSH2 0x2ACA JUMPI JUMPDEST POP DUP1 PUSH1 0x20 PUSH1 0x1F DUP3 GT PUSH1 0x1 EQ PUSH2 0x2A5C JUMPI PUSH1 0x0 SWAP2 PUSH2 0x2A51 JUMPI JUMPDEST POP DUP2 PUSH1 0x1 SHL SWAP2 PUSH1 0x0 NOT SWAP1 PUSH1 0x3 SHL SHR NOT AND OR PUSH1 0x2 DUP9 ADD SSTORE JUMPDEST DUP1 MLOAD SWAP1 PUSH1 0x1 PUSH1 0x1 PUSH1 0x40 SHL SUB DUP3 GT PUSH2 0x2110 JUMPI DUP2 SWAP1 PUSH2 0x271E PUSH1 0x3 DUP11 ADD SLOAD PUSH2 0x2221 JUMP JUMPDEST PUSH1 0x1F DUP2 GT PUSH2 0x2A1C JUMPI JUMPDEST POP PUSH1 0x20 SWAP1 PUSH1 0x1F DUP4 GT PUSH1 0x1 EQ PUSH2 0x29AA JUMPI PUSH1 0x0 SWAP3 PUSH2 0x299F JUMPI JUMPDEST POP POP DUP2 PUSH1 0x1 SHL SWAP2 PUSH1 0x0 NOT SWAP1 PUSH1 0x3 SHL SHR NOT AND OR PUSH1 0x3 DUP8 ADD SSTORE JUMPDEST DUP12 MLOAD PUSH1 0x1 PUSH1 0x1 PUSH1 0x40 SHL SUB DUP2 GT PUSH2 0x2110 JUMPI PUSH2 0x2773 PUSH1 0x4 DUP9 ADD SLOAD PUSH2 0x2221 JUMP JUMPDEST PUSH1 0x1F DUP2 GT PUSH2 0x295F JUMPI JUMPDEST POP PUSH1 0x20 PUSH1 0x1F DUP3 GT PUSH1 0x1 EQ PUSH2 0x28E4 JUMPI DUP2 SWAP1 PUSH1 0xE SWAP10 SWAP11 SWAP12 SWAP13 SWAP14 SWAP15 PUSH1 0x0 SWAP3 PUSH2 0x28D9 JUMPI JUMPDEST POP POP DUP2 PUSH1 0x1 SHL SWAP2 PUSH1 0x0 NOT SWAP1 PUSH1 0x3 SHL SHR NOT AND OR PUSH1 0x4 DUP8 ADD SSTORE JUMPDEST PUSH1 0x5 DUP7 ADD SSTORE TIMESTAMP PUSH1 0x6 DUP7 ADD SSTORE PUSH1 0x7 DUP6 ADD SSTORE PUSH1 0x8 DUP1 DUP6 ADD SWAP2 SWAP1 SWAP2 SSTORE PUSH1 0x9 DUP5 ADD DUP1 SLOAD PUSH1 0x1 PUSH1 0x1 PUSH1 0xA8 SHL SUB NOT AND SWAP4 SWAP1 SWAP2 SHL PUSH2 0x100 PUSH1 0x1 PUSH1 0xA8 SHL SUB AND SWAP3 SWAP1 SWAP3 OR PUSH1 0x1 OR SWAP1 SWAP2 SSTORE PUSH1 0xFF NOT SWAP1 PUSH1 0xA DUP4 ADD SSTORE PUSH1 0xB DUP3 ADD DUP2 DUP2 SLOAD AND SWAP1 SSTORE PUSH1 0x1 PUSH1 0xD DUP4 ADD SWAP2 DUP3 SLOAD AND OR SWAP1 SSTORE ADD DUP2 MLOAD SWAP2 PUSH1 0x1 PUSH1 0x1 PUSH1 0x40 SHL SUB DUP4 GT PUSH2 0x2110 JUMPI PUSH9 0x10000000000000000 DUP4 GT PUSH2 0x2110 JUMPI PUSH1 0x20 SWAP1 DUP3 SLOAD DUP5 DUP5 SSTORE DUP1 DUP6 LT PUSH2 0x28BC JUMPI JUMPDEST POP SWAP1 DUP7 SWAP5 SWAP4 SWAP3 SWAP2 ADD SWAP1 PUSH1 0x0 MSTORE PUSH1 0x20 PUSH1 0x0 KECCAK256 PUSH1 0x0 JUMPDEST DUP4 DUP2 LT PUSH2 0x28A5 JUMPI POP POP POP POP PUSH2 0x289F PUSH32 0xBD34BA7C23E010B2FA639A38C057CF452062C6645A1C102ADBEE46D0B37B8669 SWAP2 PUSH1 0x40 MLOAD SWAP2 DUP3 SWAP2 PUSH1 0x20 DUP4 MSTORE PUSH1 0x20 DUP4 ADD SWAP1 PUSH2 0x2301 JUMP JUMPDEST SUB SWAP1 LOG3 SWAP1 JUMP JUMPDEST DUP3 MLOAD DUP2 DUP4 ADD SSTORE DUP8 SWAP6 POP PUSH1 0x20 SWAP1 SWAP3 ADD SWAP2 PUSH1 0x1 ADD PUSH2 0x285B JUMP JUMPDEST PUSH2 0x28D3 SWAP1 DUP5 PUSH1 0x0 MSTORE DUP6 DUP5 PUSH1 0x0 KECCAK256 SWAP2 DUP3 ADD SWAP2 ADD PUSH2 0x255B JUMP JUMPDEST CODESIZE PUSH2 0x2847 JUMP JUMPDEST ADD MLOAD SWAP1 POP CODESIZE DUP1 PUSH2 0x279C JUMP JUMPDEST PUSH1 0x4 DUP9 ADD PUSH1 0x0 MSTORE PUSH1 0x20 PUSH1 0x0 KECCAK256 SWAP14 PUSH1 0x0 JUMPDEST PUSH1 0x1F NOT DUP5 AND DUP2 LT PUSH2 0x2942 JUMPI POP SWAP14 DUP3 SWAP2 PUSH1 0xE SWAP11 SWAP12 SWAP13 SWAP14 SWAP15 SWAP16 PUSH1 0x1 SWAP5 PUSH1 0x1F NOT DUP2 AND LT PUSH2 0x2929 JUMPI JUMPDEST POP POP POP DUP2 SHL ADD PUSH1 0x4 DUP8 ADD SSTORE PUSH2 0x27B4 JUMP JUMPDEST ADD MLOAD PUSH1 0x0 NOT PUSH1 0xF8 DUP5 PUSH1 0x3 SHL AND SHR NOT AND SWAP1 SSTORE CODESIZE DUP1 DUP1 PUSH2 0x2919 JUMP JUMPDEST SWAP1 SWAP15 DUP16 PUSH1 0x1 PUSH1 0x20 SWAP3 DUP6 DUP5 SWAP4 ADD MLOAD DUP2 SSTORE ADD SWAP4 ADD SWAP2 ADD SWAP15 SWAP1 SWAP2 SWAP15 PUSH2 0x28F4 JUMP JUMPDEST PUSH2 0x298F SWAP1 PUSH1 0x4 DUP10 ADD PUSH1 0x0 MSTORE PUSH1 0x20 PUSH1 0x0 KECCAK256 PUSH1 0x1F DUP5 ADD PUSH1 0x5 SHR DUP2 ADD SWAP2 PUSH1 0x20 DUP6 LT PUSH2 0x2995 JUMPI JUMPDEST PUSH1 0x1F ADD PUSH1 0x5 SHR ADD SWAP1 PUSH2 0x255B JUMP JUMPDEST CODESIZE PUSH2 0x277C JUMP JUMPDEST SWAP1 SWAP2 POP DUP2 SWAP1 PUSH2 0x2982 JUMP JUMPDEST ADD MLOAD SWAP1 POP CODESIZE DUP1 PUSH2 0x273E JUMP JUMPDEST SWAP3 POP PUSH1 0x3 DUP10 ADD PUSH1 0x0 MSTORE PUSH1 0x20 PUSH1 0x0 KECCAK256 SWAP1 PUSH1 0x0 SWAP4 JUMPDEST PUSH1 0x1F NOT DUP5 AND DUP6 LT PUSH2 0x2A01 JUMPI PUSH1 0x1 SWAP5 POP DUP4 PUSH1 0x1F NOT DUP2 AND LT PUSH2 0x29E8 JUMPI JUMPDEST POP POP POP DUP2 SHL ADD PUSH1 0x3 DUP8 ADD SSTORE PUSH2 0x2756 JUMP JUMPDEST ADD MLOAD PUSH1 0x0 NOT PUSH1 0xF8 DUP5 PUSH1 0x3 SHL AND SHR NOT AND SWAP1 SSTORE CODESIZE DUP1 DUP1 PUSH2 0x29D8 JUMP JUMPDEST DUP2 DUP2 ADD MLOAD DUP4 SSTORE PUSH1 0x20 SWAP5 DUP6 ADD SWAP5 PUSH1 0x1 SWAP1 SWAP4 ADD SWAP3 SWAP1 SWAP2 ADD SWAP1 PUSH2 0x29BD JUMP JUMPDEST PUSH2 0x2A4B SWAP1 PUSH1 0x3 DUP12 ADD PUSH1 0x0 MSTORE PUSH1 0x20 PUSH1 0x0 KECCAK256 PUSH1 0x1F DUP6 ADD PUSH1 0x5 SHR DUP2 ADD SWAP2 PUSH1 0x20 DUP7 LT PUSH2 0x2995 JUMPI PUSH1 0x1F ADD PUSH1 0x5 SHR ADD SWAP1 PUSH2 0x255B JUMP JUMPDEST CODESIZE PUSH2 0x2727 JUMP JUMPDEST SWAP1 POP DUP11 ADD MLOAD CODESIZE PUSH2 0x26E7 JUMP JUMPDEST SWAP2 POP PUSH1 0x2 DUP10 ADD PUSH1 0x0 MSTORE PUSH1 0x20 PUSH1 0x0 KECCAK256 PUSH1 0x0 SWAP3 JUMPDEST DUP13 PUSH1 0x1F NOT DUP5 AND DUP6 LT PUSH2 0x2AB3 JUMPI POP PUSH1 0x1 SWAP4 POP DUP3 PUSH1 0x1F NOT DUP2 AND LT PUSH2 0x2A9A JUMPI JUMPDEST POP POP DUP2 SHL ADD PUSH1 0x2 DUP9 ADD SSTORE PUSH2 0x26FE JUMP JUMPDEST DUP13 ADD MLOAD PUSH1 0x0 NOT PUSH1 0xF8 DUP5 PUSH1 0x3 SHL AND SHR NOT AND SWAP1 SSTORE CODESIZE DUP1 PUSH2 0x2A8B JUMP JUMPDEST DUP2 ADD MLOAD DUP3 SSTORE PUSH1 0x20 SWAP4 DUP5 ADD SWAP4 PUSH1 0x1 SWAP1 SWAP3 ADD SWAP2 ADD PUSH2 0x2A6E JUMP JUMPDEST PUSH2 0x2AF9 SWAP1 PUSH1 0x2 DUP11 ADD PUSH1 0x0 MSTORE PUSH1 0x20 PUSH1 0x0 KECCAK256 PUSH1 0x1F DUP5 ADD PUSH1 0x5 SHR DUP2 ADD SWAP2 PUSH1 0x20 DUP6 LT PUSH2 0x2995 JUMPI PUSH1 0x1F ADD PUSH1 0x5 SHR ADD SWAP1 PUSH2 0x255B JUMP JUMPDEST CODESIZE PUSH2 0x26D0 JUMP JUMPDEST PUSH1 0x40 MLOAD PUSH3 0x461BCD PUSH1 0xE5 SHL DUP2 MSTORE PUSH1 0x20 PUSH1 0x4 DUP3 ADD MSTORE PUSH1 0x23 PUSH1 0x24 DUP3 ADD MSTORE PUSH32 0x496E636F7272656374206E61746976652072657761726420616D6F756E742073 PUSH1 0x44 DUP3 ADD MSTORE PUSH3 0x195B9D PUSH1 0xEA SHL PUSH1 0x64 DUP3 ADD MSTORE PUSH1 0x84 SWAP1 REVERT JUMPDEST SWAP2 POP PUSH2 0x2CF7 JUMPI DUP6 EXTCODESIZE ISZERO PUSH2 0x2CA3 JUMPI PUSH1 0x40 MLOAD PUSH4 0x70A08231 PUSH1 0xE0 SHL DUP1 DUP3 MSTORE ADDRESS PUSH1 0x4 DUP4 ADD MSTORE PUSH1 0x20 SWAP3 SWAP2 DUP4 DUP2 PUSH1 0x24 DUP2 DUP7 GAS STATICCALL SWAP2 DUP3 ISZERO PUSH2 0x2C5D JUMPI DUP9 DUP15 DUP7 SWAP4 PUSH1 0x0 SWAP6 PUSH2 0x2C69 JUMPI JUMPDEST POP SWAP1 PUSH2 0x2B9E SWAP2 ADDRESS SWAP1 DUP8 PUSH2 0x2F50 JUMP JUMPDEST PUSH1 0x24 PUSH1 0x40 MLOAD DUP1 SWAP6 DUP2 SWAP4 DUP3 MSTORE ADDRESS PUSH1 0x4 DUP4 ADD MSTORE GAS STATICCALL DUP1 ISZERO PUSH2 0x2C5D JUMPI DUP8 SWAP3 PUSH1 0x0 SWAP2 PUSH2 0x2C29 JUMPI JUMPDEST POP SWAP1 PUSH2 0x2BCC SWAP2 PUSH2 0x24F2 JUMP JUMPDEST SUB PUSH2 0x2BD7 JUMPI POP PUSH2 0x266A JUMP JUMPDEST PUSH1 0x84 SWAP1 PUSH1 0x40 MLOAD SWAP1 PUSH3 0x461BCD PUSH1 0xE5 SHL DUP3 MSTORE PUSH1 0x4 DUP3 ADD MSTORE PUSH1 0x25 PUSH1 0x24 DUP3 ADD MSTORE PUSH32 0x52657761726420746F6B656E207472616E7366657220616D6F756E74206D6973 PUSH1 0x44 DUP3 ADD MSTORE PUSH5 0xDAC2E8C6D PUSH1 0xDB SHL PUSH1 0x64 DUP3 ADD MSTORE REVERT JUMPDEST SWAP2 SWAP3 POP DUP4 DUP3 DUP2 RETURNDATASIZE DUP4 GT PUSH2 0x2C56 JUMPI JUMPDEST PUSH2 0x2C41 DUP2 DUP4 PUSH2 0x20EF JUMP JUMPDEST DUP2 ADD SUB SLT PUSH2 0x36B JUMPI POP MLOAD DUP7 SWAP2 SWAP1 PUSH2 0x2BCC PUSH2 0x2BC1 JUMP JUMPDEST POP RETURNDATASIZE PUSH2 0x2C37 JUMP JUMPDEST PUSH1 0x40 MLOAD RETURNDATASIZE PUSH1 0x0 DUP3 RETURNDATACOPY RETURNDATASIZE SWAP1 REVERT JUMPDEST SWAP4 DUP1 SWAP3 POP DUP5 SWAP2 POP SWAP5 SWAP3 SWAP5 RETURNDATASIZE DUP4 GT PUSH2 0x2C9C JUMPI JUMPDEST PUSH2 0x2C85 DUP2 DUP4 PUSH2 0x20EF JUMP JUMPDEST DUP2 ADD SUB SLT PUSH2 0x36B JUMPI POP MLOAD SWAP1 DUP4 SWAP1 DUP9 DUP15 PUSH2 0x2B9E PUSH2 0x2B90 JUMP JUMPDEST POP RETURNDATASIZE PUSH2 0x2C7B JUMP JUMPDEST PUSH1 0x40 MLOAD PUSH3 0x461BCD PUSH1 0xE5 SHL DUP2 MSTORE PUSH1 0x20 PUSH1 0x4 DUP3 ADD MSTORE PUSH1 0x26 PUSH1 0x24 DUP3 ADD MSTORE PUSH32 0x52657761726420746F6B656E2061646472657373206973206E6F74206120636F PUSH1 0x44 DUP3 ADD MSTORE PUSH6 0x1B9D1C9858DD PUSH1 0xD2 SHL PUSH1 0x64 DUP3 ADD MSTORE PUSH1 0x84 SWAP1 REVERT JUMPDEST PUSH1 0x40 MLOAD PUSH3 0x461BCD PUSH1 0xE5 SHL DUP2 MSTORE PUSH1 0x20 PUSH1 0x4 DUP3 ADD MSTORE PUSH1 0x2E PUSH1 0x24 DUP3 ADD MSTORE PUSH32 0x446F206E6F742073656E64206E61746976652063757272656E63792077697468 PUSH1 0x44 DUP3 ADD MSTORE PUSH14 0x20746F6B656E2072657761726473 PUSH1 0x90 SHL PUSH1 0x64 DUP3 ADD MSTORE PUSH1 0x84 SWAP1 REVERT JUMPDEST PUSH1 0x40 MLOAD PUSH3 0x461BCD PUSH1 0xE5 SHL DUP2 MSTORE PUSH1 0x20 PUSH1 0x4 DUP3 ADD MSTORE PUSH1 0x1D PUSH1 0x24 DUP3 ADD MSTORE PUSH32 0x546F74616C20726577617264206D75737420626520706F736974697665000000 PUSH1 0x44 DUP3 ADD MSTORE PUSH1 0x64 SWAP1 REVERT JUMPDEST PUSH1 0x40 MLOAD PUSH3 0x461BCD PUSH1 0xE5 SHL DUP2 MSTORE PUSH1 0x20 PUSH1 0x4 DUP3 ADD MSTORE PUSH1 0x1D PUSH1 0x24 DUP3 ADD MSTORE PUSH32 0x526567697374726174696F6E20706572696F6420746F6F2073686F7274000000 PUSH1 0x44 DUP3 ADD MSTORE PUSH1 0x64 SWAP1 REVERT JUMPDEST PUSH1 0x40 MLOAD PUSH3 0x461BCD PUSH1 0xE5 SHL DUP2 MSTORE PUSH1 0x20 PUSH1 0x4 DUP3 ADD MSTORE PUSH1 0x2E PUSH1 0x24 DUP3 ADD MSTORE PUSH32 0x53746172742074696D65206D7573742062652061667465722072656769737472 PUSH1 0x44 DUP3 ADD MSTORE PUSH14 0x6174696F6E20656E642074696D65 PUSH1 0x90 SHL PUSH1 0x64 DUP3 ADD MSTORE PUSH1 0x84 SWAP1 REVERT JUMPDEST PUSH1 0x40 MLOAD PUSH3 0x461BCD PUSH1 0xE5 SHL DUP2 MSTORE PUSH1 0x20 PUSH1 0x4 DUP3 ADD MSTORE PUSH1 0x2B PUSH1 0x24 DUP3 ADD MSTORE PUSH32 0x526567697374726174696F6E20656E642074696D65206D75737420626520696E PUSH1 0x44 DUP3 ADD MSTORE PUSH11 0x2074686520667574757265 PUSH1 0xA8 SHL PUSH1 0x64 DUP3 ADD MSTORE PUSH1 0x84 SWAP1 REVERT JUMPDEST PUSH1 0x40 MLOAD PUSH3 0x461BCD PUSH1 0xE5 SHL DUP2 MSTORE PUSH1 0x20 PUSH1 0x4 DUP3 ADD MSTORE PUSH1 0x1C PUSH1 0x24 DUP3 ADD MSTORE PUSH32 0x45786365656473206D61782077696E6E657220706F736974696F6E7300000000 PUSH1 0x44 DUP3 ADD MSTORE PUSH1 0x64 SWAP1 REVERT JUMPDEST PUSH1 0x40 MLOAD PUSH3 0x461BCD PUSH1 0xE5 SHL DUP2 MSTORE PUSH1 0x20 PUSH1 0x4 DUP3 ADD MSTORE PUSH1 0x15 PUSH1 0x24 DUP3 ADD MSTORE PUSH21 0x139BC81C1BDCDA5D1A5BDB9CC81C1C9BDD9A591959 PUSH1 0x5A SHL PUSH1 0x44 DUP3 ADD MSTORE PUSH1 0x64 SWAP1 REVERT JUMPDEST PUSH1 0x40 MLOAD PUSH3 0x461BCD PUSH1 0xE5 SHL DUP2 MSTORE PUSH1 0x20 PUSH1 0x4 DUP3 ADD MSTORE PUSH1 0x14 PUSH1 0x24 DUP3 ADD MSTORE PUSH20 0x4E616D652063616E6E6F7420626520656D707479 PUSH1 0x60 SHL PUSH1 0x44 DUP3 ADD MSTORE PUSH1 0x64 SWAP1 REVERT JUMPDEST PUSH1 0x40 MLOAD PUSH4 0x23B872DD PUSH1 0xE0 SHL PUSH1 0x20 DUP3 ADD MSTORE PUSH1 0x1 PUSH1 0x1 PUSH1 0xA0 SHL SUB SWAP3 DUP4 AND PUSH1 0x24 DUP3 ADD MSTORE SWAP3 SWAP1 SWAP2 AND PUSH1 0x44 DUP4 ADD MSTORE PUSH1 0x64 DUP1 DUP4 ADD SWAP4 SWAP1 SWAP4 MSTORE SWAP2 DUP2 MSTORE PUSH1 0xA0 DUP2 ADD SWAP2 DUP2 DUP4 LT PUSH1 0x1 PUSH1 0x1 PUSH1 0x40 SHL SUB DUP5 GT OR PUSH2 0x2110 JUMPI PUSH2 0x2299 SWAP3 PUSH1 0x40 MSTORE JUMPDEST PUSH1 0x1 DUP1 PUSH1 0xA0 SHL SUB AND SWAP1 PUSH2 0x2FCE PUSH1 0x0 DUP1 DUP4 PUSH1 0x20 DUP3 SWAP6 MLOAD SWAP2 ADD DUP3 DUP8 GAS CALL PUSH2 0x2FC7 PUSH2 0x23EE JUMP JUMPDEST SWAP1 DUP5 PUSH2 0x241E JUMP JUMPDEST SWAP1 DUP2 MLOAD SWAP2 DUP3 ISZERO ISZERO SWAP3 DUP4 PUSH2 0x2FFE JUMPI JUMPDEST POP POP POP PUSH2 0x2FE6 JUMPI POP JUMP JUMPDEST PUSH1 0x24 SWAP1 PUSH1 0x40 MLOAD SWAP1 PUSH4 0x5274AFE7 PUSH1 0xE0 SHL DUP3 MSTORE PUSH1 0x4 DUP3 ADD MSTORE REVERT JUMPDEST DUP2 SWAP3 SWAP4 POP SWAP1 PUSH1 0x20 SWAP2 DUP2 ADD SUB SLT PUSH2 0x367 JUMPI PUSH1 0x20 ADD MLOAD SWAP1 DUP2 ISZERO SWAP2 DUP3 ISZERO SUB PUSH2 0x36B JUMPI POP CODESIZE DUP1 DUP1 PUSH2 0x2FDC JUMP JUMPDEST ISZERO PUSH2 0x302D JUMPI JUMP JUMPDEST PUSH1 0x40 MLOAD PUSH3 0x461BCD PUSH1 0xE5 SHL DUP2 MSTORE PUSH1 0x20 PUSH1 0x4 DUP3 ADD MSTORE PUSH1 0x19 PUSH1 0x24 DUP3 ADD MSTORE PUSH32 0x546F75726E616D656E7420646F6573206E6F7420657869737400000000000000 PUSH1 0x44 DUP3 ADD MSTORE PUSH1 0x64 SWAP1 REVERT JUMPDEST ISZERO PUSH2 0x3079 JUMPI JUMP JUMPDEST PUSH1 0x40 MLOAD PUSH3 0x461BCD PUSH1 0xE5 SHL DUP2 MSTORE PUSH1 0x20 PUSH1 0x4 DUP3 ADD MSTORE PUSH1 0x15 PUSH1 0x24 DUP3 ADD MSTORE PUSH21 0x546F75726E616D656E74206E6F7420616374697665 PUSH1 0x58 SHL PUSH1 0x44 DUP3 ADD MSTORE PUSH1 0x64 SWAP1 REVERT JUMPDEST ISZERO PUSH2 0x30BD JUMPI JUMP JUMPDEST PUSH1 0x40 MLOAD PUSH3 0x461BCD PUSH1 0xE5 SHL DUP2 MSTORE PUSH1 0x20 PUSH1 0x4 DUP3 ADD MSTORE PUSH1 0x19 PUSH1 0x24 DUP3 ADD MSTORE PUSH32 0x526567697374726174696F6E20706572696F6420656E64656400000000000000 PUSH1 0x44 DUP3 ADD MSTORE PUSH1 0x64 SWAP1 REVERT JUMPDEST ISZERO PUSH2 0x3109 JUMPI JUMP JUMPDEST PUSH1 0x40 MLOAD PUSH3 0x461BCD PUSH1 0xE5 SHL DUP2 MSTORE PUSH1 0x20 PUSH1 0x4 DUP3 ADD MSTORE PUSH1 0x12 PUSH1 0x24 DUP3 ADD MSTORE PUSH18 0x105B1C9958591E481C9959DA5CDD195C9959 PUSH1 0x72 SHL PUSH1 0x44 DUP3 ADD MSTORE PUSH1 0x64 SWAP1 REVERT JUMPDEST ISZERO PUSH2 0x314A JUMPI JUMP JUMPDEST PUSH1 0x40 MLOAD PUSH3 0x461BCD PUSH1 0xE5 SHL DUP2 MSTORE PUSH1 0x20 PUSH1 0x4 DUP3 ADD MSTORE PUSH1 0x12 PUSH1 0x24 DUP3 ADD MSTORE PUSH18 0x151BDD5C9B985B595B9D081A5CC8199D5B1B PUSH1 0x72 SHL PUSH1 0x44 DUP3 ADD MSTORE PUSH1 0x64 SWAP1 REVERT JUMPDEST ISZERO PUSH2 0x318B JUMPI JUMP JUMPDEST PUSH1 0x40 MLOAD PUSH3 0x461BCD PUSH1 0xE5 SHL DUP2 MSTORE PUSH1 0x20 PUSH1 0x4 DUP3 ADD MSTORE PUSH1 0x1B PUSH1 0x24 DUP3 ADD MSTORE PUSH32 0x546F75726E616D656E7420686173206E6F20656E747279206665650000000000 PUSH1 0x44 DUP3 ADD MSTORE PUSH1 0x64 SWAP1 REVERT JUMPDEST SWAP1 PUSH1 0xD DUP3 ADD DUP1 SLOAD SWAP3 PUSH1 0xFF DUP5 AND PUSH2 0x3555 JUMPI PUSH1 0xFF PUSH1 0x9 DUP3 ADD SLOAD AND ISZERO PUSH2 0x34F8 JUMPI PUSH1 0xB DUP2 ADD SLOAD PUSH2 0x31FE PUSH1 0xFF DUP3 AND PUSH2 0x3184 JUMP JUMPDEST PUSH1 0x11 DUP3 ADD SLOAD SWAP5 PUSH1 0xC DUP4 ADD SLOAD SWAP6 DUP7 DUP2 MUL SWAP7 DUP2 DUP9 DIV EQ SWAP1 ISZERO OR ISZERO PUSH2 0x24FF JUMPI DUP6 ISZERO PUSH2 0x34E8 JUMPI POP PUSH1 0xFA DUP6 MUL DUP6 DUP2 DIV PUSH1 0xFA SUB PUSH2 0x24FF JUMPI PUSH2 0x2710 SWAP1 DIV SWAP5 PUSH2 0x323F DUP7 DUP3 PUSH2 0x24F2 JUMP JUMPDEST PUSH1 0x0 DUP1 MLOAD PUSH1 0x20 PUSH2 0x388A DUP4 CODECOPY DUP2 MLOAD SWAP2 MSTORE SLOAD SWAP1 SWAP3 PUSH1 0x1 PUSH1 0x1 PUSH1 0xA0 SHL SUB SWAP3 SWAP2 DUP4 AND SWAP2 SWAP1 PUSH1 0x8 SHR DUP4 AND DUP1 PUSH2 0x33E4 JUMPI POP SELFBALANCE LT PUSH2 0x338B JUMPI PUSH1 0x0 SWAP1 DUP2 DUP1 DUP1 DUP1 DUP8 DUP8 PUSH1 0x1 DUP12 ADD SLOAD AND GAS CALL PUSH2 0x3289 PUSH2 0x23EE JUMP JUMPDEST POP ISZERO PUSH2 0x3338 JUMPI DUP2 DUP1 DUP10 DUP2 SWAP4 GAS CALL PUSH2 0x329E PUSH2 0x23EE JUMP JUMPDEST POP ISZERO PUSH2 0x32E7 JUMPI PUSH1 0x1 PUSH1 0x40 SWAP4 PUSH32 0x48111311B30366B1C196F3A6A4818D02A01C7FCB89BC97023643C5E27C5DF6CB SWAP6 JUMPDEST DUP3 PUSH1 0xFF NOT DUP3 SLOAD AND OR SWAP1 SSTORE ADD SLOAD AND SWAP5 DUP3 MLOAD SWAP2 DUP3 MSTORE PUSH1 0x20 DUP3 ADD MSTORE LOG3 JUMP JUMPDEST PUSH1 0x40 MLOAD PUSH3 0x461BCD PUSH1 0xE5 SHL DUP2 MSTORE PUSH1 0x20 PUSH1 0x4 DUP3 ADD MSTORE PUSH1 0x23 PUSH1 0x24 DUP3 ADD MSTORE PUSH32 0x4E617469766520666565207472616E7366657220746F206F776E657220666169 PUSH1 0x44 DUP3 ADD MSTORE PUSH3 0x1B1959 PUSH1 0xEA SHL PUSH1 0x64 DUP3 ADD MSTORE PUSH1 0x84 SWAP1 REVERT JUMPDEST PUSH1 0x40 MLOAD PUSH3 0x461BCD PUSH1 0xE5 SHL DUP2 MSTORE PUSH1 0x20 PUSH1 0x4 DUP3 ADD MSTORE PUSH1 0x25 PUSH1 0x24 DUP3 ADD MSTORE PUSH32 0x4E617469766520666565207472616E7366657220746F2063726561746F722066 PUSH1 0x44 DUP3 ADD MSTORE PUSH5 0x185A5B1959 PUSH1 0xDA SHL PUSH1 0x64 DUP3 ADD MSTORE PUSH1 0x84 SWAP1 REVERT JUMPDEST PUSH1 0x40 MLOAD PUSH3 0x461BCD PUSH1 0xE5 SHL DUP2 MSTORE PUSH1 0x20 PUSH1 0x4 DUP3 ADD MSTORE PUSH1 0x39 PUSH1 0x24 DUP3 ADD MSTORE PUSH1 0x0 DUP1 MLOAD PUSH1 0x20 PUSH2 0x38CA DUP4 CODECOPY DUP2 MLOAD SWAP2 MSTORE PUSH1 0x44 DUP3 ADD MSTORE PUSH32 0x72206E61746976652066656520646973747269627574696F6E00000000000000 PUSH1 0x64 DUP3 ADD MSTORE PUSH1 0x84 SWAP1 REVERT JUMPDEST SWAP2 SWAP5 SWAP1 PUSH1 0x40 MLOAD PUSH4 0x70A08231 PUSH1 0xE0 SHL DUP2 MSTORE ADDRESS PUSH1 0x4 DUP3 ADD MSTORE PUSH1 0x20 DUP2 PUSH1 0x24 DUP2 DUP8 GAS STATICCALL SWAP1 DUP2 ISZERO PUSH2 0x2C5D JUMPI PUSH1 0x0 SWAP2 PUSH2 0x34B7 JUMPI JUMPDEST POP LT PUSH2 0x345E JUMPI PUSH32 0x48111311B30366B1C196F3A6A4818D02A01C7FCB89BC97023643C5E27C5DF6CB SWAP6 PUSH2 0x3459 DUP10 PUSH1 0x40 SWAP8 PUSH1 0x1 SWAP6 PUSH2 0x3454 DUP10 DUP10 DUP10 DUP10 ADD SLOAD AND DUP4 PUSH2 0x359A JUMP JUMPDEST PUSH2 0x359A JUMP JUMPDEST PUSH2 0x32CC JUMP JUMPDEST PUSH1 0x40 MLOAD PUSH3 0x461BCD PUSH1 0xE5 SHL DUP2 MSTORE PUSH1 0x20 PUSH1 0x4 DUP3 ADD MSTORE PUSH1 0x38 PUSH1 0x24 DUP3 ADD MSTORE PUSH1 0x0 DUP1 MLOAD PUSH1 0x20 PUSH2 0x38CA DUP4 CODECOPY DUP2 MLOAD SWAP2 MSTORE PUSH1 0x44 DUP3 ADD MSTORE PUSH32 0x7220746F6B656E2066656520646973747269627574696F6E0000000000000000 PUSH1 0x64 DUP3 ADD MSTORE PUSH1 0x84 SWAP1 REVERT JUMPDEST SWAP1 PUSH1 0x20 DUP3 RETURNDATASIZE DUP3 GT PUSH2 0x34E0 JUMPI JUMPDEST DUP2 PUSH2 0x34D0 PUSH1 0x20 SWAP4 DUP4 PUSH2 0x20EF JUMP JUMPDEST DUP2 ADD SUB SLT PUSH2 0x36B JUMPI POP MLOAD CODESIZE PUSH2 0x3412 JUMP JUMPDEST RETURNDATASIZE SWAP2 POP PUSH2 0x34C3 JUMP JUMPDEST PUSH1 0xFF NOT AND PUSH1 0x1 OR SWAP1 SWAP3 SSTORE POP POP POP POP JUMP JUMPDEST PUSH1 0x40 MLOAD PUSH3 0x461BCD PUSH1 0xE5 SHL DUP2 MSTORE PUSH1 0x20 PUSH1 0x4 DUP3 ADD MSTORE PUSH1 0x2F PUSH1 0x24 DUP3 ADD MSTORE PUSH32 0x43616E6E6F742064697374726962757465206665657320666F722063616E6365 PUSH1 0x44 DUP3 ADD MSTORE PUSH15 0x1B1B1959081D1BDD5C9B985B595B9D PUSH1 0x8A SHL PUSH1 0x64 DUP3 ADD MSTORE PUSH1 0x84 SWAP1 REVERT JUMPDEST PUSH1 0x40 MLOAD PUSH3 0x461BCD PUSH1 0xE5 SHL DUP2 MSTORE PUSH1 0x20 PUSH1 0x4 DUP3 ADD MSTORE PUSH1 0x18 PUSH1 0x24 DUP3 ADD MSTORE PUSH32 0x4665657320616C72656164792064697374726962757465640000000000000000 PUSH1 0x44 DUP3 ADD MSTORE PUSH1 0x64 SWAP1 REVERT JUMPDEST PUSH1 0x40 MLOAD PUSH4 0xA9059CBB PUSH1 0xE0 SHL PUSH1 0x20 DUP3 ADD MSTORE PUSH1 0x1 PUSH1 0x1 PUSH1 0xA0 SHL SUB SWAP1 SWAP3 AND PUSH1 0x24 DUP4 ADD MSTORE PUSH1 0x44 DUP1 DUP4 ADD SWAP4 SWAP1 SWAP4 MSTORE SWAP2 DUP2 MSTORE PUSH1 0x80 DUP2 ADD SWAP2 PUSH1 0x1 PUSH1 0x1 PUSH1 0x40 SHL SUB DUP4 GT DUP3 DUP5 LT OR PUSH2 0x2110 JUMPI PUSH2 0x2299 SWAP3 PUSH1 0x40 MSTORE PUSH2 0x2FA4 JUMP JUMPDEST ISZERO PUSH2 0x35F0 JUMPI JUMP JUMPDEST PUSH1 0x40 MLOAD PUSH3 0x461BCD PUSH1 0xE5 SHL DUP2 MSTORE PUSH1 0x20 PUSH1 0x4 DUP3 ADD MSTORE PUSH1 0x16 PUSH1 0x24 DUP3 ADD MSTORE PUSH22 0x2737BA103A37BAB93730B6B2B73A1031B932B0BA37B9 PUSH1 0x51 SHL PUSH1 0x44 DUP3 ADD MSTORE PUSH1 0x64 SWAP1 REVERT JUMPDEST ISZERO PUSH2 0x3635 JUMPI JUMP JUMPDEST PUSH1 0x40 MLOAD PUSH3 0x461BCD PUSH1 0xE5 SHL DUP2 MSTORE PUSH1 0x20 PUSH1 0x4 DUP3 ADD MSTORE PUSH1 0x16 PUSH1 0x24 DUP3 ADD MSTORE PUSH22 0x92DCECC2D8D2C840E0DEE6D2E8D2DEDC40D2DCC8CAF PUSH1 0x53 SHL PUSH1 0x44 DUP3 ADD MSTORE PUSH1 0x64 SWAP1 REVERT JUMPDEST ISZERO PUSH2 0x367A JUMPI JUMP JUMPDEST PUSH1 0x40 MLOAD PUSH3 0x461BCD PUSH1 0xE5 SHL DUP2 MSTORE PUSH1 0x20 PUSH1 0x4 DUP3 ADD MSTORE PUSH1 0x18 PUSH1 0x24 DUP3 ADD MSTORE PUSH32 0x506F736974696F6E20616C726561647920636C61696D65640000000000000000 PUSH1 0x44 DUP3 ADD MSTORE PUSH1 0x64 SWAP1 REVERT JUMPDEST SWAP4 SWAP3 SWAP1 SWAP2 PUSH2 0x36D2 PUSH1 0xE DUP7 ADD SLOAD DUP3 LT PUSH2 0x362E JUMP JUMPDEST PUSH1 0x0 SWAP5 DUP2 DUP7 MSTORE PUSH1 0x20 PUSH1 0x10 DUP3 ADD DUP2 MSTORE PUSH1 0x40 SWAP4 PUSH2 0x36F3 PUSH1 0xFF DUP7 DUP11 KECCAK256 SLOAD AND ISZERO PUSH2 0x3673 JUMP JUMPDEST PUSH1 0x1 PUSH1 0x1 PUSH1 0xA0 SHL SUB AND SWAP2 DUP3 ISZERO PUSH2 0x382D JUMPI PUSH1 0x7 DUP2 ADD SLOAD TIMESTAMP LT PUSH2 0x37E9 JUMPI PUSH1 0x11 DUP2 ADD SLOAD PUSH2 0x3782 JUMPI JUMPDEST DUP4 DUP9 MSTORE PUSH1 0xF ADD DUP2 MSTORE DUP4 DUP8 KECCAK256 DUP1 SLOAD PUSH1 0x1 PUSH1 0x1 PUSH1 0xA0 SHL SUB NOT AND DUP4 OR SWAP1 SSTORE PUSH1 0x1 DUP4 ADD SWAP3 DUP4 LT PUSH2 0x376E JUMPI PUSH32 0x8981FDD74BD05DA9EF8F2AEB472F541EE871B1E9E3908C19D01A9BF51CE5F7AB SWAP5 SWAP6 SWAP7 POP DUP4 MLOAD SWAP3 DUP4 MSTORE DUP3 ADD MSTORE LOG2 JUMP JUMPDEST PUSH4 0x4E487B71 PUSH1 0xE0 SHL DUP8 MSTORE PUSH1 0x11 PUSH1 0x4 MSTORE PUSH1 0x24 DUP8 REVERT JUMPDEST DUP3 DUP9 MSTORE PUSH1 0x12 DUP2 ADD DUP3 MSTORE PUSH1 0xFF DUP6 DUP10 KECCAK256 SLOAD AND PUSH2 0x3718 JUMPI DUP5 MLOAD PUSH3 0x461BCD PUSH1 0xE5 SHL DUP2 MSTORE PUSH1 0x4 DUP2 ADD DUP4 SWAP1 MSTORE PUSH1 0x26 PUSH1 0x24 DUP3 ADD MSTORE PUSH32 0x57696E6E6572206973206E6F7420612072656769737465726564207061727469 PUSH1 0x44 DUP3 ADD MSTORE PUSH6 0x18DA5C185B9D PUSH1 0xD2 SHL PUSH1 0x64 DUP3 ADD MSTORE PUSH1 0x84 SWAP1 REVERT JUMPDEST DUP5 MLOAD PUSH3 0x461BCD PUSH1 0xE5 SHL DUP2 MSTORE PUSH1 0x4 DUP2 ADD DUP4 SWAP1 MSTORE PUSH1 0x1E PUSH1 0x24 DUP3 ADD MSTORE PUSH32 0x546F75726E616D656E7420686173206E6F742073746172746564207965740000 PUSH1 0x44 DUP3 ADD MSTORE PUSH1 0x64 SWAP1 REVERT JUMPDEST DUP5 MLOAD PUSH3 0x461BCD PUSH1 0xE5 SHL DUP2 MSTORE PUSH1 0x4 DUP2 ADD DUP4 SWAP1 MSTORE PUSH1 0x1D PUSH1 0x24 DUP3 ADD MSTORE PUSH32 0x57696E6E65722063616E6E6F74206265207A65726F2061646472657373000000 PUSH1 0x44 DUP3 ADD MSTORE PUSH1 0x64 SWAP1 REVERT JUMPDEST DUP1 SLOAD DUP3 LT ISZERO PUSH2 0x2538 JUMPI PUSH1 0x0 MSTORE PUSH1 0x20 PUSH1 0x0 KECCAK256 ADD SWAP1 PUSH1 0x0 SWAP1 JUMP INVALID SWAP1 AND 0xD0 SWAP14 PUSH19 0xD40FDAE2FD8CEAC6B6234C7706214FD39C1CD1 0xE6 MULMOD LOG0 MSTORE DUP13 NOT SWAP4 STOP SWAP12 PUSH24 0x9B17422D0DF92223018B32B4D1FA46E071723D6817E2486D STOP EXTCODESIZE 0xEC 0xC5 PUSH0 STOP 0x49 PUSH15 0x73756666696369656E7420636F6E74 PUSH19 0x6163742062616C616E636520666FA264697066 PUSH20 0x5822122037091CA090E9A853C58F04BB4222F881 PUSH24 0x4E009EDE0442C142C1C1B160EE37DA64736F6C6343000814 STOP CALLER "},"methodIdentifiers":{"MAX_WINNER_POSITIONS()":"564d6579","MIN_REGISTRATION_PERIOD()":"c00b69fe","PERCENTAGE_BASE()":"87c13943","PLATFORM_FEE_PERCENTAGE()":"15548232","UPGRADE_INTERFACE_VERSION()":"ad3cb1cc","cancelTournament(uint256)":"32432233","claimEntryFeeRefund(uint256)":"5909eccd","claimReward(uint256,uint256)":"86bb8f37","createTournament(string,string,string,uint256,uint256,uint256,address,uint256[])":"5c3977a2","createTournamentWithEntryFee(string,string,string,uint256,uint256,uint256,address,uint256[],address,uint256)":"f4066869","declareWinner(uint256,uint256,address)":"d533344f","declareWinners(uint256,uint256[],address[])":"c56aab81","distributeEntryFees(uint256)":"3d1f6438","entryFeesPaid(uint256,address)":"9ee5f600","getEntryFeePaid(uint256,address)":"dcc0463a","getPositionInfo(uint256,uint256)":"67e820ad","getPositionRewardAmounts(uint256)":"f37aa509","getTournamentInfo(uint256)":"cac766d2","initialize()":"8129fc1c","isParticipantRegistered(uint256,address)":"cb84e537","nextTournamentId()":"852efc3d","owner()":"8da5cb5b","platformFees(address)":"32e8bc72","proxiableUUID()":"52d1902d","registerForTournament(uint256)":"334f7deb","registerWithEntryFee(uint256)":"66025a7e","renounceOwnership()":"715018a6","tournaments(uint256)":"7503e1b7","transferOwnership(address)":"f2fde38b","upgradeToAndCall(address,bytes)":"4f1ef286","withdrawPlatformFees(address)":"ec3889b5"}},"storageLayout":{"storage":[{"astId":2881,"contract":"contracts/TournamentEscrowV2.sol:TournamentEscrowV2","label":"tournaments","offset":0,"slot":"0","type":"t_mapping(t_uint256,t_struct(Tournament)2876_storage)"},{"astId":2883,"contract":"contracts/TournamentEscrowV2.sol:TournamentEscrowV2","label":"nextTournamentId","offset":0,"slot":"1","type":"t_uint256"},{"astId":2889,"contract":"contracts/TournamentEscrowV2.sol:TournamentEscrowV2","label":"entryFeesPaid","offset":0,"slot":"2","type":"t_mapping(t_uint256,t_mapping(t_address,t_uint256))"},{"astId":2893,"contract":"contracts/TournamentEscrowV2.sol:TournamentEscrowV2","label":"platformFees","offset":0,"slot":"3","type":"t_mapping(t_address,t_uint256)"},{"astId":4852,"contract":"contracts/TournamentEscrowV2.sol:TournamentEscrowV2","label":"__gap","offset":0,"slot":"4","type":"t_array(t_uint256)49_storage"}],"types":{"t_address":{"encoding":"inplace","label":"address","numberOfBytes":"20"},"t_array(t_uint256)49_storage":{"base":"t_uint256","encoding":"inplace","label":"uint256[49]","numberOfBytes":"1568"},"t_array(t_uint256)dyn_storage":{"base":"t_uint256","encoding":"dynamic_array","label":"uint256[]","numberOfBytes":"32"},"t_bool":{"encoding":"inplace","label":"bool","numberOfBytes":"1"},"t_mapping(t_address,t_bool)":{"encoding":"mapping","key":"t_address","label":"mapping(address => bool)","numberOfBytes":"32","value":"t_bool"},"t_mapping(t_address,t_uint256)":{"encoding":"mapping","key":"t_address","label":"mapping(address => uint256)","numberOfBytes":"32","value":"t_uint256"},"t_mapping(t_uint256,t_address)":{"encoding":"mapping","key":"t_uint256","label":"mapping(uint256 => address)","numberOfBytes":"32","value":"t_address"},"t_mapping(t_uint256,t_bool)":{"encoding":"mapping","key":"t_uint256","label":"mapping(uint256 => bool)","numberOfBytes":"32","value":"t_bool"},"t_mapping(t_uint256,t_mapping(t_address,t_uint256))":{"encoding":"mapping","key":"t_uint256","label":"mapping(uint256 => mapping(address => uint256))","numberOfBytes":"32","value":"t_mapping(t_address,t_uint256)"},"t_mapping(t_uint256,t_struct(Tournament)2876_storage)":{"encoding":"mapping","key":"t_uint256","label":"mapping(uint256 => struct TournamentEscrowV2.Tournament)","numberOfBytes":"32","value":"t_struct(Tournament)2876_storage"},"t_string_storage":{"encoding":"bytes","label":"string","numberOfBytes":"32"},"t_struct(Tournament)2876_storage":{"encoding":"inplace","label":"struct TournamentEscrowV2.Tournament","members":[{"astId":2828,"contract":"contracts/TournamentEscrowV2.sol:TournamentEscrowV2","label":"id","offset":0,"slot":"0","type":"t_uint256"},{"astId":2830,"contract":"contracts/TournamentEscrowV2.sol:TournamentEscrowV2","label":"creator","offset":0,"slot":"1","type":"t_address"},{"astId":2832,"contract":"contracts/TournamentEscrowV2.sol:TournamentEscrowV2","label":"name","offset":0,"slot":"2","type":"t_string_storage"},{"astId":2834,"contract":"contracts/TournamentEscrowV2.sol:TournamentEscrowV2","label":"description","offset":0,"slot":"3","type":"t_string_storage"},{"astId":2836,"contract":"contracts/TournamentEscrowV2.sol:TournamentEscrowV2","label":"gameId","offset":0,"slot":"4","type":"t_string_storage"},{"astId":2838,"contract":"contracts/TournamentEscrowV2.sol:TournamentEscrowV2","label":"maxParticipants","offset":0,"slot":"5","type":"t_uint256"},{"astId":2840,"contract":"contracts/TournamentEscrowV2.sol:TournamentEscrowV2","label":"createdAt","offset":0,"slot":"6","type":"t_uint256"},{"astId":2842,"contract":"contracts/TournamentEscrowV2.sol:TournamentEscrowV2","label":"startTime","offset":0,"slot":"7","type":"t_uint256"},{"astId":2844,"contract":"contracts/TournamentEscrowV2.sol:TournamentEscrowV2","label":"registrationEndTime","offset":0,"slot":"8","type":"t_uint256"},{"astId":2846,"contract":"contracts/TournamentEscrowV2.sol:TournamentEscrowV2","label":"isActive","offset":0,"slot":"9","type":"t_bool"},{"astId":2848,"contract":"contracts/TournamentEscrowV2.sol:TournamentEscrowV2","label":"rewardTokenAddress","offset":1,"slot":"9","type":"t_address"},{"astId":2850,"contract":"contracts/TournamentEscrowV2.sol:TournamentEscrowV2","label":"totalRewardAmount","offset":0,"slot":"10","type":"t_uint256"},{"astId":2852,"contract":"contracts/TournamentEscrowV2.sol:TournamentEscrowV2","label":"hasEntryFee","offset":0,"slot":"11","type":"t_bool"},{"astId":2854,"contract":"contracts/TournamentEscrowV2.sol:TournamentEscrowV2","label":"entryFeeTokenAddress","offset":1,"slot":"11","type":"t_address"},{"astId":2856,"contract":"contracts/TournamentEscrowV2.sol:TournamentEscrowV2","label":"entryFeeAmount","offset":0,"slot":"12","type":"t_uint256"},{"astId":2858,"contract":"contracts/TournamentEscrowV2.sol:TournamentEscrowV2","label":"feesDistributed","offset":0,"slot":"13","type":"t_bool"},{"astId":2861,"contract":"contracts/TournamentEscrowV2.sol:TournamentEscrowV2","label":"positionRewardAmounts","offset":0,"slot":"14","type":"t_array(t_uint256)dyn_storage"},{"astId":2865,"contract":"contracts/TournamentEscrowV2.sol:TournamentEscrowV2","label":"winners","offset":0,"slot":"15","type":"t_mapping(t_uint256,t_address)"},{"astId":2869,"contract":"contracts/TournamentEscrowV2.sol:TournamentEscrowV2","label":"claimed","offset":0,"slot":"16","type":"t_mapping(t_uint256,t_bool)"},{"astId":2871,"contract":"contracts/TournamentEscrowV2.sol:TournamentEscrowV2","label":"participantCount","offset":0,"slot":"17","type":"t_uint256"},{"astId":2875,"contract":"contracts/TournamentEscrowV2.sol:TournamentEscrowV2","label":"participants","offset":0,"slot":"18","type":"t_mapping(t_address,t_bool)"}],"numberOfBytes":"608"},"t_uint256":{"encoding":"inplace","label":"uint256","numberOfBytes":"32"}}}}}}