{"contracts/TournamentEscrowV2.sol":{"TournamentEscrowV2":{"abi":[{"anonymous":false,"inputs":[{"indexed":true,"internalType":"uint256","name":"tournamentId","type":"uint256"},{"indexed":true,"internalType":"address","name":"creator","type":"address"},{"indexed":false,"internalType":"uint256","name":"amount","type":"uint256"}],"name":"EntryFeesCollected","type":"event"},{"anonymous":false,"inputs":[{"indexed":true,"internalType":"address","name":"previousOwner","type":"address"},{"indexed":true,"internalType":"address","name":"newOwner","type":"address"}],"name":"OwnershipTransferred","type":"event"},{"anonymous":false,"inputs":[{"indexed":true,"internalType":"uint256","name":"tournamentId","type":"uint256"},{"indexed":true,"internalType":"address","name":"participant","type":"address"}],"name":"ParticipantRegistered","type":"event"},{"anonymous":false,"inputs":[{"indexed":true,"internalType":"address","name":"token","type":"address"},{"indexed":true,"internalType":"address","name":"recipient","type":"address"},{"indexed":false,"internalType":"uint256","name":"amount","type":"uint256"}],"name":"PlatformFeesWithdrawn","type":"event"},{"anonymous":false,"inputs":[{"indexed":true,"internalType":"uint256","name":"tournamentId","type":"uint256"},{"indexed":false,"internalType":"uint256","name":"position","type":"uint256"},{"indexed":false,"internalType":"address","name":"winner","type":"address"},{"indexed":false,"internalType":"uint256","name":"amount","type":"uint256"}],"name":"RewardClaimed","type":"event"},{"anonymous":false,"inputs":[{"indexed":true,"internalType":"uint256","name":"tournamentId","type":"uint256"}],"name":"TournamentCancelled","type":"event"},{"anonymous":false,"inputs":[{"indexed":true,"internalType":"uint256","name":"tournamentId","type":"uint256"},{"indexed":true,"internalType":"address","name":"creator","type":"address"},{"indexed":false,"internalType":"string","name":"name","type":"string"}],"name":"TournamentCreated","type":"event"},{"anonymous":false,"inputs":[{"indexed":true,"internalType":"uint256","name":"tournamentId","type":"uint256"},{"indexed":false,"internalType":"uint256","name":"position","type":"uint256"},{"indexed":false,"internalType":"address","name":"winner","type":"address"}],"name":"WinnerDeclared","type":"event"},{"inputs":[],"name":"MIN_REGISTRATION_PERIOD","outputs":[{"internalType":"uint256","name":"","type":"uint256"}],"stateMutability":"view","type":"function"},{"inputs":[],"name":"PERCENTAGE_BASE","outputs":[{"internalType":"uint256","name":"","type":"uint256"}],"stateMutability":"view","type":"function"},{"inputs":[],"name":"PLATFORM_FEE_PERCENTAGE","outputs":[{"internalType":"uint256","name":"","type":"uint256"}],"stateMutability":"view","type":"function"},{"inputs":[],"name":"TOURNAMENT_TYPE_DOUBLE_ELIMINATION","outputs":[{"internalType":"uint8","name":"","type":"uint8"}],"stateMutability":"view","type":"function"},{"inputs":[],"name":"TOURNAMENT_TYPE_SINGLE_ELIMINATION","outputs":[{"internalType":"uint8","name":"","type":"uint8"}],"stateMutability":"view","type":"function"},{"inputs":[{"internalType":"uint256","name":"tournamentId","type":"uint256"}],"name":"cancelTournament","outputs":[],"stateMutability":"nonpayable","type":"function"},{"inputs":[{"internalType":"uint256","name":"tournamentId","type":"uint256"}],"name":"claimEntryFees","outputs":[],"stateMutability":"nonpayable","type":"function"},{"inputs":[{"internalType":"uint256","name":"tournamentId","type":"uint256"},{"internalType":"uint256","name":"position","type":"uint256"}],"name":"claimReward","outputs":[],"stateMutability":"nonpayable","type":"function"},{"inputs":[{"internalType":"string","name":"name","type":"string"},{"internalType":"string","name":"description","type":"string"},{"internalType":"string","name":"gameId","type":"string"},{"internalType":"uint8","name":"tournamentType","type":"uint8"},{"internalType":"uint256","name":"maxParticipants","type":"uint256"},{"internalType":"uint256","name":"registrationEndTime","type":"uint256"},{"internalType":"uint256","name":"startTime","type":"uint256"},{"internalType":"address","name":"rewardTokenAddress","type":"address"},{"internalType":"uint256[]","name":"positionRewardAmounts","type":"uint256[]"}],"name":"createTournament","outputs":[{"internalType":"uint256","name":"","type":"uint256"}],"stateMutability":"payable","type":"function"},{"inputs":[{"internalType":"string","name":"name","type":"string"},{"internalType":"string","name":"description","type":"string"},{"internalType":"string","name":"gameId","type":"string"},{"internalType":"uint8","name":"tournamentType","type":"uint8"},{"internalType":"uint256","name":"maxParticipants","type":"uint256"},{"internalType":"uint256","name":"registrationEndTime","type":"uint256"},{"internalType":"uint256","name":"startTime","type":"uint256"},{"internalType":"address","name":"rewardTokenAddress","type":"address"},{"internalType":"uint256[]","name":"positionRewardAmounts","type":"uint256[]"},{"internalType":"address","name":"entryFeeTokenAddress","type":"address"},{"internalType":"uint256","name":"entryFeeAmount","type":"uint256"}],"name":"createTournamentWithEntryFee","outputs":[{"internalType":"uint256","name":"","type":"uint256"}],"stateMutability":"payable","type":"function"},{"inputs":[{"internalType":"uint256","name":"tournamentId","type":"uint256"},{"internalType":"uint256","name":"position","type":"uint256"},{"internalType":"address","name":"winner","type":"address"}],"name":"declareWinner","outputs":[],"stateMutability":"nonpayable","type":"function"},{"inputs":[{"internalType":"uint256","name":"tournamentId","type":"uint256"},{"internalType":"uint256[]","name":"positions","type":"uint256[]"},{"internalType":"address[]","name":"winners","type":"address[]"}],"name":"declareWinners","outputs":[],"stateMutability":"nonpayable","type":"function"},{"inputs":[{"internalType":"uint256","name":"tournamentId","type":"uint256"},{"internalType":"uint256","name":"position","type":"uint256"}],"name":"getPositionInfo","outputs":[{"internalType":"uint256","name":"rewardAmount","type":"uint256"},{"internalType":"address","name":"winner","type":"address"},{"internalType":"bool","name":"claimed","type":"bool"}],"stateMutability":"view","type":"function"},{"inputs":[{"internalType":"uint256","name":"tournamentId","type":"uint256"}],"name":"getPositionRewardAmounts","outputs":[{"internalType":"uint256[]","name":"","type":"uint256[]"}],"stateMutability":"view","type":"function"},{"inputs":[{"internalType":"uint256","name":"tournamentId","type":"uint256"}],"name":"getTournamentInfo","outputs":[{"internalType":"address","name":"creator","type":"address"},{"internalType":"string","name":"name","type":"string"},{"internalType":"string","name":"description","type":"string"},{"internalType":"string","name":"gameId","type":"string"},{"internalType":"uint8","name":"tournamentType","type":"uint8"},{"internalType":"uint256","name":"maxParticipants","type":"uint256"},{"internalType":"uint256","name":"createdAt","type":"uint256"},{"internalType":"uint256","name":"startTime","type":"uint256"},{"internalType":"uint256","name":"registrationEndTime","type":"uint256"},{"internalType":"bool","name":"isActive","type":"bool"},{"internalType":"address","name":"rewardTokenAddress","type":"address"},{"internalType":"uint256","name":"totalRewardAmount","type":"uint256"},{"internalType":"uint256","name":"positionCount","type":"uint256"},{"internalType":"bool","name":"hasEntryFee","type":"bool"},{"internalType":"address","name":"entryFeeTokenAddress","type":"address"},{"internalType":"uint256","name":"entryFeeAmount","type":"uint256"},{"internalType":"uint256","name":"participantCount","type":"uint256"}],"stateMutability":"view","type":"function"},{"inputs":[{"internalType":"uint256","name":"tournamentId","type":"uint256"},{"internalType":"address","name":"winnerAddress","type":"address"}],"name":"getWinnerPosition","outputs":[{"internalType":"uint256","name":"","type":"uint256"}],"stateMutability":"view","type":"function"},{"inputs":[{"internalType":"uint256","name":"tournamentId","type":"uint256"},{"internalType":"address","name":"winnerAddress","type":"address"}],"name":"hasClaimedReward","outputs":[{"internalType":"bool","name":"","type":"bool"}],"stateMutability":"view","type":"function"},{"inputs":[{"internalType":"uint256","name":"tournamentId","type":"uint256"},{"internalType":"address","name":"participant","type":"address"}],"name":"isParticipantRegistered","outputs":[{"internalType":"bool","name":"","type":"bool"}],"stateMutability":"view","type":"function"},{"inputs":[],"name":"nextTournamentId","outputs":[{"internalType":"uint256","name":"","type":"uint256"}],"stateMutability":"view","type":"function"},{"inputs":[],"name":"owner","outputs":[{"internalType":"address","name":"","type":"address"}],"stateMutability":"view","type":"function"},{"inputs":[{"internalType":"address","name":"","type":"address"}],"name":"platformFees","outputs":[{"internalType":"uint256","name":"","type":"uint256"}],"stateMutability":"view","type":"function"},{"inputs":[{"internalType":"uint256","name":"tournamentId","type":"uint256"}],"name":"registerForTournament","outputs":[],"stateMutability":"nonpayable","type":"function"},{"inputs":[{"internalType":"uint256","name":"tournamentId","type":"uint256"}],"name":"registerWithEntryFee","outputs":[],"stateMutability":"payable","type":"function"},{"inputs":[],"name":"renounceOwnership","outputs":[],"stateMutability":"nonpayable","type":"function"},{"inputs":[{"internalType":"uint256","name":"","type":"uint256"}],"name":"tournaments","outputs":[{"internalType":"uint256","name":"id","type":"uint256"},{"internalType":"address","name":"creator","type":"address"},{"internalType":"string","name":"name","type":"string"},{"internalType":"string","name":"description","type":"string"},{"internalType":"string","name":"gameId","type":"string"},{"internalType":"uint8","name":"tournamentType","type":"uint8"},{"internalType":"uint256","name":"maxParticipants","type":"uint256"},{"internalType":"uint256","name":"createdAt","type":"uint256"},{"internalType":"uint256","name":"startTime","type":"uint256"},{"internalType":"uint256","name":"registrationEndTime","type":"uint256"},{"internalType":"bool","name":"isActive","type":"bool"},{"internalType":"address","name":"rewardTokenAddress","type":"address"},{"internalType":"uint256","name":"totalRewardAmount","type":"uint256"},{"internalType":"bool","name":"hasEntryFee","type":"bool"},{"internalType":"address","name":"entryFeeTokenAddress","type":"address"},{"internalType":"uint256","name":"entryFeeAmount","type":"uint256"},{"internalType":"uint256","name":"participantCount","type":"uint256"}],"stateMutability":"view","type":"function"},{"inputs":[{"internalType":"address","name":"newOwner","type":"address"}],"name":"transferOwnership","outputs":[],"stateMutability":"nonpayable","type":"function"},{"inputs":[{"internalType":"address","name":"tokenAddress","type":"address"}],"name":"withdrawPlatformFees","outputs":[],"stateMutability":"nonpayable","type":"function"}],"evm":{"bytecode":{"linkReferences":{},"object":"608080604052346100645760008054336001600160a01b0319821681178355916001600160a01b03909116907f8be0079c531659141344cd1fd0a4f28419497f9722a3daafe3b4186f6b6457e09080a3600180556001600355612bd7908161006a8239f35b600080fdfe60e0604052600436101561001257600080fd5b6000803560e01c806304cbc86e146113eb57806315548232146113cf5780631d74ea25146113715780632c4aa9711461133b57806332432233146111ad57806332e8bc7214611174578063334f7deb1461105b57806366025a7e14610db257806367e820ad14610d245780636d3687df14610d08578063715018a614610cae5780637503e1b714610b6757806379c13f8a14610aa4578063852efc3d14610a8657806386bb8f37146108d557806387c13943146108b85780638da5cb5b14610891578063a52d7e9e14610875578063c00b69fe14610858578063c56aab811461069d578063c8b727a114610655578063cac766d2146104ee578063cb84e5371461048c578063d533344f146103ea578063ec3889b5146102c6578063f2fde38b146102055763f37aa5091461014657600080fd5b34610202576020806003193601126101fe576004358083526002825261017181604085205414612466565b825260028152600e604083200160405192838383549182815201908193835284832090835b8181106101ea57505050846101ac9103856114fa565b60405193838594850191818652518092526040850193925b8281106101d357505050500390f35b8351855286955093810193928101926001016101c4565b825484529286019260019283019201610196565b5080fd5b80fd5b50346102025760203660031901126102025761021f6115d6565b610227611798565b6001600160a01b039081169081156102725782546001600160a01b0319811683178455167f8be0079c531659141344cd1fd0a4f28419497f9722a3daafe3b4186f6b6457e08380a380f35b60405162461bcd60e51b815260206004820152602660248201527f4f776e61626c653a206e6577206f776e657220697320746865207a65726f206160448201526564647265737360d01b6064820152608490fd5b5034610202576020366003190112610202576102e06115d6565b6102e8611798565b6102f06117f0565b6001600160a01b03908116808352600460205260408320549182156103af57818452600460205283604081205581156000146103785783808080868582541682f11561036d5760207fc0f01729b0d2f4ee8f47286e5cf926377eab5d6e58a981836e2f30705db2362c915b85541693604051908152a36001805580f35b6040513d85823e3d90fd5b6020816103aa857fc0f01729b0d2f4ee8f47286e5cf926377eab5d6e58a981836e2f30705db2362c94885416866127cb565b61035b565b60405162461bcd60e51b81526020600482015260136024820152724e6f206665657320746f20776974686472617760681b6044820152606490fd5b5034610202576060366003190112610202576001600160a01b0360443560043582821682036104885761046c610481936104226117f0565b828652600260205261043983604088205414612466565b828652600260205261045460ff600a604089200154166124b2565b8286526002602052600160408720015416331461261b565b808452600260205260243590604085206128a6565b6001805580f35b8380fd5b50346102025760403660031901126102025760ff60406020926004356104b06115c0565b90808352600286526104c6818585205414612466565b8252600285528282206001600160a01b03909116825260120184522054604051911615158152f35b50346102025760203660031901126102025760043580825260026020528060408320541461051b90612466565b8152600260205260409020600160a01b6001900360018201541690600581015460ff166006820154600783015460088401546009850154600a860154600b87015490600e88015492600c89015494600d8a01549660118b01549860028c01610582906116b2565b9b61058f600382016116b2565b9060040161059c906116b2565b906040519e8f9e8f91825261022080602084015282016105bb91611758565b9080820390604001526105cd91611758565b8d810360608f01526105de91611758565b9a60808d015260a08c015260c08b015260e08a015261010089015260ff81161515610120890152600160a01b600190039060081c1661014088015261016087015261018086015260ff811615156101a0860152600160a01b600190039060081c166101c08501526101e08401526102008301520390f35b50346102025760403660031901126102025761069360209160043561068e81604061067e6115c0565b9482815260028852205414612466565b612afc565b6040519015158152f35b50346102025760603660031901126102025760043567ffffffffffffffff602435818111610488576106d3903690600401611604565b906044359081116104885736602382011215610488578060040135926106f8846115ec565b9161070660405193846114fa565b84835260209460248685019160051b8301019136831161085457602401905b828210610831575050506107376117f0565b8085526002845261074d81604087205414612466565b8085526002845261076760ff600a604088200154166124b2565b8085526002845260018060a01b0360019461078b828760408a20015416331461261b565b84518451036107f457906002839287959489525260408720948488905b6107b4575b8886805580f35b81518110156107ef57806107e46107ce6107e99385611878565b51856107da848a611878565b511690878b6128a6565b611869565b856107a8565b6107ad565b6064906040519062461bcd60e51b825260048201526016602482015275082e4e4c2f2e640d8cadccee8d040dad2e6dac2e8c6d60531b6044820152fd5b81356001600160a01b0381168103610850578152908601908601610725565b8880fd5b8780fd5b50346102025780600319360112610202576020604051610e108152f35b5034610202578060031936011261020257602060405160018152f35b5034610202578060031936011261020257546040516001600160a01b039091168152602090f35b503461020257806003193601126102025760206040516127108152f35b5034610202576108e436611662565b6108ec6117f0565b81835260206002815261090483604086205414612466565b8284526002815261091e60ff600a604087200154166124b2565b828452600281526040842091600e830161093a8154831061281b565b601084019082875281845261095660ff6040892054161561285a565b828752600f8501845260408720546001600160a01b03929083163303610a505783600a9261099792828b52875260408a20600160ff198254161790556118fb565b90549060031b1c94015460081c168015600014610a1a57508480848015610a10575b8280929181923390f115610a05577fa8325f46ec9623d7ced8f695ff820511a4acef4f5d5c4933bd5d992141a2b905926060925b60405192835233908301526040820152a26001805580f35b6040513d86823e3d90fd5b6108fc91506109b9565b92606092610a4b827fa8325f46ec9623d7ced8f695ff820511a4acef4f5d5c4933bd5d992141a2b9059633906127cb565b6109ed565b60405162461bcd60e51b815260048101869052600e60248201526d2737ba103a3432903bb4b73732b960911b6044820152606490fd5b50346102025780600319360112610202576020600354604051908152f35b506101203660031901126102025767ffffffffffffffff600435818111610b6357610ad390369060040161154e565b916024358281116101fe57610aec90369060040161154e565b906044358381116101fe57610b0590369060040161154e565b610b0d61159a565b93610b166115aa565b9261010435918211610202576020610b578888888888610b393660048b01611604565b92610b426117f0565b3495339560c4359360a4359360843593611913565b60018055604051908152f35b8280fd5b50346102025760203660031901126102025760043581526002602052604090208054600160a01b600190036001830154169160028101610ba6906116b2565b610bb2600383016116b2565b91610bbf600482016116b2565b92600582015460ff1693600683015460078401546008850154600986015491600a87015493600b88015495600c89015497600d8a015499601101549a6040519e8f9e8f908152602001528d6102209081604082015201610c1e91611758565b8d810360608f0152610c2f91611758565b8c810360808e0152610c4091611758565b60a08c019a909a5260c08b015260e08a015261010089015261012088015260ff81811615156101408901526001600160a01b03600892831c81166101608a0152610180890193909352831615156101a08801529190911c166101c08501526101e08401526102008301520390f35b5034610202578060031936011261020257610cc7611798565b80546001600160a01b03198116825581906001600160a01b03167f8be0079c531659141344cd1fd0a4f28419497f9722a3daafe3b4186f6b6457e08280a380f35b5034610202578060031936011261020257602090604051908152f35b503461020257606090610d3636611662565b908083526002602052610d4e81604085205414612466565b825260026020526040822060ff6040610d7684600e8501610d718154831061281b565b6118fb565b959054948152600f8401602052601060018060a01b0383832054169401602052205416916040519360031b1c8352602083015215156040820152f35b506020908160031936011261020257600435610dcc6117f0565b80825260028352610de281604084205414612466565b80825260028352610dfc60ff600a604085200154166124b2565b8082526002835260408220610e1760098201544211156124f6565b600c810154610e2860ff82166125c4565b6012820190338552818652610e4460ff60408720541615612542565b600683015480611046575b5060081c6001600160a01b031680610f055750600d8201543403610ec05760119293945b3386525260408420600160ff1982541617905501610e918154611869565b905533907f78337b3a0cfc36faafab5a292dc7571f6bd68ba681c22e15c97b1e3469b51a028380a36001805580f35b60405162461bcd60e51b815260048101869052601a60248201527f496e636f727265637420656e7472792066656520616d6f756e740000000000006044820152606490fd5b92939434610ff6576040516370a0823160e01b808252306004830152948282602481845afa918215610fbc578892610fc7575b5082600d860196610f4c885430338661224a565b60246040518094819382523060048301525afa908115610fbc578891610f8b575b5094610f7e610f8692601197611846565b9054146118af565b610e73565b9590508286813d8311610fb5575b610fa381836114fa565b81010312610854579451610f7e610f6d565b503d610f99565b6040513d8a823e3d90fd5b9091508281813d8311610fef575b610fdf81836114fa565b8101031261085457519038610f38565b503d610fd5565b6084906040519062461bcd60e51b82526004820152602360248201527f446f6e27742073656e6420524f4e207769746820746f6b656e20656e7472792060448201526266656560e81b6064820152fd5b61105590601185015410612583565b38610e4f565b5034610202576020806003193601126101fe576004359061107a6117f0565b8183526002815261109082604085205414612466565b818352600281526110aa60ff600a604086200154166124b2565b8183526002815260408320906110c660098301544211156124f6565b60ff600c83015416611130579060119160128201903386528181526110f260ff60408820541615612542565b60068301548061111c575b503386525260408420600160ff1982541617905501610e918154611869565b61112a908585015410612583565b386110fd565b6064906040519062461bcd60e51b82526004820152601d60248201527f546f75726e616d656e7420726571756972657320656e747279206665650000006044820152fd5b5034610202576020366003190112610202576020906040906001600160a01b0361119c6115d6565b168152600483522054604051908152f35b50346102025760209081600319360112610202576004356111cc6117f0565b808252600283526111e281604084205414612466565b8082526002835260ff6111fd81600a604086200154166124b2565b8183526002845260408320600101546001600160a01b0390611222908216331461261b565b828452600285526040842090600a82019182549260ff198416905585938690600e83019081549260108501905b8481106112f3578a8a818b80158b8b8e8315611293575b85877ffa61ec8d7e5a58ceba17772b10ba0c6caa65b40b200302be35f00efc264c78958280a26001805580f35b60081c8216806112dc575092849392849392600185940154169083906112d3575bf1156112c6575b818380808080611266565b50604051903d90823e3d90fd5b506108fc6112b4565b92506112ee94506001015416906127cb565b6112bb565b808b52818c528260408c20541615611314575b61130f90611869565b61124f565b9761133361130f916113268b876118fb565b90549060031b1c906118a2565b989050611306565b50346102025760403660031901126102025761136960209160043561136481604061067e6115c0565b612a3f565b604051908152f35b5034610202576020366003190112610202576104816004356113916117f0565b80835260026020526113a881604085205414612466565b80835260026020526113ca60018060a01b03600160408620015416331461261b565b612660565b5034610202578060031936011261020257602060405160fa8152f35b506101603660031901126102025767ffffffffffffffff906004358281116101fe5761141b90369060040161154e565b91602435818111610b635761143490369060040161154e565b906044358181116104885761144d90369060040161154e565b61145561159a565b9161145e6115aa565b90610104359081116114f657611478903690600401611604565b61012435949092906001600160a01b03861686036114f257936040936114a893602099936114dd97610b426117f0565b808552600286529320600c810180546001600160a81b03191660089490941b610100600160a81b031693909317600117909255565b600d6101443591015560018055604051908152f35b8680fd5b8580fd5b90601f8019910116810190811067ffffffffffffffff82111761151c57604052565b634e487b7160e01b600052604160045260246000fd5b67ffffffffffffffff811161151c57601f01601f191660200190565b81601f820112156115955780359061156582611532565b9261157360405194856114fa565b8284526020838301011161159557816000926020809301838601378301015290565b600080fd5b6064359060ff8216820361159557565b60e435906001600160a01b038216820361159557565b602435906001600160a01b038216820361159557565b600435906001600160a01b038216820361159557565b67ffffffffffffffff811161151c5760051b60200190565b81601f820112156115955780359161161b836115ec565b9261162960405194856114fa565b808452602092838086019260051b820101928311611595578301905b828210611653575050505090565b81358152908301908301611645565b6040906003190112611595576004359060243590565b90600182811c921680156116a8575b602083101461169257565b634e487b7160e01b600052602260045260246000fd5b91607f1691611687565b90604051918260008254926116c684611678565b90818452600194858116908160001461173557506001146116f2575b50506116f0925003836114fa565b565b9093915060005260209081600020936000915b81831061171d5750506116f0935082010138806116e2565b85548884018501529485019487945091830191611705565b9150506116f094506020925060ff191682840152151560051b82010138806116e2565b919082519283825260005b848110611784575050826000602080949584010152601f8019910116010190565b602081830181015184830182015201611763565b6000546001600160a01b031633036117ac57565b606460405162461bcd60e51b815260206004820152602060248201527f4f776e61626c653a2063616c6c6572206973206e6f7420746865206f776e65726044820152fd5b600260015414611801576002600155565b60405162461bcd60e51b815260206004820152601f60248201527f5265656e7472616e637947756172643a207265656e7472616e742063616c6c006044820152606490fd5b9190820391821161185357565b634e487b7160e01b600052601160045260246000fd5b60001981146118535760010190565b805182101561188c5760209160051b010190565b634e487b7160e01b600052603260045260246000fd5b9190820180921161185357565b156118b657565b60405162461bcd60e51b815260206004820152601e60248201527f546f6b656e207472616e7366657220616d6f756e74206d69736d6174636800006044820152606490fd5b805482101561188c5760005260206000200190600090565b9a949895999a979097969192939660c05260805260c051511561220e57600160ff8416116121c957608051511561218c574288111561213357878911156120d757610e10611961898b611846565b1061209257600097885b60805180518b101561199b57611995916119888c61198f93611878565b51906118a2565b99611869565b9861196b565b50959850919396998590999193969960018060a01b03851615600014611ee05703611e9b575b600354996119ce8b611869565b60035560008b815260026020526040902060a08190528b81556001810180546001600160a01b0319166001600160a01b038c1617905560c051519067ffffffffffffffff821161151c576002611a25910154611678565b601f8111611e52575b50602090601f8111600114611de1578091600091611dd4575b508160011b916000199060031b1c191617600260a05101555b805167ffffffffffffffff811161151c57611a80600360a0510154611678565b601f8111611d8b575b50602091601f8211600114611d1957918192600092611d0e575b50508160011b916000199060031b1c191617600360a05101555b835167ffffffffffffffff811161151c57611add600460a0510154611678565b601f8111611cc5575b506020601f8211600114611c47578190611b7996600092611c3c575b50508160011b916000199060031b1c191617600460a05101559897985b60a0519960058b0160ff801998168882541617905560068b01554260078b015560088a01556009890155600a880160018582541617815590815490610100600160a81b039060081b1690610100600160a81b031916179055565b600b860155600c8501908154169055600e60009401935b6080518051821015611bef5781611ba691611878565b51908554916801000000000000000083101561151c57611bcf836001611bea95018955886118fb565b819291549060031b91821b91600019901b1916179055611869565b611b90565b50509250817fbd34ba7c23e010b2fa639a38c057cf452062c6645a1c102adbee46d0b37b8669604051926020845260018060a01b03169280611c366020820160c051611758565b0390a390565b015190503880611b02565b91929394600460a05101928360005260206000209160005b601f1985168110611cad5750918391600193611b799998979695601f19811610611c94575b505050811b019055989798611b1f565b015160001960f88460031b161c19169055388080611c84565b91926020600181928685015181550194019201611c5f565b600460a051016000526020600020601f830160051c810160208410611d07575b601f830160051c82018110611cfb575050611ae6565b60008155600101611ce5565b5080611ce5565b015190503880611aa3565b90600360a0510192836000526020600020906000935b601f1984168510611d70576001945083601f19811610611d57575b505050811b019055611abd565b015160001960f88460031b161c19169055388080611d4a565b81810151835560209485019460019093019290910190611d2f565b600360a051016000526020600020601f830160051c810160208410611dcd575b601f830160051c82018110611dc1575050611a89565b60008155600101611dab565b5080611dab565b905060c051015138611a47565b90600260a05101918260005260206000206000925b601f1983168410611e38576001935082601f19811610611e1d575b5050811b019055611a60565b60c051015160001960f88460031b161c191690553880611e11565b60c051810151825560209384019360019092019101611df6565b600260a051016000526020600020601f830160051c810160208410611e94575b601f830160051c82018110611e88575050611a2e565b60008155600101611e72565b5080611e72565b60405162461bcd60e51b815260206004820152601c60248201527f496e636f72726563742072657761726420616d6f756e742073656e74000000006044820152606490fd5b905061203f57823b15611ffa576040516370a0823160e01b81523060048201526020816024816001600160a01b0388165afa908115611fbc57600091611fc8575b50611f3786308b6001600160a01b03881661224a565b6040516370a0823160e01b81523060048201526020816024816001600160a01b0389165afa8015611fbc578791600091611f85575b50611f8092611f7a91611846565b146118af565b6119c1565b91506020823d602011611fb4575b81611fa0602093836114fa565b810103126102025750518690611f80611f6c565b3d9150611f93565b6040513d6000823e3d90fd5b906020823d602011611ff2575b81611fe2602093836114fa565b8101031261020257505138611f21565b3d9150611fd5565b60405162461bcd60e51b815260206004820152601f60248201527f546f6b656e2061646472657373206973206e6f74206120636f6e7472616374006044820152606490fd5b60405162461bcd60e51b815260206004820152602560248201527f446f6e27742073656e6420524f4e207769746820746f6b656e20746f75726e616044820152646d656e747360d81b6064820152608490fd5b60405162461bcd60e51b815260206004820152601d60248201527f526567697374726174696f6e20706572696f6420746f6f2073686f72740000006044820152606490fd5b60405162461bcd60e51b815260206004820152602e60248201527f53746172742074696d65206d757374206265206166746572207265676973747260448201526d6174696f6e20656e642074696d6560901b6064820152608490fd5b60405162461bcd60e51b815260206004820152602b60248201527f526567697374726174696f6e20656e642074696d65206d75737420626520696e60448201526a207468652066757475726560a81b6064820152608490fd5b60405162461bcd60e51b8152602060048201526015602482015274139bc81c1bdcda5d1a5bdb9cc81c1c9bdd9a591959605a1b6044820152606490fd5b60405162461bcd60e51b815260206004820152601760248201527f496e76616c696420746f75726e616d656e7420747970650000000000000000006044820152606490fd5b60405162461bcd60e51b81526020600482015260146024820152734e616d652063616e6e6f7420626520656d70747960601b6044820152606490fd5b6040516323b872dd60e01b60208201526001600160a01b03928316602482015292909116604483015260648083019390935291815260a081019181831067ffffffffffffffff84111761151c576116f0926040525b60018060a01b031690604051604081019080821067ffffffffffffffff83111761151c5761232f916040526020938482527f5361666545524332303a206c6f772d6c6576656c2063616c6c206661696c6564858301526000808587829751910182855af13d156123c5573d9161231483611532565b9261232260405194856114fa565b83523d868885013e6123c9565b8051918215918483156123a1575b50505090501561234a5750565b6084906040519062461bcd60e51b82526004820152602a60248201527f5361666545524332303a204552433230206f7065726174696f6e20646964206e6044820152691bdd081cdd58d8d9595960b21b6064820152fd5b9193818094500103126101fe5782015190811515820361020257508038808461233d565b6060915b9192901561242b57508151156123dd575090565b3b156123e65790565b60405162461bcd60e51b815260206004820152601d60248201527f416464726573733a2063616c6c20746f206e6f6e2d636f6e74726163740000006044820152606490fd5b82519091501561243e5750805190602001fd5b60405162461bcd60e51b815260206004820152908190612462906024830190611758565b0390fd5b1561246d57565b60405162461bcd60e51b815260206004820152601960248201527f546f75726e616d656e7420646f6573206e6f74206578697374000000000000006044820152606490fd5b156124b957565b60405162461bcd60e51b8152602060048201526015602482015274546f75726e616d656e74206e6f742061637469766560581b6044820152606490fd5b156124fd57565b60405162461bcd60e51b815260206004820152601960248201527f526567697374726174696f6e20706572696f6420656e646564000000000000006044820152606490fd5b1561254957565b60405162461bcd60e51b8152602060048201526012602482015271105b1c9958591e481c9959da5cdd195c995960721b6044820152606490fd5b1561258a57565b60405162461bcd60e51b8152602060048201526012602482015271151bdd5c9b985b595b9d081a5cc8199d5b1b60721b6044820152606490fd5b156125cb57565b60405162461bcd60e51b815260206004820152602260248201527f546f75726e616d656e7420646f6573206e6f74206861766520656e7472792066604482015261656560f01b6064820152608490fd5b1561262257565b60405162461bcd60e51b81526020600482015260166024820152752737ba103a37bab93730b6b2b73a1031b932b0ba37b960511b6044820152606490fd5b600090808252600260205260408220600c81019081549361268360ff86166125c4565b601182015492600d830154938481029481860414901517156127b75783156127af5760fa840284810460fa0361279b576127106126c291048095611846565b95869160018060a01b039586809360081c16855260046020526126ea604086209182546118a2565b90555460081c168061275c5750818080809387600188015416828215612753575bf11561274757507f107cfc3e70c0a9b50b925fe1ac70d6ff12c8c459d57cdd7ea146e336ad8971e89160016020925b01541693604051908152a3565b604051903d90823e3d90fd5b506108fc61270b565b849250926127966001926020957f107cfc3e70c0a9b50b925fe1ac70d6ff12c8c459d57cdd7ea146e336ad8971e8978585015416906127cb565b61273a565b634e487b7160e01b83526011600452602483fd5b505050505050565b634e487b7160e01b82526011600452602482fd5b60405163a9059cbb60e01b60208201526001600160a01b039092166024830152604480830193909352918152608081019167ffffffffffffffff83118284101761151c576116f09260405261229f565b1561282257565b60405162461bcd60e51b815260206004820152601060248201526f24b73b30b634b2103837b9b4ba34b7b760811b6044820152606490fd5b1561286157565b60405162461bcd60e51b815260206004820152601860248201527f506f736974696f6e20616c726561647920636c61696d656400000000000000006044820152606490fd5b939290916128b9600e860154821061281b565b60009481865260206010820181526040936128da60ff868a2054161561285a565b6001600160a01b03169182156129fb57600881015442106129b7576011810154612950575b87600f8692867f8981fdd74bd05da9ef8f2aeb472f541ee871b1e9e3908c19d01a9bf51ce5f7ab999a9b5201835220826bffffffffffffffffffffffff60a01b8254161790558351928352820152a2565b82885260128101825260ff85892054166128ff57845162461bcd60e51b815260048101839052602660248201527f57696e6e6572206973206e6f742061207265676973746572656420706172746960448201526518da5c185b9d60d21b6064820152608490fd5b845162461bcd60e51b815260048101839052601e60248201527f546f75726e616d656e7420686173206e6f7420737461727465642079657400006044820152606490fd5b845162461bcd60e51b815260048101839052601d60248201527f57696e6e65722063616e6e6f74206265207a65726f20616464726573730000006044820152606490fd5b919091600090815260209060028252604093848220928290600f600e8601549501915b858110612aa757875162461bcd60e51b815260206004820152601760248201527620b2323932b9b99034b9903737ba1030903bb4b73732b960491b6044820152606490fd5b808552828252878520546001600160a01b03858116911614612ad157612acc90611869565b612a62565b959650505050905060018201809211612ae8575090565b634e487b7160e01b81526011600452602490fd5b91906000928352602092600284526040938482208293600e82015494600f8301905b868110612b6357885162461bcd60e51b815260206004820152601760248201527620b2323932b9b99034b9903737ba1030903bb4b73732b960491b6044820152606490fd5b808652818552888620546001600160a01b03848116911614612b8d57612b8890611869565b612b1e565b50505060ff9495935060100190522054169056fea264697066735822122092ffab00b97b35dd2bf03c2554c907cef38a4b838872165209ead4b7c7a592b964736f6c63430008140033","opcodes":"PUSH1 0x80 DUP1 PUSH1 0x40 MSTORE CALLVALUE PUSH2 0x64 JUMPI PUSH1 0x0 DUP1 SLOAD CALLER PUSH1 0x1 PUSH1 0x1 PUSH1 0xA0 SHL SUB NOT DUP3 AND DUP2 OR DUP4 SSTORE SWAP2 PUSH1 0x1 PUSH1 0x1 PUSH1 0xA0 SHL SUB SWAP1 SWAP2 AND SWAP1 PUSH32 0x8BE0079C531659141344CD1FD0A4F28419497F9722A3DAAFE3B4186F6B6457E0 SWAP1 DUP1 LOG3 PUSH1 0x1 DUP1 SSTORE PUSH1 0x1 PUSH1 0x3 SSTORE PUSH2 0x2BD7 SWAP1 DUP2 PUSH2 0x6A DUP3 CODECOPY RETURN JUMPDEST PUSH1 0x0 DUP1 REVERT INVALID PUSH1 0xE0 PUSH1 0x40 MSTORE PUSH1 0x4 CALLDATASIZE LT ISZERO PUSH2 0x12 JUMPI PUSH1 0x0 DUP1 REVERT JUMPDEST PUSH1 0x0 DUP1 CALLDATALOAD PUSH1 0xE0 SHR DUP1 PUSH4 0x4CBC86E EQ PUSH2 0x13EB JUMPI DUP1 PUSH4 0x15548232 EQ PUSH2 0x13CF JUMPI DUP1 PUSH4 0x1D74EA25 EQ PUSH2 0x1371 JUMPI DUP1 PUSH4 0x2C4AA971 EQ PUSH2 0x133B JUMPI DUP1 PUSH4 0x32432233 EQ PUSH2 0x11AD JUMPI DUP1 PUSH4 0x32E8BC72 EQ PUSH2 0x1174 JUMPI DUP1 PUSH4 0x334F7DEB EQ PUSH2 0x105B JUMPI DUP1 PUSH4 0x66025A7E EQ PUSH2 0xDB2 JUMPI DUP1 PUSH4 0x67E820AD EQ PUSH2 0xD24 JUMPI DUP1 PUSH4 0x6D3687DF EQ PUSH2 0xD08 JUMPI DUP1 PUSH4 0x715018A6 EQ PUSH2 0xCAE JUMPI DUP1 PUSH4 0x7503E1B7 EQ PUSH2 0xB67 JUMPI DUP1 PUSH4 0x79C13F8A EQ PUSH2 0xAA4 JUMPI DUP1 PUSH4 0x852EFC3D EQ PUSH2 0xA86 JUMPI DUP1 PUSH4 0x86BB8F37 EQ PUSH2 0x8D5 JUMPI DUP1 PUSH4 0x87C13943 EQ PUSH2 0x8B8 JUMPI DUP1 PUSH4 0x8DA5CB5B EQ PUSH2 0x891 JUMPI DUP1 PUSH4 0xA52D7E9E EQ PUSH2 0x875 JUMPI DUP1 PUSH4 0xC00B69FE EQ PUSH2 0x858 JUMPI DUP1 PUSH4 0xC56AAB81 EQ PUSH2 0x69D JUMPI DUP1 PUSH4 0xC8B727A1 EQ PUSH2 0x655 JUMPI DUP1 PUSH4 0xCAC766D2 EQ PUSH2 0x4EE JUMPI DUP1 PUSH4 0xCB84E537 EQ PUSH2 0x48C JUMPI DUP1 PUSH4 0xD533344F EQ PUSH2 0x3EA JUMPI DUP1 PUSH4 0xEC3889B5 EQ PUSH2 0x2C6 JUMPI DUP1 PUSH4 0xF2FDE38B EQ PUSH2 0x205 JUMPI PUSH4 0xF37AA509 EQ PUSH2 0x146 JUMPI PUSH1 0x0 DUP1 REVERT JUMPDEST CALLVALUE PUSH2 0x202 JUMPI PUSH1 0x20 DUP1 PUSH1 0x3 NOT CALLDATASIZE ADD SLT PUSH2 0x1FE JUMPI PUSH1 0x4 CALLDATALOAD DUP1 DUP4 MSTORE PUSH1 0x2 DUP3 MSTORE PUSH2 0x171 DUP2 PUSH1 0x40 DUP6 KECCAK256 SLOAD EQ PUSH2 0x2466 JUMP JUMPDEST DUP3 MSTORE PUSH1 0x2 DUP2 MSTORE PUSH1 0xE PUSH1 0x40 DUP4 KECCAK256 ADD PUSH1 0x40 MLOAD SWAP3 DUP4 DUP4 DUP4 SLOAD SWAP2 DUP3 DUP2 MSTORE ADD SWAP1 DUP2 SWAP4 DUP4 MSTORE DUP5 DUP4 KECCAK256 SWAP1 DUP4 JUMPDEST DUP2 DUP2 LT PUSH2 0x1EA JUMPI POP POP POP DUP5 PUSH2 0x1AC SWAP2 SUB DUP6 PUSH2 0x14FA JUMP JUMPDEST PUSH1 0x40 MLOAD SWAP4 DUP4 DUP6 SWAP5 DUP6 ADD SWAP2 DUP2 DUP7 MSTORE MLOAD DUP1 SWAP3 MSTORE PUSH1 0x40 DUP6 ADD SWAP4 SWAP3 JUMPDEST DUP3 DUP2 LT PUSH2 0x1D3 JUMPI POP POP POP POP SUB SWAP1 RETURN JUMPDEST DUP4 MLOAD DUP6 MSTORE DUP7 SWAP6 POP SWAP4 DUP2 ADD SWAP4 SWAP3 DUP2 ADD SWAP3 PUSH1 0x1 ADD PUSH2 0x1C4 JUMP JUMPDEST DUP3 SLOAD DUP5 MSTORE SWAP3 DUP7 ADD SWAP3 PUSH1 0x1 SWAP3 DUP4 ADD SWAP3 ADD PUSH2 0x196 JUMP JUMPDEST POP DUP1 REVERT JUMPDEST DUP1 REVERT JUMPDEST POP CALLVALUE PUSH2 0x202 JUMPI PUSH1 0x20 CALLDATASIZE PUSH1 0x3 NOT ADD SLT PUSH2 0x202 JUMPI PUSH2 0x21F PUSH2 0x15D6 JUMP JUMPDEST PUSH2 0x227 PUSH2 0x1798 JUMP JUMPDEST PUSH1 0x1 PUSH1 0x1 PUSH1 0xA0 SHL SUB SWAP1 DUP2 AND SWAP1 DUP2 ISZERO PUSH2 0x272 JUMPI DUP3 SLOAD PUSH1 0x1 PUSH1 0x1 PUSH1 0xA0 SHL SUB NOT DUP2 AND DUP4 OR DUP5 SSTORE AND PUSH32 0x8BE0079C531659141344CD1FD0A4F28419497F9722A3DAAFE3B4186F6B6457E0 DUP4 DUP1 LOG3 DUP1 RETURN JUMPDEST PUSH1 0x40 MLOAD PUSH3 0x461BCD PUSH1 0xE5 SHL DUP2 MSTORE PUSH1 0x20 PUSH1 0x4 DUP3 ADD MSTORE PUSH1 0x26 PUSH1 0x24 DUP3 ADD MSTORE PUSH32 0x4F776E61626C653A206E6577206F776E657220697320746865207A65726F2061 PUSH1 0x44 DUP3 ADD MSTORE PUSH6 0x646472657373 PUSH1 0xD0 SHL PUSH1 0x64 DUP3 ADD MSTORE PUSH1 0x84 SWAP1 REVERT JUMPDEST POP CALLVALUE PUSH2 0x202 JUMPI PUSH1 0x20 CALLDATASIZE PUSH1 0x3 NOT ADD SLT PUSH2 0x202 JUMPI PUSH2 0x2E0 PUSH2 0x15D6 JUMP JUMPDEST PUSH2 0x2E8 PUSH2 0x1798 JUMP JUMPDEST PUSH2 0x2F0 PUSH2 0x17F0 JUMP JUMPDEST PUSH1 0x1 PUSH1 0x1 PUSH1 0xA0 SHL SUB SWAP1 DUP2 AND DUP1 DUP4 MSTORE PUSH1 0x4 PUSH1 0x20 MSTORE PUSH1 0x40 DUP4 KECCAK256 SLOAD SWAP2 DUP3 ISZERO PUSH2 0x3AF JUMPI DUP2 DUP5 MSTORE PUSH1 0x4 PUSH1 0x20 MSTORE DUP4 PUSH1 0x40 DUP2 KECCAK256 SSTORE DUP2 ISZERO PUSH1 0x0 EQ PUSH2 0x378 JUMPI DUP4 DUP1 DUP1 DUP1 DUP7 DUP6 DUP3 SLOAD AND DUP3 CALL ISZERO PUSH2 0x36D JUMPI PUSH1 0x20 PUSH32 0xC0F01729B0D2F4EE8F47286E5CF926377EAB5D6E58A981836E2F30705DB2362C SWAP2 JUMPDEST DUP6 SLOAD AND SWAP4 PUSH1 0x40 MLOAD SWAP1 DUP2 MSTORE LOG3 PUSH1 0x1 DUP1 SSTORE DUP1 RETURN JUMPDEST PUSH1 0x40 MLOAD RETURNDATASIZE DUP6 DUP3 RETURNDATACOPY RETURNDATASIZE SWAP1 REVERT JUMPDEST PUSH1 0x20 DUP2 PUSH2 0x3AA DUP6 PUSH32 0xC0F01729B0D2F4EE8F47286E5CF926377EAB5D6E58A981836E2F30705DB2362C SWAP5 DUP9 SLOAD AND DUP7 PUSH2 0x27CB JUMP JUMPDEST PUSH2 0x35B JUMP JUMPDEST PUSH1 0x40 MLOAD PUSH3 0x461BCD PUSH1 0xE5 SHL DUP2 MSTORE PUSH1 0x20 PUSH1 0x4 DUP3 ADD MSTORE PUSH1 0x13 PUSH1 0x24 DUP3 ADD MSTORE PUSH19 0x4E6F206665657320746F207769746864726177 PUSH1 0x68 SHL PUSH1 0x44 DUP3 ADD MSTORE PUSH1 0x64 SWAP1 REVERT JUMPDEST POP CALLVALUE PUSH2 0x202 JUMPI PUSH1 0x60 CALLDATASIZE PUSH1 0x3 NOT ADD SLT PUSH2 0x202 JUMPI PUSH1 0x1 PUSH1 0x1 PUSH1 0xA0 SHL SUB PUSH1 0x44 CALLDATALOAD PUSH1 0x4 CALLDATALOAD DUP3 DUP3 AND DUP3 SUB PUSH2 0x488 JUMPI PUSH2 0x46C PUSH2 0x481 SWAP4 PUSH2 0x422 PUSH2 0x17F0 JUMP JUMPDEST DUP3 DUP7 MSTORE PUSH1 0x2 PUSH1 0x20 MSTORE PUSH2 0x439 DUP4 PUSH1 0x40 DUP9 KECCAK256 SLOAD EQ PUSH2 0x2466 JUMP JUMPDEST DUP3 DUP7 MSTORE PUSH1 0x2 PUSH1 0x20 MSTORE PUSH2 0x454 PUSH1 0xFF PUSH1 0xA PUSH1 0x40 DUP10 KECCAK256 ADD SLOAD AND PUSH2 0x24B2 JUMP JUMPDEST DUP3 DUP7 MSTORE PUSH1 0x2 PUSH1 0x20 MSTORE PUSH1 0x1 PUSH1 0x40 DUP8 KECCAK256 ADD SLOAD AND CALLER EQ PUSH2 0x261B JUMP JUMPDEST DUP1 DUP5 MSTORE PUSH1 0x2 PUSH1 0x20 MSTORE PUSH1 0x24 CALLDATALOAD SWAP1 PUSH1 0x40 DUP6 KECCAK256 PUSH2 0x28A6 JUMP JUMPDEST PUSH1 0x1 DUP1 SSTORE DUP1 RETURN JUMPDEST DUP4 DUP1 REVERT JUMPDEST POP CALLVALUE PUSH2 0x202 JUMPI PUSH1 0x40 CALLDATASIZE PUSH1 0x3 NOT ADD SLT PUSH2 0x202 JUMPI PUSH1 0xFF PUSH1 0x40 PUSH1 0x20 SWAP3 PUSH1 0x4 CALLDATALOAD PUSH2 0x4B0 PUSH2 0x15C0 JUMP JUMPDEST SWAP1 DUP1 DUP4 MSTORE PUSH1 0x2 DUP7 MSTORE PUSH2 0x4C6 DUP2 DUP6 DUP6 KECCAK256 SLOAD EQ PUSH2 0x2466 JUMP JUMPDEST DUP3 MSTORE PUSH1 0x2 DUP6 MSTORE DUP3 DUP3 KECCAK256 PUSH1 0x1 PUSH1 0x1 PUSH1 0xA0 SHL SUB SWAP1 SWAP2 AND DUP3 MSTORE PUSH1 0x12 ADD DUP5 MSTORE KECCAK256 SLOAD PUSH1 0x40 MLOAD SWAP2 AND ISZERO ISZERO DUP2 MSTORE RETURN JUMPDEST POP CALLVALUE PUSH2 0x202 JUMPI PUSH1 0x20 CALLDATASIZE PUSH1 0x3 NOT ADD SLT PUSH2 0x202 JUMPI PUSH1 0x4 CALLDATALOAD DUP1 DUP3 MSTORE PUSH1 0x2 PUSH1 0x20 MSTORE DUP1 PUSH1 0x40 DUP4 KECCAK256 SLOAD EQ PUSH2 0x51B SWAP1 PUSH2 0x2466 JUMP JUMPDEST DUP2 MSTORE PUSH1 0x2 PUSH1 0x20 MSTORE PUSH1 0x40 SWAP1 KECCAK256 PUSH1 0x1 PUSH1 0xA0 SHL PUSH1 0x1 SWAP1 SUB PUSH1 0x1 DUP3 ADD SLOAD AND SWAP1 PUSH1 0x5 DUP2 ADD SLOAD PUSH1 0xFF AND PUSH1 0x6 DUP3 ADD SLOAD PUSH1 0x7 DUP4 ADD SLOAD PUSH1 0x8 DUP5 ADD SLOAD PUSH1 0x9 DUP6 ADD SLOAD PUSH1 0xA DUP7 ADD SLOAD PUSH1 0xB DUP8 ADD SLOAD SWAP1 PUSH1 0xE DUP9 ADD SLOAD SWAP3 PUSH1 0xC DUP10 ADD SLOAD SWAP5 PUSH1 0xD DUP11 ADD SLOAD SWAP7 PUSH1 0x11 DUP12 ADD SLOAD SWAP9 PUSH1 0x2 DUP13 ADD PUSH2 0x582 SWAP1 PUSH2 0x16B2 JUMP JUMPDEST SWAP12 PUSH2 0x58F PUSH1 0x3 DUP3 ADD PUSH2 0x16B2 JUMP JUMPDEST SWAP1 PUSH1 0x4 ADD PUSH2 0x59C SWAP1 PUSH2 0x16B2 JUMP JUMPDEST SWAP1 PUSH1 0x40 MLOAD SWAP15 DUP16 SWAP15 DUP16 SWAP2 DUP3 MSTORE PUSH2 0x220 DUP1 PUSH1 0x20 DUP5 ADD MSTORE DUP3 ADD PUSH2 0x5BB SWAP2 PUSH2 0x1758 JUMP JUMPDEST SWAP1 DUP1 DUP3 SUB SWAP1 PUSH1 0x40 ADD MSTORE PUSH2 0x5CD SWAP2 PUSH2 0x1758 JUMP JUMPDEST DUP14 DUP2 SUB PUSH1 0x60 DUP16 ADD MSTORE PUSH2 0x5DE SWAP2 PUSH2 0x1758 JUMP JUMPDEST SWAP11 PUSH1 0x80 DUP14 ADD MSTORE PUSH1 0xA0 DUP13 ADD MSTORE PUSH1 0xC0 DUP12 ADD MSTORE PUSH1 0xE0 DUP11 ADD MSTORE PUSH2 0x100 DUP10 ADD MSTORE PUSH1 0xFF DUP2 AND ISZERO ISZERO PUSH2 0x120 DUP10 ADD MSTORE PUSH1 0x1 PUSH1 0xA0 SHL PUSH1 0x1 SWAP1 SUB SWAP1 PUSH1 0x8 SHR AND PUSH2 0x140 DUP9 ADD MSTORE PUSH2 0x160 DUP8 ADD MSTORE PUSH2 0x180 DUP7 ADD MSTORE PUSH1 0xFF DUP2 AND ISZERO ISZERO PUSH2 0x1A0 DUP7 ADD MSTORE PUSH1 0x1 PUSH1 0xA0 SHL PUSH1 0x1 SWAP1 SUB SWAP1 PUSH1 0x8 SHR AND PUSH2 0x1C0 DUP6 ADD MSTORE PUSH2 0x1E0 DUP5 ADD MSTORE PUSH2 0x200 DUP4 ADD MSTORE SUB SWAP1 RETURN JUMPDEST POP CALLVALUE PUSH2 0x202 JUMPI PUSH1 0x40 CALLDATASIZE PUSH1 0x3 NOT ADD SLT PUSH2 0x202 JUMPI PUSH2 0x693 PUSH1 0x20 SWAP2 PUSH1 0x4 CALLDATALOAD PUSH2 0x68E DUP2 PUSH1 0x40 PUSH2 0x67E PUSH2 0x15C0 JUMP JUMPDEST SWAP5 DUP3 DUP2 MSTORE PUSH1 0x2 DUP9 MSTORE KECCAK256 SLOAD EQ PUSH2 0x2466 JUMP JUMPDEST PUSH2 0x2AFC JUMP JUMPDEST PUSH1 0x40 MLOAD SWAP1 ISZERO ISZERO DUP2 MSTORE RETURN JUMPDEST POP CALLVALUE PUSH2 0x202 JUMPI PUSH1 0x60 CALLDATASIZE PUSH1 0x3 NOT ADD SLT PUSH2 0x202 JUMPI PUSH1 0x4 CALLDATALOAD PUSH8 0xFFFFFFFFFFFFFFFF PUSH1 0x24 CALLDATALOAD DUP2 DUP2 GT PUSH2 0x488 JUMPI PUSH2 0x6D3 SWAP1 CALLDATASIZE SWAP1 PUSH1 0x4 ADD PUSH2 0x1604 JUMP JUMPDEST SWAP1 PUSH1 0x44 CALLDATALOAD SWAP1 DUP2 GT PUSH2 0x488 JUMPI CALLDATASIZE PUSH1 0x23 DUP3 ADD SLT ISZERO PUSH2 0x488 JUMPI DUP1 PUSH1 0x4 ADD CALLDATALOAD SWAP3 PUSH2 0x6F8 DUP5 PUSH2 0x15EC JUMP JUMPDEST SWAP2 PUSH2 0x706 PUSH1 0x40 MLOAD SWAP4 DUP5 PUSH2 0x14FA JUMP JUMPDEST DUP5 DUP4 MSTORE PUSH1 0x20 SWAP5 PUSH1 0x24 DUP7 DUP6 ADD SWAP2 PUSH1 0x5 SHL DUP4 ADD ADD SWAP2 CALLDATASIZE DUP4 GT PUSH2 0x854 JUMPI PUSH1 0x24 ADD SWAP1 JUMPDEST DUP3 DUP3 LT PUSH2 0x831 JUMPI POP POP POP PUSH2 0x737 PUSH2 0x17F0 JUMP JUMPDEST DUP1 DUP6 MSTORE PUSH1 0x2 DUP5 MSTORE PUSH2 0x74D DUP2 PUSH1 0x40 DUP8 KECCAK256 SLOAD EQ PUSH2 0x2466 JUMP JUMPDEST DUP1 DUP6 MSTORE PUSH1 0x2 DUP5 MSTORE PUSH2 0x767 PUSH1 0xFF PUSH1 0xA PUSH1 0x40 DUP9 KECCAK256 ADD SLOAD AND PUSH2 0x24B2 JUMP JUMPDEST DUP1 DUP6 MSTORE PUSH1 0x2 DUP5 MSTORE PUSH1 0x1 DUP1 PUSH1 0xA0 SHL SUB PUSH1 0x1 SWAP5 PUSH2 0x78B DUP3 DUP8 PUSH1 0x40 DUP11 KECCAK256 ADD SLOAD AND CALLER EQ PUSH2 0x261B JUMP JUMPDEST DUP5 MLOAD DUP5 MLOAD SUB PUSH2 0x7F4 JUMPI SWAP1 PUSH1 0x2 DUP4 SWAP3 DUP8 SWAP6 SWAP5 DUP10 MSTORE MSTORE PUSH1 0x40 DUP8 KECCAK256 SWAP5 DUP5 DUP9 SWAP1 JUMPDEST PUSH2 0x7B4 JUMPI JUMPDEST DUP9 DUP7 DUP1 SSTORE DUP1 RETURN JUMPDEST DUP2 MLOAD DUP2 LT ISZERO PUSH2 0x7EF JUMPI DUP1 PUSH2 0x7E4 PUSH2 0x7CE PUSH2 0x7E9 SWAP4 DUP6 PUSH2 0x1878 JUMP JUMPDEST MLOAD DUP6 PUSH2 0x7DA DUP5 DUP11 PUSH2 0x1878 JUMP JUMPDEST MLOAD AND SWAP1 DUP8 DUP12 PUSH2 0x28A6 JUMP JUMPDEST PUSH2 0x1869 JUMP JUMPDEST DUP6 PUSH2 0x7A8 JUMP JUMPDEST PUSH2 0x7AD JUMP JUMPDEST PUSH1 0x64 SWAP1 PUSH1 0x40 MLOAD SWAP1 PUSH3 0x461BCD PUSH1 0xE5 SHL DUP3 MSTORE PUSH1 0x4 DUP3 ADD MSTORE PUSH1 0x16 PUSH1 0x24 DUP3 ADD MSTORE PUSH22 0x82E4E4C2F2E640D8CADCCEE8D040DAD2E6DAC2E8C6D PUSH1 0x53 SHL PUSH1 0x44 DUP3 ADD MSTORE REVERT JUMPDEST DUP2 CALLDATALOAD PUSH1 0x1 PUSH1 0x1 PUSH1 0xA0 SHL SUB DUP2 AND DUP2 SUB PUSH2 0x850 JUMPI DUP2 MSTORE SWAP1 DUP7 ADD SWAP1 DUP7 ADD PUSH2 0x725 JUMP JUMPDEST DUP9 DUP1 REVERT JUMPDEST DUP8 DUP1 REVERT JUMPDEST POP CALLVALUE PUSH2 0x202 JUMPI DUP1 PUSH1 0x3 NOT CALLDATASIZE ADD SLT PUSH2 0x202 JUMPI PUSH1 0x20 PUSH1 0x40 MLOAD PUSH2 0xE10 DUP2 MSTORE RETURN JUMPDEST POP CALLVALUE PUSH2 0x202 JUMPI DUP1 PUSH1 0x3 NOT CALLDATASIZE ADD SLT PUSH2 0x202 JUMPI PUSH1 0x20 PUSH1 0x40 MLOAD PUSH1 0x1 DUP2 MSTORE RETURN JUMPDEST POP CALLVALUE PUSH2 0x202 JUMPI DUP1 PUSH1 0x3 NOT CALLDATASIZE ADD SLT PUSH2 0x202 JUMPI SLOAD PUSH1 0x40 MLOAD PUSH1 0x1 PUSH1 0x1 PUSH1 0xA0 SHL SUB SWAP1 SWAP2 AND DUP2 MSTORE PUSH1 0x20 SWAP1 RETURN JUMPDEST POP CALLVALUE PUSH2 0x202 JUMPI DUP1 PUSH1 0x3 NOT CALLDATASIZE ADD SLT PUSH2 0x202 JUMPI PUSH1 0x20 PUSH1 0x40 MLOAD PUSH2 0x2710 DUP2 MSTORE RETURN JUMPDEST POP CALLVALUE PUSH2 0x202 JUMPI PUSH2 0x8E4 CALLDATASIZE PUSH2 0x1662 JUMP JUMPDEST PUSH2 0x8EC PUSH2 0x17F0 JUMP JUMPDEST DUP2 DUP4 MSTORE PUSH1 0x20 PUSH1 0x2 DUP2 MSTORE PUSH2 0x904 DUP4 PUSH1 0x40 DUP7 KECCAK256 SLOAD EQ PUSH2 0x2466 JUMP JUMPDEST DUP3 DUP5 MSTORE PUSH1 0x2 DUP2 MSTORE PUSH2 0x91E PUSH1 0xFF PUSH1 0xA PUSH1 0x40 DUP8 KECCAK256 ADD SLOAD AND PUSH2 0x24B2 JUMP JUMPDEST DUP3 DUP5 MSTORE PUSH1 0x2 DUP2 MSTORE PUSH1 0x40 DUP5 KECCAK256 SWAP2 PUSH1 0xE DUP4 ADD PUSH2 0x93A DUP2 SLOAD DUP4 LT PUSH2 0x281B JUMP JUMPDEST PUSH1 0x10 DUP5 ADD SWAP1 DUP3 DUP8 MSTORE DUP2 DUP5 MSTORE PUSH2 0x956 PUSH1 0xFF PUSH1 0x40 DUP10 KECCAK256 SLOAD AND ISZERO PUSH2 0x285A JUMP JUMPDEST DUP3 DUP8 MSTORE PUSH1 0xF DUP6 ADD DUP5 MSTORE PUSH1 0x40 DUP8 KECCAK256 SLOAD PUSH1 0x1 PUSH1 0x1 PUSH1 0xA0 SHL SUB SWAP3 SWAP1 DUP4 AND CALLER SUB PUSH2 0xA50 JUMPI DUP4 PUSH1 0xA SWAP3 PUSH2 0x997 SWAP3 DUP3 DUP12 MSTORE DUP8 MSTORE PUSH1 0x40 DUP11 KECCAK256 PUSH1 0x1 PUSH1 0xFF NOT DUP3 SLOAD AND OR SWAP1 SSTORE PUSH2 0x18FB JUMP JUMPDEST SWAP1 SLOAD SWAP1 PUSH1 0x3 SHL SHR SWAP5 ADD SLOAD PUSH1 0x8 SHR AND DUP1 ISZERO PUSH1 0x0 EQ PUSH2 0xA1A JUMPI POP DUP5 DUP1 DUP5 DUP1 ISZERO PUSH2 0xA10 JUMPI JUMPDEST DUP3 DUP1 SWAP3 SWAP2 DUP2 SWAP3 CALLER SWAP1 CALL ISZERO PUSH2 0xA05 JUMPI PUSH32 0xA8325F46EC9623D7CED8F695FF820511A4ACEF4F5D5C4933BD5D992141A2B905 SWAP3 PUSH1 0x60 SWAP3 JUMPDEST PUSH1 0x40 MLOAD SWAP3 DUP4 MSTORE CALLER SWAP1 DUP4 ADD MSTORE PUSH1 0x40 DUP3 ADD MSTORE LOG2 PUSH1 0x1 DUP1 SSTORE DUP1 RETURN JUMPDEST PUSH1 0x40 MLOAD RETURNDATASIZE DUP7 DUP3 RETURNDATACOPY RETURNDATASIZE SWAP1 REVERT JUMPDEST PUSH2 0x8FC SWAP2 POP PUSH2 0x9B9 JUMP JUMPDEST SWAP3 PUSH1 0x60 SWAP3 PUSH2 0xA4B DUP3 PUSH32 0xA8325F46EC9623D7CED8F695FF820511A4ACEF4F5D5C4933BD5D992141A2B905 SWAP7 CALLER SWAP1 PUSH2 0x27CB JUMP JUMPDEST PUSH2 0x9ED JUMP JUMPDEST PUSH1 0x40 MLOAD PUSH3 0x461BCD PUSH1 0xE5 SHL DUP2 MSTORE PUSH1 0x4 DUP2 ADD DUP7 SWAP1 MSTORE PUSH1 0xE PUSH1 0x24 DUP3 ADD MSTORE PUSH14 0x2737BA103A3432903BB4B73732B9 PUSH1 0x91 SHL PUSH1 0x44 DUP3 ADD MSTORE PUSH1 0x64 SWAP1 REVERT JUMPDEST POP CALLVALUE PUSH2 0x202 JUMPI DUP1 PUSH1 0x3 NOT CALLDATASIZE ADD SLT PUSH2 0x202 JUMPI PUSH1 0x20 PUSH1 0x3 SLOAD PUSH1 0x40 MLOAD SWAP1 DUP2 MSTORE RETURN JUMPDEST POP PUSH2 0x120 CALLDATASIZE PUSH1 0x3 NOT ADD SLT PUSH2 0x202 JUMPI PUSH8 0xFFFFFFFFFFFFFFFF PUSH1 0x4 CALLDATALOAD DUP2 DUP2 GT PUSH2 0xB63 JUMPI PUSH2 0xAD3 SWAP1 CALLDATASIZE SWAP1 PUSH1 0x4 ADD PUSH2 0x154E JUMP JUMPDEST SWAP2 PUSH1 0x24 CALLDATALOAD DUP3 DUP2 GT PUSH2 0x1FE JUMPI PUSH2 0xAEC SWAP1 CALLDATASIZE SWAP1 PUSH1 0x4 ADD PUSH2 0x154E JUMP JUMPDEST SWAP1 PUSH1 0x44 CALLDATALOAD DUP4 DUP2 GT PUSH2 0x1FE JUMPI PUSH2 0xB05 SWAP1 CALLDATASIZE SWAP1 PUSH1 0x4 ADD PUSH2 0x154E JUMP JUMPDEST PUSH2 0xB0D PUSH2 0x159A JUMP JUMPDEST SWAP4 PUSH2 0xB16 PUSH2 0x15AA JUMP JUMPDEST SWAP3 PUSH2 0x104 CALLDATALOAD SWAP2 DUP3 GT PUSH2 0x202 JUMPI PUSH1 0x20 PUSH2 0xB57 DUP9 DUP9 DUP9 DUP9 DUP9 PUSH2 0xB39 CALLDATASIZE PUSH1 0x4 DUP12 ADD PUSH2 0x1604 JUMP JUMPDEST SWAP3 PUSH2 0xB42 PUSH2 0x17F0 JUMP JUMPDEST CALLVALUE SWAP6 CALLER SWAP6 PUSH1 0xC4 CALLDATALOAD SWAP4 PUSH1 0xA4 CALLDATALOAD SWAP4 PUSH1 0x84 CALLDATALOAD SWAP4 PUSH2 0x1913 JUMP JUMPDEST PUSH1 0x1 DUP1 SSTORE PUSH1 0x40 MLOAD SWAP1 DUP2 MSTORE RETURN JUMPDEST DUP3 DUP1 REVERT JUMPDEST POP CALLVALUE PUSH2 0x202 JUMPI PUSH1 0x20 CALLDATASIZE PUSH1 0x3 NOT ADD SLT PUSH2 0x202 JUMPI PUSH1 0x4 CALLDATALOAD DUP2 MSTORE PUSH1 0x2 PUSH1 0x20 MSTORE PUSH1 0x40 SWAP1 KECCAK256 DUP1 SLOAD PUSH1 0x1 PUSH1 0xA0 SHL PUSH1 0x1 SWAP1 SUB PUSH1 0x1 DUP4 ADD SLOAD AND SWAP2 PUSH1 0x2 DUP2 ADD PUSH2 0xBA6 SWAP1 PUSH2 0x16B2 JUMP JUMPDEST PUSH2 0xBB2 PUSH1 0x3 DUP4 ADD PUSH2 0x16B2 JUMP JUMPDEST SWAP2 PUSH2 0xBBF PUSH1 0x4 DUP3 ADD PUSH2 0x16B2 JUMP JUMPDEST SWAP3 PUSH1 0x5 DUP3 ADD SLOAD PUSH1 0xFF AND SWAP4 PUSH1 0x6 DUP4 ADD SLOAD PUSH1 0x7 DUP5 ADD SLOAD PUSH1 0x8 DUP6 ADD SLOAD PUSH1 0x9 DUP7 ADD SLOAD SWAP2 PUSH1 0xA DUP8 ADD SLOAD SWAP4 PUSH1 0xB DUP9 ADD SLOAD SWAP6 PUSH1 0xC DUP10 ADD SLOAD SWAP8 PUSH1 0xD DUP11 ADD SLOAD SWAP10 PUSH1 0x11 ADD SLOAD SWAP11 PUSH1 0x40 MLOAD SWAP15 DUP16 SWAP15 DUP16 SWAP1 DUP2 MSTORE PUSH1 0x20 ADD MSTORE DUP14 PUSH2 0x220 SWAP1 DUP2 PUSH1 0x40 DUP3 ADD MSTORE ADD PUSH2 0xC1E SWAP2 PUSH2 0x1758 JUMP JUMPDEST DUP14 DUP2 SUB PUSH1 0x60 DUP16 ADD MSTORE PUSH2 0xC2F SWAP2 PUSH2 0x1758 JUMP JUMPDEST DUP13 DUP2 SUB PUSH1 0x80 DUP15 ADD MSTORE PUSH2 0xC40 SWAP2 PUSH2 0x1758 JUMP JUMPDEST PUSH1 0xA0 DUP13 ADD SWAP11 SWAP1 SWAP11 MSTORE PUSH1 0xC0 DUP12 ADD MSTORE PUSH1 0xE0 DUP11 ADD MSTORE PUSH2 0x100 DUP10 ADD MSTORE PUSH2 0x120 DUP9 ADD MSTORE PUSH1 0xFF DUP2 DUP2 AND ISZERO ISZERO PUSH2 0x140 DUP10 ADD MSTORE PUSH1 0x1 PUSH1 0x1 PUSH1 0xA0 SHL SUB PUSH1 0x8 SWAP3 DUP4 SHR DUP2 AND PUSH2 0x160 DUP11 ADD MSTORE PUSH2 0x180 DUP10 ADD SWAP4 SWAP1 SWAP4 MSTORE DUP4 AND ISZERO ISZERO PUSH2 0x1A0 DUP9 ADD MSTORE SWAP2 SWAP1 SWAP2 SHR AND PUSH2 0x1C0 DUP6 ADD MSTORE PUSH2 0x1E0 DUP5 ADD MSTORE PUSH2 0x200 DUP4 ADD MSTORE SUB SWAP1 RETURN JUMPDEST POP CALLVALUE PUSH2 0x202 JUMPI DUP1 PUSH1 0x3 NOT CALLDATASIZE ADD SLT PUSH2 0x202 JUMPI PUSH2 0xCC7 PUSH2 0x1798 JUMP JUMPDEST DUP1 SLOAD PUSH1 0x1 PUSH1 0x1 PUSH1 0xA0 SHL SUB NOT DUP2 AND DUP3 SSTORE DUP2 SWAP1 PUSH1 0x1 PUSH1 0x1 PUSH1 0xA0 SHL SUB AND PUSH32 0x8BE0079C531659141344CD1FD0A4F28419497F9722A3DAAFE3B4186F6B6457E0 DUP3 DUP1 LOG3 DUP1 RETURN JUMPDEST POP CALLVALUE PUSH2 0x202 JUMPI DUP1 PUSH1 0x3 NOT CALLDATASIZE ADD SLT PUSH2 0x202 JUMPI PUSH1 0x20 SWAP1 PUSH1 0x40 MLOAD SWAP1 DUP2 MSTORE RETURN JUMPDEST POP CALLVALUE PUSH2 0x202 JUMPI PUSH1 0x60 SWAP1 PUSH2 0xD36 CALLDATASIZE PUSH2 0x1662 JUMP JUMPDEST SWAP1 DUP1 DUP4 MSTORE PUSH1 0x2 PUSH1 0x20 MSTORE PUSH2 0xD4E DUP2 PUSH1 0x40 DUP6 KECCAK256 SLOAD EQ PUSH2 0x2466 JUMP JUMPDEST DUP3 MSTORE PUSH1 0x2 PUSH1 0x20 MSTORE PUSH1 0x40 DUP3 KECCAK256 PUSH1 0xFF PUSH1 0x40 PUSH2 0xD76 DUP5 PUSH1 0xE DUP6 ADD PUSH2 0xD71 DUP2 SLOAD DUP4 LT PUSH2 0x281B JUMP JUMPDEST PUSH2 0x18FB JUMP JUMPDEST SWAP6 SWAP1 SLOAD SWAP5 DUP2 MSTORE PUSH1 0xF DUP5 ADD PUSH1 0x20 MSTORE PUSH1 0x10 PUSH1 0x1 DUP1 PUSH1 0xA0 SHL SUB DUP4 DUP4 KECCAK256 SLOAD AND SWAP5 ADD PUSH1 0x20 MSTORE KECCAK256 SLOAD AND SWAP2 PUSH1 0x40 MLOAD SWAP4 PUSH1 0x3 SHL SHR DUP4 MSTORE PUSH1 0x20 DUP4 ADD MSTORE ISZERO ISZERO PUSH1 0x40 DUP3 ADD MSTORE RETURN JUMPDEST POP PUSH1 0x20 SWAP1 DUP2 PUSH1 0x3 NOT CALLDATASIZE ADD SLT PUSH2 0x202 JUMPI PUSH1 0x4 CALLDATALOAD PUSH2 0xDCC PUSH2 0x17F0 JUMP JUMPDEST DUP1 DUP3 MSTORE PUSH1 0x2 DUP4 MSTORE PUSH2 0xDE2 DUP2 PUSH1 0x40 DUP5 KECCAK256 SLOAD EQ PUSH2 0x2466 JUMP JUMPDEST DUP1 DUP3 MSTORE PUSH1 0x2 DUP4 MSTORE PUSH2 0xDFC PUSH1 0xFF PUSH1 0xA PUSH1 0x40 DUP6 KECCAK256 ADD SLOAD AND PUSH2 0x24B2 JUMP JUMPDEST DUP1 DUP3 MSTORE PUSH1 0x2 DUP4 MSTORE PUSH1 0x40 DUP3 KECCAK256 PUSH2 0xE17 PUSH1 0x9 DUP3 ADD SLOAD TIMESTAMP GT ISZERO PUSH2 0x24F6 JUMP JUMPDEST PUSH1 0xC DUP2 ADD SLOAD PUSH2 0xE28 PUSH1 0xFF DUP3 AND PUSH2 0x25C4 JUMP JUMPDEST PUSH1 0x12 DUP3 ADD SWAP1 CALLER DUP6 MSTORE DUP2 DUP7 MSTORE PUSH2 0xE44 PUSH1 0xFF PUSH1 0x40 DUP8 KECCAK256 SLOAD AND ISZERO PUSH2 0x2542 JUMP JUMPDEST PUSH1 0x6 DUP4 ADD SLOAD DUP1 PUSH2 0x1046 JUMPI JUMPDEST POP PUSH1 0x8 SHR PUSH1 0x1 PUSH1 0x1 PUSH1 0xA0 SHL SUB AND DUP1 PUSH2 0xF05 JUMPI POP PUSH1 0xD DUP3 ADD SLOAD CALLVALUE SUB PUSH2 0xEC0 JUMPI PUSH1 0x11 SWAP3 SWAP4 SWAP5 JUMPDEST CALLER DUP7 MSTORE MSTORE PUSH1 0x40 DUP5 KECCAK256 PUSH1 0x1 PUSH1 0xFF NOT DUP3 SLOAD AND OR SWAP1 SSTORE ADD PUSH2 0xE91 DUP2 SLOAD PUSH2 0x1869 JUMP JUMPDEST SWAP1 SSTORE CALLER SWAP1 PUSH32 0x78337B3A0CFC36FAAFAB5A292DC7571F6BD68BA681C22E15C97B1E3469B51A02 DUP4 DUP1 LOG3 PUSH1 0x1 DUP1 SSTORE DUP1 RETURN JUMPDEST PUSH1 0x40 MLOAD PUSH3 0x461BCD PUSH1 0xE5 SHL DUP2 MSTORE PUSH1 0x4 DUP2 ADD DUP7 SWAP1 MSTORE PUSH1 0x1A PUSH1 0x24 DUP3 ADD MSTORE PUSH32 0x496E636F727265637420656E7472792066656520616D6F756E74000000000000 PUSH1 0x44 DUP3 ADD MSTORE PUSH1 0x64 SWAP1 REVERT JUMPDEST SWAP3 SWAP4 SWAP5 CALLVALUE PUSH2 0xFF6 JUMPI PUSH1 0x40 MLOAD PUSH4 0x70A08231 PUSH1 0xE0 SHL DUP1 DUP3 MSTORE ADDRESS PUSH1 0x4 DUP4 ADD MSTORE SWAP5 DUP3 DUP3 PUSH1 0x24 DUP2 DUP5 GAS STATICCALL SWAP2 DUP3 ISZERO PUSH2 0xFBC JUMPI DUP9 SWAP3 PUSH2 0xFC7 JUMPI JUMPDEST POP DUP3 PUSH1 0xD DUP7 ADD SWAP7 PUSH2 0xF4C DUP9 SLOAD ADDRESS CALLER DUP7 PUSH2 0x224A JUMP JUMPDEST PUSH1 0x24 PUSH1 0x40 MLOAD DUP1 SWAP5 DUP2 SWAP4 DUP3 MSTORE ADDRESS PUSH1 0x4 DUP4 ADD MSTORE GAS STATICCALL SWAP1 DUP2 ISZERO PUSH2 0xFBC JUMPI DUP9 SWAP2 PUSH2 0xF8B JUMPI JUMPDEST POP SWAP5 PUSH2 0xF7E PUSH2 0xF86 SWAP3 PUSH1 0x11 SWAP8 PUSH2 0x1846 JUMP JUMPDEST SWAP1 SLOAD EQ PUSH2 0x18AF JUMP JUMPDEST PUSH2 0xE73 JUMP JUMPDEST SWAP6 SWAP1 POP DUP3 DUP7 DUP2 RETURNDATASIZE DUP4 GT PUSH2 0xFB5 JUMPI JUMPDEST PUSH2 0xFA3 DUP2 DUP4 PUSH2 0x14FA JUMP JUMPDEST DUP2 ADD SUB SLT PUSH2 0x854 JUMPI SWAP5 MLOAD PUSH2 0xF7E PUSH2 0xF6D JUMP JUMPDEST POP RETURNDATASIZE PUSH2 0xF99 JUMP JUMPDEST PUSH1 0x40 MLOAD RETURNDATASIZE DUP11 DUP3 RETURNDATACOPY RETURNDATASIZE SWAP1 REVERT JUMPDEST SWAP1 SWAP2 POP DUP3 DUP2 DUP2 RETURNDATASIZE DUP4 GT PUSH2 0xFEF JUMPI JUMPDEST PUSH2 0xFDF DUP2 DUP4 PUSH2 0x14FA JUMP JUMPDEST DUP2 ADD SUB SLT PUSH2 0x854 JUMPI MLOAD SWAP1 CODESIZE PUSH2 0xF38 JUMP JUMPDEST POP RETURNDATASIZE PUSH2 0xFD5 JUMP JUMPDEST PUSH1 0x84 SWAP1 PUSH1 0x40 MLOAD SWAP1 PUSH3 0x461BCD PUSH1 0xE5 SHL DUP3 MSTORE PUSH1 0x4 DUP3 ADD MSTORE PUSH1 0x23 PUSH1 0x24 DUP3 ADD MSTORE PUSH32 0x446F6E27742073656E6420524F4E207769746820746F6B656E20656E74727920 PUSH1 0x44 DUP3 ADD MSTORE PUSH3 0x666565 PUSH1 0xE8 SHL PUSH1 0x64 DUP3 ADD MSTORE REVERT JUMPDEST PUSH2 0x1055 SWAP1 PUSH1 0x11 DUP6 ADD SLOAD LT PUSH2 0x2583 JUMP JUMPDEST CODESIZE PUSH2 0xE4F JUMP JUMPDEST POP CALLVALUE PUSH2 0x202 JUMPI PUSH1 0x20 DUP1 PUSH1 0x3 NOT CALLDATASIZE ADD SLT PUSH2 0x1FE JUMPI PUSH1 0x4 CALLDATALOAD SWAP1 PUSH2 0x107A PUSH2 0x17F0 JUMP JUMPDEST DUP2 DUP4 MSTORE PUSH1 0x2 DUP2 MSTORE PUSH2 0x1090 DUP3 PUSH1 0x40 DUP6 KECCAK256 SLOAD EQ PUSH2 0x2466 JUMP JUMPDEST DUP2 DUP4 MSTORE PUSH1 0x2 DUP2 MSTORE PUSH2 0x10AA PUSH1 0xFF PUSH1 0xA PUSH1 0x40 DUP7 KECCAK256 ADD SLOAD AND PUSH2 0x24B2 JUMP JUMPDEST DUP2 DUP4 MSTORE PUSH1 0x2 DUP2 MSTORE PUSH1 0x40 DUP4 KECCAK256 SWAP1 PUSH2 0x10C6 PUSH1 0x9 DUP4 ADD SLOAD TIMESTAMP GT ISZERO PUSH2 0x24F6 JUMP JUMPDEST PUSH1 0xFF PUSH1 0xC DUP4 ADD SLOAD AND PUSH2 0x1130 JUMPI SWAP1 PUSH1 0x11 SWAP2 PUSH1 0x12 DUP3 ADD SWAP1 CALLER DUP7 MSTORE DUP2 DUP2 MSTORE PUSH2 0x10F2 PUSH1 0xFF PUSH1 0x40 DUP9 KECCAK256 SLOAD AND ISZERO PUSH2 0x2542 JUMP JUMPDEST PUSH1 0x6 DUP4 ADD SLOAD DUP1 PUSH2 0x111C JUMPI JUMPDEST POP CALLER DUP7 MSTORE MSTORE PUSH1 0x40 DUP5 KECCAK256 PUSH1 0x1 PUSH1 0xFF NOT DUP3 SLOAD AND OR SWAP1 SSTORE ADD PUSH2 0xE91 DUP2 SLOAD PUSH2 0x1869 JUMP JUMPDEST PUSH2 0x112A SWAP1 DUP6 DUP6 ADD SLOAD LT PUSH2 0x2583 JUMP JUMPDEST CODESIZE PUSH2 0x10FD JUMP JUMPDEST PUSH1 0x64 SWAP1 PUSH1 0x40 MLOAD SWAP1 PUSH3 0x461BCD PUSH1 0xE5 SHL DUP3 MSTORE PUSH1 0x4 DUP3 ADD MSTORE PUSH1 0x1D PUSH1 0x24 DUP3 ADD MSTORE PUSH32 0x546F75726E616D656E7420726571756972657320656E74727920666565000000 PUSH1 0x44 DUP3 ADD MSTORE REVERT JUMPDEST POP CALLVALUE PUSH2 0x202 JUMPI PUSH1 0x20 CALLDATASIZE PUSH1 0x3 NOT ADD SLT PUSH2 0x202 JUMPI PUSH1 0x20 SWAP1 PUSH1 0x40 SWAP1 PUSH1 0x1 PUSH1 0x1 PUSH1 0xA0 SHL SUB PUSH2 0x119C PUSH2 0x15D6 JUMP JUMPDEST AND DUP2 MSTORE PUSH1 0x4 DUP4 MSTORE KECCAK256 SLOAD PUSH1 0x40 MLOAD SWAP1 DUP2 MSTORE RETURN JUMPDEST POP CALLVALUE PUSH2 0x202 JUMPI PUSH1 0x20 SWAP1 DUP2 PUSH1 0x3 NOT CALLDATASIZE ADD SLT PUSH2 0x202 JUMPI PUSH1 0x4 CALLDATALOAD PUSH2 0x11CC PUSH2 0x17F0 JUMP JUMPDEST DUP1 DUP3 MSTORE PUSH1 0x2 DUP4 MSTORE PUSH2 0x11E2 DUP2 PUSH1 0x40 DUP5 KECCAK256 SLOAD EQ PUSH2 0x2466 JUMP JUMPDEST DUP1 DUP3 MSTORE PUSH1 0x2 DUP4 MSTORE PUSH1 0xFF PUSH2 0x11FD DUP2 PUSH1 0xA PUSH1 0x40 DUP7 KECCAK256 ADD SLOAD AND PUSH2 0x24B2 JUMP JUMPDEST DUP2 DUP4 MSTORE PUSH1 0x2 DUP5 MSTORE PUSH1 0x40 DUP4 KECCAK256 PUSH1 0x1 ADD SLOAD PUSH1 0x1 PUSH1 0x1 PUSH1 0xA0 SHL SUB SWAP1 PUSH2 0x1222 SWAP1 DUP3 AND CALLER EQ PUSH2 0x261B JUMP JUMPDEST DUP3 DUP5 MSTORE PUSH1 0x2 DUP6 MSTORE PUSH1 0x40 DUP5 KECCAK256 SWAP1 PUSH1 0xA DUP3 ADD SWAP2 DUP3 SLOAD SWAP3 PUSH1 0xFF NOT DUP5 AND SWAP1 SSTORE DUP6 SWAP4 DUP7 SWAP1 PUSH1 0xE DUP4 ADD SWAP1 DUP2 SLOAD SWAP3 PUSH1 0x10 DUP6 ADD SWAP1 JUMPDEST DUP5 DUP2 LT PUSH2 0x12F3 JUMPI DUP11 DUP11 DUP2 DUP12 DUP1 ISZERO DUP12 DUP12 DUP15 DUP4 ISZERO PUSH2 0x1293 JUMPI JUMPDEST DUP6 DUP8 PUSH32 0xFA61EC8D7E5A58CEBA17772B10BA0C6CAA65B40B200302BE35F00EFC264C7895 DUP3 DUP1 LOG2 PUSH1 0x1 DUP1 SSTORE DUP1 RETURN JUMPDEST PUSH1 0x8 SHR DUP3 AND DUP1 PUSH2 0x12DC JUMPI POP SWAP3 DUP5 SWAP4 SWAP3 DUP5 SWAP4 SWAP3 PUSH1 0x1 DUP6 SWAP5 ADD SLOAD AND SWAP1 DUP4 SWAP1 PUSH2 0x12D3 JUMPI JUMPDEST CALL ISZERO PUSH2 0x12C6 JUMPI JUMPDEST DUP2 DUP4 DUP1 DUP1 DUP1 DUP1 PUSH2 0x1266 JUMP JUMPDEST POP PUSH1 0x40 MLOAD SWAP1 RETURNDATASIZE SWAP1 DUP3 RETURNDATACOPY RETURNDATASIZE SWAP1 REVERT JUMPDEST POP PUSH2 0x8FC PUSH2 0x12B4 JUMP JUMPDEST SWAP3 POP PUSH2 0x12EE SWAP5 POP PUSH1 0x1 ADD SLOAD AND SWAP1 PUSH2 0x27CB JUMP JUMPDEST PUSH2 0x12BB JUMP JUMPDEST DUP1 DUP12 MSTORE DUP2 DUP13 MSTORE DUP3 PUSH1 0x40 DUP13 KECCAK256 SLOAD AND ISZERO PUSH2 0x1314 JUMPI JUMPDEST PUSH2 0x130F SWAP1 PUSH2 0x1869 JUMP JUMPDEST PUSH2 0x124F JUMP JUMPDEST SWAP8 PUSH2 0x1333 PUSH2 0x130F SWAP2 PUSH2 0x1326 DUP12 DUP8 PUSH2 0x18FB JUMP JUMPDEST SWAP1 SLOAD SWAP1 PUSH1 0x3 SHL SHR SWAP1 PUSH2 0x18A2 JUMP JUMPDEST SWAP9 SWAP1 POP PUSH2 0x1306 JUMP JUMPDEST POP CALLVALUE PUSH2 0x202 JUMPI PUSH1 0x40 CALLDATASIZE PUSH1 0x3 NOT ADD SLT PUSH2 0x202 JUMPI PUSH2 0x1369 PUSH1 0x20 SWAP2 PUSH1 0x4 CALLDATALOAD PUSH2 0x1364 DUP2 PUSH1 0x40 PUSH2 0x67E PUSH2 0x15C0 JUMP JUMPDEST PUSH2 0x2A3F JUMP JUMPDEST PUSH1 0x40 MLOAD SWAP1 DUP2 MSTORE RETURN JUMPDEST POP CALLVALUE PUSH2 0x202 JUMPI PUSH1 0x20 CALLDATASIZE PUSH1 0x3 NOT ADD SLT PUSH2 0x202 JUMPI PUSH2 0x481 PUSH1 0x4 CALLDATALOAD PUSH2 0x1391 PUSH2 0x17F0 JUMP JUMPDEST DUP1 DUP4 MSTORE PUSH1 0x2 PUSH1 0x20 MSTORE PUSH2 0x13A8 DUP2 PUSH1 0x40 DUP6 KECCAK256 SLOAD EQ PUSH2 0x2466 JUMP JUMPDEST DUP1 DUP4 MSTORE PUSH1 0x2 PUSH1 0x20 MSTORE PUSH2 0x13CA PUSH1 0x1 DUP1 PUSH1 0xA0 SHL SUB PUSH1 0x1 PUSH1 0x40 DUP7 KECCAK256 ADD SLOAD AND CALLER EQ PUSH2 0x261B JUMP JUMPDEST PUSH2 0x2660 JUMP JUMPDEST POP CALLVALUE PUSH2 0x202 JUMPI DUP1 PUSH1 0x3 NOT CALLDATASIZE ADD SLT PUSH2 0x202 JUMPI PUSH1 0x20 PUSH1 0x40 MLOAD PUSH1 0xFA DUP2 MSTORE RETURN JUMPDEST POP PUSH2 0x160 CALLDATASIZE PUSH1 0x3 NOT ADD SLT PUSH2 0x202 JUMPI PUSH8 0xFFFFFFFFFFFFFFFF SWAP1 PUSH1 0x4 CALLDATALOAD DUP3 DUP2 GT PUSH2 0x1FE JUMPI PUSH2 0x141B SWAP1 CALLDATASIZE SWAP1 PUSH1 0x4 ADD PUSH2 0x154E JUMP JUMPDEST SWAP2 PUSH1 0x24 CALLDATALOAD DUP2 DUP2 GT PUSH2 0xB63 JUMPI PUSH2 0x1434 SWAP1 CALLDATASIZE SWAP1 PUSH1 0x4 ADD PUSH2 0x154E JUMP JUMPDEST SWAP1 PUSH1 0x44 CALLDATALOAD DUP2 DUP2 GT PUSH2 0x488 JUMPI PUSH2 0x144D SWAP1 CALLDATASIZE SWAP1 PUSH1 0x4 ADD PUSH2 0x154E JUMP JUMPDEST PUSH2 0x1455 PUSH2 0x159A JUMP JUMPDEST SWAP2 PUSH2 0x145E PUSH2 0x15AA JUMP JUMPDEST SWAP1 PUSH2 0x104 CALLDATALOAD SWAP1 DUP2 GT PUSH2 0x14F6 JUMPI PUSH2 0x1478 SWAP1 CALLDATASIZE SWAP1 PUSH1 0x4 ADD PUSH2 0x1604 JUMP JUMPDEST PUSH2 0x124 CALLDATALOAD SWAP5 SWAP1 SWAP3 SWAP1 PUSH1 0x1 PUSH1 0x1 PUSH1 0xA0 SHL SUB DUP7 AND DUP7 SUB PUSH2 0x14F2 JUMPI SWAP4 PUSH1 0x40 SWAP4 PUSH2 0x14A8 SWAP4 PUSH1 0x20 SWAP10 SWAP4 PUSH2 0x14DD SWAP8 PUSH2 0xB42 PUSH2 0x17F0 JUMP JUMPDEST DUP1 DUP6 MSTORE PUSH1 0x2 DUP7 MSTORE SWAP4 KECCAK256 PUSH1 0xC DUP2 ADD DUP1 SLOAD PUSH1 0x1 PUSH1 0x1 PUSH1 0xA8 SHL SUB NOT AND PUSH1 0x8 SWAP5 SWAP1 SWAP5 SHL PUSH2 0x100 PUSH1 0x1 PUSH1 0xA8 SHL SUB AND SWAP4 SWAP1 SWAP4 OR PUSH1 0x1 OR SWAP1 SWAP3 SSTORE JUMP JUMPDEST PUSH1 0xD PUSH2 0x144 CALLDATALOAD SWAP2 ADD SSTORE PUSH1 0x1 DUP1 SSTORE PUSH1 0x40 MLOAD SWAP1 DUP2 MSTORE RETURN JUMPDEST DUP7 DUP1 REVERT JUMPDEST DUP6 DUP1 REVERT JUMPDEST SWAP1 PUSH1 0x1F DUP1 NOT SWAP2 ADD AND DUP2 ADD SWAP1 DUP2 LT PUSH8 0xFFFFFFFFFFFFFFFF DUP3 GT OR PUSH2 0x151C JUMPI PUSH1 0x40 MSTORE JUMP JUMPDEST PUSH4 0x4E487B71 PUSH1 0xE0 SHL PUSH1 0x0 MSTORE PUSH1 0x41 PUSH1 0x4 MSTORE PUSH1 0x24 PUSH1 0x0 REVERT JUMPDEST PUSH8 0xFFFFFFFFFFFFFFFF DUP2 GT PUSH2 0x151C JUMPI PUSH1 0x1F ADD PUSH1 0x1F NOT AND PUSH1 0x20 ADD SWAP1 JUMP JUMPDEST DUP2 PUSH1 0x1F DUP3 ADD SLT ISZERO PUSH2 0x1595 JUMPI DUP1 CALLDATALOAD SWAP1 PUSH2 0x1565 DUP3 PUSH2 0x1532 JUMP JUMPDEST SWAP3 PUSH2 0x1573 PUSH1 0x40 MLOAD SWAP5 DUP6 PUSH2 0x14FA JUMP JUMPDEST DUP3 DUP5 MSTORE PUSH1 0x20 DUP4 DUP4 ADD ADD GT PUSH2 0x1595 JUMPI DUP2 PUSH1 0x0 SWAP3 PUSH1 0x20 DUP1 SWAP4 ADD DUP4 DUP7 ADD CALLDATACOPY DUP4 ADD ADD MSTORE SWAP1 JUMP JUMPDEST PUSH1 0x0 DUP1 REVERT JUMPDEST PUSH1 0x64 CALLDATALOAD SWAP1 PUSH1 0xFF DUP3 AND DUP3 SUB PUSH2 0x1595 JUMPI JUMP JUMPDEST PUSH1 0xE4 CALLDATALOAD SWAP1 PUSH1 0x1 PUSH1 0x1 PUSH1 0xA0 SHL SUB DUP3 AND DUP3 SUB PUSH2 0x1595 JUMPI JUMP JUMPDEST PUSH1 0x24 CALLDATALOAD SWAP1 PUSH1 0x1 PUSH1 0x1 PUSH1 0xA0 SHL SUB DUP3 AND DUP3 SUB PUSH2 0x1595 JUMPI JUMP JUMPDEST PUSH1 0x4 CALLDATALOAD SWAP1 PUSH1 0x1 PUSH1 0x1 PUSH1 0xA0 SHL SUB DUP3 AND DUP3 SUB PUSH2 0x1595 JUMPI JUMP JUMPDEST PUSH8 0xFFFFFFFFFFFFFFFF DUP2 GT PUSH2 0x151C JUMPI PUSH1 0x5 SHL PUSH1 0x20 ADD SWAP1 JUMP JUMPDEST DUP2 PUSH1 0x1F DUP3 ADD SLT ISZERO PUSH2 0x1595 JUMPI DUP1 CALLDATALOAD SWAP2 PUSH2 0x161B DUP4 PUSH2 0x15EC JUMP JUMPDEST SWAP3 PUSH2 0x1629 PUSH1 0x40 MLOAD SWAP5 DUP6 PUSH2 0x14FA JUMP JUMPDEST DUP1 DUP5 MSTORE PUSH1 0x20 SWAP3 DUP4 DUP1 DUP7 ADD SWAP3 PUSH1 0x5 SHL DUP3 ADD ADD SWAP3 DUP4 GT PUSH2 0x1595 JUMPI DUP4 ADD SWAP1 JUMPDEST DUP3 DUP3 LT PUSH2 0x1653 JUMPI POP POP POP POP SWAP1 JUMP JUMPDEST DUP2 CALLDATALOAD DUP2 MSTORE SWAP1 DUP4 ADD SWAP1 DUP4 ADD PUSH2 0x1645 JUMP JUMPDEST PUSH1 0x40 SWAP1 PUSH1 0x3 NOT ADD SLT PUSH2 0x1595 JUMPI PUSH1 0x4 CALLDATALOAD SWAP1 PUSH1 0x24 CALLDATALOAD SWAP1 JUMP JUMPDEST SWAP1 PUSH1 0x1 DUP3 DUP2 SHR SWAP3 AND DUP1 ISZERO PUSH2 0x16A8 JUMPI JUMPDEST PUSH1 0x20 DUP4 LT EQ PUSH2 0x1692 JUMPI JUMP JUMPDEST PUSH4 0x4E487B71 PUSH1 0xE0 SHL PUSH1 0x0 MSTORE PUSH1 0x22 PUSH1 0x4 MSTORE PUSH1 0x24 PUSH1 0x0 REVERT JUMPDEST SWAP2 PUSH1 0x7F AND SWAP2 PUSH2 0x1687 JUMP JUMPDEST SWAP1 PUSH1 0x40 MLOAD SWAP2 DUP3 PUSH1 0x0 DUP3 SLOAD SWAP3 PUSH2 0x16C6 DUP5 PUSH2 0x1678 JUMP JUMPDEST SWAP1 DUP2 DUP5 MSTORE PUSH1 0x1 SWAP5 DUP6 DUP2 AND SWAP1 DUP2 PUSH1 0x0 EQ PUSH2 0x1735 JUMPI POP PUSH1 0x1 EQ PUSH2 0x16F2 JUMPI JUMPDEST POP POP PUSH2 0x16F0 SWAP3 POP SUB DUP4 PUSH2 0x14FA JUMP JUMPDEST JUMP JUMPDEST SWAP1 SWAP4 SWAP2 POP PUSH1 0x0 MSTORE PUSH1 0x20 SWAP1 DUP2 PUSH1 0x0 KECCAK256 SWAP4 PUSH1 0x0 SWAP2 JUMPDEST DUP2 DUP4 LT PUSH2 0x171D JUMPI POP POP PUSH2 0x16F0 SWAP4 POP DUP3 ADD ADD CODESIZE DUP1 PUSH2 0x16E2 JUMP JUMPDEST DUP6 SLOAD DUP9 DUP5 ADD DUP6 ADD MSTORE SWAP5 DUP6 ADD SWAP5 DUP8 SWAP5 POP SWAP2 DUP4 ADD SWAP2 PUSH2 0x1705 JUMP JUMPDEST SWAP2 POP POP PUSH2 0x16F0 SWAP5 POP PUSH1 0x20 SWAP3 POP PUSH1 0xFF NOT AND DUP3 DUP5 ADD MSTORE ISZERO ISZERO PUSH1 0x5 SHL DUP3 ADD ADD CODESIZE DUP1 PUSH2 0x16E2 JUMP JUMPDEST SWAP2 SWAP1 DUP3 MLOAD SWAP3 DUP4 DUP3 MSTORE PUSH1 0x0 JUMPDEST DUP5 DUP2 LT PUSH2 0x1784 JUMPI POP POP DUP3 PUSH1 0x0 PUSH1 0x20 DUP1 SWAP5 SWAP6 DUP5 ADD ADD MSTORE PUSH1 0x1F DUP1 NOT SWAP2 ADD AND ADD ADD SWAP1 JUMP JUMPDEST PUSH1 0x20 DUP2 DUP4 ADD DUP2 ADD MLOAD DUP5 DUP4 ADD DUP3 ADD MSTORE ADD PUSH2 0x1763 JUMP JUMPDEST PUSH1 0x0 SLOAD PUSH1 0x1 PUSH1 0x1 PUSH1 0xA0 SHL SUB AND CALLER SUB PUSH2 0x17AC JUMPI JUMP JUMPDEST PUSH1 0x64 PUSH1 0x40 MLOAD PUSH3 0x461BCD PUSH1 0xE5 SHL DUP2 MSTORE PUSH1 0x20 PUSH1 0x4 DUP3 ADD MSTORE PUSH1 0x20 PUSH1 0x24 DUP3 ADD MSTORE PUSH32 0x4F776E61626C653A2063616C6C6572206973206E6F7420746865206F776E6572 PUSH1 0x44 DUP3 ADD MSTORE REVERT JUMPDEST PUSH1 0x2 PUSH1 0x1 SLOAD EQ PUSH2 0x1801 JUMPI PUSH1 0x2 PUSH1 0x1 SSTORE JUMP JUMPDEST PUSH1 0x40 MLOAD PUSH3 0x461BCD PUSH1 0xE5 SHL DUP2 MSTORE PUSH1 0x20 PUSH1 0x4 DUP3 ADD MSTORE PUSH1 0x1F PUSH1 0x24 DUP3 ADD MSTORE PUSH32 0x5265656E7472616E637947756172643A207265656E7472616E742063616C6C00 PUSH1 0x44 DUP3 ADD MSTORE PUSH1 0x64 SWAP1 REVERT JUMPDEST SWAP2 SWAP1 DUP3 SUB SWAP2 DUP3 GT PUSH2 0x1853 JUMPI JUMP JUMPDEST PUSH4 0x4E487B71 PUSH1 0xE0 SHL PUSH1 0x0 MSTORE PUSH1 0x11 PUSH1 0x4 MSTORE PUSH1 0x24 PUSH1 0x0 REVERT JUMPDEST PUSH1 0x0 NOT DUP2 EQ PUSH2 0x1853 JUMPI PUSH1 0x1 ADD SWAP1 JUMP JUMPDEST DUP1 MLOAD DUP3 LT ISZERO PUSH2 0x188C JUMPI PUSH1 0x20 SWAP2 PUSH1 0x5 SHL ADD ADD SWAP1 JUMP JUMPDEST PUSH4 0x4E487B71 PUSH1 0xE0 SHL PUSH1 0x0 MSTORE PUSH1 0x32 PUSH1 0x4 MSTORE PUSH1 0x24 PUSH1 0x0 REVERT JUMPDEST SWAP2 SWAP1 DUP3 ADD DUP1 SWAP3 GT PUSH2 0x1853 JUMPI JUMP JUMPDEST ISZERO PUSH2 0x18B6 JUMPI JUMP JUMPDEST PUSH1 0x40 MLOAD PUSH3 0x461BCD PUSH1 0xE5 SHL DUP2 MSTORE PUSH1 0x20 PUSH1 0x4 DUP3 ADD MSTORE PUSH1 0x1E PUSH1 0x24 DUP3 ADD MSTORE PUSH32 0x546F6B656E207472616E7366657220616D6F756E74206D69736D617463680000 PUSH1 0x44 DUP3 ADD MSTORE PUSH1 0x64 SWAP1 REVERT JUMPDEST DUP1 SLOAD DUP3 LT ISZERO PUSH2 0x188C JUMPI PUSH1 0x0 MSTORE PUSH1 0x20 PUSH1 0x0 KECCAK256 ADD SWAP1 PUSH1 0x0 SWAP1 JUMP JUMPDEST SWAP11 SWAP5 SWAP9 SWAP6 SWAP10 SWAP11 SWAP8 SWAP1 SWAP8 SWAP7 SWAP2 SWAP3 SWAP4 SWAP7 PUSH1 0xC0 MSTORE PUSH1 0x80 MSTORE PUSH1 0xC0 MLOAD MLOAD ISZERO PUSH2 0x220E JUMPI PUSH1 0x1 PUSH1 0xFF DUP5 AND GT PUSH2 0x21C9 JUMPI PUSH1 0x80 MLOAD MLOAD ISZERO PUSH2 0x218C JUMPI TIMESTAMP DUP9 GT ISZERO PUSH2 0x2133 JUMPI DUP8 DUP10 GT ISZERO PUSH2 0x20D7 JUMPI PUSH2 0xE10 PUSH2 0x1961 DUP10 DUP12 PUSH2 0x1846 JUMP JUMPDEST LT PUSH2 0x2092 JUMPI PUSH1 0x0 SWAP8 DUP9 JUMPDEST PUSH1 0x80 MLOAD DUP1 MLOAD DUP12 LT ISZERO PUSH2 0x199B JUMPI PUSH2 0x1995 SWAP2 PUSH2 0x1988 DUP13 PUSH2 0x198F SWAP4 PUSH2 0x1878 JUMP JUMPDEST MLOAD SWAP1 PUSH2 0x18A2 JUMP JUMPDEST SWAP10 PUSH2 0x1869 JUMP JUMPDEST SWAP9 PUSH2 0x196B JUMP JUMPDEST POP SWAP6 SWAP9 POP SWAP2 SWAP4 SWAP7 SWAP10 DUP6 SWAP1 SWAP10 SWAP2 SWAP4 SWAP7 SWAP10 PUSH1 0x1 DUP1 PUSH1 0xA0 SHL SUB DUP6 AND ISZERO PUSH1 0x0 EQ PUSH2 0x1EE0 JUMPI SUB PUSH2 0x1E9B JUMPI JUMPDEST PUSH1 0x3 SLOAD SWAP10 PUSH2 0x19CE DUP12 PUSH2 0x1869 JUMP JUMPDEST PUSH1 0x3 SSTORE PUSH1 0x0 DUP12 DUP2 MSTORE PUSH1 0x2 PUSH1 0x20 MSTORE PUSH1 0x40 SWAP1 KECCAK256 PUSH1 0xA0 DUP2 SWAP1 MSTORE DUP12 DUP2 SSTORE PUSH1 0x1 DUP2 ADD DUP1 SLOAD PUSH1 0x1 PUSH1 0x1 PUSH1 0xA0 SHL SUB NOT AND PUSH1 0x1 PUSH1 0x1 PUSH1 0xA0 SHL SUB DUP13 AND OR SWAP1 SSTORE PUSH1 0xC0 MLOAD MLOAD SWAP1 PUSH8 0xFFFFFFFFFFFFFFFF DUP3 GT PUSH2 0x151C JUMPI PUSH1 0x2 PUSH2 0x1A25 SWAP2 ADD SLOAD PUSH2 0x1678 JUMP JUMPDEST PUSH1 0x1F DUP2 GT PUSH2 0x1E52 JUMPI JUMPDEST POP PUSH1 0x20 SWAP1 PUSH1 0x1F DUP2 GT PUSH1 0x1 EQ PUSH2 0x1DE1 JUMPI DUP1 SWAP2 PUSH1 0x0 SWAP2 PUSH2 0x1DD4 JUMPI JUMPDEST POP DUP2 PUSH1 0x1 SHL SWAP2 PUSH1 0x0 NOT SWAP1 PUSH1 0x3 SHL SHR NOT AND OR PUSH1 0x2 PUSH1 0xA0 MLOAD ADD SSTORE JUMPDEST DUP1 MLOAD PUSH8 0xFFFFFFFFFFFFFFFF DUP2 GT PUSH2 0x151C JUMPI PUSH2 0x1A80 PUSH1 0x3 PUSH1 0xA0 MLOAD ADD SLOAD PUSH2 0x1678 JUMP JUMPDEST PUSH1 0x1F DUP2 GT PUSH2 0x1D8B JUMPI JUMPDEST POP PUSH1 0x20 SWAP2 PUSH1 0x1F DUP3 GT PUSH1 0x1 EQ PUSH2 0x1D19 JUMPI SWAP2 DUP2 SWAP3 PUSH1 0x0 SWAP3 PUSH2 0x1D0E JUMPI JUMPDEST POP POP DUP2 PUSH1 0x1 SHL SWAP2 PUSH1 0x0 NOT SWAP1 PUSH1 0x3 SHL SHR NOT AND OR PUSH1 0x3 PUSH1 0xA0 MLOAD ADD SSTORE JUMPDEST DUP4 MLOAD PUSH8 0xFFFFFFFFFFFFFFFF DUP2 GT PUSH2 0x151C JUMPI PUSH2 0x1ADD PUSH1 0x4 PUSH1 0xA0 MLOAD ADD SLOAD PUSH2 0x1678 JUMP JUMPDEST PUSH1 0x1F DUP2 GT PUSH2 0x1CC5 JUMPI JUMPDEST POP PUSH1 0x20 PUSH1 0x1F DUP3 GT PUSH1 0x1 EQ PUSH2 0x1C47 JUMPI DUP2 SWAP1 PUSH2 0x1B79 SWAP7 PUSH1 0x0 SWAP3 PUSH2 0x1C3C JUMPI JUMPDEST POP POP DUP2 PUSH1 0x1 SHL SWAP2 PUSH1 0x0 NOT SWAP1 PUSH1 0x3 SHL SHR NOT AND OR PUSH1 0x4 PUSH1 0xA0 MLOAD ADD SSTORE SWAP9 SWAP8 SWAP9 JUMPDEST PUSH1 0xA0 MLOAD SWAP10 PUSH1 0x5 DUP12 ADD PUSH1 0xFF DUP1 NOT SWAP9 AND DUP9 DUP3 SLOAD AND OR SWAP1 SSTORE PUSH1 0x6 DUP12 ADD SSTORE TIMESTAMP PUSH1 0x7 DUP12 ADD SSTORE PUSH1 0x8 DUP11 ADD SSTORE PUSH1 0x9 DUP10 ADD SSTORE PUSH1 0xA DUP9 ADD PUSH1 0x1 DUP6 DUP3 SLOAD AND OR DUP2 SSTORE SWAP1 DUP2 SLOAD SWAP1 PUSH2 0x100 PUSH1 0x1 PUSH1 0xA8 SHL SUB SWAP1 PUSH1 0x8 SHL AND SWAP1 PUSH2 0x100 PUSH1 0x1 PUSH1 0xA8 SHL SUB NOT AND OR SWAP1 SSTORE JUMP JUMPDEST PUSH1 0xB DUP7 ADD SSTORE PUSH1 0xC DUP6 ADD SWAP1 DUP2 SLOAD AND SWAP1 SSTORE PUSH1 0xE PUSH1 0x0 SWAP5 ADD SWAP4 JUMPDEST PUSH1 0x80 MLOAD DUP1 MLOAD DUP3 LT ISZERO PUSH2 0x1BEF JUMPI DUP2 PUSH2 0x1BA6 SWAP2 PUSH2 0x1878 JUMP JUMPDEST MLOAD SWAP1 DUP6 SLOAD SWAP2 PUSH9 0x10000000000000000 DUP4 LT ISZERO PUSH2 0x151C JUMPI PUSH2 0x1BCF DUP4 PUSH1 0x1 PUSH2 0x1BEA SWAP6 ADD DUP10 SSTORE DUP9 PUSH2 0x18FB JUMP JUMPDEST DUP2 SWAP3 SWAP2 SLOAD SWAP1 PUSH1 0x3 SHL SWAP2 DUP3 SHL SWAP2 PUSH1 0x0 NOT SWAP1 SHL NOT AND OR SWAP1 SSTORE PUSH2 0x1869 JUMP JUMPDEST PUSH2 0x1B90 JUMP JUMPDEST POP POP SWAP3 POP DUP2 PUSH32 0xBD34BA7C23E010B2FA639A38C057CF452062C6645A1C102ADBEE46D0B37B8669 PUSH1 0x40 MLOAD SWAP3 PUSH1 0x20 DUP5 MSTORE PUSH1 0x1 DUP1 PUSH1 0xA0 SHL SUB AND SWAP3 DUP1 PUSH2 0x1C36 PUSH1 0x20 DUP3 ADD PUSH1 0xC0 MLOAD PUSH2 0x1758 JUMP JUMPDEST SUB SWAP1 LOG3 SWAP1 JUMP JUMPDEST ADD MLOAD SWAP1 POP CODESIZE DUP1 PUSH2 0x1B02 JUMP JUMPDEST SWAP2 SWAP3 SWAP4 SWAP5 PUSH1 0x4 PUSH1 0xA0 MLOAD ADD SWAP3 DUP4 PUSH1 0x0 MSTORE PUSH1 0x20 PUSH1 0x0 KECCAK256 SWAP2 PUSH1 0x0 JUMPDEST PUSH1 0x1F NOT DUP6 AND DUP2 LT PUSH2 0x1CAD JUMPI POP SWAP2 DUP4 SWAP2 PUSH1 0x1 SWAP4 PUSH2 0x1B79 SWAP10 SWAP9 SWAP8 SWAP7 SWAP6 PUSH1 0x1F NOT DUP2 AND LT PUSH2 0x1C94 JUMPI JUMPDEST POP POP POP DUP2 SHL ADD SWAP1 SSTORE SWAP9 SWAP8 SWAP9 PUSH2 0x1B1F JUMP JUMPDEST ADD MLOAD PUSH1 0x0 NOT PUSH1 0xF8 DUP5 PUSH1 0x3 SHL AND SHR NOT AND SWAP1 SSTORE CODESIZE DUP1 DUP1 PUSH2 0x1C84 JUMP JUMPDEST SWAP2 SWAP3 PUSH1 0x20 PUSH1 0x1 DUP2 SWAP3 DUP7 DUP6 ADD MLOAD DUP2 SSTORE ADD SWAP5 ADD SWAP3 ADD PUSH2 0x1C5F JUMP JUMPDEST PUSH1 0x4 PUSH1 0xA0 MLOAD ADD PUSH1 0x0 MSTORE PUSH1 0x20 PUSH1 0x0 KECCAK256 PUSH1 0x1F DUP4 ADD PUSH1 0x5 SHR DUP2 ADD PUSH1 0x20 DUP5 LT PUSH2 0x1D07 JUMPI JUMPDEST PUSH1 0x1F DUP4 ADD PUSH1 0x5 SHR DUP3 ADD DUP2 LT PUSH2 0x1CFB JUMPI POP POP PUSH2 0x1AE6 JUMP JUMPDEST PUSH1 0x0 DUP2 SSTORE PUSH1 0x1 ADD PUSH2 0x1CE5 JUMP JUMPDEST POP DUP1 PUSH2 0x1CE5 JUMP JUMPDEST ADD MLOAD SWAP1 POP CODESIZE DUP1 PUSH2 0x1AA3 JUMP JUMPDEST SWAP1 PUSH1 0x3 PUSH1 0xA0 MLOAD ADD SWAP3 DUP4 PUSH1 0x0 MSTORE PUSH1 0x20 PUSH1 0x0 KECCAK256 SWAP1 PUSH1 0x0 SWAP4 JUMPDEST PUSH1 0x1F NOT DUP5 AND DUP6 LT PUSH2 0x1D70 JUMPI PUSH1 0x1 SWAP5 POP DUP4 PUSH1 0x1F NOT DUP2 AND LT PUSH2 0x1D57 JUMPI JUMPDEST POP POP POP DUP2 SHL ADD SWAP1 SSTORE PUSH2 0x1ABD JUMP JUMPDEST ADD MLOAD PUSH1 0x0 NOT PUSH1 0xF8 DUP5 PUSH1 0x3 SHL AND SHR NOT AND SWAP1 SSTORE CODESIZE DUP1 DUP1 PUSH2 0x1D4A JUMP JUMPDEST DUP2 DUP2 ADD MLOAD DUP4 SSTORE PUSH1 0x20 SWAP5 DUP6 ADD SWAP5 PUSH1 0x1 SWAP1 SWAP4 ADD SWAP3 SWAP1 SWAP2 ADD SWAP1 PUSH2 0x1D2F JUMP JUMPDEST PUSH1 0x3 PUSH1 0xA0 MLOAD ADD PUSH1 0x0 MSTORE PUSH1 0x20 PUSH1 0x0 KECCAK256 PUSH1 0x1F DUP4 ADD PUSH1 0x5 SHR DUP2 ADD PUSH1 0x20 DUP5 LT PUSH2 0x1DCD JUMPI JUMPDEST PUSH1 0x1F DUP4 ADD PUSH1 0x5 SHR DUP3 ADD DUP2 LT PUSH2 0x1DC1 JUMPI POP POP PUSH2 0x1A89 JUMP JUMPDEST PUSH1 0x0 DUP2 SSTORE PUSH1 0x1 ADD PUSH2 0x1DAB JUMP JUMPDEST POP DUP1 PUSH2 0x1DAB JUMP JUMPDEST SWAP1 POP PUSH1 0xC0 MLOAD ADD MLOAD CODESIZE PUSH2 0x1A47 JUMP JUMPDEST SWAP1 PUSH1 0x2 PUSH1 0xA0 MLOAD ADD SWAP2 DUP3 PUSH1 0x0 MSTORE PUSH1 0x20 PUSH1 0x0 KECCAK256 PUSH1 0x0 SWAP3 JUMPDEST PUSH1 0x1F NOT DUP4 AND DUP5 LT PUSH2 0x1E38 JUMPI PUSH1 0x1 SWAP4 POP DUP3 PUSH1 0x1F NOT DUP2 AND LT PUSH2 0x1E1D JUMPI JUMPDEST POP POP DUP2 SHL ADD SWAP1 SSTORE PUSH2 0x1A60 JUMP JUMPDEST PUSH1 0xC0 MLOAD ADD MLOAD PUSH1 0x0 NOT PUSH1 0xF8 DUP5 PUSH1 0x3 SHL AND SHR NOT AND SWAP1 SSTORE CODESIZE DUP1 PUSH2 0x1E11 JUMP JUMPDEST PUSH1 0xC0 MLOAD DUP2 ADD MLOAD DUP3 SSTORE PUSH1 0x20 SWAP4 DUP5 ADD SWAP4 PUSH1 0x1 SWAP1 SWAP3 ADD SWAP2 ADD PUSH2 0x1DF6 JUMP JUMPDEST PUSH1 0x2 PUSH1 0xA0 MLOAD ADD PUSH1 0x0 MSTORE PUSH1 0x20 PUSH1 0x0 KECCAK256 PUSH1 0x1F DUP4 ADD PUSH1 0x5 SHR DUP2 ADD PUSH1 0x20 DUP5 LT PUSH2 0x1E94 JUMPI JUMPDEST PUSH1 0x1F DUP4 ADD PUSH1 0x5 SHR DUP3 ADD DUP2 LT PUSH2 0x1E88 JUMPI POP POP PUSH2 0x1A2E JUMP JUMPDEST PUSH1 0x0 DUP2 SSTORE PUSH1 0x1 ADD PUSH2 0x1E72 JUMP JUMPDEST POP DUP1 PUSH2 0x1E72 JUMP JUMPDEST PUSH1 0x40 MLOAD PUSH3 0x461BCD PUSH1 0xE5 SHL DUP2 MSTORE PUSH1 0x20 PUSH1 0x4 DUP3 ADD MSTORE PUSH1 0x1C PUSH1 0x24 DUP3 ADD MSTORE PUSH32 0x496E636F72726563742072657761726420616D6F756E742073656E7400000000 PUSH1 0x44 DUP3 ADD MSTORE PUSH1 0x64 SWAP1 REVERT JUMPDEST SWAP1 POP PUSH2 0x203F JUMPI DUP3 EXTCODESIZE ISZERO PUSH2 0x1FFA JUMPI PUSH1 0x40 MLOAD PUSH4 0x70A08231 PUSH1 0xE0 SHL DUP2 MSTORE ADDRESS PUSH1 0x4 DUP3 ADD MSTORE PUSH1 0x20 DUP2 PUSH1 0x24 DUP2 PUSH1 0x1 PUSH1 0x1 PUSH1 0xA0 SHL SUB DUP9 AND GAS STATICCALL SWAP1 DUP2 ISZERO PUSH2 0x1FBC JUMPI PUSH1 0x0 SWAP2 PUSH2 0x1FC8 JUMPI JUMPDEST POP PUSH2 0x1F37 DUP7 ADDRESS DUP12 PUSH1 0x1 PUSH1 0x1 PUSH1 0xA0 SHL SUB DUP9 AND PUSH2 0x224A JUMP JUMPDEST PUSH1 0x40 MLOAD PUSH4 0x70A08231 PUSH1 0xE0 SHL DUP2 MSTORE ADDRESS PUSH1 0x4 DUP3 ADD MSTORE PUSH1 0x20 DUP2 PUSH1 0x24 DUP2 PUSH1 0x1 PUSH1 0x1 PUSH1 0xA0 SHL SUB DUP10 AND GAS STATICCALL DUP1 ISZERO PUSH2 0x1FBC JUMPI DUP8 SWAP2 PUSH1 0x0 SWAP2 PUSH2 0x1F85 JUMPI JUMPDEST POP PUSH2 0x1F80 SWAP3 PUSH2 0x1F7A SWAP2 PUSH2 0x1846 JUMP JUMPDEST EQ PUSH2 0x18AF JUMP JUMPDEST PUSH2 0x19C1 JUMP JUMPDEST SWAP2 POP PUSH1 0x20 DUP3 RETURNDATASIZE PUSH1 0x20 GT PUSH2 0x1FB4 JUMPI JUMPDEST DUP2 PUSH2 0x1FA0 PUSH1 0x20 SWAP4 DUP4 PUSH2 0x14FA JUMP JUMPDEST DUP2 ADD SUB SLT PUSH2 0x202 JUMPI POP MLOAD DUP7 SWAP1 PUSH2 0x1F80 PUSH2 0x1F6C JUMP JUMPDEST RETURNDATASIZE SWAP2 POP PUSH2 0x1F93 JUMP JUMPDEST PUSH1 0x40 MLOAD RETURNDATASIZE PUSH1 0x0 DUP3 RETURNDATACOPY RETURNDATASIZE SWAP1 REVERT JUMPDEST SWAP1 PUSH1 0x20 DUP3 RETURNDATASIZE PUSH1 0x20 GT PUSH2 0x1FF2 JUMPI JUMPDEST DUP2 PUSH2 0x1FE2 PUSH1 0x20 SWAP4 DUP4 PUSH2 0x14FA JUMP JUMPDEST DUP2 ADD SUB SLT PUSH2 0x202 JUMPI POP MLOAD CODESIZE PUSH2 0x1F21 JUMP JUMPDEST RETURNDATASIZE SWAP2 POP PUSH2 0x1FD5 JUMP JUMPDEST PUSH1 0x40 MLOAD PUSH3 0x461BCD PUSH1 0xE5 SHL DUP2 MSTORE PUSH1 0x20 PUSH1 0x4 DUP3 ADD MSTORE PUSH1 0x1F PUSH1 0x24 DUP3 ADD MSTORE PUSH32 0x546F6B656E2061646472657373206973206E6F74206120636F6E747261637400 PUSH1 0x44 DUP3 ADD MSTORE PUSH1 0x64 SWAP1 REVERT JUMPDEST PUSH1 0x40 MLOAD PUSH3 0x461BCD PUSH1 0xE5 SHL DUP2 MSTORE PUSH1 0x20 PUSH1 0x4 DUP3 ADD MSTORE PUSH1 0x25 PUSH1 0x24 DUP3 ADD MSTORE PUSH32 0x446F6E27742073656E6420524F4E207769746820746F6B656E20746F75726E61 PUSH1 0x44 DUP3 ADD MSTORE PUSH5 0x6D656E7473 PUSH1 0xD8 SHL PUSH1 0x64 DUP3 ADD MSTORE PUSH1 0x84 SWAP1 REVERT JUMPDEST PUSH1 0x40 MLOAD PUSH3 0x461BCD PUSH1 0xE5 SHL DUP2 MSTORE PUSH1 0x20 PUSH1 0x4 DUP3 ADD MSTORE PUSH1 0x1D PUSH1 0x24 DUP3 ADD MSTORE PUSH32 0x526567697374726174696F6E20706572696F6420746F6F2073686F7274000000 PUSH1 0x44 DUP3 ADD MSTORE PUSH1 0x64 SWAP1 REVERT JUMPDEST PUSH1 0x40 MLOAD PUSH3 0x461BCD PUSH1 0xE5 SHL DUP2 MSTORE PUSH1 0x20 PUSH1 0x4 DUP3 ADD MSTORE PUSH1 0x2E PUSH1 0x24 DUP3 ADD MSTORE PUSH32 0x53746172742074696D65206D7573742062652061667465722072656769737472 PUSH1 0x44 DUP3 ADD MSTORE PUSH14 0x6174696F6E20656E642074696D65 PUSH1 0x90 SHL PUSH1 0x64 DUP3 ADD MSTORE PUSH1 0x84 SWAP1 REVERT JUMPDEST PUSH1 0x40 MLOAD PUSH3 0x461BCD PUSH1 0xE5 SHL DUP2 MSTORE PUSH1 0x20 PUSH1 0x4 DUP3 ADD MSTORE PUSH1 0x2B PUSH1 0x24 DUP3 ADD MSTORE PUSH32 0x526567697374726174696F6E20656E642074696D65206D75737420626520696E PUSH1 0x44 DUP3 ADD MSTORE PUSH11 0x2074686520667574757265 PUSH1 0xA8 SHL PUSH1 0x64 DUP3 ADD MSTORE PUSH1 0x84 SWAP1 REVERT JUMPDEST PUSH1 0x40 MLOAD PUSH3 0x461BCD PUSH1 0xE5 SHL DUP2 MSTORE PUSH1 0x20 PUSH1 0x4 DUP3 ADD MSTORE PUSH1 0x15 PUSH1 0x24 DUP3 ADD MSTORE PUSH21 0x139BC81C1BDCDA5D1A5BDB9CC81C1C9BDD9A591959 PUSH1 0x5A SHL PUSH1 0x44 DUP3 ADD MSTORE PUSH1 0x64 SWAP1 REVERT JUMPDEST PUSH1 0x40 MLOAD PUSH3 0x461BCD PUSH1 0xE5 SHL DUP2 MSTORE PUSH1 0x20 PUSH1 0x4 DUP3 ADD MSTORE PUSH1 0x17 PUSH1 0x24 DUP3 ADD MSTORE PUSH32 0x496E76616C696420746F75726E616D656E742074797065000000000000000000 PUSH1 0x44 DUP3 ADD MSTORE PUSH1 0x64 SWAP1 REVERT JUMPDEST PUSH1 0x40 MLOAD PUSH3 0x461BCD PUSH1 0xE5 SHL DUP2 MSTORE PUSH1 0x20 PUSH1 0x4 DUP3 ADD MSTORE PUSH1 0x14 PUSH1 0x24 DUP3 ADD MSTORE PUSH20 0x4E616D652063616E6E6F7420626520656D707479 PUSH1 0x60 SHL PUSH1 0x44 DUP3 ADD MSTORE PUSH1 0x64 SWAP1 REVERT JUMPDEST PUSH1 0x40 MLOAD PUSH4 0x23B872DD PUSH1 0xE0 SHL PUSH1 0x20 DUP3 ADD MSTORE PUSH1 0x1 PUSH1 0x1 PUSH1 0xA0 SHL SUB SWAP3 DUP4 AND PUSH1 0x24 DUP3 ADD MSTORE SWAP3 SWAP1 SWAP2 AND PUSH1 0x44 DUP4 ADD MSTORE PUSH1 0x64 DUP1 DUP4 ADD SWAP4 SWAP1 SWAP4 MSTORE SWAP2 DUP2 MSTORE PUSH1 0xA0 DUP2 ADD SWAP2 DUP2 DUP4 LT PUSH8 0xFFFFFFFFFFFFFFFF DUP5 GT OR PUSH2 0x151C JUMPI PUSH2 0x16F0 SWAP3 PUSH1 0x40 MSTORE JUMPDEST PUSH1 0x1 DUP1 PUSH1 0xA0 SHL SUB AND SWAP1 PUSH1 0x40 MLOAD PUSH1 0x40 DUP2 ADD SWAP1 DUP1 DUP3 LT PUSH8 0xFFFFFFFFFFFFFFFF DUP4 GT OR PUSH2 0x151C JUMPI PUSH2 0x232F SWAP2 PUSH1 0x40 MSTORE PUSH1 0x20 SWAP4 DUP5 DUP3 MSTORE PUSH32 0x5361666545524332303A206C6F772D6C6576656C2063616C6C206661696C6564 DUP6 DUP4 ADD MSTORE PUSH1 0x0 DUP1 DUP6 DUP8 DUP3 SWAP8 MLOAD SWAP2 ADD DUP3 DUP6 GAS CALL RETURNDATASIZE ISZERO PUSH2 0x23C5 JUMPI RETURNDATASIZE SWAP2 PUSH2 0x2314 DUP4 PUSH2 0x1532 JUMP JUMPDEST SWAP3 PUSH2 0x2322 PUSH1 0x40 MLOAD SWAP5 DUP6 PUSH2 0x14FA JUMP JUMPDEST DUP4 MSTORE RETURNDATASIZE DUP7 DUP9 DUP6 ADD RETURNDATACOPY PUSH2 0x23C9 JUMP JUMPDEST DUP1 MLOAD SWAP2 DUP3 ISZERO SWAP2 DUP5 DUP4 ISZERO PUSH2 0x23A1 JUMPI JUMPDEST POP POP POP SWAP1 POP ISZERO PUSH2 0x234A JUMPI POP JUMP JUMPDEST PUSH1 0x84 SWAP1 PUSH1 0x40 MLOAD SWAP1 PUSH3 0x461BCD PUSH1 0xE5 SHL DUP3 MSTORE PUSH1 0x4 DUP3 ADD MSTORE PUSH1 0x2A PUSH1 0x24 DUP3 ADD MSTORE PUSH32 0x5361666545524332303A204552433230206F7065726174696F6E20646964206E PUSH1 0x44 DUP3 ADD MSTORE PUSH10 0x1BDD081CDD58D8D95959 PUSH1 0xB2 SHL PUSH1 0x64 DUP3 ADD MSTORE REVERT JUMPDEST SWAP2 SWAP4 DUP2 DUP1 SWAP5 POP ADD SUB SLT PUSH2 0x1FE JUMPI DUP3 ADD MLOAD SWAP1 DUP2 ISZERO ISZERO DUP3 SUB PUSH2 0x202 JUMPI POP DUP1 CODESIZE DUP1 DUP5 PUSH2 0x233D JUMP JUMPDEST PUSH1 0x60 SWAP2 JUMPDEST SWAP2 SWAP3 SWAP1 ISZERO PUSH2 0x242B JUMPI POP DUP2 MLOAD ISZERO PUSH2 0x23DD JUMPI POP SWAP1 JUMP JUMPDEST EXTCODESIZE ISZERO PUSH2 0x23E6 JUMPI SWAP1 JUMP JUMPDEST PUSH1 0x40 MLOAD PUSH3 0x461BCD PUSH1 0xE5 SHL DUP2 MSTORE PUSH1 0x20 PUSH1 0x4 DUP3 ADD MSTORE PUSH1 0x1D PUSH1 0x24 DUP3 ADD MSTORE PUSH32 0x416464726573733A2063616C6C20746F206E6F6E2D636F6E7472616374000000 PUSH1 0x44 DUP3 ADD MSTORE PUSH1 0x64 SWAP1 REVERT JUMPDEST DUP3 MLOAD SWAP1 SWAP2 POP ISZERO PUSH2 0x243E JUMPI POP DUP1 MLOAD SWAP1 PUSH1 0x20 ADD REVERT JUMPDEST PUSH1 0x40 MLOAD PUSH3 0x461BCD PUSH1 0xE5 SHL DUP2 MSTORE PUSH1 0x20 PUSH1 0x4 DUP3 ADD MSTORE SWAP1 DUP2 SWAP1 PUSH2 0x2462 SWAP1 PUSH1 0x24 DUP4 ADD SWAP1 PUSH2 0x1758 JUMP JUMPDEST SUB SWAP1 REVERT JUMPDEST ISZERO PUSH2 0x246D JUMPI JUMP JUMPDEST PUSH1 0x40 MLOAD PUSH3 0x461BCD PUSH1 0xE5 SHL DUP2 MSTORE PUSH1 0x20 PUSH1 0x4 DUP3 ADD MSTORE PUSH1 0x19 PUSH1 0x24 DUP3 ADD MSTORE PUSH32 0x546F75726E616D656E7420646F6573206E6F7420657869737400000000000000 PUSH1 0x44 DUP3 ADD MSTORE PUSH1 0x64 SWAP1 REVERT JUMPDEST ISZERO PUSH2 0x24B9 JUMPI JUMP JUMPDEST PUSH1 0x40 MLOAD PUSH3 0x461BCD PUSH1 0xE5 SHL DUP2 MSTORE PUSH1 0x20 PUSH1 0x4 DUP3 ADD MSTORE PUSH1 0x15 PUSH1 0x24 DUP3 ADD MSTORE PUSH21 0x546F75726E616D656E74206E6F7420616374697665 PUSH1 0x58 SHL PUSH1 0x44 DUP3 ADD MSTORE PUSH1 0x64 SWAP1 REVERT JUMPDEST ISZERO PUSH2 0x24FD JUMPI JUMP JUMPDEST PUSH1 0x40 MLOAD PUSH3 0x461BCD PUSH1 0xE5 SHL DUP2 MSTORE PUSH1 0x20 PUSH1 0x4 DUP3 ADD MSTORE PUSH1 0x19 PUSH1 0x24 DUP3 ADD MSTORE PUSH32 0x526567697374726174696F6E20706572696F6420656E64656400000000000000 PUSH1 0x44 DUP3 ADD MSTORE PUSH1 0x64 SWAP1 REVERT JUMPDEST ISZERO PUSH2 0x2549 JUMPI JUMP JUMPDEST PUSH1 0x40 MLOAD PUSH3 0x461BCD PUSH1 0xE5 SHL DUP2 MSTORE PUSH1 0x20 PUSH1 0x4 DUP3 ADD MSTORE PUSH1 0x12 PUSH1 0x24 DUP3 ADD MSTORE PUSH18 0x105B1C9958591E481C9959DA5CDD195C9959 PUSH1 0x72 SHL PUSH1 0x44 DUP3 ADD MSTORE PUSH1 0x64 SWAP1 REVERT JUMPDEST ISZERO PUSH2 0x258A JUMPI JUMP JUMPDEST PUSH1 0x40 MLOAD PUSH3 0x461BCD PUSH1 0xE5 SHL DUP2 MSTORE PUSH1 0x20 PUSH1 0x4 DUP3 ADD MSTORE PUSH1 0x12 PUSH1 0x24 DUP3 ADD MSTORE PUSH18 0x151BDD5C9B985B595B9D081A5CC8199D5B1B PUSH1 0x72 SHL PUSH1 0x44 DUP3 ADD MSTORE PUSH1 0x64 SWAP1 REVERT JUMPDEST ISZERO PUSH2 0x25CB JUMPI JUMP JUMPDEST PUSH1 0x40 MLOAD PUSH3 0x461BCD PUSH1 0xE5 SHL DUP2 MSTORE PUSH1 0x20 PUSH1 0x4 DUP3 ADD MSTORE PUSH1 0x22 PUSH1 0x24 DUP3 ADD MSTORE PUSH32 0x546F75726E616D656E7420646F6573206E6F74206861766520656E7472792066 PUSH1 0x44 DUP3 ADD MSTORE PUSH2 0x6565 PUSH1 0xF0 SHL PUSH1 0x64 DUP3 ADD MSTORE PUSH1 0x84 SWAP1 REVERT JUMPDEST ISZERO PUSH2 0x2622 JUMPI JUMP JUMPDEST PUSH1 0x40 MLOAD PUSH3 0x461BCD PUSH1 0xE5 SHL DUP2 MSTORE PUSH1 0x20 PUSH1 0x4 DUP3 ADD MSTORE PUSH1 0x16 PUSH1 0x24 DUP3 ADD MSTORE PUSH22 0x2737BA103A37BAB93730B6B2B73A1031B932B0BA37B9 PUSH1 0x51 SHL PUSH1 0x44 DUP3 ADD MSTORE PUSH1 0x64 SWAP1 REVERT JUMPDEST PUSH1 0x0 SWAP1 DUP1 DUP3 MSTORE PUSH1 0x2 PUSH1 0x20 MSTORE PUSH1 0x40 DUP3 KECCAK256 PUSH1 0xC DUP2 ADD SWAP1 DUP2 SLOAD SWAP4 PUSH2 0x2683 PUSH1 0xFF DUP7 AND PUSH2 0x25C4 JUMP JUMPDEST PUSH1 0x11 DUP3 ADD SLOAD SWAP3 PUSH1 0xD DUP4 ADD SLOAD SWAP4 DUP5 DUP2 MUL SWAP5 DUP2 DUP7 DIV EQ SWAP1 ISZERO OR ISZERO PUSH2 0x27B7 JUMPI DUP4 ISZERO PUSH2 0x27AF JUMPI PUSH1 0xFA DUP5 MUL DUP5 DUP2 DIV PUSH1 0xFA SUB PUSH2 0x279B JUMPI PUSH2 0x2710 PUSH2 0x26C2 SWAP2 DIV DUP1 SWAP6 PUSH2 0x1846 JUMP JUMPDEST SWAP6 DUP7 SWAP2 PUSH1 0x1 DUP1 PUSH1 0xA0 SHL SUB SWAP6 DUP7 DUP1 SWAP4 PUSH1 0x8 SHR AND DUP6 MSTORE PUSH1 0x4 PUSH1 0x20 MSTORE PUSH2 0x26EA PUSH1 0x40 DUP7 KECCAK256 SWAP2 DUP3 SLOAD PUSH2 0x18A2 JUMP JUMPDEST SWAP1 SSTORE SLOAD PUSH1 0x8 SHR AND DUP1 PUSH2 0x275C JUMPI POP DUP2 DUP1 DUP1 DUP1 SWAP4 DUP8 PUSH1 0x1 DUP9 ADD SLOAD AND DUP3 DUP3 ISZERO PUSH2 0x2753 JUMPI JUMPDEST CALL ISZERO PUSH2 0x2747 JUMPI POP PUSH32 0x107CFC3E70C0A9B50B925FE1AC70D6FF12C8C459D57CDD7EA146E336AD8971E8 SWAP2 PUSH1 0x1 PUSH1 0x20 SWAP3 JUMPDEST ADD SLOAD AND SWAP4 PUSH1 0x40 MLOAD SWAP1 DUP2 MSTORE LOG3 JUMP JUMPDEST PUSH1 0x40 MLOAD SWAP1 RETURNDATASIZE SWAP1 DUP3 RETURNDATACOPY RETURNDATASIZE SWAP1 REVERT JUMPDEST POP PUSH2 0x8FC PUSH2 0x270B JUMP JUMPDEST DUP5 SWAP3 POP SWAP3 PUSH2 0x2796 PUSH1 0x1 SWAP3 PUSH1 0x20 SWAP6 PUSH32 0x107CFC3E70C0A9B50B925FE1AC70D6FF12C8C459D57CDD7EA146E336AD8971E8 SWAP8 DUP6 DUP6 ADD SLOAD AND SWAP1 PUSH2 0x27CB JUMP JUMPDEST PUSH2 0x273A JUMP JUMPDEST PUSH4 0x4E487B71 PUSH1 0xE0 SHL DUP4 MSTORE PUSH1 0x11 PUSH1 0x4 MSTORE PUSH1 0x24 DUP4 REVERT JUMPDEST POP POP POP POP POP POP JUMP JUMPDEST PUSH4 0x4E487B71 PUSH1 0xE0 SHL DUP3 MSTORE PUSH1 0x11 PUSH1 0x4 MSTORE PUSH1 0x24 DUP3 REVERT JUMPDEST PUSH1 0x40 MLOAD PUSH4 0xA9059CBB PUSH1 0xE0 SHL PUSH1 0x20 DUP3 ADD MSTORE PUSH1 0x1 PUSH1 0x1 PUSH1 0xA0 SHL SUB SWAP1 SWAP3 AND PUSH1 0x24 DUP4 ADD MSTORE PUSH1 0x44 DUP1 DUP4 ADD SWAP4 SWAP1 SWAP4 MSTORE SWAP2 DUP2 MSTORE PUSH1 0x80 DUP2 ADD SWAP2 PUSH8 0xFFFFFFFFFFFFFFFF DUP4 GT DUP3 DUP5 LT OR PUSH2 0x151C JUMPI PUSH2 0x16F0 SWAP3 PUSH1 0x40 MSTORE PUSH2 0x229F JUMP JUMPDEST ISZERO PUSH2 0x2822 JUMPI JUMP JUMPDEST PUSH1 0x40 MLOAD PUSH3 0x461BCD PUSH1 0xE5 SHL DUP2 MSTORE PUSH1 0x20 PUSH1 0x4 DUP3 ADD MSTORE PUSH1 0x10 PUSH1 0x24 DUP3 ADD MSTORE PUSH16 0x24B73B30B634B2103837B9B4BA34B7B7 PUSH1 0x81 SHL PUSH1 0x44 DUP3 ADD MSTORE PUSH1 0x64 SWAP1 REVERT JUMPDEST ISZERO PUSH2 0x2861 JUMPI JUMP JUMPDEST PUSH1 0x40 MLOAD PUSH3 0x461BCD PUSH1 0xE5 SHL DUP2 MSTORE PUSH1 0x20 PUSH1 0x4 DUP3 ADD MSTORE PUSH1 0x18 PUSH1 0x24 DUP3 ADD MSTORE PUSH32 0x506F736974696F6E20616C726561647920636C61696D65640000000000000000 PUSH1 0x44 DUP3 ADD MSTORE PUSH1 0x64 SWAP1 REVERT JUMPDEST SWAP4 SWAP3 SWAP1 SWAP2 PUSH2 0x28B9 PUSH1 0xE DUP7 ADD SLOAD DUP3 LT PUSH2 0x281B JUMP JUMPDEST PUSH1 0x0 SWAP5 DUP2 DUP7 MSTORE PUSH1 0x20 PUSH1 0x10 DUP3 ADD DUP2 MSTORE PUSH1 0x40 SWAP4 PUSH2 0x28DA PUSH1 0xFF DUP7 DUP11 KECCAK256 SLOAD AND ISZERO PUSH2 0x285A JUMP JUMPDEST PUSH1 0x1 PUSH1 0x1 PUSH1 0xA0 SHL SUB AND SWAP2 DUP3 ISZERO PUSH2 0x29FB JUMPI PUSH1 0x8 DUP2 ADD SLOAD TIMESTAMP LT PUSH2 0x29B7 JUMPI PUSH1 0x11 DUP2 ADD SLOAD PUSH2 0x2950 JUMPI JUMPDEST DUP8 PUSH1 0xF DUP7 SWAP3 DUP7 PUSH32 0x8981FDD74BD05DA9EF8F2AEB472F541EE871B1E9E3908C19D01A9BF51CE5F7AB SWAP10 SWAP11 SWAP12 MSTORE ADD DUP4 MSTORE KECCAK256 DUP3 PUSH12 0xFFFFFFFFFFFFFFFFFFFFFFFF PUSH1 0xA0 SHL DUP3 SLOAD AND OR SWAP1 SSTORE DUP4 MLOAD SWAP3 DUP4 MSTORE DUP3 ADD MSTORE LOG2 JUMP JUMPDEST DUP3 DUP9 MSTORE PUSH1 0x12 DUP2 ADD DUP3 MSTORE PUSH1 0xFF DUP6 DUP10 KECCAK256 SLOAD AND PUSH2 0x28FF JUMPI DUP5 MLOAD PUSH3 0x461BCD PUSH1 0xE5 SHL DUP2 MSTORE PUSH1 0x4 DUP2 ADD DUP4 SWAP1 MSTORE PUSH1 0x26 PUSH1 0x24 DUP3 ADD MSTORE PUSH32 0x57696E6E6572206973206E6F7420612072656769737465726564207061727469 PUSH1 0x44 DUP3 ADD MSTORE PUSH6 0x18DA5C185B9D PUSH1 0xD2 SHL PUSH1 0x64 DUP3 ADD MSTORE PUSH1 0x84 SWAP1 REVERT JUMPDEST DUP5 MLOAD PUSH3 0x461BCD PUSH1 0xE5 SHL DUP2 MSTORE PUSH1 0x4 DUP2 ADD DUP4 SWAP1 MSTORE PUSH1 0x1E PUSH1 0x24 DUP3 ADD MSTORE PUSH32 0x546F75726E616D656E7420686173206E6F742073746172746564207965740000 PUSH1 0x44 DUP3 ADD MSTORE PUSH1 0x64 SWAP1 REVERT JUMPDEST DUP5 MLOAD PUSH3 0x461BCD PUSH1 0xE5 SHL DUP2 MSTORE PUSH1 0x4 DUP2 ADD DUP4 SWAP1 MSTORE PUSH1 0x1D PUSH1 0x24 DUP3 ADD MSTORE PUSH32 0x57696E6E65722063616E6E6F74206265207A65726F2061646472657373000000 PUSH1 0x44 DUP3 ADD MSTORE PUSH1 0x64 SWAP1 REVERT JUMPDEST SWAP2 SWAP1 SWAP2 PUSH1 0x0 SWAP1 DUP2 MSTORE PUSH1 0x20 SWAP1 PUSH1 0x2 DUP3 MSTORE PUSH1 0x40 SWAP4 DUP5 DUP3 KECCAK256 SWAP3 DUP3 SWAP1 PUSH1 0xF PUSH1 0xE DUP7 ADD SLOAD SWAP6 ADD SWAP2 JUMPDEST DUP6 DUP2 LT PUSH2 0x2AA7 JUMPI DUP8 MLOAD PUSH3 0x461BCD PUSH1 0xE5 SHL DUP2 MSTORE PUSH1 0x20 PUSH1 0x4 DUP3 ADD MSTORE PUSH1 0x17 PUSH1 0x24 DUP3 ADD MSTORE PUSH23 0x20B2323932B9B99034B9903737BA1030903BB4B73732B9 PUSH1 0x49 SHL PUSH1 0x44 DUP3 ADD MSTORE PUSH1 0x64 SWAP1 REVERT JUMPDEST DUP1 DUP6 MSTORE DUP3 DUP3 MSTORE DUP8 DUP6 KECCAK256 SLOAD PUSH1 0x1 PUSH1 0x1 PUSH1 0xA0 SHL SUB DUP6 DUP2 AND SWAP2 AND EQ PUSH2 0x2AD1 JUMPI PUSH2 0x2ACC SWAP1 PUSH2 0x1869 JUMP JUMPDEST PUSH2 0x2A62 JUMP JUMPDEST SWAP6 SWAP7 POP POP POP POP SWAP1 POP PUSH1 0x1 DUP3 ADD DUP1 SWAP3 GT PUSH2 0x2AE8 JUMPI POP SWAP1 JUMP JUMPDEST PUSH4 0x4E487B71 PUSH1 0xE0 SHL DUP2 MSTORE PUSH1 0x11 PUSH1 0x4 MSTORE PUSH1 0x24 SWAP1 REVERT JUMPDEST SWAP2 SWAP1 PUSH1 0x0 SWAP3 DUP4 MSTORE PUSH1 0x20 SWAP3 PUSH1 0x2 DUP5 MSTORE PUSH1 0x40 SWAP4 DUP5 DUP3 KECCAK256 DUP3 SWAP4 PUSH1 0xE DUP3 ADD SLOAD SWAP5 PUSH1 0xF DUP4 ADD SWAP1 JUMPDEST DUP7 DUP2 LT PUSH2 0x2B63 JUMPI DUP9 MLOAD PUSH3 0x461BCD PUSH1 0xE5 SHL DUP2 MSTORE PUSH1 0x20 PUSH1 0x4 DUP3 ADD MSTORE PUSH1 0x17 PUSH1 0x24 DUP3 ADD MSTORE PUSH23 0x20B2323932B9B99034B9903737BA1030903BB4B73732B9 PUSH1 0x49 SHL PUSH1 0x44 DUP3 ADD MSTORE PUSH1 0x64 SWAP1 REVERT JUMPDEST DUP1 DUP7 MSTORE DUP2 DUP6 MSTORE DUP9 DUP7 KECCAK256 SLOAD PUSH1 0x1 PUSH1 0x1 PUSH1 0xA0 SHL SUB DUP5 DUP2 AND SWAP2 AND EQ PUSH2 0x2B8D JUMPI PUSH2 0x2B88 SWAP1 PUSH2 0x1869 JUMP JUMPDEST PUSH2 0x2B1E JUMP JUMPDEST POP POP POP PUSH1 0xFF SWAP5 SWAP6 SWAP4 POP PUSH1 0x10 ADD SWAP1 MSTORE KECCAK256 SLOAD AND SWAP1 JUMP INVALID LOG2 PUSH5 0x6970667358 0x22 SLT KECCAK256 SWAP3 SELFDESTRUCT 0xAB STOP 0xB9 PUSH28 0x35DD2BF03C2554C907CEF38A4B838872165209EAD4B7C7A592B96473 PUSH16 0x6C634300081400330000000000000000 "},"methodIdentifiers":{"MIN_REGISTRATION_PERIOD()":"c00b69fe","PERCENTAGE_BASE()":"87c13943","PLATFORM_FEE_PERCENTAGE()":"15548232","TOURNAMENT_TYPE_DOUBLE_ELIMINATION()":"a52d7e9e","TOURNAMENT_TYPE_SINGLE_ELIMINATION()":"6d3687df","cancelTournament(uint256)":"32432233","claimEntryFees(uint256)":"1d74ea25","claimReward(uint256,uint256)":"86bb8f37","createTournament(string,string,string,uint8,uint256,uint256,uint256,address,uint256[])":"79c13f8a","createTournamentWithEntryFee(string,string,string,uint8,uint256,uint256,uint256,address,uint256[],address,uint256)":"04cbc86e","declareWinner(uint256,uint256,address)":"d533344f","declareWinners(uint256,uint256[],address[])":"c56aab81","getPositionInfo(uint256,uint256)":"67e820ad","getPositionRewardAmounts(uint256)":"f37aa509","getTournamentInfo(uint256)":"cac766d2","getWinnerPosition(uint256,address)":"2c4aa971","hasClaimedReward(uint256,address)":"c8b727a1","isParticipantRegistered(uint256,address)":"cb84e537","nextTournamentId()":"852efc3d","owner()":"8da5cb5b","platformFees(address)":"32e8bc72","registerForTournament(uint256)":"334f7deb","registerWithEntryFee(uint256)":"66025a7e","renounceOwnership()":"715018a6","tournaments(uint256)":"7503e1b7","transferOwnership(address)":"f2fde38b","withdrawPlatformFees(address)":"ec3889b5"}}}}}