{"contracts/TournamentEscrow.sol":{"TournamentEscrow":{"abi":[{"anonymous":false,"inputs":[{"indexed":true,"internalType":"address","name":"previousOwner","type":"address"},{"indexed":true,"internalType":"address","name":"newOwner","type":"address"}],"name":"OwnershipTransferred","type":"event"},{"anonymous":false,"inputs":[{"indexed":true,"internalType":"uint256","name":"tournamentId","type":"uint256"},{"indexed":false,"internalType":"uint256","name":"position","type":"uint256"},{"indexed":false,"internalType":"address","name":"winner","type":"address"},{"indexed":false,"internalType":"uint256","name":"amount","type":"uint256"}],"name":"RewardClaimed","type":"event"},{"anonymous":false,"inputs":[{"indexed":true,"internalType":"uint256","name":"tournamentId","type":"uint256"}],"name":"TournamentCancelled","type":"event"},{"anonymous":false,"inputs":[{"indexed":true,"internalType":"uint256","name":"tournamentId","type":"uint256"},{"indexed":true,"internalType":"address","name":"creator","type":"address"},{"indexed":false,"internalType":"string","name":"name","type":"string"}],"name":"TournamentCreated","type":"event"},{"anonymous":false,"inputs":[{"indexed":true,"internalType":"uint256","name":"tournamentId","type":"uint256"},{"indexed":false,"internalType":"uint256","name":"position","type":"uint256"},{"indexed":false,"internalType":"address","name":"winner","type":"address"}],"name":"WinnerDeclared","type":"event"},{"inputs":[{"internalType":"uint256","name":"tournamentId","type":"uint256"}],"name":"cancelTournament","outputs":[],"stateMutability":"nonpayable","type":"function"},{"inputs":[{"internalType":"uint256","name":"tournamentId","type":"uint256"},{"internalType":"uint256","name":"position","type":"uint256"}],"name":"claimReward","outputs":[],"stateMutability":"nonpayable","type":"function"},{"inputs":[{"internalType":"string","name":"name","type":"string"},{"internalType":"string","name":"description","type":"string"},{"internalType":"string","name":"gameId","type":"string"},{"internalType":"uint8","name":"tournamentType","type":"uint8"},{"internalType":"uint256","name":"maxParticipants","type":"uint256"},{"internalType":"uint256","name":"registrationEndTime","type":"uint256"},{"internalType":"uint256","name":"startTime","type":"uint256"},{"internalType":"address","name":"rewardTokenAddress","type":"address"},{"internalType":"uint256[]","name":"positionRewardAmounts","type":"uint256[]"}],"name":"createTournament","outputs":[{"internalType":"uint256","name":"","type":"uint256"}],"stateMutability":"payable","type":"function"},{"inputs":[{"internalType":"uint256","name":"tournamentId","type":"uint256"},{"internalType":"uint256","name":"position","type":"uint256"},{"internalType":"address","name":"winner","type":"address"}],"name":"declareWinner","outputs":[],"stateMutability":"nonpayable","type":"function"},{"inputs":[{"internalType":"uint256","name":"tournamentId","type":"uint256"},{"internalType":"uint256","name":"position","type":"uint256"}],"name":"getPositionInfo","outputs":[{"internalType":"uint256","name":"rewardAmount","type":"uint256"},{"internalType":"address","name":"winner","type":"address"},{"internalType":"bool","name":"claimed","type":"bool"}],"stateMutability":"view","type":"function"},{"inputs":[{"internalType":"uint256","name":"tournamentId","type":"uint256"}],"name":"getPositionRewardAmounts","outputs":[{"internalType":"uint256[]","name":"","type":"uint256[]"}],"stateMutability":"view","type":"function"},{"inputs":[{"internalType":"uint256","name":"tournamentId","type":"uint256"}],"name":"getTournamentInfo","outputs":[{"internalType":"address","name":"creator","type":"address"},{"internalType":"string","name":"name","type":"string"},{"internalType":"string","name":"description","type":"string"},{"internalType":"string","name":"gameId","type":"string"},{"internalType":"uint8","name":"tournamentType","type":"uint8"},{"internalType":"uint256","name":"maxParticipants","type":"uint256"},{"internalType":"uint256","name":"createdAt","type":"uint256"},{"internalType":"uint256","name":"startTime","type":"uint256"},{"internalType":"uint256","name":"registrationEndTime","type":"uint256"},{"internalType":"bool","name":"isActive","type":"bool"},{"internalType":"address","name":"rewardTokenAddress","type":"address"},{"internalType":"uint256","name":"totalRewardAmount","type":"uint256"},{"internalType":"uint256","name":"positionCount","type":"uint256"}],"stateMutability":"view","type":"function"},{"inputs":[],"name":"nextTournamentId","outputs":[{"internalType":"uint256","name":"","type":"uint256"}],"stateMutability":"view","type":"function"},{"inputs":[],"name":"owner","outputs":[{"internalType":"address","name":"","type":"address"}],"stateMutability":"view","type":"function"},{"inputs":[],"name":"renounceOwnership","outputs":[],"stateMutability":"nonpayable","type":"function"},{"inputs":[{"internalType":"uint256","name":"","type":"uint256"}],"name":"tournaments","outputs":[{"internalType":"uint256","name":"id","type":"uint256"},{"internalType":"address","name":"creator","type":"address"},{"internalType":"string","name":"name","type":"string"},{"internalType":"string","name":"description","type":"string"},{"internalType":"string","name":"gameId","type":"string"},{"internalType":"uint8","name":"tournamentType","type":"uint8"},{"internalType":"uint256","name":"maxParticipants","type":"uint256"},{"internalType":"uint256","name":"createdAt","type":"uint256"},{"internalType":"uint256","name":"startTime","type":"uint256"},{"internalType":"uint256","name":"registrationEndTime","type":"uint256"},{"internalType":"bool","name":"isActive","type":"bool"},{"internalType":"address","name":"rewardTokenAddress","type":"address"},{"internalType":"uint256","name":"totalRewardAmount","type":"uint256"}],"stateMutability":"view","type":"function"},{"inputs":[{"internalType":"address","name":"newOwner","type":"address"}],"name":"transferOwnership","outputs":[],"stateMutability":"nonpayable","type":"function"}],"evm":{"bytecode":{"linkReferences":{},"object":"608080604052346100645760008054336001600160a01b0319821681178355916001600160a01b03909116907f8be0079c531659141344cd1fd0a4f28419497f9722a3daafe3b4186f6b6457e09080a36001805560016003556115c5908161006a8239f35b600080fdfe6080604052600436101561001257600080fd5b60003560e01c80633243223314610f9b57806367e820ad14610f1e578063715018a614610ec55780637503e1b714610dbd57806379c13f8a14610645578063852efc3d1461062757806386bb8f371461042d5780638da5cb5b14610404578063cac766d2146102f9578063d533344f14610214578063f2fde38b1461014e5763f37aa509146100a057600080fd5b34610149576020806003193601126101495760043560005260028152600c60406000200160405190818382549182815201908192600052846000209060005b868282106101355786866100f58288038361119e565b604051928392818401908285525180915260408401929160005b82811061011e57505050500390f35b83518552869550938101939281019260010161010f565b8354855290930192600192830192016100df565b600080fd5b34610149576020366003190112610149576004356001600160a01b03818116918290036101495761017d6112fd565b81156101c057600054826001600160601b0360a01b821617600055167f8be0079c531659141344cd1fd0a4f28419497f9722a3daafe3b4186f6b6457e0600080a3005b60405162461bcd60e51b815260206004820152602660248201527f4f776e61626c653a206e6577206f776e657220697320746865207a65726f206160448201526564647265737360d01b6064820152608490fd5b34610149576060366003190112610149576004356044356001600160a01b038181169160243590839003610149577f8981fdd74bd05da9ef8f2aeb472f541ee871b1e9e3908c19d01a9bf51ce5f7ab92600d604093610271611425565b86600052600260205261028f8560002091600183015416331461147b565b61029f60ff600a830154166114c0565b6102ae600c8201548510611504565b83600052600e81016020526102ca60ff86600020541615611543565b836000520160205282600020816001600160601b0360a01b82541617905582519182526020820152a260018055005b346101495760203660031901126101495760043560005260026020526040600020600160a01b600190038060018301541690600583015460ff169060068401549060078501549060088601546009870154600a88015491600b89015494600c8a01549660028b01610369906111c0565b9a610376600382016111c0565b90600401610383906111c0565b906040519c8d9c8d528c6101a06020819201528d016103a191611266565b8c810360408e01526103b291611266565b8b810360608d01526103c391611266565b9860808b015260a08a015260c089015260e088015261010087015260ff8116151561012087015260081c166101408501526101608401526101808301520390f35b34610149576000366003190112610149576000546040516001600160a01b039091168152602090f35b346101495761043b3661114e565b610443611425565b81600052602060028152604060002091600a83019261046560ff8554166114c0565b600c810161047581548410611504565b600d600e8301928460005283865261049560ff6040600020541615611543565b60008581529101855260409020546001600160a01b039290831633036105f1576104d69184918260005286526040600020600160ff1982541617905561140d565b90549060031b1c935460081c1680156000146105585750826000811561054f575b600080809381933390f115610543577fa8325f46ec9623d7ced8f695ff820511a4acef4f5d5c4933bd5d992141a2b905926060925b60405192835233908301526040820152a260018055005b6040513d6000823e3d90fd5b506108fc6104f7565b60405163a9059cbb60e01b81523360048201526024810185905293908390859060449082906000905af1928315610543576105bf6060947fa8325f46ec9623d7ced8f695ff820511a4acef4f5d5c4933bd5d992141a2b905966000916105c4575b506113c9565b61052c565b6105e49150833d85116105ea575b6105dc818361119e565b8101906113b1565b886105b9565b503d6105d2565b60405162461bcd60e51b815260048101869052600e60248201526d2737ba103a3432903bb4b73732b960911b6044820152606490fd5b34610149576000366003190112610149576020600354604051908152f35b6101203660031901126101495760043567ffffffffffffffff8111610149576106729036906004016112a6565b60243567ffffffffffffffff8111610149576106929036906004016112a6565b9060443567ffffffffffffffff8111610149576106b39036906004016112a6565b916064359160ff831683036101495760e4356001600160a01b038116900361014957610104359167ffffffffffffffff831161014957366023840112156101495782600401359267ffffffffffffffff84116109a557604051938060051b9061071f602083018761119e565b8552602460208601918301019136831161014957602401905b828210610dad5750505061074a611425565b825115610d7057600094855b84518710156107835761077761077d91610770898861137a565b51906113a4565b96611355565b95610756565b8491908660e4356001600160a01b0316610cad57813403610c68575b600354926107ac84611355565b60035583600052600260205260406000209584875560018701336001600160601b0360a01b825416179055875167ffffffffffffffff81116109a5576107f56002890154611164565b601f8111610c21575b50806020601f8211600114610bb357600091610ba8575b508160011b916000199060031b1c19161760028801555b80519067ffffffffffffffff82116109a557819061084d60038a0154611164565b601f8111610b55575b50602090601f8311600114610ae357600092610ad8575b50508160011b916000199060031b1c19161760038701555b80519067ffffffffffffffff82116109a55781906108a66004890154611164565b601f8111610a85575b50602090601f8311600114610a1057600092610a05575b50508160011b916000199060031b1c19161760048601559493945b60ff60058701911660ff19825416179055608435600686015542600786015560c435600886015560a4356009860155600a8501600181546101008260a81b0360e43560081b16906affffffffffffffffffffff60a81b1617179055600b850155600c60009401935b82518110156109bb5761095c818461137a565b5190855491680100000000000000008310156109a5576109858360016109a0950189558861140d565b819291549060031b91821b91600019901b1916179055611355565b610949565b634e487b7160e01b600052604160045260246000fd5b60208285817fbd34ba7c23e010b2fa639a38c057cf452062c6645a1c102adbee46d0b37b8669604051858152806109f6339588830190611266565b0390a360018055604051908152f35b0151905088806108c6565b9250600488016000526020600020906000935b601f1984168510610a6a576001945083601f19811610610a51575b505050811b0160048601559493946108e1565b015160001960f88460031b161c19169055888080610a3e565b81810151835560209485019460019093019290910190610a23565b909150600488016000526020600020601f840160051c810160208510610ad1575b90849392915b601f830160051c82018110610ac25750506108af565b60008155859450600101610aac565b5080610aa6565b01519050898061086d565b9250600389016000526020600020906000935b601f1984168510610b3a576001945083601f19811610610b21575b505050811b016003870155610885565b015160001960f88460031b161c19169055898080610b11565b81810151835560209485019460019093019290910190610af6565b909150600389016000526020600020601f840160051c810160208510610ba1575b90849392915b601f830160051c82018110610b92575050610856565b60008155859450600101610b7c565b5080610b76565b90508901518a610815565b91506002890160005260206000206000925b8b601f1984168510610c0a57506001935082601f19811610610bf1575b5050811b01600288015561082c565b8b015160001960f88460031b161c191690558a80610be2565b810151825560209384019360019092019101610bc5565b600289016000526020600020601f830160051c810160208410610c61575b601f830160051c82018110610c555750506107fe565b60008155600101610c3f565b5080610c3f565b60405162461bcd60e51b815260206004820152601c60248201527f496e636f72726563742072657761726420616d6f756e742073656e74000000006044820152606490fd5b34610d1d576040516323b872dd60e01b815233600482015230602482015260448101839052602081606481600060e4356001600160a01b03165af1801561054357610cff91600091610d0457506113c9565b61079f565b6105e4915060203d6020116105ea576105dc818361119e565b60405162461bcd60e51b815260206004820152602560248201527f446f6e27742073656e6420524f4e207769746820746f6b656e20746f75726e616044820152646d656e747360d81b6064820152608490fd5b60405162461bcd60e51b8152602060048201526015602482015274139bc81c1bdcda5d1a5bdb9cc81c1c9bdd9a591959605a1b6044820152606490fd5b8135815260209182019101610738565b3461014957602036600319011261014957600435600052600260205260406000208054600160a01b6001900391826001820154169260028201610dff906111c0565b90610e0c600384016111c0565b92610e19600482016111c0565b93600582015460ff16946006830154600784015490600885015492600986015494600a87015496600b0154986040519c8d9c8d5260208d01528b6101a06040819201528c01610e6791611266565b8b810360608d0152610e7891611266565b8a810360808c0152610e8991611266565b9760a08a015260c089015260e088015261010087015261012086015260ff8116151561014086015260081c166101608401526101808301520390f35b3461014957600036600319011261014957610ede6112fd565b600080546001600160a01b0319811682556001600160a01b03167f8be0079c531659141344cd1fd0a4f28419497f9722a3daafe3b4186f6b6457e08280a3005b34610149576060610f2e3661114e565b906000526002602052604060002090610f5681600c8401610f5181548310611504565b61140d565b92905491600052600d8101602052600e60018060a01b0360406000205416910160205260ff60406000205416916040519360031b1c8352602083015215156040820152f35b34610149576020806003193601126101495760043590610fb9611425565b816000526002815260406000206001810160018060a01b03908181541693610fe285331461147b565b600a84019485549460ff96610ff88888166114c0565b60ff1987169055600c810180546000989092600e01895b8481106111045750505050508515948515611051575b877ffa61ec8d7e5a58ceba17772b10ba0c6caa65b40b200302be35f00efc264c7895600080a260018055005b60081c8416908161108e575050506000938493849384935416908390611085575bf115610543575b81808080808080611025565b506108fc611072565b60405163a9059cbb60e01b81526001600160a01b0391909116600482015260248101969096529094935084925083915060449082906000905af1908115610543576110e2926000926110e7575b50506113c9565b611079565b6110fd9250803d106105ea576105dc818361119e565b83806110db565b80600052818752826040600020541615611127575b61112290611355565b61100f565b99611146611122916111398d8761140d565b90549060031b1c906113a4565b9a9050611119565b6040906003190112610149576004359060243590565b90600182811c92168015611194575b602083101461117e57565b634e487b7160e01b600052602260045260246000fd5b91607f1691611173565b90601f8019910116810190811067ffffffffffffffff8211176109a557604052565b90604051918260008254926111d484611164565b9081845260019485811690816000146112435750600114611200575b50506111fe9250038361119e565b565b9093915060005260209081600020936000915b81831061122b5750506111fe935082010138806111f0565b85548884018501529485019487945091830191611213565b9150506111fe94506020925060ff191682840152151560051b82010138806111f0565b919082519283825260005b848110611292575050826000602080949584010152601f8019910116010190565b602081830181015184830182015201611271565b81601f820112156101495780359067ffffffffffffffff82116109a557604051926112db601f8401601f19166020018561119e565b8284526020838301011161014957816000926020809301838601378301015290565b6000546001600160a01b0316330361131157565b606460405162461bcd60e51b815260206004820152602060248201527f4f776e61626c653a2063616c6c6572206973206e6f7420746865206f776e65726044820152fd5b60001981146113645760010190565b634e487b7160e01b600052601160045260246000fd5b805182101561138e5760209160051b010190565b634e487b7160e01b600052603260045260246000fd5b9190820180921161136457565b90816020910312610149575180151581036101495790565b156113d057565b60405162461bcd60e51b8152602060048201526015602482015274151bdad95b881d1c985b9cd9995c8819985a5b1959605a1b6044820152606490fd5b805482101561138e5760005260206000200190600090565b600260015414611436576002600155565b60405162461bcd60e51b815260206004820152601f60248201527f5265656e7472616e637947756172643a207265656e7472616e742063616c6c006044820152606490fd5b1561148257565b60405162461bcd60e51b81526020600482015260166024820152752737ba103a37bab93730b6b2b73a1031b932b0ba37b960511b6044820152606490fd5b156114c757565b60405162461bcd60e51b8152602060048201526015602482015274546f75726e616d656e74206e6f742061637469766560581b6044820152606490fd5b1561150b57565b60405162461bcd60e51b815260206004820152601060248201526f24b73b30b634b2103837b9b4ba34b7b760811b6044820152606490fd5b1561154a57565b60405162461bcd60e51b815260206004820152601860248201527f506f736974696f6e20616c726561647920636c61696d656400000000000000006044820152606490fdfea2646970667358221220093693949f03d8e975dc76bf1d311b73ea947dd7bff952c61c6973c4f7c4ebec64736f6c63430008140033","opcodes":"PUSH1 0x80 DUP1 PUSH1 0x40 MSTORE CALLVALUE PUSH2 0x64 JUMPI PUSH1 0x0 DUP1 SLOAD CALLER PUSH1 0x1 PUSH1 0x1 PUSH1 0xA0 SHL SUB NOT DUP3 AND DUP2 OR DUP4 SSTORE SWAP2 PUSH1 0x1 PUSH1 0x1 PUSH1 0xA0 SHL SUB SWAP1 SWAP2 AND SWAP1 PUSH32 0x8BE0079C531659141344CD1FD0A4F28419497F9722A3DAAFE3B4186F6B6457E0 SWAP1 DUP1 LOG3 PUSH1 0x1 DUP1 SSTORE PUSH1 0x1 PUSH1 0x3 SSTORE PUSH2 0x15C5 SWAP1 DUP2 PUSH2 0x6A DUP3 CODECOPY RETURN JUMPDEST PUSH1 0x0 DUP1 REVERT INVALID PUSH1 0x80 PUSH1 0x40 MSTORE PUSH1 0x4 CALLDATASIZE LT ISZERO PUSH2 0x12 JUMPI PUSH1 0x0 DUP1 REVERT JUMPDEST PUSH1 0x0 CALLDATALOAD PUSH1 0xE0 SHR DUP1 PUSH4 0x32432233 EQ PUSH2 0xF9B JUMPI DUP1 PUSH4 0x67E820AD EQ PUSH2 0xF1E JUMPI DUP1 PUSH4 0x715018A6 EQ PUSH2 0xEC5 JUMPI DUP1 PUSH4 0x7503E1B7 EQ PUSH2 0xDBD JUMPI DUP1 PUSH4 0x79C13F8A EQ PUSH2 0x645 JUMPI DUP1 PUSH4 0x852EFC3D EQ PUSH2 0x627 JUMPI DUP1 PUSH4 0x86BB8F37 EQ PUSH2 0x42D JUMPI DUP1 PUSH4 0x8DA5CB5B EQ PUSH2 0x404 JUMPI DUP1 PUSH4 0xCAC766D2 EQ PUSH2 0x2F9 JUMPI DUP1 PUSH4 0xD533344F EQ PUSH2 0x214 JUMPI DUP1 PUSH4 0xF2FDE38B EQ PUSH2 0x14E JUMPI PUSH4 0xF37AA509 EQ PUSH2 0xA0 JUMPI PUSH1 0x0 DUP1 REVERT JUMPDEST CALLVALUE PUSH2 0x149 JUMPI PUSH1 0x20 DUP1 PUSH1 0x3 NOT CALLDATASIZE ADD SLT PUSH2 0x149 JUMPI PUSH1 0x4 CALLDATALOAD PUSH1 0x0 MSTORE PUSH1 0x2 DUP2 MSTORE PUSH1 0xC PUSH1 0x40 PUSH1 0x0 KECCAK256 ADD PUSH1 0x40 MLOAD SWAP1 DUP2 DUP4 DUP3 SLOAD SWAP2 DUP3 DUP2 MSTORE ADD SWAP1 DUP2 SWAP3 PUSH1 0x0 MSTORE DUP5 PUSH1 0x0 KECCAK256 SWAP1 PUSH1 0x0 JUMPDEST DUP7 DUP3 DUP3 LT PUSH2 0x135 JUMPI DUP7 DUP7 PUSH2 0xF5 DUP3 DUP9 SUB DUP4 PUSH2 0x119E JUMP JUMPDEST PUSH1 0x40 MLOAD SWAP3 DUP4 SWAP3 DUP2 DUP5 ADD SWAP1 DUP3 DUP6 MSTORE MLOAD DUP1 SWAP2 MSTORE PUSH1 0x40 DUP5 ADD SWAP3 SWAP2 PUSH1 0x0 JUMPDEST DUP3 DUP2 LT PUSH2 0x11E JUMPI POP POP POP POP SUB SWAP1 RETURN JUMPDEST DUP4 MLOAD DUP6 MSTORE DUP7 SWAP6 POP SWAP4 DUP2 ADD SWAP4 SWAP3 DUP2 ADD SWAP3 PUSH1 0x1 ADD PUSH2 0x10F JUMP JUMPDEST DUP4 SLOAD DUP6 MSTORE SWAP1 SWAP4 ADD SWAP3 PUSH1 0x1 SWAP3 DUP4 ADD SWAP3 ADD PUSH2 0xDF JUMP JUMPDEST PUSH1 0x0 DUP1 REVERT JUMPDEST CALLVALUE PUSH2 0x149 JUMPI PUSH1 0x20 CALLDATASIZE PUSH1 0x3 NOT ADD SLT PUSH2 0x149 JUMPI PUSH1 0x4 CALLDATALOAD PUSH1 0x1 PUSH1 0x1 PUSH1 0xA0 SHL SUB DUP2 DUP2 AND SWAP2 DUP3 SWAP1 SUB PUSH2 0x149 JUMPI PUSH2 0x17D PUSH2 0x12FD JUMP JUMPDEST DUP2 ISZERO PUSH2 0x1C0 JUMPI PUSH1 0x0 SLOAD DUP3 PUSH1 0x1 PUSH1 0x1 PUSH1 0x60 SHL SUB PUSH1 0xA0 SHL DUP3 AND OR PUSH1 0x0 SSTORE AND PUSH32 0x8BE0079C531659141344CD1FD0A4F28419497F9722A3DAAFE3B4186F6B6457E0 PUSH1 0x0 DUP1 LOG3 STOP JUMPDEST PUSH1 0x40 MLOAD PUSH3 0x461BCD PUSH1 0xE5 SHL DUP2 MSTORE PUSH1 0x20 PUSH1 0x4 DUP3 ADD MSTORE PUSH1 0x26 PUSH1 0x24 DUP3 ADD MSTORE PUSH32 0x4F776E61626C653A206E6577206F776E657220697320746865207A65726F2061 PUSH1 0x44 DUP3 ADD MSTORE PUSH6 0x646472657373 PUSH1 0xD0 SHL PUSH1 0x64 DUP3 ADD MSTORE PUSH1 0x84 SWAP1 REVERT JUMPDEST CALLVALUE PUSH2 0x149 JUMPI PUSH1 0x60 CALLDATASIZE PUSH1 0x3 NOT ADD SLT PUSH2 0x149 JUMPI PUSH1 0x4 CALLDATALOAD PUSH1 0x44 CALLDATALOAD PUSH1 0x1 PUSH1 0x1 PUSH1 0xA0 SHL SUB DUP2 DUP2 AND SWAP2 PUSH1 0x24 CALLDATALOAD SWAP1 DUP4 SWAP1 SUB PUSH2 0x149 JUMPI PUSH32 0x8981FDD74BD05DA9EF8F2AEB472F541EE871B1E9E3908C19D01A9BF51CE5F7AB SWAP3 PUSH1 0xD PUSH1 0x40 SWAP4 PUSH2 0x271 PUSH2 0x1425 JUMP JUMPDEST DUP7 PUSH1 0x0 MSTORE PUSH1 0x2 PUSH1 0x20 MSTORE PUSH2 0x28F DUP6 PUSH1 0x0 KECCAK256 SWAP2 PUSH1 0x1 DUP4 ADD SLOAD AND CALLER EQ PUSH2 0x147B JUMP JUMPDEST PUSH2 0x29F PUSH1 0xFF PUSH1 0xA DUP4 ADD SLOAD AND PUSH2 0x14C0 JUMP JUMPDEST PUSH2 0x2AE PUSH1 0xC DUP3 ADD SLOAD DUP6 LT PUSH2 0x1504 JUMP JUMPDEST DUP4 PUSH1 0x0 MSTORE PUSH1 0xE DUP2 ADD PUSH1 0x20 MSTORE PUSH2 0x2CA PUSH1 0xFF DUP7 PUSH1 0x0 KECCAK256 SLOAD AND ISZERO PUSH2 0x1543 JUMP JUMPDEST DUP4 PUSH1 0x0 MSTORE ADD PUSH1 0x20 MSTORE DUP3 PUSH1 0x0 KECCAK256 DUP2 PUSH1 0x1 PUSH1 0x1 PUSH1 0x60 SHL SUB PUSH1 0xA0 SHL DUP3 SLOAD AND OR SWAP1 SSTORE DUP3 MLOAD SWAP2 DUP3 MSTORE PUSH1 0x20 DUP3 ADD MSTORE LOG2 PUSH1 0x1 DUP1 SSTORE STOP JUMPDEST CALLVALUE PUSH2 0x149 JUMPI PUSH1 0x20 CALLDATASIZE PUSH1 0x3 NOT ADD SLT PUSH2 0x149 JUMPI PUSH1 0x4 CALLDATALOAD PUSH1 0x0 MSTORE PUSH1 0x2 PUSH1 0x20 MSTORE PUSH1 0x40 PUSH1 0x0 KECCAK256 PUSH1 0x1 PUSH1 0xA0 SHL PUSH1 0x1 SWAP1 SUB DUP1 PUSH1 0x1 DUP4 ADD SLOAD AND SWAP1 PUSH1 0x5 DUP4 ADD SLOAD PUSH1 0xFF AND SWAP1 PUSH1 0x6 DUP5 ADD SLOAD SWAP1 PUSH1 0x7 DUP6 ADD SLOAD SWAP1 PUSH1 0x8 DUP7 ADD SLOAD PUSH1 0x9 DUP8 ADD SLOAD PUSH1 0xA DUP9 ADD SLOAD SWAP2 PUSH1 0xB DUP10 ADD SLOAD SWAP5 PUSH1 0xC DUP11 ADD SLOAD SWAP7 PUSH1 0x2 DUP12 ADD PUSH2 0x369 SWAP1 PUSH2 0x11C0 JUMP JUMPDEST SWAP11 PUSH2 0x376 PUSH1 0x3 DUP3 ADD PUSH2 0x11C0 JUMP JUMPDEST SWAP1 PUSH1 0x4 ADD PUSH2 0x383 SWAP1 PUSH2 0x11C0 JUMP JUMPDEST SWAP1 PUSH1 0x40 MLOAD SWAP13 DUP14 SWAP13 DUP14 MSTORE DUP13 PUSH2 0x1A0 PUSH1 0x20 DUP2 SWAP3 ADD MSTORE DUP14 ADD PUSH2 0x3A1 SWAP2 PUSH2 0x1266 JUMP JUMPDEST DUP13 DUP2 SUB PUSH1 0x40 DUP15 ADD MSTORE PUSH2 0x3B2 SWAP2 PUSH2 0x1266 JUMP JUMPDEST DUP12 DUP2 SUB PUSH1 0x60 DUP14 ADD MSTORE PUSH2 0x3C3 SWAP2 PUSH2 0x1266 JUMP JUMPDEST SWAP9 PUSH1 0x80 DUP12 ADD MSTORE PUSH1 0xA0 DUP11 ADD MSTORE PUSH1 0xC0 DUP10 ADD MSTORE PUSH1 0xE0 DUP9 ADD MSTORE PUSH2 0x100 DUP8 ADD MSTORE PUSH1 0xFF DUP2 AND ISZERO ISZERO PUSH2 0x120 DUP8 ADD MSTORE PUSH1 0x8 SHR AND PUSH2 0x140 DUP6 ADD MSTORE PUSH2 0x160 DUP5 ADD MSTORE PUSH2 0x180 DUP4 ADD MSTORE SUB SWAP1 RETURN JUMPDEST CALLVALUE PUSH2 0x149 JUMPI PUSH1 0x0 CALLDATASIZE PUSH1 0x3 NOT ADD SLT PUSH2 0x149 JUMPI PUSH1 0x0 SLOAD PUSH1 0x40 MLOAD PUSH1 0x1 PUSH1 0x1 PUSH1 0xA0 SHL SUB SWAP1 SWAP2 AND DUP2 MSTORE PUSH1 0x20 SWAP1 RETURN JUMPDEST CALLVALUE PUSH2 0x149 JUMPI PUSH2 0x43B CALLDATASIZE PUSH2 0x114E JUMP JUMPDEST PUSH2 0x443 PUSH2 0x1425 JUMP JUMPDEST DUP2 PUSH1 0x0 MSTORE PUSH1 0x20 PUSH1 0x2 DUP2 MSTORE PUSH1 0x40 PUSH1 0x0 KECCAK256 SWAP2 PUSH1 0xA DUP4 ADD SWAP3 PUSH2 0x465 PUSH1 0xFF DUP6 SLOAD AND PUSH2 0x14C0 JUMP JUMPDEST PUSH1 0xC DUP2 ADD PUSH2 0x475 DUP2 SLOAD DUP5 LT PUSH2 0x1504 JUMP JUMPDEST PUSH1 0xD PUSH1 0xE DUP4 ADD SWAP3 DUP5 PUSH1 0x0 MSTORE DUP4 DUP7 MSTORE PUSH2 0x495 PUSH1 0xFF PUSH1 0x40 PUSH1 0x0 KECCAK256 SLOAD AND ISZERO PUSH2 0x1543 JUMP JUMPDEST PUSH1 0x0 DUP6 DUP2 MSTORE SWAP2 ADD DUP6 MSTORE PUSH1 0x40 SWAP1 KECCAK256 SLOAD PUSH1 0x1 PUSH1 0x1 PUSH1 0xA0 SHL SUB SWAP3 SWAP1 DUP4 AND CALLER SUB PUSH2 0x5F1 JUMPI PUSH2 0x4D6 SWAP2 DUP5 SWAP2 DUP3 PUSH1 0x0 MSTORE DUP7 MSTORE PUSH1 0x40 PUSH1 0x0 KECCAK256 PUSH1 0x1 PUSH1 0xFF NOT DUP3 SLOAD AND OR SWAP1 SSTORE PUSH2 0x140D JUMP JUMPDEST SWAP1 SLOAD SWAP1 PUSH1 0x3 SHL SHR SWAP4 SLOAD PUSH1 0x8 SHR AND DUP1 ISZERO PUSH1 0x0 EQ PUSH2 0x558 JUMPI POP DUP3 PUSH1 0x0 DUP2 ISZERO PUSH2 0x54F JUMPI JUMPDEST PUSH1 0x0 DUP1 DUP1 SWAP4 DUP2 SWAP4 CALLER SWAP1 CALL ISZERO PUSH2 0x543 JUMPI PUSH32 0xA8325F46EC9623D7CED8F695FF820511A4ACEF4F5D5C4933BD5D992141A2B905 SWAP3 PUSH1 0x60 SWAP3 JUMPDEST PUSH1 0x40 MLOAD SWAP3 DUP4 MSTORE CALLER SWAP1 DUP4 ADD MSTORE PUSH1 0x40 DUP3 ADD MSTORE LOG2 PUSH1 0x1 DUP1 SSTORE STOP JUMPDEST PUSH1 0x40 MLOAD RETURNDATASIZE PUSH1 0x0 DUP3 RETURNDATACOPY RETURNDATASIZE SWAP1 REVERT JUMPDEST POP PUSH2 0x8FC PUSH2 0x4F7 JUMP JUMPDEST PUSH1 0x40 MLOAD PUSH4 0xA9059CBB PUSH1 0xE0 SHL DUP2 MSTORE CALLER PUSH1 0x4 DUP3 ADD MSTORE PUSH1 0x24 DUP2 ADD DUP6 SWAP1 MSTORE SWAP4 SWAP1 DUP4 SWAP1 DUP6 SWAP1 PUSH1 0x44 SWAP1 DUP3 SWAP1 PUSH1 0x0 SWAP1 GAS CALL SWAP3 DUP4 ISZERO PUSH2 0x543 JUMPI PUSH2 0x5BF PUSH1 0x60 SWAP5 PUSH32 0xA8325F46EC9623D7CED8F695FF820511A4ACEF4F5D5C4933BD5D992141A2B905 SWAP7 PUSH1 0x0 SWAP2 PUSH2 0x5C4 JUMPI JUMPDEST POP PUSH2 0x13C9 JUMP JUMPDEST PUSH2 0x52C JUMP JUMPDEST PUSH2 0x5E4 SWAP2 POP DUP4 RETURNDATASIZE DUP6 GT PUSH2 0x5EA JUMPI JUMPDEST PUSH2 0x5DC DUP2 DUP4 PUSH2 0x119E JUMP JUMPDEST DUP2 ADD SWAP1 PUSH2 0x13B1 JUMP JUMPDEST DUP9 PUSH2 0x5B9 JUMP JUMPDEST POP RETURNDATASIZE PUSH2 0x5D2 JUMP JUMPDEST PUSH1 0x40 MLOAD PUSH3 0x461BCD PUSH1 0xE5 SHL DUP2 MSTORE PUSH1 0x4 DUP2 ADD DUP7 SWAP1 MSTORE PUSH1 0xE PUSH1 0x24 DUP3 ADD MSTORE PUSH14 0x2737BA103A3432903BB4B73732B9 PUSH1 0x91 SHL PUSH1 0x44 DUP3 ADD MSTORE PUSH1 0x64 SWAP1 REVERT JUMPDEST CALLVALUE PUSH2 0x149 JUMPI PUSH1 0x0 CALLDATASIZE PUSH1 0x3 NOT ADD SLT PUSH2 0x149 JUMPI PUSH1 0x20 PUSH1 0x3 SLOAD PUSH1 0x40 MLOAD SWAP1 DUP2 MSTORE RETURN JUMPDEST PUSH2 0x120 CALLDATASIZE PUSH1 0x3 NOT ADD SLT PUSH2 0x149 JUMPI PUSH1 0x4 CALLDATALOAD PUSH8 0xFFFFFFFFFFFFFFFF DUP2 GT PUSH2 0x149 JUMPI PUSH2 0x672 SWAP1 CALLDATASIZE SWAP1 PUSH1 0x4 ADD PUSH2 0x12A6 JUMP JUMPDEST PUSH1 0x24 CALLDATALOAD PUSH8 0xFFFFFFFFFFFFFFFF DUP2 GT PUSH2 0x149 JUMPI PUSH2 0x692 SWAP1 CALLDATASIZE SWAP1 PUSH1 0x4 ADD PUSH2 0x12A6 JUMP JUMPDEST SWAP1 PUSH1 0x44 CALLDATALOAD PUSH8 0xFFFFFFFFFFFFFFFF DUP2 GT PUSH2 0x149 JUMPI PUSH2 0x6B3 SWAP1 CALLDATASIZE SWAP1 PUSH1 0x4 ADD PUSH2 0x12A6 JUMP JUMPDEST SWAP2 PUSH1 0x64 CALLDATALOAD SWAP2 PUSH1 0xFF DUP4 AND DUP4 SUB PUSH2 0x149 JUMPI PUSH1 0xE4 CALLDATALOAD PUSH1 0x1 PUSH1 0x1 PUSH1 0xA0 SHL SUB DUP2 AND SWAP1 SUB PUSH2 0x149 JUMPI PUSH2 0x104 CALLDATALOAD SWAP2 PUSH8 0xFFFFFFFFFFFFFFFF DUP4 GT PUSH2 0x149 JUMPI CALLDATASIZE PUSH1 0x23 DUP5 ADD SLT ISZERO PUSH2 0x149 JUMPI DUP3 PUSH1 0x4 ADD CALLDATALOAD SWAP3 PUSH8 0xFFFFFFFFFFFFFFFF DUP5 GT PUSH2 0x9A5 JUMPI PUSH1 0x40 MLOAD SWAP4 DUP1 PUSH1 0x5 SHL SWAP1 PUSH2 0x71F PUSH1 0x20 DUP4 ADD DUP8 PUSH2 0x119E JUMP JUMPDEST DUP6 MSTORE PUSH1 0x24 PUSH1 0x20 DUP7 ADD SWAP2 DUP4 ADD ADD SWAP2 CALLDATASIZE DUP4 GT PUSH2 0x149 JUMPI PUSH1 0x24 ADD SWAP1 JUMPDEST DUP3 DUP3 LT PUSH2 0xDAD JUMPI POP POP POP PUSH2 0x74A PUSH2 0x1425 JUMP JUMPDEST DUP3 MLOAD ISZERO PUSH2 0xD70 JUMPI PUSH1 0x0 SWAP5 DUP6 JUMPDEST DUP5 MLOAD DUP8 LT ISZERO PUSH2 0x783 JUMPI PUSH2 0x777 PUSH2 0x77D SWAP2 PUSH2 0x770 DUP10 DUP9 PUSH2 0x137A JUMP JUMPDEST MLOAD SWAP1 PUSH2 0x13A4 JUMP JUMPDEST SWAP7 PUSH2 0x1355 JUMP JUMPDEST SWAP6 PUSH2 0x756 JUMP JUMPDEST DUP5 SWAP2 SWAP1 DUP7 PUSH1 0xE4 CALLDATALOAD PUSH1 0x1 PUSH1 0x1 PUSH1 0xA0 SHL SUB AND PUSH2 0xCAD JUMPI DUP2 CALLVALUE SUB PUSH2 0xC68 JUMPI JUMPDEST PUSH1 0x3 SLOAD SWAP3 PUSH2 0x7AC DUP5 PUSH2 0x1355 JUMP JUMPDEST PUSH1 0x3 SSTORE DUP4 PUSH1 0x0 MSTORE PUSH1 0x2 PUSH1 0x20 MSTORE PUSH1 0x40 PUSH1 0x0 KECCAK256 SWAP6 DUP5 DUP8 SSTORE PUSH1 0x1 DUP8 ADD CALLER PUSH1 0x1 PUSH1 0x1 PUSH1 0x60 SHL SUB PUSH1 0xA0 SHL DUP3 SLOAD AND OR SWAP1 SSTORE DUP8 MLOAD PUSH8 0xFFFFFFFFFFFFFFFF DUP2 GT PUSH2 0x9A5 JUMPI PUSH2 0x7F5 PUSH1 0x2 DUP10 ADD SLOAD PUSH2 0x1164 JUMP JUMPDEST PUSH1 0x1F DUP2 GT PUSH2 0xC21 JUMPI JUMPDEST POP DUP1 PUSH1 0x20 PUSH1 0x1F DUP3 GT PUSH1 0x1 EQ PUSH2 0xBB3 JUMPI PUSH1 0x0 SWAP2 PUSH2 0xBA8 JUMPI JUMPDEST POP DUP2 PUSH1 0x1 SHL SWAP2 PUSH1 0x0 NOT SWAP1 PUSH1 0x3 SHL SHR NOT AND OR PUSH1 0x2 DUP9 ADD SSTORE JUMPDEST DUP1 MLOAD SWAP1 PUSH8 0xFFFFFFFFFFFFFFFF DUP3 GT PUSH2 0x9A5 JUMPI DUP2 SWAP1 PUSH2 0x84D PUSH1 0x3 DUP11 ADD SLOAD PUSH2 0x1164 JUMP JUMPDEST PUSH1 0x1F DUP2 GT PUSH2 0xB55 JUMPI JUMPDEST POP PUSH1 0x20 SWAP1 PUSH1 0x1F DUP4 GT PUSH1 0x1 EQ PUSH2 0xAE3 JUMPI PUSH1 0x0 SWAP3 PUSH2 0xAD8 JUMPI JUMPDEST POP POP DUP2 PUSH1 0x1 SHL SWAP2 PUSH1 0x0 NOT SWAP1 PUSH1 0x3 SHL SHR NOT AND OR PUSH1 0x3 DUP8 ADD SSTORE JUMPDEST DUP1 MLOAD SWAP1 PUSH8 0xFFFFFFFFFFFFFFFF DUP3 GT PUSH2 0x9A5 JUMPI DUP2 SWAP1 PUSH2 0x8A6 PUSH1 0x4 DUP10 ADD SLOAD PUSH2 0x1164 JUMP JUMPDEST PUSH1 0x1F DUP2 GT PUSH2 0xA85 JUMPI JUMPDEST POP PUSH1 0x20 SWAP1 PUSH1 0x1F DUP4 GT PUSH1 0x1 EQ PUSH2 0xA10 JUMPI PUSH1 0x0 SWAP3 PUSH2 0xA05 JUMPI JUMPDEST POP POP DUP2 PUSH1 0x1 SHL SWAP2 PUSH1 0x0 NOT SWAP1 PUSH1 0x3 SHL SHR NOT AND OR PUSH1 0x4 DUP7 ADD SSTORE SWAP5 SWAP4 SWAP5 JUMPDEST PUSH1 0xFF PUSH1 0x5 DUP8 ADD SWAP2 AND PUSH1 0xFF NOT DUP3 SLOAD AND OR SWAP1 SSTORE PUSH1 0x84 CALLDATALOAD PUSH1 0x6 DUP7 ADD SSTORE TIMESTAMP PUSH1 0x7 DUP7 ADD SSTORE PUSH1 0xC4 CALLDATALOAD PUSH1 0x8 DUP7 ADD SSTORE PUSH1 0xA4 CALLDATALOAD PUSH1 0x9 DUP7 ADD SSTORE PUSH1 0xA DUP6 ADD PUSH1 0x1 DUP2 SLOAD PUSH2 0x100 DUP3 PUSH1 0xA8 SHL SUB PUSH1 0xE4 CALLDATALOAD PUSH1 0x8 SHL AND SWAP1 PUSH11 0xFFFFFFFFFFFFFFFFFFFFFF PUSH1 0xA8 SHL AND OR OR SWAP1 SSTORE PUSH1 0xB DUP6 ADD SSTORE PUSH1 0xC PUSH1 0x0 SWAP5 ADD SWAP4 JUMPDEST DUP3 MLOAD DUP2 LT ISZERO PUSH2 0x9BB JUMPI PUSH2 0x95C DUP2 DUP5 PUSH2 0x137A JUMP JUMPDEST MLOAD SWAP1 DUP6 SLOAD SWAP2 PUSH9 0x10000000000000000 DUP4 LT ISZERO PUSH2 0x9A5 JUMPI PUSH2 0x985 DUP4 PUSH1 0x1 PUSH2 0x9A0 SWAP6 ADD DUP10 SSTORE DUP9 PUSH2 0x140D JUMP JUMPDEST DUP2 SWAP3 SWAP2 SLOAD SWAP1 PUSH1 0x3 SHL SWAP2 DUP3 SHL SWAP2 PUSH1 0x0 NOT SWAP1 SHL NOT AND OR SWAP1 SSTORE PUSH2 0x1355 JUMP JUMPDEST PUSH2 0x949 JUMP JUMPDEST PUSH4 0x4E487B71 PUSH1 0xE0 SHL PUSH1 0x0 MSTORE PUSH1 0x41 PUSH1 0x4 MSTORE PUSH1 0x24 PUSH1 0x0 REVERT JUMPDEST PUSH1 0x20 DUP3 DUP6 DUP2 PUSH32 0xBD34BA7C23E010B2FA639A38C057CF452062C6645A1C102ADBEE46D0B37B8669 PUSH1 0x40 MLOAD DUP6 DUP2 MSTORE DUP1 PUSH2 0x9F6 CALLER SWAP6 DUP9 DUP4 ADD SWAP1 PUSH2 0x1266 JUMP JUMPDEST SUB SWAP1 LOG3 PUSH1 0x1 DUP1 SSTORE PUSH1 0x40 MLOAD SWAP1 DUP2 MSTORE RETURN JUMPDEST ADD MLOAD SWAP1 POP DUP9 DUP1 PUSH2 0x8C6 JUMP JUMPDEST SWAP3 POP PUSH1 0x4 DUP9 ADD PUSH1 0x0 MSTORE PUSH1 0x20 PUSH1 0x0 KECCAK256 SWAP1 PUSH1 0x0 SWAP4 JUMPDEST PUSH1 0x1F NOT DUP5 AND DUP6 LT PUSH2 0xA6A JUMPI PUSH1 0x1 SWAP5 POP DUP4 PUSH1 0x1F NOT DUP2 AND LT PUSH2 0xA51 JUMPI JUMPDEST POP POP POP DUP2 SHL ADD PUSH1 0x4 DUP7 ADD SSTORE SWAP5 SWAP4 SWAP5 PUSH2 0x8E1 JUMP JUMPDEST ADD MLOAD PUSH1 0x0 NOT PUSH1 0xF8 DUP5 PUSH1 0x3 SHL AND SHR NOT AND SWAP1 SSTORE DUP9 DUP1 DUP1 PUSH2 0xA3E JUMP JUMPDEST DUP2 DUP2 ADD MLOAD DUP4 SSTORE PUSH1 0x20 SWAP5 DUP6 ADD SWAP5 PUSH1 0x1 SWAP1 SWAP4 ADD SWAP3 SWAP1 SWAP2 ADD SWAP1 PUSH2 0xA23 JUMP JUMPDEST SWAP1 SWAP2 POP PUSH1 0x4 DUP9 ADD PUSH1 0x0 MSTORE PUSH1 0x20 PUSH1 0x0 KECCAK256 PUSH1 0x1F DUP5 ADD PUSH1 0x5 SHR DUP2 ADD PUSH1 0x20 DUP6 LT PUSH2 0xAD1 JUMPI JUMPDEST SWAP1 DUP5 SWAP4 SWAP3 SWAP2 JUMPDEST PUSH1 0x1F DUP4 ADD PUSH1 0x5 SHR DUP3 ADD DUP2 LT PUSH2 0xAC2 JUMPI POP POP PUSH2 0x8AF JUMP JUMPDEST PUSH1 0x0 DUP2 SSTORE DUP6 SWAP5 POP PUSH1 0x1 ADD PUSH2 0xAAC JUMP JUMPDEST POP DUP1 PUSH2 0xAA6 JUMP JUMPDEST ADD MLOAD SWAP1 POP DUP10 DUP1 PUSH2 0x86D JUMP JUMPDEST SWAP3 POP PUSH1 0x3 DUP10 ADD PUSH1 0x0 MSTORE PUSH1 0x20 PUSH1 0x0 KECCAK256 SWAP1 PUSH1 0x0 SWAP4 JUMPDEST PUSH1 0x1F NOT DUP5 AND DUP6 LT PUSH2 0xB3A JUMPI PUSH1 0x1 SWAP5 POP DUP4 PUSH1 0x1F NOT DUP2 AND LT PUSH2 0xB21 JUMPI JUMPDEST POP POP POP DUP2 SHL ADD PUSH1 0x3 DUP8 ADD SSTORE PUSH2 0x885 JUMP JUMPDEST ADD MLOAD PUSH1 0x0 NOT PUSH1 0xF8 DUP5 PUSH1 0x3 SHL AND SHR NOT AND SWAP1 SSTORE DUP10 DUP1 DUP1 PUSH2 0xB11 JUMP JUMPDEST DUP2 DUP2 ADD MLOAD DUP4 SSTORE PUSH1 0x20 SWAP5 DUP6 ADD SWAP5 PUSH1 0x1 SWAP1 SWAP4 ADD SWAP3 SWAP1 SWAP2 ADD SWAP1 PUSH2 0xAF6 JUMP JUMPDEST SWAP1 SWAP2 POP PUSH1 0x3 DUP10 ADD PUSH1 0x0 MSTORE PUSH1 0x20 PUSH1 0x0 KECCAK256 PUSH1 0x1F DUP5 ADD PUSH1 0x5 SHR DUP2 ADD PUSH1 0x20 DUP6 LT PUSH2 0xBA1 JUMPI JUMPDEST SWAP1 DUP5 SWAP4 SWAP3 SWAP2 JUMPDEST PUSH1 0x1F DUP4 ADD PUSH1 0x5 SHR DUP3 ADD DUP2 LT PUSH2 0xB92 JUMPI POP POP PUSH2 0x856 JUMP JUMPDEST PUSH1 0x0 DUP2 SSTORE DUP6 SWAP5 POP PUSH1 0x1 ADD PUSH2 0xB7C JUMP JUMPDEST POP DUP1 PUSH2 0xB76 JUMP JUMPDEST SWAP1 POP DUP10 ADD MLOAD DUP11 PUSH2 0x815 JUMP JUMPDEST SWAP2 POP PUSH1 0x2 DUP10 ADD PUSH1 0x0 MSTORE PUSH1 0x20 PUSH1 0x0 KECCAK256 PUSH1 0x0 SWAP3 JUMPDEST DUP12 PUSH1 0x1F NOT DUP5 AND DUP6 LT PUSH2 0xC0A JUMPI POP PUSH1 0x1 SWAP4 POP DUP3 PUSH1 0x1F NOT DUP2 AND LT PUSH2 0xBF1 JUMPI JUMPDEST POP POP DUP2 SHL ADD PUSH1 0x2 DUP9 ADD SSTORE PUSH2 0x82C JUMP JUMPDEST DUP12 ADD MLOAD PUSH1 0x0 NOT PUSH1 0xF8 DUP5 PUSH1 0x3 SHL AND SHR NOT AND SWAP1 SSTORE DUP11 DUP1 PUSH2 0xBE2 JUMP JUMPDEST DUP2 ADD MLOAD DUP3 SSTORE PUSH1 0x20 SWAP4 DUP5 ADD SWAP4 PUSH1 0x1 SWAP1 SWAP3 ADD SWAP2 ADD PUSH2 0xBC5 JUMP JUMPDEST PUSH1 0x2 DUP10 ADD PUSH1 0x0 MSTORE PUSH1 0x20 PUSH1 0x0 KECCAK256 PUSH1 0x1F DUP4 ADD PUSH1 0x5 SHR DUP2 ADD PUSH1 0x20 DUP5 LT PUSH2 0xC61 JUMPI JUMPDEST PUSH1 0x1F DUP4 ADD PUSH1 0x5 SHR DUP3 ADD DUP2 LT PUSH2 0xC55 JUMPI POP POP PUSH2 0x7FE JUMP JUMPDEST PUSH1 0x0 DUP2 SSTORE PUSH1 0x1 ADD PUSH2 0xC3F JUMP JUMPDEST POP DUP1 PUSH2 0xC3F JUMP JUMPDEST PUSH1 0x40 MLOAD PUSH3 0x461BCD PUSH1 0xE5 SHL DUP2 MSTORE PUSH1 0x20 PUSH1 0x4 DUP3 ADD MSTORE PUSH1 0x1C PUSH1 0x24 DUP3 ADD MSTORE PUSH32 0x496E636F72726563742072657761726420616D6F756E742073656E7400000000 PUSH1 0x44 DUP3 ADD MSTORE PUSH1 0x64 SWAP1 REVERT JUMPDEST CALLVALUE PUSH2 0xD1D JUMPI PUSH1 0x40 MLOAD PUSH4 0x23B872DD PUSH1 0xE0 SHL DUP2 MSTORE CALLER PUSH1 0x4 DUP3 ADD MSTORE ADDRESS PUSH1 0x24 DUP3 ADD MSTORE PUSH1 0x44 DUP2 ADD DUP4 SWAP1 MSTORE PUSH1 0x20 DUP2 PUSH1 0x64 DUP2 PUSH1 0x0 PUSH1 0xE4 CALLDATALOAD PUSH1 0x1 PUSH1 0x1 PUSH1 0xA0 SHL SUB AND GAS CALL DUP1 ISZERO PUSH2 0x543 JUMPI PUSH2 0xCFF SWAP2 PUSH1 0x0 SWAP2 PUSH2 0xD04 JUMPI POP PUSH2 0x13C9 JUMP JUMPDEST PUSH2 0x79F JUMP JUMPDEST PUSH2 0x5E4 SWAP2 POP PUSH1 0x20 RETURNDATASIZE PUSH1 0x20 GT PUSH2 0x5EA JUMPI PUSH2 0x5DC DUP2 DUP4 PUSH2 0x119E JUMP JUMPDEST PUSH1 0x40 MLOAD PUSH3 0x461BCD PUSH1 0xE5 SHL DUP2 MSTORE PUSH1 0x20 PUSH1 0x4 DUP3 ADD MSTORE PUSH1 0x25 PUSH1 0x24 DUP3 ADD MSTORE PUSH32 0x446F6E27742073656E6420524F4E207769746820746F6B656E20746F75726E61 PUSH1 0x44 DUP3 ADD MSTORE PUSH5 0x6D656E7473 PUSH1 0xD8 SHL PUSH1 0x64 DUP3 ADD MSTORE PUSH1 0x84 SWAP1 REVERT JUMPDEST PUSH1 0x40 MLOAD PUSH3 0x461BCD PUSH1 0xE5 SHL DUP2 MSTORE PUSH1 0x20 PUSH1 0x4 DUP3 ADD MSTORE PUSH1 0x15 PUSH1 0x24 DUP3 ADD MSTORE PUSH21 0x139BC81C1BDCDA5D1A5BDB9CC81C1C9BDD9A591959 PUSH1 0x5A SHL PUSH1 0x44 DUP3 ADD MSTORE PUSH1 0x64 SWAP1 REVERT JUMPDEST DUP2 CALLDATALOAD DUP2 MSTORE PUSH1 0x20 SWAP2 DUP3 ADD SWAP2 ADD PUSH2 0x738 JUMP JUMPDEST CALLVALUE PUSH2 0x149 JUMPI PUSH1 0x20 CALLDATASIZE PUSH1 0x3 NOT ADD SLT PUSH2 0x149 JUMPI PUSH1 0x4 CALLDATALOAD PUSH1 0x0 MSTORE PUSH1 0x2 PUSH1 0x20 MSTORE PUSH1 0x40 PUSH1 0x0 KECCAK256 DUP1 SLOAD PUSH1 0x1 PUSH1 0xA0 SHL PUSH1 0x1 SWAP1 SUB SWAP2 DUP3 PUSH1 0x1 DUP3 ADD SLOAD AND SWAP3 PUSH1 0x2 DUP3 ADD PUSH2 0xDFF SWAP1 PUSH2 0x11C0 JUMP JUMPDEST SWAP1 PUSH2 0xE0C PUSH1 0x3 DUP5 ADD PUSH2 0x11C0 JUMP JUMPDEST SWAP3 PUSH2 0xE19 PUSH1 0x4 DUP3 ADD PUSH2 0x11C0 JUMP JUMPDEST SWAP4 PUSH1 0x5 DUP3 ADD SLOAD PUSH1 0xFF AND SWAP5 PUSH1 0x6 DUP4 ADD SLOAD PUSH1 0x7 DUP5 ADD SLOAD SWAP1 PUSH1 0x8 DUP6 ADD SLOAD SWAP3 PUSH1 0x9 DUP7 ADD SLOAD SWAP5 PUSH1 0xA DUP8 ADD SLOAD SWAP7 PUSH1 0xB ADD SLOAD SWAP9 PUSH1 0x40 MLOAD SWAP13 DUP14 SWAP13 DUP14 MSTORE PUSH1 0x20 DUP14 ADD MSTORE DUP12 PUSH2 0x1A0 PUSH1 0x40 DUP2 SWAP3 ADD MSTORE DUP13 ADD PUSH2 0xE67 SWAP2 PUSH2 0x1266 JUMP JUMPDEST DUP12 DUP2 SUB PUSH1 0x60 DUP14 ADD MSTORE PUSH2 0xE78 SWAP2 PUSH2 0x1266 JUMP JUMPDEST DUP11 DUP2 SUB PUSH1 0x80 DUP13 ADD MSTORE PUSH2 0xE89 SWAP2 PUSH2 0x1266 JUMP JUMPDEST SWAP8 PUSH1 0xA0 DUP11 ADD MSTORE PUSH1 0xC0 DUP10 ADD MSTORE PUSH1 0xE0 DUP9 ADD MSTORE PUSH2 0x100 DUP8 ADD MSTORE PUSH2 0x120 DUP7 ADD MSTORE PUSH1 0xFF DUP2 AND ISZERO ISZERO PUSH2 0x140 DUP7 ADD MSTORE PUSH1 0x8 SHR AND PUSH2 0x160 DUP5 ADD MSTORE PUSH2 0x180 DUP4 ADD MSTORE SUB SWAP1 RETURN JUMPDEST CALLVALUE PUSH2 0x149 JUMPI PUSH1 0x0 CALLDATASIZE PUSH1 0x3 NOT ADD SLT PUSH2 0x149 JUMPI PUSH2 0xEDE PUSH2 0x12FD JUMP JUMPDEST PUSH1 0x0 DUP1 SLOAD PUSH1 0x1 PUSH1 0x1 PUSH1 0xA0 SHL SUB NOT DUP2 AND DUP3 SSTORE PUSH1 0x1 PUSH1 0x1 PUSH1 0xA0 SHL SUB AND PUSH32 0x8BE0079C531659141344CD1FD0A4F28419497F9722A3DAAFE3B4186F6B6457E0 DUP3 DUP1 LOG3 STOP JUMPDEST CALLVALUE PUSH2 0x149 JUMPI PUSH1 0x60 PUSH2 0xF2E CALLDATASIZE PUSH2 0x114E JUMP JUMPDEST SWAP1 PUSH1 0x0 MSTORE PUSH1 0x2 PUSH1 0x20 MSTORE PUSH1 0x40 PUSH1 0x0 KECCAK256 SWAP1 PUSH2 0xF56 DUP2 PUSH1 0xC DUP5 ADD PUSH2 0xF51 DUP2 SLOAD DUP4 LT PUSH2 0x1504 JUMP JUMPDEST PUSH2 0x140D JUMP JUMPDEST SWAP3 SWAP1 SLOAD SWAP2 PUSH1 0x0 MSTORE PUSH1 0xD DUP2 ADD PUSH1 0x20 MSTORE PUSH1 0xE PUSH1 0x1 DUP1 PUSH1 0xA0 SHL SUB PUSH1 0x40 PUSH1 0x0 KECCAK256 SLOAD AND SWAP2 ADD PUSH1 0x20 MSTORE PUSH1 0xFF PUSH1 0x40 PUSH1 0x0 KECCAK256 SLOAD AND SWAP2 PUSH1 0x40 MLOAD SWAP4 PUSH1 0x3 SHL SHR DUP4 MSTORE PUSH1 0x20 DUP4 ADD MSTORE ISZERO ISZERO PUSH1 0x40 DUP3 ADD MSTORE RETURN JUMPDEST CALLVALUE PUSH2 0x149 JUMPI PUSH1 0x20 DUP1 PUSH1 0x3 NOT CALLDATASIZE ADD SLT PUSH2 0x149 JUMPI PUSH1 0x4 CALLDATALOAD SWAP1 PUSH2 0xFB9 PUSH2 0x1425 JUMP JUMPDEST DUP2 PUSH1 0x0 MSTORE PUSH1 0x2 DUP2 MSTORE PUSH1 0x40 PUSH1 0x0 KECCAK256 PUSH1 0x1 DUP2 ADD PUSH1 0x1 DUP1 PUSH1 0xA0 SHL SUB SWAP1 DUP2 DUP2 SLOAD AND SWAP4 PUSH2 0xFE2 DUP6 CALLER EQ PUSH2 0x147B JUMP JUMPDEST PUSH1 0xA DUP5 ADD SWAP5 DUP6 SLOAD SWAP5 PUSH1 0xFF SWAP7 PUSH2 0xFF8 DUP9 DUP9 AND PUSH2 0x14C0 JUMP JUMPDEST PUSH1 0xFF NOT DUP8 AND SWAP1 SSTORE PUSH1 0xC DUP2 ADD DUP1 SLOAD PUSH1 0x0 SWAP9 SWAP1 SWAP3 PUSH1 0xE ADD DUP10 JUMPDEST DUP5 DUP2 LT PUSH2 0x1104 JUMPI POP POP POP POP POP DUP6 ISZERO SWAP5 DUP6 ISZERO PUSH2 0x1051 JUMPI JUMPDEST DUP8 PUSH32 0xFA61EC8D7E5A58CEBA17772B10BA0C6CAA65B40B200302BE35F00EFC264C7895 PUSH1 0x0 DUP1 LOG2 PUSH1 0x1 DUP1 SSTORE STOP JUMPDEST PUSH1 0x8 SHR DUP5 AND SWAP1 DUP2 PUSH2 0x108E JUMPI POP POP POP PUSH1 0x0 SWAP4 DUP5 SWAP4 DUP5 SWAP4 DUP5 SWAP4 SLOAD AND SWAP1 DUP4 SWAP1 PUSH2 0x1085 JUMPI JUMPDEST CALL ISZERO PUSH2 0x543 JUMPI JUMPDEST DUP2 DUP1 DUP1 DUP1 DUP1 DUP1 DUP1 PUSH2 0x1025 JUMP JUMPDEST POP PUSH2 0x8FC PUSH2 0x1072 JUMP JUMPDEST PUSH1 0x40 MLOAD PUSH4 0xA9059CBB PUSH1 0xE0 SHL DUP2 MSTORE PUSH1 0x1 PUSH1 0x1 PUSH1 0xA0 SHL SUB SWAP2 SWAP1 SWAP2 AND PUSH1 0x4 DUP3 ADD MSTORE PUSH1 0x24 DUP2 ADD SWAP7 SWAP1 SWAP7 MSTORE SWAP1 SWAP5 SWAP4 POP DUP5 SWAP3 POP DUP4 SWAP2 POP PUSH1 0x44 SWAP1 DUP3 SWAP1 PUSH1 0x0 SWAP1 GAS CALL SWAP1 DUP2 ISZERO PUSH2 0x543 JUMPI PUSH2 0x10E2 SWAP3 PUSH1 0x0 SWAP3 PUSH2 0x10E7 JUMPI JUMPDEST POP POP PUSH2 0x13C9 JUMP JUMPDEST PUSH2 0x1079 JUMP JUMPDEST PUSH2 0x10FD SWAP3 POP DUP1 RETURNDATASIZE LT PUSH2 0x5EA JUMPI PUSH2 0x5DC DUP2 DUP4 PUSH2 0x119E JUMP JUMPDEST DUP4 DUP1 PUSH2 0x10DB JUMP JUMPDEST DUP1 PUSH1 0x0 MSTORE DUP2 DUP8 MSTORE DUP3 PUSH1 0x40 PUSH1 0x0 KECCAK256 SLOAD AND ISZERO PUSH2 0x1127 JUMPI JUMPDEST PUSH2 0x1122 SWAP1 PUSH2 0x1355 JUMP JUMPDEST PUSH2 0x100F JUMP JUMPDEST SWAP10 PUSH2 0x1146 PUSH2 0x1122 SWAP2 PUSH2 0x1139 DUP14 DUP8 PUSH2 0x140D JUMP JUMPDEST SWAP1 SLOAD SWAP1 PUSH1 0x3 SHL SHR SWAP1 PUSH2 0x13A4 JUMP JUMPDEST SWAP11 SWAP1 POP PUSH2 0x1119 JUMP JUMPDEST PUSH1 0x40 SWAP1 PUSH1 0x3 NOT ADD SLT PUSH2 0x149 JUMPI PUSH1 0x4 CALLDATALOAD SWAP1 PUSH1 0x24 CALLDATALOAD SWAP1 JUMP JUMPDEST SWAP1 PUSH1 0x1 DUP3 DUP2 SHR SWAP3 AND DUP1 ISZERO PUSH2 0x1194 JUMPI JUMPDEST PUSH1 0x20 DUP4 LT EQ PUSH2 0x117E JUMPI JUMP JUMPDEST PUSH4 0x4E487B71 PUSH1 0xE0 SHL PUSH1 0x0 MSTORE PUSH1 0x22 PUSH1 0x4 MSTORE PUSH1 0x24 PUSH1 0x0 REVERT JUMPDEST SWAP2 PUSH1 0x7F AND SWAP2 PUSH2 0x1173 JUMP JUMPDEST SWAP1 PUSH1 0x1F DUP1 NOT SWAP2 ADD AND DUP2 ADD SWAP1 DUP2 LT PUSH8 0xFFFFFFFFFFFFFFFF DUP3 GT OR PUSH2 0x9A5 JUMPI PUSH1 0x40 MSTORE JUMP JUMPDEST SWAP1 PUSH1 0x40 MLOAD SWAP2 DUP3 PUSH1 0x0 DUP3 SLOAD SWAP3 PUSH2 0x11D4 DUP5 PUSH2 0x1164 JUMP JUMPDEST SWAP1 DUP2 DUP5 MSTORE PUSH1 0x1 SWAP5 DUP6 DUP2 AND SWAP1 DUP2 PUSH1 0x0 EQ PUSH2 0x1243 JUMPI POP PUSH1 0x1 EQ PUSH2 0x1200 JUMPI JUMPDEST POP POP PUSH2 0x11FE SWAP3 POP SUB DUP4 PUSH2 0x119E JUMP JUMPDEST JUMP JUMPDEST SWAP1 SWAP4 SWAP2 POP PUSH1 0x0 MSTORE PUSH1 0x20 SWAP1 DUP2 PUSH1 0x0 KECCAK256 SWAP4 PUSH1 0x0 SWAP2 JUMPDEST DUP2 DUP4 LT PUSH2 0x122B JUMPI POP POP PUSH2 0x11FE SWAP4 POP DUP3 ADD ADD CODESIZE DUP1 PUSH2 0x11F0 JUMP JUMPDEST DUP6 SLOAD DUP9 DUP5 ADD DUP6 ADD MSTORE SWAP5 DUP6 ADD SWAP5 DUP8 SWAP5 POP SWAP2 DUP4 ADD SWAP2 PUSH2 0x1213 JUMP JUMPDEST SWAP2 POP POP PUSH2 0x11FE SWAP5 POP PUSH1 0x20 SWAP3 POP PUSH1 0xFF NOT AND DUP3 DUP5 ADD MSTORE ISZERO ISZERO PUSH1 0x5 SHL DUP3 ADD ADD CODESIZE DUP1 PUSH2 0x11F0 JUMP JUMPDEST SWAP2 SWAP1 DUP3 MLOAD SWAP3 DUP4 DUP3 MSTORE PUSH1 0x0 JUMPDEST DUP5 DUP2 LT PUSH2 0x1292 JUMPI POP POP DUP3 PUSH1 0x0 PUSH1 0x20 DUP1 SWAP5 SWAP6 DUP5 ADD ADD MSTORE PUSH1 0x1F DUP1 NOT SWAP2 ADD AND ADD ADD SWAP1 JUMP JUMPDEST PUSH1 0x20 DUP2 DUP4 ADD DUP2 ADD MLOAD DUP5 DUP4 ADD DUP3 ADD MSTORE ADD PUSH2 0x1271 JUMP JUMPDEST DUP2 PUSH1 0x1F DUP3 ADD SLT ISZERO PUSH2 0x149 JUMPI DUP1 CALLDATALOAD SWAP1 PUSH8 0xFFFFFFFFFFFFFFFF DUP3 GT PUSH2 0x9A5 JUMPI PUSH1 0x40 MLOAD SWAP3 PUSH2 0x12DB PUSH1 0x1F DUP5 ADD PUSH1 0x1F NOT AND PUSH1 0x20 ADD DUP6 PUSH2 0x119E JUMP JUMPDEST DUP3 DUP5 MSTORE PUSH1 0x20 DUP4 DUP4 ADD ADD GT PUSH2 0x149 JUMPI DUP2 PUSH1 0x0 SWAP3 PUSH1 0x20 DUP1 SWAP4 ADD DUP4 DUP7 ADD CALLDATACOPY DUP4 ADD ADD MSTORE SWAP1 JUMP JUMPDEST PUSH1 0x0 SLOAD PUSH1 0x1 PUSH1 0x1 PUSH1 0xA0 SHL SUB AND CALLER SUB PUSH2 0x1311 JUMPI JUMP JUMPDEST PUSH1 0x64 PUSH1 0x40 MLOAD PUSH3 0x461BCD PUSH1 0xE5 SHL DUP2 MSTORE PUSH1 0x20 PUSH1 0x4 DUP3 ADD MSTORE PUSH1 0x20 PUSH1 0x24 DUP3 ADD MSTORE PUSH32 0x4F776E61626C653A2063616C6C6572206973206E6F7420746865206F776E6572 PUSH1 0x44 DUP3 ADD MSTORE REVERT JUMPDEST PUSH1 0x0 NOT DUP2 EQ PUSH2 0x1364 JUMPI PUSH1 0x1 ADD SWAP1 JUMP JUMPDEST PUSH4 0x4E487B71 PUSH1 0xE0 SHL PUSH1 0x0 MSTORE PUSH1 0x11 PUSH1 0x4 MSTORE PUSH1 0x24 PUSH1 0x0 REVERT JUMPDEST DUP1 MLOAD DUP3 LT ISZERO PUSH2 0x138E JUMPI PUSH1 0x20 SWAP2 PUSH1 0x5 SHL ADD ADD SWAP1 JUMP JUMPDEST PUSH4 0x4E487B71 PUSH1 0xE0 SHL PUSH1 0x0 MSTORE PUSH1 0x32 PUSH1 0x4 MSTORE PUSH1 0x24 PUSH1 0x0 REVERT JUMPDEST SWAP2 SWAP1 DUP3 ADD DUP1 SWAP3 GT PUSH2 0x1364 JUMPI JUMP JUMPDEST SWAP1 DUP2 PUSH1 0x20 SWAP2 SUB SLT PUSH2 0x149 JUMPI MLOAD DUP1 ISZERO ISZERO DUP2 SUB PUSH2 0x149 JUMPI SWAP1 JUMP JUMPDEST ISZERO PUSH2 0x13D0 JUMPI JUMP JUMPDEST PUSH1 0x40 MLOAD PUSH3 0x461BCD PUSH1 0xE5 SHL DUP2 MSTORE PUSH1 0x20 PUSH1 0x4 DUP3 ADD MSTORE PUSH1 0x15 PUSH1 0x24 DUP3 ADD MSTORE PUSH21 0x151BDAD95B881D1C985B9CD9995C8819985A5B1959 PUSH1 0x5A SHL PUSH1 0x44 DUP3 ADD MSTORE PUSH1 0x64 SWAP1 REVERT JUMPDEST DUP1 SLOAD DUP3 LT ISZERO PUSH2 0x138E JUMPI PUSH1 0x0 MSTORE PUSH1 0x20 PUSH1 0x0 KECCAK256 ADD SWAP1 PUSH1 0x0 SWAP1 JUMP JUMPDEST PUSH1 0x2 PUSH1 0x1 SLOAD EQ PUSH2 0x1436 JUMPI PUSH1 0x2 PUSH1 0x1 SSTORE JUMP JUMPDEST PUSH1 0x40 MLOAD PUSH3 0x461BCD PUSH1 0xE5 SHL DUP2 MSTORE PUSH1 0x20 PUSH1 0x4 DUP3 ADD MSTORE PUSH1 0x1F PUSH1 0x24 DUP3 ADD MSTORE PUSH32 0x5265656E7472616E637947756172643A207265656E7472616E742063616C6C00 PUSH1 0x44 DUP3 ADD MSTORE PUSH1 0x64 SWAP1 REVERT JUMPDEST ISZERO PUSH2 0x1482 JUMPI JUMP JUMPDEST PUSH1 0x40 MLOAD PUSH3 0x461BCD PUSH1 0xE5 SHL DUP2 MSTORE PUSH1 0x20 PUSH1 0x4 DUP3 ADD MSTORE PUSH1 0x16 PUSH1 0x24 DUP3 ADD MSTORE PUSH22 0x2737BA103A37BAB93730B6B2B73A1031B932B0BA37B9 PUSH1 0x51 SHL PUSH1 0x44 DUP3 ADD MSTORE PUSH1 0x64 SWAP1 REVERT JUMPDEST ISZERO PUSH2 0x14C7 JUMPI JUMP JUMPDEST PUSH1 0x40 MLOAD PUSH3 0x461BCD PUSH1 0xE5 SHL DUP2 MSTORE PUSH1 0x20 PUSH1 0x4 DUP3 ADD MSTORE PUSH1 0x15 PUSH1 0x24 DUP3 ADD MSTORE PUSH21 0x546F75726E616D656E74206E6F7420616374697665 PUSH1 0x58 SHL PUSH1 0x44 DUP3 ADD MSTORE PUSH1 0x64 SWAP1 REVERT JUMPDEST ISZERO PUSH2 0x150B JUMPI JUMP JUMPDEST PUSH1 0x40 MLOAD PUSH3 0x461BCD PUSH1 0xE5 SHL DUP2 MSTORE PUSH1 0x20 PUSH1 0x4 DUP3 ADD MSTORE PUSH1 0x10 PUSH1 0x24 DUP3 ADD MSTORE PUSH16 0x24B73B30B634B2103837B9B4BA34B7B7 PUSH1 0x81 SHL PUSH1 0x44 DUP3 ADD MSTORE PUSH1 0x64 SWAP1 REVERT JUMPDEST ISZERO PUSH2 0x154A JUMPI JUMP JUMPDEST PUSH1 0x40 MLOAD PUSH3 0x461BCD PUSH1 0xE5 SHL DUP2 MSTORE PUSH1 0x20 PUSH1 0x4 DUP3 ADD MSTORE PUSH1 0x18 PUSH1 0x24 DUP3 ADD MSTORE PUSH32 0x506F736974696F6E20616C726561647920636C61696D65640000000000000000 PUSH1 0x44 DUP3 ADD MSTORE PUSH1 0x64 SWAP1 REVERT INVALID LOG2 PUSH5 0x6970667358 0x22 SLT KECCAK256 MULMOD CALLDATASIZE SWAP4 SWAP5 SWAP16 SUB 0xD8 0xE9 PUSH22 0xDC76BF1D311B73EA947DD7BFF952C61C6973C4F7C4EB 0xEC PUSH5 0x736F6C6343 STOP ADDMOD EQ STOP CALLER "},"methodIdentifiers":{"cancelTournament(uint256)":"32432233","claimReward(uint256,uint256)":"86bb8f37","createTournament(string,string,string,uint8,uint256,uint256,uint256,address,uint256[])":"79c13f8a","declareWinner(uint256,uint256,address)":"d533344f","getPositionInfo(uint256,uint256)":"67e820ad","getPositionRewardAmounts(uint256)":"f37aa509","getTournamentInfo(uint256)":"cac766d2","nextTournamentId()":"852efc3d","owner()":"8da5cb5b","renounceOwnership()":"715018a6","tournaments(uint256)":"7503e1b7","transferOwnership(address)":"f2fde38b"}}}}}