{
  "_format": "hh-sol-artifact-1",
  "contractName": "TournamentEscrowV2",
  "sourceName": "contracts/TournamentEscrowV2.sol",
  "abi": [
    {
      "anonymous": false,
      "inputs": [
        {
          "indexed": true,
          "internalType": "uint256",
          "name": "tournamentId",
          "type": "uint256"
        },
        {
          "indexed": true,
          "internalType": "address",
          "name": "creator",
          "type": "address"
        },
        {
          "indexed": false,
          "internalType": "uint256",
          "name": "amount",
          "type": "uint256"
        }
      ],
      "name": "EntryFeesCollected",
      "type": "event"
    },
    {
      "anonymous": false,
      "inputs": [
        {
          "indexed": true,
          "internalType": "address",
          "name": "previousOwner",
          "type": "address"
        },
        {
          "indexed": true,
          "internalType": "address",
          "name": "newOwner",
          "type": "address"
        }
      ],
      "name": "OwnershipTransferred",
      "type": "event"
    },
    {
      "anonymous": false,
      "inputs": [
        {
          "indexed": true,
          "internalType": "uint256",
          "name": "tournamentId",
          "type": "uint256"
        },
        {
          "indexed": true,
          "internalType": "address",
          "name": "participant",
          "type": "address"
        }
      ],
      "name": "ParticipantRegistered",
      "type": "event"
    },
    {
      "anonymous": false,
      "inputs": [
        {
          "indexed": true,
          "internalType": "address",
          "name": "token",
          "type": "address"
        },
        {
          "indexed": true,
          "internalType": "address",
          "name": "recipient",
          "type": "address"
        },
        {
          "indexed": false,
          "internalType": "uint256",
          "name": "amount",
          "type": "uint256"
        }
      ],
      "name": "PlatformFeesWithdrawn",
      "type": "event"
    },
    {
      "anonymous": false,
      "inputs": [
        {
          "indexed": true,
          "internalType": "uint256",
          "name": "tournamentId",
          "type": "uint256"
        },
        {
          "indexed": false,
          "internalType": "uint256",
          "name": "position",
          "type": "uint256"
        },
        {
          "indexed": false,
          "internalType": "address",
          "name": "winner",
          "type": "address"
        },
        {
          "indexed": false,
          "internalType": "uint256",
          "name": "amount",
          "type": "uint256"
        }
      ],
      "name": "RewardClaimed",
      "type": "event"
    },
    {
      "anonymous": false,
      "inputs": [
        {
          "indexed": true,
          "internalType": "uint256",
          "name": "tournamentId",
          "type": "uint256"
        }
      ],
      "name": "TournamentCancelled",
      "type": "event"
    },
    {
      "anonymous": false,
      "inputs": [
        {
          "indexed": true,
          "internalType": "uint256",
          "name": "tournamentId",
          "type": "uint256"
        },
        {
          "indexed": true,
          "internalType": "address",
          "name": "creator",
          "type": "address"
        },
        {
          "indexed": false,
          "internalType": "string",
          "name": "name",
          "type": "string"
        }
      ],
      "name": "TournamentCreated",
      "type": "event"
    },
    {
      "anonymous": false,
      "inputs": [
        {
          "indexed": true,
          "internalType": "uint256",
          "name": "tournamentId",
          "type": "uint256"
        },
        {
          "indexed": false,
          "internalType": "uint256",
          "name": "position",
          "type": "uint256"
        },
        {
          "indexed": false,
          "internalType": "address",
          "name": "winner",
          "type": "address"
        }
      ],
      "name": "WinnerDeclared",
      "type": "event"
    },
    {
      "inputs": [],
      "name": "MIN_REGISTRATION_PERIOD",
      "outputs": [
        {
          "internalType": "uint256",
          "name": "",
          "type": "uint256"
        }
      ],
      "stateMutability": "view",
      "type": "function"
    },
    {
      "inputs": [],
      "name": "PERCENTAGE_BASE",
      "outputs": [
        {
          "internalType": "uint256",
          "name": "",
          "type": "uint256"
        }
      ],
      "stateMutability": "view",
      "type": "function"
    },
    {
      "inputs": [],
      "name": "PLATFORM_FEE_PERCENTAGE",
      "outputs": [
        {
          "internalType": "uint256",
          "name": "",
          "type": "uint256"
        }
      ],
      "stateMutability": "view",
      "type": "function"
    },
    {
      "inputs": [],
      "name": "TOURNAMENT_TYPE_DOUBLE_ELIMINATION",
      "outputs": [
        {
          "internalType": "uint8",
          "name": "",
          "type": "uint8"
        }
      ],
      "stateMutability": "view",
      "type": "function"
    },
    {
      "inputs": [],
      "name": "TOURNAMENT_TYPE_SINGLE_ELIMINATION",
      "outputs": [
        {
          "internalType": "uint8",
          "name": "",
          "type": "uint8"
        }
      ],
      "stateMutability": "view",
      "type": "function"
    },
    {
      "inputs": [
        {
          "internalType": "uint256",
          "name": "tournamentId",
          "type": "uint256"
        }
      ],
      "name": "cancelTournament",
      "outputs": [],
      "stateMutability": "nonpayable",
      "type": "function"
    },
    {
      "inputs": [
        {
          "internalType": "uint256",
          "name": "tournamentId",
          "type": "uint256"
        }
      ],
      "name": "claimEntryFees",
      "outputs": [],
      "stateMutability": "nonpayable",
      "type": "function"
    },
    {
      "inputs": [
        {
          "internalType": "uint256",
          "name": "tournamentId",
          "type": "uint256"
        },
        {
          "internalType": "uint256",
          "name": "position",
          "type": "uint256"
        }
      ],
      "name": "claimReward",
      "outputs": [],
      "stateMutability": "nonpayable",
      "type": "function"
    },
    {
      "inputs": [
        {
          "internalType": "string",
          "name": "name",
          "type": "string"
        },
        {
          "internalType": "string",
          "name": "description",
          "type": "string"
        },
        {
          "internalType": "string",
          "name": "gameId",
          "type": "string"
        },
        {
          "internalType": "uint8",
          "name": "tournamentType",
          "type": "uint8"
        },
        {
          "internalType": "uint256",
          "name": "maxParticipants",
          "type": "uint256"
        },
        {
          "internalType": "uint256",
          "name": "registrationEndTime",
          "type": "uint256"
        },
        {
          "internalType": "uint256",
          "name": "startTime",
          "type": "uint256"
        },
        {
          "internalType": "address",
          "name": "rewardTokenAddress",
          "type": "address"
        },
        {
          "internalType": "uint256[]",
          "name": "positionRewardAmounts",
          "type": "uint256[]"
        }
      ],
      "name": "createTournament",
      "outputs": [
        {
          "internalType": "uint256",
          "name": "",
          "type": "uint256"
        }
      ],
      "stateMutability": "payable",
      "type": "function"
    },
    {
      "inputs": [
        {
          "internalType": "string",
          "name": "name",
          "type": "string"
        },
        {
          "internalType": "string",
          "name": "description",
          "type": "string"
        },
        {
          "internalType": "string",
          "name": "gameId",
          "type": "string"
        },
        {
          "internalType": "uint8",
          "name": "tournamentType",
          "type": "uint8"
        },
        {
          "internalType": "uint256",
          "name": "maxParticipants",
          "type": "uint256"
        },
        {
          "internalType": "uint256",
          "name": "registrationEndTime",
          "type": "uint256"
        },
        {
          "internalType": "uint256",
          "name": "startTime",
          "type": "uint256"
        },
        {
          "internalType": "address",
          "name": "rewardTokenAddress",
          "type": "address"
        },
        {
          "internalType": "uint256[]",
          "name": "positionRewardAmounts",
          "type": "uint256[]"
        },
        {
          "internalType": "address",
          "name": "entryFeeTokenAddress",
          "type": "address"
        },
        {
          "internalType": "uint256",
          "name": "entryFeeAmount",
          "type": "uint256"
        }
      ],
      "name": "createTournamentWithEntryFee",
      "outputs": [
        {
          "internalType": "uint256",
          "name": "",
          "type": "uint256"
        }
      ],
      "stateMutability": "payable",
      "type": "function"
    },
    {
      "inputs": [
        {
          "internalType": "uint256",
          "name": "tournamentId",
          "type": "uint256"
        },
        {
          "internalType": "uint256",
          "name": "position",
          "type": "uint256"
        },
        {
          "internalType": "address",
          "name": "winner",
          "type": "address"
        }
      ],
      "name": "declareWinner",
      "outputs": [],
      "stateMutability": "nonpayable",
      "type": "function"
    },
    {
      "inputs": [
        {
          "internalType": "uint256",
          "name": "tournamentId",
          "type": "uint256"
        },
        {
          "internalType": "uint256[]",
          "name": "positions",
          "type": "uint256[]"
        },
        {
          "internalType": "address[]",
          "name": "winners",
          "type": "address[]"
        }
      ],
      "name": "declareWinners",
      "outputs": [],
      "stateMutability": "nonpayable",
      "type": "function"
    },
    {
      "inputs": [
        {
          "internalType": "uint256",
          "name": "tournamentId",
          "type": "uint256"
        },
        {
          "internalType": "uint256",
          "name": "position",
          "type": "uint256"
        }
      ],
      "name": "getPositionInfo",
      "outputs": [
        {
          "internalType": "uint256",
          "name": "rewardAmount",
          "type": "uint256"
        },
        {
          "internalType": "address",
          "name": "winner",
          "type": "address"
        },
        {
          "internalType": "bool",
          "name": "claimed",
          "type": "bool"
        }
      ],
      "stateMutability": "view",
      "type": "function"
    },
    {
      "inputs": [
        {
          "internalType": "uint256",
          "name": "tournamentId",
          "type": "uint256"
        }
      ],
      "name": "getPositionRewardAmounts",
      "outputs": [
        {
          "internalType": "uint256[]",
          "name": "",
          "type": "uint256[]"
        }
      ],
      "stateMutability": "view",
      "type": "function"
    },
    {
      "inputs": [
        {
          "internalType": "uint256",
          "name": "tournamentId",
          "type": "uint256"
        }
      ],
      "name": "getTournamentInfo",
      "outputs": [
        {
          "internalType": "address",
          "name": "creator",
          "type": "address"
        },
        {
          "internalType": "string",
          "name": "name",
          "type": "string"
        },
        {
          "internalType": "string",
          "name": "description",
          "type": "string"
        },
        {
          "internalType": "string",
          "name": "gameId",
          "type": "string"
        },
        {
          "internalType": "uint8",
          "name": "tournamentType",
          "type": "uint8"
        },
        {
          "internalType": "uint256",
          "name": "maxParticipants",
          "type": "uint256"
        },
        {
          "internalType": "uint256",
          "name": "createdAt",
          "type": "uint256"
        },
        {
          "internalType": "uint256",
          "name": "startTime",
          "type": "uint256"
        },
        {
          "internalType": "uint256",
          "name": "registrationEndTime",
          "type": "uint256"
        },
        {
          "internalType": "bool",
          "name": "isActive",
          "type": "bool"
        },
        {
          "internalType": "address",
          "name": "rewardTokenAddress",
          "type": "address"
        },
        {
          "internalType": "uint256",
          "name": "totalRewardAmount",
          "type": "uint256"
        },
        {
          "internalType": "uint256",
          "name": "positionCount",
          "type": "uint256"
        },
        {
          "internalType": "bool",
          "name": "hasEntryFee",
          "type": "bool"
        },
        {
          "internalType": "address",
          "name": "entryFeeTokenAddress",
          "type": "address"
        },
        {
          "internalType": "uint256",
          "name": "entryFeeAmount",
          "type": "uint256"
        },
        {
          "internalType": "uint256",
          "name": "participantCount",
          "type": "uint256"
        }
      ],
      "stateMutability": "view",
      "type": "function"
    },
    {
      "inputs": [
        {
          "internalType": "uint256",
          "name": "tournamentId",
          "type": "uint256"
        },
        {
          "internalType": "address",
          "name": "winnerAddress",
          "type": "address"
        }
      ],
      "name": "getWinnerPosition",
      "outputs": [
        {
          "internalType": "uint256",
          "name": "",
          "type": "uint256"
        }
      ],
      "stateMutability": "view",
      "type": "function"
    },
    {
      "inputs": [
        {
          "internalType": "uint256",
          "name": "tournamentId",
          "type": "uint256"
        },
        {
          "internalType": "address",
          "name": "winnerAddress",
          "type": "address"
        }
      ],
      "name": "hasClaimedReward",
      "outputs": [
        {
          "internalType": "bool",
          "name": "",
          "type": "bool"
        }
      ],
      "stateMutability": "view",
      "type": "function"
    },
    {
      "inputs": [
        {
          "internalType": "uint256",
          "name": "tournamentId",
          "type": "uint256"
        },
        {
          "internalType": "address",
          "name": "participant",
          "type": "address"
        }
      ],
      "name": "isParticipantRegistered",
      "outputs": [
        {
          "internalType": "bool",
          "name": "",
          "type": "bool"
        }
      ],
      "stateMutability": "view",
      "type": "function"
    },
    {
      "inputs": [],
      "name": "nextTournamentId",
      "outputs": [
        {
          "internalType": "uint256",
          "name": "",
          "type": "uint256"
        }
      ],
      "stateMutability": "view",
      "type": "function"
    },
    {
      "inputs": [],
      "name": "owner",
      "outputs": [
        {
          "internalType": "address",
          "name": "",
          "type": "address"
        }
      ],
      "stateMutability": "view",
      "type": "function"
    },
    {
      "inputs": [
        {
          "internalType": "address",
          "name": "",
          "type": "address"
        }
      ],
      "name": "platformFees",
      "outputs": [
        {
          "internalType": "uint256",
          "name": "",
          "type": "uint256"
        }
      ],
      "stateMutability": "view",
      "type": "function"
    },
    {
      "inputs": [
        {
          "internalType": "uint256",
          "name": "tournamentId",
          "type": "uint256"
        }
      ],
      "name": "registerForTournament",
      "outputs": [],
      "stateMutability": "nonpayable",
      "type": "function"
    },
    {
      "inputs": [
        {
          "internalType": "uint256",
          "name": "tournamentId",
          "type": "uint256"
        }
      ],
      "name": "registerWithEntryFee",
      "outputs": [],
      "stateMutability": "payable",
      "type": "function"
    },
    {
      "inputs": [],
      "name": "renounceOwnership",
      "outputs": [],
      "stateMutability": "nonpayable",
      "type": "function"
    },
    {
      "inputs": [
        {
          "internalType": "uint256",
          "name": "",
          "type": "uint256"
        }
      ],
      "name": "tournaments",
      "outputs": [
        {
          "internalType": "uint256",
          "name": "id",
          "type": "uint256"
        },
        {
          "internalType": "address",
          "name": "creator",
          "type": "address"
        },
        {
          "internalType": "string",
          "name": "name",
          "type": "string"
        },
        {
          "internalType": "string",
          "name": "description",
          "type": "string"
        },
        {
          "internalType": "string",
          "name": "gameId",
          "type": "string"
        },
        {
          "internalType": "uint8",
          "name": "tournamentType",
          "type": "uint8"
        },
        {
          "internalType": "uint256",
          "name": "maxParticipants",
          "type": "uint256"
        },
        {
          "internalType": "uint256",
          "name": "createdAt",
          "type": "uint256"
        },
        {
          "internalType": "uint256",
          "name": "startTime",
          "type": "uint256"
        },
        {
          "internalType": "uint256",
          "name": "registrationEndTime",
          "type": "uint256"
        },
        {
          "internalType": "bool",
          "name": "isActive",
          "type": "bool"
        },
        {
          "internalType": "address",
          "name": "rewardTokenAddress",
          "type": "address"
        },
        {
          "internalType": "uint256",
          "name": "totalRewardAmount",
          "type": "uint256"
        },
        {
          "internalType": "bool",
          "name": "hasEntryFee",
          "type": "bool"
        },
        {
          "internalType": "address",
          "name": "entryFeeTokenAddress",
          "type": "address"
        },
        {
          "internalType": "uint256",
          "name": "entryFeeAmount",
          "type": "uint256"
        },
        {
          "internalType": "uint256",
          "name": "participantCount",
          "type": "uint256"
        }
      ],
      "stateMutability": "view",
      "type": "function"
    },
    {
      "inputs": [
        {
          "internalType": "address",
          "name": "newOwner",
          "type": "address"
        }
      ],
      "name": "transferOwnership",
      "outputs": [],
      "stateMutability": "nonpayable",
      "type": "function"
    },
    {
      "inputs": [
        {
          "internalType": "address",
          "name": "tokenAddress",
          "type": "address"
        }
      ],
      "name": "withdrawPlatformFees",
      "outputs": [],
      "stateMutability": "nonpayable",
      "type": "function"
    }
  ],
  "bytecode": "0x608080604052346100645760008054336001600160a01b0319821681178355916001600160a01b03909116907f8be0079c531659141344cd1fd0a4f28419497f9722a3daafe3b4186f6b6457e09080a3600180556001600355612bd7908161006a8239f35b600080fdfe60e0604052600436101561001257600080fd5b6000803560e01c806304cbc86e146113eb57806315548232146113cf5780631d74ea25146113715780632c4aa9711461133b57806332432233146111ad57806332e8bc7214611174578063334f7deb1461105b57806366025a7e14610db257806367e820ad14610d245780636d3687df14610d08578063715018a614610cae5780637503e1b714610b6757806379c13f8a14610aa4578063852efc3d14610a8657806386bb8f37146108d557806387c13943146108b85780638da5cb5b14610891578063a52d7e9e14610875578063c00b69fe14610858578063c56aab811461069d578063c8b727a114610655578063cac766d2146104ee578063cb84e5371461048c578063d533344f146103ea578063ec3889b5146102c6578063f2fde38b146102055763f37aa5091461014657600080fd5b34610202576020806003193601126101fe576004358083526002825261017181604085205414612466565b825260028152600e604083200160405192838383549182815201908193835284832090835b8181106101ea57505050846101ac9103856114fa565b60405193838594850191818652518092526040850193925b8281106101d357505050500390f35b8351855286955093810193928101926001016101c4565b825484529286019260019283019201610196565b5080fd5b80fd5b50346102025760203660031901126102025761021f6115d6565b610227611798565b6001600160a01b039081169081156102725782546001600160a01b0319811683178455167f8be0079c531659141344cd1fd0a4f28419497f9722a3daafe3b4186f6b6457e08380a380f35b60405162461bcd60e51b815260206004820152602660248201527f4f776e61626c653a206e6577206f776e657220697320746865207a65726f206160448201526564647265737360d01b6064820152608490fd5b5034610202576020366003190112610202576102e06115d6565b6102e8611798565b6102f06117f0565b6001600160a01b03908116808352600460205260408320549182156103af57818452600460205283604081205581156000146103785783808080868582541682f11561036d5760207fc0f01729b0d2f4ee8f47286e5cf926377eab5d6e58a981836e2f30705db2362c915b85541693604051908152a36001805580f35b6040513d85823e3d90fd5b6020816103aa857fc0f01729b0d2f4ee8f47286e5cf926377eab5d6e58a981836e2f30705db2362c94885416866127cb565b61035b565b60405162461bcd60e51b81526020600482015260136024820152724e6f206665657320746f20776974686472617760681b6044820152606490fd5b5034610202576060366003190112610202576001600160a01b0360443560043582821682036104885761046c610481936104226117f0565b828652600260205261043983604088205414612466565b828652600260205261045460ff600a604089200154166124b2565b8286526002602052600160408720015416331461261b565b808452600260205260243590604085206128a6565b6001805580f35b8380fd5b50346102025760403660031901126102025760ff60406020926004356104b06115c0565b90808352600286526104c6818585205414612466565b8252600285528282206001600160a01b03909116825260120184522054604051911615158152f35b50346102025760203660031901126102025760043580825260026020528060408320541461051b90612466565b8152600260205260409020600160a01b6001900360018201541690600581015460ff166006820154600783015460088401546009850154600a860154600b87015490600e88015492600c89015494600d8a01549660118b01549860028c01610582906116b2565b9b61058f600382016116b2565b9060040161059c906116b2565b906040519e8f9e8f91825261022080602084015282016105bb91611758565b9080820390604001526105cd91611758565b8d810360608f01526105de91611758565b9a60808d015260a08c015260c08b015260e08a015261010089015260ff81161515610120890152600160a01b600190039060081c1661014088015261016087015261018086015260ff811615156101a0860152600160a01b600190039060081c166101c08501526101e08401526102008301520390f35b50346102025760403660031901126102025761069360209160043561068e81604061067e6115c0565b9482815260028852205414612466565b612afc565b6040519015158152f35b50346102025760603660031901126102025760043567ffffffffffffffff602435818111610488576106d3903690600401611604565b906044359081116104885736602382011215610488578060040135926106f8846115ec565b9161070660405193846114fa565b84835260209460248685019160051b8301019136831161085457602401905b828210610831575050506107376117f0565b8085526002845261074d81604087205414612466565b8085526002845261076760ff600a604088200154166124b2565b8085526002845260018060a01b0360019461078b828760408a20015416331461261b565b84518451036107f457906002839287959489525260408720948488905b6107b4575b8886805580f35b81518110156107ef57806107e46107ce6107e99385611878565b51856107da848a611878565b511690878b6128a6565b611869565b856107a8565b6107ad565b6064906040519062461bcd60e51b825260048201526016602482015275082e4e4c2f2e640d8cadccee8d040dad2e6dac2e8c6d60531b6044820152fd5b81356001600160a01b0381168103610850578152908601908601610725565b8880fd5b8780fd5b50346102025780600319360112610202576020604051610e108152f35b5034610202578060031936011261020257602060405160018152f35b5034610202578060031936011261020257546040516001600160a01b039091168152602090f35b503461020257806003193601126102025760206040516127108152f35b5034610202576108e436611662565b6108ec6117f0565b81835260206002815261090483604086205414612466565b8284526002815261091e60ff600a604087200154166124b2565b828452600281526040842091600e830161093a8154831061281b565b601084019082875281845261095660ff6040892054161561285a565b828752600f8501845260408720546001600160a01b03929083163303610a505783600a9261099792828b52875260408a20600160ff198254161790556118fb565b90549060031b1c94015460081c168015600014610a1a57508480848015610a10575b8280929181923390f115610a05577fa8325f46ec9623d7ced8f695ff820511a4acef4f5d5c4933bd5d992141a2b905926060925b60405192835233908301526040820152a26001805580f35b6040513d86823e3d90fd5b6108fc91506109b9565b92606092610a4b827fa8325f46ec9623d7ced8f695ff820511a4acef4f5d5c4933bd5d992141a2b9059633906127cb565b6109ed565b60405162461bcd60e51b815260048101869052600e60248201526d2737ba103a3432903bb4b73732b960911b6044820152606490fd5b50346102025780600319360112610202576020600354604051908152f35b506101203660031901126102025767ffffffffffffffff600435818111610b6357610ad390369060040161154e565b916024358281116101fe57610aec90369060040161154e565b906044358381116101fe57610b0590369060040161154e565b610b0d61159a565b93610b166115aa565b9261010435918211610202576020610b578888888888610b393660048b01611604565b92610b426117f0565b3495339560c4359360a4359360843593611913565b60018055604051908152f35b8280fd5b50346102025760203660031901126102025760043581526002602052604090208054600160a01b600190036001830154169160028101610ba6906116b2565b610bb2600383016116b2565b91610bbf600482016116b2565b92600582015460ff1693600683015460078401546008850154600986015491600a87015493600b88015495600c89015497600d8a015499601101549a6040519e8f9e8f908152602001528d6102209081604082015201610c1e91611758565b8d810360608f0152610c2f91611758565b8c810360808e0152610c4091611758565b60a08c019a909a5260c08b015260e08a015261010089015261012088015260ff81811615156101408901526001600160a01b03600892831c81166101608a0152610180890193909352831615156101a08801529190911c166101c08501526101e08401526102008301520390f35b5034610202578060031936011261020257610cc7611798565b80546001600160a01b03198116825581906001600160a01b03167f8be0079c531659141344cd1fd0a4f28419497f9722a3daafe3b4186f6b6457e08280a380f35b5034610202578060031936011261020257602090604051908152f35b503461020257606090610d3636611662565b908083526002602052610d4e81604085205414612466565b825260026020526040822060ff6040610d7684600e8501610d718154831061281b565b6118fb565b959054948152600f8401602052601060018060a01b0383832054169401602052205416916040519360031b1c8352602083015215156040820152f35b506020908160031936011261020257600435610dcc6117f0565b80825260028352610de281604084205414612466565b80825260028352610dfc60ff600a604085200154166124b2565b8082526002835260408220610e1760098201544211156124f6565b600c810154610e2860ff82166125c4565b6012820190338552818652610e4460ff60408720541615612542565b600683015480611046575b5060081c6001600160a01b031680610f055750600d8201543403610ec05760119293945b3386525260408420600160ff1982541617905501610e918154611869565b905533907f78337b3a0cfc36faafab5a292dc7571f6bd68ba681c22e15c97b1e3469b51a028380a36001805580f35b60405162461bcd60e51b815260048101869052601a60248201527f496e636f727265637420656e7472792066656520616d6f756e740000000000006044820152606490fd5b92939434610ff6576040516370a0823160e01b808252306004830152948282602481845afa918215610fbc578892610fc7575b5082600d860196610f4c885430338661224a565b60246040518094819382523060048301525afa908115610fbc578891610f8b575b5094610f7e610f8692601197611846565b9054146118af565b610e73565b9590508286813d8311610fb5575b610fa381836114fa565b81010312610854579451610f7e610f6d565b503d610f99565b6040513d8a823e3d90fd5b9091508281813d8311610fef575b610fdf81836114fa565b8101031261085457519038610f38565b503d610fd5565b6084906040519062461bcd60e51b82526004820152602360248201527f446f6e27742073656e6420524f4e207769746820746f6b656e20656e7472792060448201526266656560e81b6064820152fd5b61105590601185015410612583565b38610e4f565b5034610202576020806003193601126101fe576004359061107a6117f0565b8183526002815261109082604085205414612466565b818352600281526110aa60ff600a604086200154166124b2565b8183526002815260408320906110c660098301544211156124f6565b60ff600c83015416611130579060119160128201903386528181526110f260ff60408820541615612542565b60068301548061111c575b503386525260408420600160ff1982541617905501610e918154611869565b61112a908585015410612583565b386110fd565b6064906040519062461bcd60e51b82526004820152601d60248201527f546f75726e616d656e7420726571756972657320656e747279206665650000006044820152fd5b5034610202576020366003190112610202576020906040906001600160a01b0361119c6115d6565b168152600483522054604051908152f35b50346102025760209081600319360112610202576004356111cc6117f0565b808252600283526111e281604084205414612466565b8082526002835260ff6111fd81600a604086200154166124b2565b8183526002845260408320600101546001600160a01b0390611222908216331461261b565b828452600285526040842090600a82019182549260ff198416905585938690600e83019081549260108501905b8481106112f3578a8a818b80158b8b8e8315611293575b85877ffa61ec8d7e5a58ceba17772b10ba0c6caa65b40b200302be35f00efc264c78958280a26001805580f35b60081c8216806112dc575092849392849392600185940154169083906112d3575bf1156112c6575b818380808080611266565b50604051903d90823e3d90fd5b506108fc6112b4565b92506112ee94506001015416906127cb565b6112bb565b808b52818c528260408c20541615611314575b61130f90611869565b61124f565b9761133361130f916113268b876118fb565b90549060031b1c906118a2565b989050611306565b50346102025760403660031901126102025761136960209160043561136481604061067e6115c0565b612a3f565b604051908152f35b5034610202576020366003190112610202576104816004356113916117f0565b80835260026020526113a881604085205414612466565b80835260026020526113ca60018060a01b03600160408620015416331461261b565b612660565b5034610202578060031936011261020257602060405160fa8152f35b506101603660031901126102025767ffffffffffffffff906004358281116101fe5761141b90369060040161154e565b91602435818111610b635761143490369060040161154e565b906044358181116104885761144d90369060040161154e565b61145561159a565b9161145e6115aa565b90610104359081116114f657611478903690600401611604565b61012435949092906001600160a01b03861686036114f257936040936114a893602099936114dd97610b426117f0565b808552600286529320600c810180546001600160a81b03191660089490941b610100600160a81b031693909317600117909255565b600d6101443591015560018055604051908152f35b8680fd5b8580fd5b90601f8019910116810190811067ffffffffffffffff82111761151c57604052565b634e487b7160e01b600052604160045260246000fd5b67ffffffffffffffff811161151c57601f01601f191660200190565b81601f820112156115955780359061156582611532565b9261157360405194856114fa565b8284526020838301011161159557816000926020809301838601378301015290565b600080fd5b6064359060ff8216820361159557565b60e435906001600160a01b038216820361159557565b602435906001600160a01b038216820361159557565b600435906001600160a01b038216820361159557565b67ffffffffffffffff811161151c5760051b60200190565b81601f820112156115955780359161161b836115ec565b9261162960405194856114fa565b808452602092838086019260051b820101928311611595578301905b828210611653575050505090565b81358152908301908301611645565b6040906003190112611595576004359060243590565b90600182811c921680156116a8575b602083101461169257565b634e487b7160e01b600052602260045260246000fd5b91607f1691611687565b90604051918260008254926116c684611678565b90818452600194858116908160001461173557506001146116f2575b50506116f0925003836114fa565b565b9093915060005260209081600020936000915b81831061171d5750506116f0935082010138806116e2565b85548884018501529485019487945091830191611705565b9150506116f094506020925060ff191682840152151560051b82010138806116e2565b919082519283825260005b848110611784575050826000602080949584010152601f8019910116010190565b602081830181015184830182015201611763565b6000546001600160a01b031633036117ac57565b606460405162461bcd60e51b815260206004820152602060248201527f4f776e61626c653a2063616c6c6572206973206e6f7420746865206f776e65726044820152fd5b600260015414611801576002600155565b60405162461bcd60e51b815260206004820152601f60248201527f5265656e7472616e637947756172643a207265656e7472616e742063616c6c006044820152606490fd5b9190820391821161185357565b634e487b7160e01b600052601160045260246000fd5b60001981146118535760010190565b805182101561188c5760209160051b010190565b634e487b7160e01b600052603260045260246000fd5b9190820180921161185357565b156118b657565b60405162461bcd60e51b815260206004820152601e60248201527f546f6b656e207472616e7366657220616d6f756e74206d69736d6174636800006044820152606490fd5b805482101561188c5760005260206000200190600090565b9a949895999a979097969192939660c05260805260c051511561220e57600160ff8416116121c957608051511561218c574288111561213357878911156120d757610e10611961898b611846565b1061209257600097885b60805180518b101561199b57611995916119888c61198f93611878565b51906118a2565b99611869565b9861196b565b50959850919396998590999193969960018060a01b03851615600014611ee05703611e9b575b600354996119ce8b611869565b60035560008b815260026020526040902060a08190528b81556001810180546001600160a01b0319166001600160a01b038c1617905560c051519067ffffffffffffffff821161151c576002611a25910154611678565b601f8111611e52575b50602090601f8111600114611de1578091600091611dd4575b508160011b916000199060031b1c191617600260a05101555b805167ffffffffffffffff811161151c57611a80600360a0510154611678565b601f8111611d8b575b50602091601f8211600114611d1957918192600092611d0e575b50508160011b916000199060031b1c191617600360a05101555b835167ffffffffffffffff811161151c57611add600460a0510154611678565b601f8111611cc5575b506020601f8211600114611c47578190611b7996600092611c3c575b50508160011b916000199060031b1c191617600460a05101559897985b60a0519960058b0160ff801998168882541617905560068b01554260078b015560088a01556009890155600a880160018582541617815590815490610100600160a81b039060081b1690610100600160a81b031916179055565b600b860155600c8501908154169055600e60009401935b6080518051821015611bef5781611ba691611878565b51908554916801000000000000000083101561151c57611bcf836001611bea95018955886118fb565b819291549060031b91821b91600019901b1916179055611869565b611b90565b50509250817fbd34ba7c23e010b2fa639a38c057cf452062c6645a1c102adbee46d0b37b8669604051926020845260018060a01b03169280611c366020820160c051611758565b0390a390565b015190503880611b02565b91929394600460a05101928360005260206000209160005b601f1985168110611cad5750918391600193611b799998979695601f19811610611c94575b505050811b019055989798611b1f565b015160001960f88460031b161c19169055388080611c84565b91926020600181928685015181550194019201611c5f565b600460a051016000526020600020601f830160051c810160208410611d07575b601f830160051c82018110611cfb575050611ae6565b60008155600101611ce5565b5080611ce5565b015190503880611aa3565b90600360a0510192836000526020600020906000935b601f1984168510611d70576001945083601f19811610611d57575b505050811b019055611abd565b015160001960f88460031b161c19169055388080611d4a565b81810151835560209485019460019093019290910190611d2f565b600360a051016000526020600020601f830160051c810160208410611dcd575b601f830160051c82018110611dc1575050611a89565b60008155600101611dab565b5080611dab565b905060c051015138611a47565b90600260a05101918260005260206000206000925b601f1983168410611e38576001935082601f19811610611e1d575b5050811b019055611a60565b60c051015160001960f88460031b161c191690553880611e11565b60c051810151825560209384019360019092019101611df6565b600260a051016000526020600020601f830160051c810160208410611e94575b601f830160051c82018110611e88575050611a2e565b60008155600101611e72565b5080611e72565b60405162461bcd60e51b815260206004820152601c60248201527f496e636f72726563742072657761726420616d6f756e742073656e74000000006044820152606490fd5b905061203f57823b15611ffa576040516370a0823160e01b81523060048201526020816024816001600160a01b0388165afa908115611fbc57600091611fc8575b50611f3786308b6001600160a01b03881661224a565b6040516370a0823160e01b81523060048201526020816024816001600160a01b0389165afa8015611fbc578791600091611f85575b50611f8092611f7a91611846565b146118af565b6119c1565b91506020823d602011611fb4575b81611fa0602093836114fa565b810103126102025750518690611f80611f6c565b3d9150611f93565b6040513d6000823e3d90fd5b906020823d602011611ff2575b81611fe2602093836114fa565b8101031261020257505138611f21565b3d9150611fd5565b60405162461bcd60e51b815260206004820152601f60248201527f546f6b656e2061646472657373206973206e6f74206120636f6e7472616374006044820152606490fd5b60405162461bcd60e51b815260206004820152602560248201527f446f6e27742073656e6420524f4e207769746820746f6b656e20746f75726e616044820152646d656e747360d81b6064820152608490fd5b60405162461bcd60e51b815260206004820152601d60248201527f526567697374726174696f6e20706572696f6420746f6f2073686f72740000006044820152606490fd5b60405162461bcd60e51b815260206004820152602e60248201527f53746172742074696d65206d757374206265206166746572207265676973747260448201526d6174696f6e20656e642074696d6560901b6064820152608490fd5b60405162461bcd60e51b815260206004820152602b60248201527f526567697374726174696f6e20656e642074696d65206d75737420626520696e60448201526a207468652066757475726560a81b6064820152608490fd5b60405162461bcd60e51b8152602060048201526015602482015274139bc81c1bdcda5d1a5bdb9cc81c1c9bdd9a591959605a1b6044820152606490fd5b60405162461bcd60e51b815260206004820152601760248201527f496e76616c696420746f75726e616d656e7420747970650000000000000000006044820152606490fd5b60405162461bcd60e51b81526020600482015260146024820152734e616d652063616e6e6f7420626520656d70747960601b6044820152606490fd5b6040516323b872dd60e01b60208201526001600160a01b03928316602482015292909116604483015260648083019390935291815260a081019181831067ffffffffffffffff84111761151c576116f0926040525b60018060a01b031690604051604081019080821067ffffffffffffffff83111761151c5761232f916040526020938482527f5361666545524332303a206c6f772d6c6576656c2063616c6c206661696c6564858301526000808587829751910182855af13d156123c5573d9161231483611532565b9261232260405194856114fa565b83523d868885013e6123c9565b8051918215918483156123a1575b50505090501561234a5750565b6084906040519062461bcd60e51b82526004820152602a60248201527f5361666545524332303a204552433230206f7065726174696f6e20646964206e6044820152691bdd081cdd58d8d9595960b21b6064820152fd5b9193818094500103126101fe5782015190811515820361020257508038808461233d565b6060915b9192901561242b57508151156123dd575090565b3b156123e65790565b60405162461bcd60e51b815260206004820152601d60248201527f416464726573733a2063616c6c20746f206e6f6e2d636f6e74726163740000006044820152606490fd5b82519091501561243e5750805190602001fd5b60405162461bcd60e51b815260206004820152908190612462906024830190611758565b0390fd5b1561246d57565b60405162461bcd60e51b815260206004820152601960248201527f546f75726e616d656e7420646f6573206e6f74206578697374000000000000006044820152606490fd5b156124b957565b60405162461bcd60e51b8152602060048201526015602482015274546f75726e616d656e74206e6f742061637469766560581b6044820152606490fd5b156124fd57565b60405162461bcd60e51b815260206004820152601960248201527f526567697374726174696f6e20706572696f6420656e646564000000000000006044820152606490fd5b1561254957565b60405162461bcd60e51b8152602060048201526012602482015271105b1c9958591e481c9959da5cdd195c995960721b6044820152606490fd5b1561258a57565b60405162461bcd60e51b8152602060048201526012602482015271151bdd5c9b985b595b9d081a5cc8199d5b1b60721b6044820152606490fd5b156125cb57565b60405162461bcd60e51b815260206004820152602260248201527f546f75726e616d656e7420646f6573206e6f74206861766520656e7472792066604482015261656560f01b6064820152608490fd5b1561262257565b60405162461bcd60e51b81526020600482015260166024820152752737ba103a37bab93730b6b2b73a1031b932b0ba37b960511b6044820152606490fd5b600090808252600260205260408220600c81019081549361268360ff86166125c4565b601182015492600d830154938481029481860414901517156127b75783156127af5760fa840284810460fa0361279b576127106126c291048095611846565b95869160018060a01b039586809360081c16855260046020526126ea604086209182546118a2565b90555460081c168061275c5750818080809387600188015416828215612753575bf11561274757507f107cfc3e70c0a9b50b925fe1ac70d6ff12c8c459d57cdd7ea146e336ad8971e89160016020925b01541693604051908152a3565b604051903d90823e3d90fd5b506108fc61270b565b849250926127966001926020957f107cfc3e70c0a9b50b925fe1ac70d6ff12c8c459d57cdd7ea146e336ad8971e8978585015416906127cb565b61273a565b634e487b7160e01b83526011600452602483fd5b505050505050565b634e487b7160e01b82526011600452602482fd5b60405163a9059cbb60e01b60208201526001600160a01b039092166024830152604480830193909352918152608081019167ffffffffffffffff83118284101761151c576116f09260405261229f565b1561282257565b60405162461bcd60e51b815260206004820152601060248201526f24b73b30b634b2103837b9b4ba34b7b760811b6044820152606490fd5b1561286157565b60405162461bcd60e51b815260206004820152601860248201527f506f736974696f6e20616c726561647920636c61696d656400000000000000006044820152606490fd5b939290916128b9600e860154821061281b565b60009481865260206010820181526040936128da60ff868a2054161561285a565b6001600160a01b03169182156129fb57600881015442106129b7576011810154612950575b87600f8692867f8981fdd74bd05da9ef8f2aeb472f541ee871b1e9e3908c19d01a9bf51ce5f7ab999a9b5201835220826bffffffffffffffffffffffff60a01b8254161790558351928352820152a2565b82885260128101825260ff85892054166128ff57845162461bcd60e51b815260048101839052602660248201527f57696e6e6572206973206e6f742061207265676973746572656420706172746960448201526518da5c185b9d60d21b6064820152608490fd5b845162461bcd60e51b815260048101839052601e60248201527f546f75726e616d656e7420686173206e6f7420737461727465642079657400006044820152606490fd5b845162461bcd60e51b815260048101839052601d60248201527f57696e6e65722063616e6e6f74206265207a65726f20616464726573730000006044820152606490fd5b919091600090815260209060028252604093848220928290600f600e8601549501915b858110612aa757875162461bcd60e51b815260206004820152601760248201527620b2323932b9b99034b9903737ba1030903bb4b73732b960491b6044820152606490fd5b808552828252878520546001600160a01b03858116911614612ad157612acc90611869565b612a62565b959650505050905060018201809211612ae8575090565b634e487b7160e01b81526011600452602490fd5b91906000928352602092600284526040938482208293600e82015494600f8301905b868110612b6357885162461bcd60e51b815260206004820152601760248201527620b2323932b9b99034b9903737ba1030903bb4b73732b960491b6044820152606490fd5b808652818552888620546001600160a01b03848116911614612b8d57612b8890611869565b612b1e565b50505060ff9495935060100190522054169056fea264697066735822122092ffab00b97b35dd2bf03c2554c907cef38a4b838872165209ead4b7c7a592b964736f6c63430008140033",
  "linkReferences": {},
  "deployedLinkReferences": {}
}