{
  "_format": "hh-sol-artifact-1",
  "contractName": "TournamentEscrowV2",
  "sourceName": "contracts/TournamentEscrowV2.sol",
  "abi": [
    {
      "inputs": [],
      "stateMutability": "nonpayable",
      "type": "constructor"
    },
    {
      "inputs": [
        {
          "internalType": "address",
          "name": "target",
          "type": "address"
        }
      ],
      "name": "AddressEmptyCode",
      "type": "error"
    },
    {
      "inputs": [
        {
          "internalType": "address",
          "name": "account",
          "type": "address"
        }
      ],
      "name": "AddressInsufficientBalance",
      "type": "error"
    },
    {
      "inputs": [
        {
          "internalType": "address",
          "name": "implementation",
          "type": "address"
        }
      ],
      "name": "ERC1967InvalidImplementation",
      "type": "error"
    },
    {
      "inputs": [],
      "name": "ERC1967NonPayable",
      "type": "error"
    },
    {
      "inputs": [],
      "name": "FailedInnerCall",
      "type": "error"
    },
    {
      "inputs": [],
      "name": "InvalidInitialization",
      "type": "error"
    },
    {
      "inputs": [],
      "name": "NotInitializing",
      "type": "error"
    },
    {
      "inputs": [
        {
          "internalType": "address",
          "name": "owner",
          "type": "address"
        }
      ],
      "name": "OwnableInvalidOwner",
      "type": "error"
    },
    {
      "inputs": [
        {
          "internalType": "address",
          "name": "account",
          "type": "address"
        }
      ],
      "name": "OwnableUnauthorizedAccount",
      "type": "error"
    },
    {
      "inputs": [],
      "name": "ReentrancyGuardReentrantCall",
      "type": "error"
    },
    {
      "inputs": [
        {
          "internalType": "address",
          "name": "token",
          "type": "address"
        }
      ],
      "name": "SafeERC20FailedOperation",
      "type": "error"
    },
    {
      "inputs": [],
      "name": "UUPSUnauthorizedCallContext",
      "type": "error"
    },
    {
      "inputs": [
        {
          "internalType": "bytes32",
          "name": "slot",
          "type": "bytes32"
        }
      ],
      "name": "UUPSUnsupportedProxiableUUID",
      "type": "error"
    },
    {
      "anonymous": false,
      "inputs": [
        {
          "indexed": true,
          "internalType": "uint256",
          "name": "tournamentId",
          "type": "uint256"
        },
        {
          "indexed": true,
          "internalType": "address",
          "name": "participant",
          "type": "address"
        },
        {
          "indexed": false,
          "internalType": "uint256",
          "name": "amount",
          "type": "uint256"
        }
      ],
      "name": "EntryFeeRefunded",
      "type": "event"
    },
    {
      "anonymous": false,
      "inputs": [
        {
          "indexed": true,
          "internalType": "uint256",
          "name": "tournamentId",
          "type": "uint256"
        },
        {
          "indexed": true,
          "internalType": "address",
          "name": "creator",
          "type": "address"
        },
        {
          "indexed": false,
          "internalType": "uint256",
          "name": "creatorAmount",
          "type": "uint256"
        },
        {
          "indexed": false,
          "internalType": "uint256",
          "name": "platformFeeAmount",
          "type": "uint256"
        }
      ],
      "name": "EntryFeesDistributed",
      "type": "event"
    },
    {
      "anonymous": false,
      "inputs": [
        {
          "indexed": false,
          "internalType": "uint64",
          "name": "version",
          "type": "uint64"
        }
      ],
      "name": "Initialized",
      "type": "event"
    },
    {
      "anonymous": false,
      "inputs": [
        {
          "indexed": true,
          "internalType": "address",
          "name": "previousOwner",
          "type": "address"
        },
        {
          "indexed": true,
          "internalType": "address",
          "name": "newOwner",
          "type": "address"
        }
      ],
      "name": "OwnershipTransferred",
      "type": "event"
    },
    {
      "anonymous": false,
      "inputs": [
        {
          "indexed": true,
          "internalType": "uint256",
          "name": "tournamentId",
          "type": "uint256"
        },
        {
          "indexed": true,
          "internalType": "address",
          "name": "participant",
          "type": "address"
        }
      ],
      "name": "ParticipantRegistered",
      "type": "event"
    },
    {
      "anonymous": false,
      "inputs": [
        {
          "indexed": true,
          "internalType": "address",
          "name": "token",
          "type": "address"
        },
        {
          "indexed": true,
          "internalType": "address",
          "name": "recipient",
          "type": "address"
        },
        {
          "indexed": false,
          "internalType": "uint256",
          "name": "amount",
          "type": "uint256"
        }
      ],
      "name": "PlatformFeesWithdrawn",
      "type": "event"
    },
    {
      "anonymous": false,
      "inputs": [
        {
          "indexed": true,
          "internalType": "uint256",
          "name": "tournamentId",
          "type": "uint256"
        },
        {
          "indexed": false,
          "internalType": "uint256",
          "name": "position",
          "type": "uint256"
        },
        {
          "indexed": false,
          "internalType": "address",
          "name": "winner",
          "type": "address"
        },
        {
          "indexed": false,
          "internalType": "uint256",
          "name": "amount",
          "type": "uint256"
        }
      ],
      "name": "RewardClaimed",
      "type": "event"
    },
    {
      "anonymous": false,
      "inputs": [
        {
          "indexed": true,
          "internalType": "uint256",
          "name": "tournamentId",
          "type": "uint256"
        }
      ],
      "name": "TournamentCancelled",
      "type": "event"
    },
    {
      "anonymous": false,
      "inputs": [
        {
          "indexed": true,
          "internalType": "uint256",
          "name": "tournamentId",
          "type": "uint256"
        },
        {
          "indexed": true,
          "internalType": "address",
          "name": "creator",
          "type": "address"
        },
        {
          "indexed": false,
          "internalType": "string",
          "name": "name",
          "type": "string"
        }
      ],
      "name": "TournamentCreated",
      "type": "event"
    },
    {
      "anonymous": false,
      "inputs": [
        {
          "indexed": true,
          "internalType": "address",
          "name": "implementation",
          "type": "address"
        }
      ],
      "name": "Upgraded",
      "type": "event"
    },
    {
      "anonymous": false,
      "inputs": [
        {
          "indexed": true,
          "internalType": "uint256",
          "name": "tournamentId",
          "type": "uint256"
        },
        {
          "indexed": false,
          "internalType": "uint256",
          "name": "position",
          "type": "uint256"
        },
        {
          "indexed": false,
          "internalType": "address",
          "name": "winner",
          "type": "address"
        }
      ],
      "name": "WinnerDeclared",
      "type": "event"
    },
    {
      "inputs": [],
      "name": "MAX_WINNER_POSITIONS",
      "outputs": [
        {
          "internalType": "uint256",
          "name": "",
          "type": "uint256"
        }
      ],
      "stateMutability": "view",
      "type": "function"
    },
    {
      "inputs": [],
      "name": "MIN_REGISTRATION_PERIOD",
      "outputs": [
        {
          "internalType": "uint256",
          "name": "",
          "type": "uint256"
        }
      ],
      "stateMutability": "view",
      "type": "function"
    },
    {
      "inputs": [],
      "name": "PERCENTAGE_BASE",
      "outputs": [
        {
          "internalType": "uint256",
          "name": "",
          "type": "uint256"
        }
      ],
      "stateMutability": "view",
      "type": "function"
    },
    {
      "inputs": [],
      "name": "PLATFORM_FEE_PERCENTAGE",
      "outputs": [
        {
          "internalType": "uint256",
          "name": "",
          "type": "uint256"
        }
      ],
      "stateMutability": "view",
      "type": "function"
    },
    {
      "inputs": [],
      "name": "UPGRADE_INTERFACE_VERSION",
      "outputs": [
        {
          "internalType": "string",
          "name": "",
          "type": "string"
        }
      ],
      "stateMutability": "view",
      "type": "function"
    },
    {
      "inputs": [
        {
          "internalType": "uint256",
          "name": "tournamentId",
          "type": "uint256"
        }
      ],
      "name": "cancelTournament",
      "outputs": [],
      "stateMutability": "nonpayable",
      "type": "function"
    },
    {
      "inputs": [
        {
          "internalType": "uint256",
          "name": "tournamentId",
          "type": "uint256"
        }
      ],
      "name": "claimEntryFeeRefund",
      "outputs": [],
      "stateMutability": "nonpayable",
      "type": "function"
    },
    {
      "inputs": [
        {
          "internalType": "uint256",
          "name": "tournamentId",
          "type": "uint256"
        },
        {
          "internalType": "uint256",
          "name": "position",
          "type": "uint256"
        }
      ],
      "name": "claimReward",
      "outputs": [],
      "stateMutability": "nonpayable",
      "type": "function"
    },
    {
      "inputs": [
        {
          "internalType": "string",
          "name": "name",
          "type": "string"
        },
        {
          "internalType": "string",
          "name": "description",
          "type": "string"
        },
        {
          "internalType": "string",
          "name": "gameId",
          "type": "string"
        },
        {
          "internalType": "uint256",
          "name": "maxParticipants",
          "type": "uint256"
        },
        {
          "internalType": "uint256",
          "name": "registrationEndTime",
          "type": "uint256"
        },
        {
          "internalType": "uint256",
          "name": "startTime",
          "type": "uint256"
        },
        {
          "internalType": "address",
          "name": "rewardTokenAddress",
          "type": "address"
        },
        {
          "internalType": "uint256[]",
          "name": "positionRewardAmounts",
          "type": "uint256[]"
        }
      ],
      "name": "createTournament",
      "outputs": [
        {
          "internalType": "uint256",
          "name": "",
          "type": "uint256"
        }
      ],
      "stateMutability": "payable",
      "type": "function"
    },
    {
      "inputs": [
        {
          "internalType": "string",
          "name": "name",
          "type": "string"
        },
        {
          "internalType": "string",
          "name": "description",
          "type": "string"
        },
        {
          "internalType": "string",
          "name": "gameId",
          "type": "string"
        },
        {
          "internalType": "uint256",
          "name": "maxParticipants",
          "type": "uint256"
        },
        {
          "internalType": "uint256",
          "name": "registrationEndTime",
          "type": "uint256"
        },
        {
          "internalType": "uint256",
          "name": "startTime",
          "type": "uint256"
        },
        {
          "internalType": "address",
          "name": "rewardTokenAddress",
          "type": "address"
        },
        {
          "internalType": "uint256[]",
          "name": "positionRewardAmounts",
          "type": "uint256[]"
        },
        {
          "internalType": "address",
          "name": "entryFeeTokenAddress",
          "type": "address"
        },
        {
          "internalType": "uint256",
          "name": "entryFeeAmount",
          "type": "uint256"
        }
      ],
      "name": "createTournamentWithEntryFee",
      "outputs": [
        {
          "internalType": "uint256",
          "name": "",
          "type": "uint256"
        }
      ],
      "stateMutability": "payable",
      "type": "function"
    },
    {
      "inputs": [
        {
          "internalType": "uint256",
          "name": "tournamentId",
          "type": "uint256"
        },
        {
          "internalType": "uint256",
          "name": "position",
          "type": "uint256"
        },
        {
          "internalType": "address",
          "name": "winner",
          "type": "address"
        }
      ],
      "name": "declareWinner",
      "outputs": [],
      "stateMutability": "nonpayable",
      "type": "function"
    },
    {
      "inputs": [
        {
          "internalType": "uint256",
          "name": "tournamentId",
          "type": "uint256"
        },
        {
          "internalType": "uint256[]",
          "name": "positions",
          "type": "uint256[]"
        },
        {
          "internalType": "address[]",
          "name": "winners",
          "type": "address[]"
        }
      ],
      "name": "declareWinners",
      "outputs": [],
      "stateMutability": "nonpayable",
      "type": "function"
    },
    {
      "inputs": [
        {
          "internalType": "uint256",
          "name": "tournamentId",
          "type": "uint256"
        }
      ],
      "name": "distributeEntryFees",
      "outputs": [],
      "stateMutability": "nonpayable",
      "type": "function"
    },
    {
      "inputs": [
        {
          "internalType": "uint256",
          "name": "",
          "type": "uint256"
        },
        {
          "internalType": "address",
          "name": "",
          "type": "address"
        }
      ],
      "name": "entryFeesPaid",
      "outputs": [
        {
          "internalType": "uint256",
          "name": "",
          "type": "uint256"
        }
      ],
      "stateMutability": "view",
      "type": "function"
    },
    {
      "inputs": [
        {
          "internalType": "uint256",
          "name": "tournamentId",
          "type": "uint256"
        },
        {
          "internalType": "address",
          "name": "participant",
          "type": "address"
        }
      ],
      "name": "getEntryFeePaid",
      "outputs": [
        {
          "internalType": "uint256",
          "name": "",
          "type": "uint256"
        }
      ],
      "stateMutability": "view",
      "type": "function"
    },
    {
      "inputs": [
        {
          "internalType": "uint256",
          "name": "tournamentId",
          "type": "uint256"
        },
        {
          "internalType": "uint256",
          "name": "position",
          "type": "uint256"
        }
      ],
      "name": "getPositionInfo",
      "outputs": [
        {
          "internalType": "uint256",
          "name": "rewardAmount",
          "type": "uint256"
        },
        {
          "internalType": "address",
          "name": "winner",
          "type": "address"
        },
        {
          "internalType": "bool",
          "name": "claimed",
          "type": "bool"
        }
      ],
      "stateMutability": "view",
      "type": "function"
    },
    {
      "inputs": [
        {
          "internalType": "uint256",
          "name": "tournamentId",
          "type": "uint256"
        }
      ],
      "name": "getPositionRewardAmounts",
      "outputs": [
        {
          "internalType": "uint256[]",
          "name": "",
          "type": "uint256[]"
        }
      ],
      "stateMutability": "view",
      "type": "function"
    },
    {
      "inputs": [
        {
          "internalType": "uint256",
          "name": "tournamentId",
          "type": "uint256"
        }
      ],
      "name": "getTournamentInfo",
      "outputs": [
        {
          "internalType": "address",
          "name": "creator",
          "type": "address"
        },
        {
          "internalType": "string",
          "name": "name",
          "type": "string"
        },
        {
          "internalType": "string",
          "name": "description",
          "type": "string"
        },
        {
          "internalType": "string",
          "name": "gameId",
          "type": "string"
        },
        {
          "internalType": "uint256",
          "name": "maxParticipants",
          "type": "uint256"
        },
        {
          "internalType": "uint256",
          "name": "createdAt",
          "type": "uint256"
        },
        {
          "internalType": "uint256",
          "name": "startTime",
          "type": "uint256"
        },
        {
          "internalType": "uint256",
          "name": "registrationEndTime",
          "type": "uint256"
        },
        {
          "internalType": "bool",
          "name": "isActive",
          "type": "bool"
        },
        {
          "internalType": "address",
          "name": "rewardTokenAddress",
          "type": "address"
        },
        {
          "internalType": "uint256",
          "name": "totalRewardAmount",
          "type": "uint256"
        },
        {
          "internalType": "uint256",
          "name": "positionCount",
          "type": "uint256"
        },
        {
          "internalType": "bool",
          "name": "hasEntryFee",
          "type": "bool"
        },
        {
          "internalType": "address",
          "name": "entryFeeTokenAddress",
          "type": "address"
        },
        {
          "internalType": "uint256",
          "name": "entryFeeAmount",
          "type": "uint256"
        },
        {
          "internalType": "bool",
          "name": "feesDistributed",
          "type": "bool"
        },
        {
          "internalType": "uint256",
          "name": "participantCount",
          "type": "uint256"
        }
      ],
      "stateMutability": "view",
      "type": "function"
    },
    {
      "inputs": [],
      "name": "initialize",
      "outputs": [],
      "stateMutability": "nonpayable",
      "type": "function"
    },
    {
      "inputs": [
        {
          "internalType": "uint256",
          "name": "tournamentId",
          "type": "uint256"
        },
        {
          "internalType": "address",
          "name": "participant",
          "type": "address"
        }
      ],
      "name": "isParticipantRegistered",
      "outputs": [
        {
          "internalType": "bool",
          "name": "",
          "type": "bool"
        }
      ],
      "stateMutability": "view",
      "type": "function"
    },
    {
      "inputs": [],
      "name": "nextTournamentId",
      "outputs": [
        {
          "internalType": "uint256",
          "name": "",
          "type": "uint256"
        }
      ],
      "stateMutability": "view",
      "type": "function"
    },
    {
      "inputs": [],
      "name": "owner",
      "outputs": [
        {
          "internalType": "address",
          "name": "",
          "type": "address"
        }
      ],
      "stateMutability": "view",
      "type": "function"
    },
    {
      "inputs": [
        {
          "internalType": "address",
          "name": "",
          "type": "address"
        }
      ],
      "name": "platformFees",
      "outputs": [
        {
          "internalType": "uint256",
          "name": "",
          "type": "uint256"
        }
      ],
      "stateMutability": "view",
      "type": "function"
    },
    {
      "inputs": [],
      "name": "proxiableUUID",
      "outputs": [
        {
          "internalType": "bytes32",
          "name": "",
          "type": "bytes32"
        }
      ],
      "stateMutability": "view",
      "type": "function"
    },
    {
      "inputs": [
        {
          "internalType": "uint256",
          "name": "tournamentId",
          "type": "uint256"
        }
      ],
      "name": "registerForTournament",
      "outputs": [],
      "stateMutability": "nonpayable",
      "type": "function"
    },
    {
      "inputs": [
        {
          "internalType": "uint256",
          "name": "tournamentId",
          "type": "uint256"
        }
      ],
      "name": "registerWithEntryFee",
      "outputs": [],
      "stateMutability": "payable",
      "type": "function"
    },
    {
      "inputs": [],
      "name": "renounceOwnership",
      "outputs": [],
      "stateMutability": "nonpayable",
      "type": "function"
    },
    {
      "inputs": [
        {
          "internalType": "uint256",
          "name": "",
          "type": "uint256"
        }
      ],
      "name": "tournaments",
      "outputs": [
        {
          "internalType": "uint256",
          "name": "id",
          "type": "uint256"
        },
        {
          "internalType": "address",
          "name": "creator",
          "type": "address"
        },
        {
          "internalType": "string",
          "name": "name",
          "type": "string"
        },
        {
          "internalType": "string",
          "name": "description",
          "type": "string"
        },
        {
          "internalType": "string",
          "name": "gameId",
          "type": "string"
        },
        {
          "internalType": "uint256",
          "name": "maxParticipants",
          "type": "uint256"
        },
        {
          "internalType": "uint256",
          "name": "createdAt",
          "type": "uint256"
        },
        {
          "internalType": "uint256",
          "name": "startTime",
          "type": "uint256"
        },
        {
          "internalType": "uint256",
          "name": "registrationEndTime",
          "type": "uint256"
        },
        {
          "internalType": "bool",
          "name": "isActive",
          "type": "bool"
        },
        {
          "internalType": "address",
          "name": "rewardTokenAddress",
          "type": "address"
        },
        {
          "internalType": "uint256",
          "name": "totalRewardAmount",
          "type": "uint256"
        },
        {
          "internalType": "bool",
          "name": "hasEntryFee",
          "type": "bool"
        },
        {
          "internalType": "address",
          "name": "entryFeeTokenAddress",
          "type": "address"
        },
        {
          "internalType": "uint256",
          "name": "entryFeeAmount",
          "type": "uint256"
        },
        {
          "internalType": "bool",
          "name": "feesDistributed",
          "type": "bool"
        },
        {
          "internalType": "uint256",
          "name": "participantCount",
          "type": "uint256"
        }
      ],
      "stateMutability": "view",
      "type": "function"
    },
    {
      "inputs": [
        {
          "internalType": "address",
          "name": "newOwner",
          "type": "address"
        }
      ],
      "name": "transferOwnership",
      "outputs": [],
      "stateMutability": "nonpayable",
      "type": "function"
    },
    {
      "inputs": [
        {
          "internalType": "address",
          "name": "newImplementation",
          "type": "address"
        },
        {
          "internalType": "bytes",
          "name": "data",
          "type": "bytes"
        }
      ],
      "name": "upgradeToAndCall",
      "outputs": [],
      "stateMutability": "payable",
      "type": "function"
    },
    {
      "inputs": [
        {
          "internalType": "address",
          "name": "tokenAddress",
          "type": "address"
        }
      ],
      "name": "withdrawPlatformFees",
      "outputs": [],
      "stateMutability": "nonpayable",
      "type": "function"
    }
  ],
  "bytecode": "0x60a08060405234620000d157306080527ff0c57e16840df040f15088dc2f81fe391c3923bec73e23a9662efc9c229c6a009081549060ff8260401c16620000c257506001600160401b036002600160401b0319828216016200007c575b60405161391f9081620000d7823960805181818161190101526119ba0152f35b6001600160401b031990911681179091556040519081527fc7f505b2f371ae2175ee4913f4499e1f2633a7b5936321eed1cdaeb6115181d290602090a13880806200005c565b63f92ee8a960e01b8152600490fd5b600080fdfe608080604052600436101561001357600080fd5b600090813560e01c908163155482321461208d575080633243223314611d6757806332e8bc7214611d2e578063334f7deb14611c185780633d1f643814611b755780634f1ef2861461196b57806352d1902d146118ee578063564d6579146118d25780635909eccd146115625780635c3977a2146114a057806366025a7e1461123f57806367e820ad146111b3578063715018a6146111495780637503e1b7146110025780638129fc1c14610ea8578063852efc3d14610e8a57806386bb8f3714610b9157806387c1394314610b745780638da5cb5b14610b3e5780639ee5f60014610afa578063ad3cb1cc14610a8a578063c00b69fe14610a6d578063c56aab81146108a9578063cac766d214610742578063cb84e537146106e2578063d533344f1461063a578063dcc0463a146105e1578063ec3889b514610452578063f2fde38b14610425578063f37aa5091461036e5763f40668691461017657600080fd5b61014036600319011261036b576001600160401b0390600435828111610367576101a4903690600401612178565b91602435818111610363576101bd903690600401612178565b60443582811161035f576101d5903690600401612178565b906101de6120c3565b9260e43590811161035b576101f79036906004016121ad565b61010435936001600160a01b0385169384860361035757610124359461021b6124c2565b8515610312576102a7575b9260209760409361024a93600d97963494339460a435926084359260643592612572565b8086528587529420600b810180546001600160a81b03191660089590951b610100600160a81b03169490941760011790935560ff199290600c8201550190815416905560016000805160206138aa83398151915255604051908152f35b90919392853b156102bb5792939190610226565b60405162461bcd60e51b815260206004820152602960248201527f456e7472792066656520746f6b656e2061646472657373206973206e6f7420616044820152680818dbdb9d1c9858dd60ba1b6064820152608490fd5b60405162461bcd60e51b815260206004820152601a60248201527f456e74727920666565206d75737420626520706f7369746976650000000000006044820152606490fd5b8680fd5b8480fd5b8380fd5b8280fd5b5080fd5b80fd5b503461036b576020806003193601126103675760043580835282825261039981604085205414613026565b8252818152600e604083200160405192838383549182815201908193835284832090835b81811061041157505050846103d39103856120ef565b60405193838594850191818652518092526040850193925b8281106103fa57505050500390f35b8351855286955093810193928101926001016103eb565b8254845292860192600192830192016103bd565b503461036b57602036600319011261036b5761044f6104426120a8565b61044a612341565b61237a565b80f35b503461036b576020806003193601126103675761046d6120a8565b90610476612341565b61047e6124c2565b6001600160a01b0391821680845260038252604084205492909190831561058e578285526003825284604081205560008051602061388a833981519152541692821560001461055b578480808084885af16104d76123ee565b501561051d57907fc0f01729b0d2f4ee8f47286e5cf926377eab5d6e58a981836e2f30705db2362c915b604051908152a360016000805160206138aa8339815191525580f35b60405162461bcd60e51b815260048101839052601660248201527513985d1a5d99481d1c985b9cd9995c8819985a5b195960521b6044820152606490fd5b90816105897fc0f01729b0d2f4ee8f47286e5cf926377eab5d6e58a981836e2f30705db2362c93868661359a565b610501565b60405162461bcd60e51b815260048101839052602560248201527f4e6f206665657320746f2077697468647261772066726f6d2074686973206d616044820152647070696e6760d81b6064820152608490fd5b503461036b57604036600319011261036b5760406020916004356106036120d9565b90808352828552610618818585205414613026565b8252600284528282206001600160a01b03909116825283522054604051908152f35b503461036b57606036600319011261036b576001600160a01b03604435600435828216820361035f576106b96106cd936106726124c2565b8286528560205261068883604088205414613026565b828652856020526106a260ff600960408920015416613072565b8286528560205260016040872001541633146135e9565b8084528360205260243590604085206136bf565b60016000805160206138aa8339815191525580f35b503461036b57604036600319011261036b5760ff60406020926004356107066120d9565b9080835282865261071b818585205414613026565b82528185528282206001600160a01b03909116825260120184522054604051911615158152f35b503461036b57602036600319011261036b57600435808252816020528060408320541461076e90613026565b81528060205260409020600160a01b600190036001820154169060058101546006820154600783015460088401546009850154600a860154600e87015490600b88015492600c89015494600d8a015460ff169660118b01549860028c016107d49061225b565b9b6107e16003820161225b565b906004016107ee9061225b565b906040519e8f9e8f918252610220806020840152820161080d91612301565b90808203906040015261081f91612301565b8d810360608f015261083091612301565b9a60808d015260a08c015260c08b015260e08a015260ff811615156101008a0152600160a01b600190039060081c1661012089015261014088015261016087015260ff81161515610180870152600160a01b600190039060081c166101a08601526101c085015215156101e08401526102008301520390f35b503461036b57606036600319011261036b576004356001600160401b0360243581811161035f576108de9036906004016121ad565b9060443590811161035f573660238201121561035f5780600401359261090384612196565b9161091160405193846120ef565b84835260209460248685019160051b83010191368311610a6957602401905b828210610a46575050506109426124c2565b80855284845261095781604087205414613026565b80855284845261097060ff600960408820015416613072565b80855284845260018060a01b03600194610993828760408a2001541633146135e9565b8451845103610a09579086839287959482525260408720948488905b6109c9575b88866000805160206138aa8339815191525580f35b8151811015610a0457806109f96109e36109fe9385612524565b51856109ef848a612524565b511690878b6136bf565b612515565b856109af565b6109b4565b6064906040519062461bcd60e51b825260048201526016602482015275082e4e4c2f2e640d8cadccee8d040dad2e6dac2e8c6d60531b6044820152fd5b81356001600160a01b0381168103610a65578152908601908601610930565b8880fd5b8780fd5b503461036b578060031936011261036b576020604051610e108152f35b503461036b578060031936011261036b57604051604081018181106001600160401b03821117610ae657610ae2925060405260058152640352e302e360dc1b6020820152604051918291602083526020830190612301565b0390f35b634e487b7160e01b83526041600452602483fd5b503461036b57604036600319011261036b576040602091610b196120d9565b6004358252600284528282206001600160a01b03909116825283522054604051908152f35b503461036b578060031936011261036b5760008051602061388a833981519152546040516001600160a01b039091168152602090f35b503461036b578060031936011261036b5760206040516127108152f35b503461036b57610ba03661220b565b610ba86124c2565b8183526020838152610bbf83604086205414613026565b828452838152610bd860ff600960408720015416613072565b8284528381526040842090600e8201610bf38154851061362e565b6010830190848752818352610c0f60ff60408920541615613673565b848752600f8401835260408720546001600160a01b0392903390841603610e475785600992610c5192828b52865260408a20600160ff19825416179055613871565b90549060031b1c93015460081c168015600014610d805750814710610d36578480808085335af1610c806123ee565b5015610cf2575b60018301809311610cde57916060917fa8325f46ec9623d7ced8f695ff820511a4acef4f5d5c4933bd5d992141a2b9059360405192835233908301526040820152a260016000805160206138aa8339815191525580f35b634e487b7160e01b85526011600452602485fd5b6064906040519062461bcd60e51b82526004820152601d60248201527f4e617469766520726577617264207472616e73666572206661696c65640000006044820152fd5b6084906040519062461bcd60e51b82526004820152602f60248201526000805160206138ca83398151915260448201526e1c881b985d1a5d99481c995dd85c99608a1b6064820152fd5b6040516370a0823160e01b81523060048201528281602481855afa8015610e3c5784918891610e0b575b5010610dc15782610dbc91339061359a565b610c87565b60405162461bcd60e51b815260048101839052602e60248201526000805160206138ca83398151915260448201526d1c881d1bdad95b881c995dd85c9960921b6064820152608490fd5b809250848092503d8311610e35575b610e2481836120ef565b810103126103575783905138610daa565b503d610e1a565b6040513d89823e3d90fd5b6064846040519062461bcd60e51b825280600483015260248201527f4e6f74207468652077696e6e657220666f72207468697320706f736974696f6e6044820152fd5b503461036b578060031936011261036b576020600154604051908152f35b503461036b578060031936011261036b577ff0c57e16840df040f15088dc2f81fe391c3923bec73e23a9662efc9c229c6a0080549060ff8260401c16156001600160401b03831692831580610ffb575b60018095149081610ff1575b159081610fe8575b50610fd65767ffffffffffffffff1981168417835581610fb7575b50610f30612481565b610f38612481565b610f413361237a565b610f49612481565b610f51612481565b826000805160206138aa83398151915255610f6a612481565b828055610f75578280f35b805468ff0000000000000000191690556040519081527fc7f505b2f371ae2175ee4913f4499e1f2633a7b5936321eed1cdaeb6115181d290602090a138808280f35b68ffffffffffffffffff19166801000000000000000117825538610f27565b60405163f92ee8a960e01b8152600490fd5b90501538610f0c565b303b159150610f04565b5081610ef8565b503461036b57602036600319011261036b576004358152602081905260409020805460018201546001600160a01b03169161103f6002820161225b565b61104b6003830161225b565b916110586004820161225b565b92600582015493600683015460078401546008850154600986015491600a87015493600b88015495600c89015497600d8a015460ff1699601101549a6040519e8f9e8f908152602001528d61022090816040820152016110b791612301565b8d810360608f01526110c891612301565b8c810360808e01526110d991612301565b60a08c019a909a5260c08b015260e08a015261010089015260ff81811615156101208a01526001600160a01b03600892831c81166101408b01526101608a0193909352831615156101808901529190911c166101a08601526101c085015215156101e08401526102008301520390f35b503461036b578060031936011261036b57611162612341565b60008051602061388a83398151915280546001600160a01b0319811690915581906001600160a01b03167f8be0079c531659141344cd1fd0a4f28419497f9722a3daafe3b4186f6b6457e08280a380f35b503461036b576060906111c53661220b565b90808352826020526111dc81604085205414613026565b8252816020526040822060ff604061120384600e85016111fe8154831061362e565b613871565b959054948152600f8401602052601060018060a01b0383832054169401602052205416916040519360031b1c8352602083015215156040820152f35b506020908160031936011261036b576004356112596124c2565b80825281835261126e81604084205414613026565b80825281835261128760ff600960408520015416613072565b808252818352604082206112a160088201544211156130b6565b600b81015460ff8116156114505760128201903385528186526112cb60ff60408720541615613102565b60058301548061143b575b5060081c6001600160a01b0316806113bb5750600c820154340361136c5760119293945b600c8301548587526002825260408720338852825260408720555260408420600160ff198254161790550161132f8154612515565b905533907f78337b3a0cfc36faafab5a292dc7571f6bd68ba681c22e15c97b1e3469b51a028380a360016000805160206138aa8339815191525580f35b60405162461bcd60e51b815260048101869052602160248201527f496e636f7272656374206e617469766520656e7472792066656520616d6f756e6044820152601d60fa1b6064820152608490fd5b346113dd57946113d86011949596600c8501549030903390612f50565b6112fa565b60405162461bcd60e51b815260048101879052603060248201527f446f206e6f742073656e64206e61746976652063757272656e6379207769746860448201526f20746f6b656e20656e7472792066656560801b6064820152608490fd5b61144a90601185015410613143565b386112d6565b60405162461bcd60e51b815260048101869052602260248201527f546f75726e616d656e7420646f6573206e6f74206861766520656e7472792066604482015261656560f01b6064820152608490fd5b5061010036600319011261036b576001600160401b03600435818111610363576114ce903690600401612178565b9060243581811161035f576114e7903690600401612178565b9260443582811161036757611500903690600401612178565b916115096120c3565b9160e43591821161036b5760206115488787878761152a3660048a016121ad565b916115336124c2565b3494339460a435926084359260643592612572565b60016000805160206138aa83398151915255604051908152f35b503461036b57602080600319360112610367576004356115806124c2565b80835282825261159581604085205414613026565b808352828252604083209160ff60098401541661188e5760ff600d600b8501946115c183875416613184565b015416611839578184526002815260408420338552815260408420549283156117e657828552600282526040808620338752835285208590555460081c6001600160a01b0316806116f957508247106116af578380808086335af16116246123ee565b501561166b577f2d8fea80d3388cba87acc61459012ecef6c1a5470a1fa4e698333e2335158b58905b6040519384523393a360016000805160206138aa8339815191525580f35b6064906040519062461bcd60e51b82526004820152601e60248201527f4e617469766520656e7472792066656520726566756e64206661696c656400006044820152fd5b6084906040519062461bcd60e51b82526004820152602f60248201526000805160206138ca83398151915260448201526e1c881b985d1a5d99481c99599d5b99608a1b6064820152fd5b6040516370a0823160e01b81523060048201528281602481855afa80156117db57859187916117a6575b501061175c5790611757847f2d8fea80d3388cba87acc61459012ecef6c1a5470a1fa4e698333e2335158b5893339061359a565b61164d565b60405162461bcd60e51b815260048101839052602e60248201526000805160206138ca83398151915260448201526d1c881d1bdad95b881c99599d5b9960921b6064820152608490fd5b809250848092503d83116117d4575b6117bf81836120ef565b810103126117d05784905138611723565b8580fd5b503d6117b5565b6040513d88823e3d90fd5b60405162461bcd60e51b815260048101839052602560248201527f4e6f20656e747279206665652070616964206f7220616c7265616479207265666044820152641d5b99195960da1b6064820152608490fd5b6084906040519062461bcd60e51b82526004820152602860248201527f4665657320616c7265616479206469737472696275746564202863616e6e6f7460448201526720726566756e642960c01b6064820152fd5b6064906040519062461bcd60e51b82526004820152601860248201527f546f75726e616d656e74206e6f742063616e63656c6c656400000000000000006044820152fd5b503461036b578060031936011261036b576020604051600a8152f35b503461036b578060031936011261036b577f00000000000000000000000000000000000000000000000000000000000000006001600160a01b031630036119595760206040517f360894a13ba1a3210667c828492db98dca3e2076cc3735a920a3ca505d382bbc8152f35b60405163703e46dd60e11b8152600490fd5b50604036600319011261036b576119806120a8565b6024356001600160401b0381116103635736602382011215610363576119b0903690602481600401359101612141565b6001600160a01b037f00000000000000000000000000000000000000000000000000000000000000008116308114908115611b47575b50611959576119f3612341565b8216916040516352d1902d60e01b8152602081600481875afa859181611b14575b50611a3257604051634c9c8ce360e01b815260048101859052602490fd5b9284937f360894a13ba1a3210667c828492db98dca3e2076cc3735a920a3ca505d382bbc90818103611afc5750823b15611ae35780546001600160a01b0319168217905560405184917fbc7cd75a20ee27fd9adebab32041f755214dbc6bffa90cc0225b39da2e5c2d3b8380a2835115611ac7575080836020611ac395519101845af4611abd6123ee565b9161241e565b5080f35b9250505034611ad4575080f35b63b398979f60e01b8152600490fd5b604051634c9c8ce360e01b815260048101839052602490fd5b60249060405190632a87526960e21b82526004820152fd5b9091506020813d8211611b3f575b81611b2f602093836120ef565b810103126117d057519038611a14565b3d9150611b22565b9050817f360894a13ba1a3210667c828492db98dca3e2076cc3735a920a3ca505d382bbc54161415386119e6565b503461036b57602036600319011261036b57600435611b926124c2565b80825281602052611ba881604084205414613026565b8082528160205260408220906008820154421115611bc9576106cd916131d0565b60405162461bcd60e51b815260206004820152602160248201527f526567697374726174696f6e20706572696f64206e6f7420656e6465642079656044820152601d60fa1b6064820152608490fd5b503461036b576020806003193601126103675760043590611c376124c2565b818352828152611c4c82604085205414613026565b818352828152611c6560ff600960408620015416613072565b8183528281526040832090611c8060088301544211156130b6565b60ff600b83015416611cea57906011916012820190338652818152611cac60ff60408820541615613102565b600583015480611cd6575b503386525260408420600160ff198254161790550161132f8154612515565b611ce4908585015410613143565b38611cb7565b6064906040519062461bcd60e51b82526004820152601d60248201527f546f75726e616d656e7420726571756972657320656e747279206665650000006044820152fd5b503461036b57602036600319011261036b576020906040906001600160a01b03611d566120a8565b168152600383522054604051908152f35b503461036b576020806003193601126103675760043590611d866124c2565b818352828152611d9b82604085205414613026565b81835282815260ff611db581600960408720015416613072565b82845283825260408420600101546001600160a01b0390611dd990821633146135e9565b8385528483526040852090600982019182549260ff198416905586938790600e8301805491600f8501905b838510611ff957505050505083611e51575b86867ffa61ec8d7e5a58ceba17772b10ba0c6caa65b40b200302be35f00efc264c78958280a260016000805160206138aa8339815191525580f35b6001015481169160081c1680611f305750814710611ede578480809381935af1611e796123ee565b5015611e8b57505b3880808080611e16565b6084906040519062461bcd60e51b82526004820152602660248201527f4e61746976652072657761726420726566756e6420746f2063726561746f722060448201526519985a5b195960d21b6064820152fd5b60405162461bcd60e51b815260048101849052603660248201526000805160206138ca8339815191526044820152751c881b985d1a5d99481c995dd85c99081c99599d5b9960521b6064820152608490fd5b6040516370a0823160e01b8152306004820152939594938681602481855afa9081156117db579084918791611fc8575b5010611f7757611f729394955061359a565b611e81565b60405162461bcd60e51b815260048101879052603560248201526000805160206138ca8339815191526044820152741c881d1bdad95b881c995dd85c99081c99599d5b99605a1b6064820152608490fd5b809250888092503d8311611ff2575b611fe181836120ef565b810103126117d05783905138611f60565b503d611fd7565b9091929397888c52828a528660408d205416151580612079575b156120455761203661203c916120298b87613871565b90549060031b1c9061254e565b98612515565b93929190611e04565b97828a528660408d2054161561205f575b61203c90612515565b9761207161203c916120298b87613871565b989050612056565b50601086018a528160408d20541615612013565b9050346103675781600319360112610367578060fa60209252f35b600435906001600160a01b03821682036120be57565b600080fd5b60c435906001600160a01b03821682036120be57565b602435906001600160a01b03821682036120be57565b90601f801991011681019081106001600160401b0382111761211057604052565b634e487b7160e01b600052604160045260246000fd5b6001600160401b03811161211057601f01601f191660200190565b92919261214d82612126565b9161215b60405193846120ef565b8294818452818301116120be578281602093846000960137010152565b9080601f830112156120be5781602061219393359101612141565b90565b6001600160401b0381116121105760051b60200190565b81601f820112156120be578035916121c483612196565b926121d260405194856120ef565b808452602092838086019260051b8201019283116120be578301905b8282106121fc575050505090565b813581529083019083016121ee565b60409060031901126120be576004359060243590565b90600182811c92168015612251575b602083101461223b57565b634e487b7160e01b600052602260045260246000fd5b91607f1691612230565b906040519182600082549261226f84612221565b9081845260019485811690816000146122de575060011461229b575b5050612299925003836120ef565b565b9093915060005260209081600020936000915b8183106122c65750506122999350820101388061228b565b855488840185015294850194879450918301916122ae565b91505061229994506020925060ff191682840152151560051b820101388061228b565b919082519283825260005b84811061232d575050826000602080949584010152601f8019910116010190565b60208183018101518483018201520161230c565b60008051602061388a833981519152546001600160a01b0316330361236257565b60405163118cdaa760e01b8152336004820152602490fd5b6001600160a01b039081169081156123d55760008051602061388a83398151915280546001600160a01b031981168417909155167f8be0079c531659141344cd1fd0a4f28419497f9722a3daafe3b4186f6b6457e0600080a3565b604051631e4fbdf760e01b815260006004820152602490fd5b3d15612419573d906123ff82612126565b9161240d60405193846120ef565b82523d6000602084013e565b606090565b90612445575080511561243357805190602001fd5b604051630a12f52160e11b8152600490fd5b81511580612478575b612456575090565b604051639996b31560e01b81526001600160a01b039091166004820152602490fd5b50803b1561244e565b60ff7ff0c57e16840df040f15088dc2f81fe391c3923bec73e23a9662efc9c229c6a005460401c16156124b057565b604051631afcd79f60e31b8152600490fd5b6000805160206138aa83398151915260028154146124e05760029055565b604051633ee5aeb560e01b8152600490fd5b919082039182116124ff57565b634e487b7160e01b600052601160045260246000fd5b60001981146124ff5760010190565b80518210156125385760209160051b010190565b634e487b7160e01b600052603260045260246000fd5b919082018092116124ff57565b818110612566575050565b6000815560010161255b565b9298919697939995909499835115612f1457885115612ed757600a895111612e925742811115612e3957808b1115612ddd57610e106125b1828d6124f2565b10612d985760009a8b5b8a518d101561263d576125ce8d8c612524565b51156125f8576125ec6125f2916125e58f8e612524565b519061254e565b9c612515565b9b6125bb565b60405162461bcd60e51b815260206004820152601e60248201527f52657761726420616d6f756e74206d75737420626520706f73697469766500006044820152606490fd5b9395989b5090919396999895988315612d53576001600160a01b0395849086881680612b50575003612aff575b600154996126778b612515565b6001558a60005260006020526040600020968b8855600188019a16998a6bffffffffffffffffffffffff60a01b82541617905588516001600160401b038111612110576126c76002890154612221565b601f8111612aca575b50806020601f8211600114612a5c57600091612a51575b508160011b916000199060031b1c19161760028801555b8051906001600160401b03821161211057819061271e60038a0154612221565b601f8111612a1c575b50602090601f83116001146129aa5760009261299f575b50508160011b916000199060031b1c19161760038701555b8b516001600160401b038111612110576127736004880154612221565b601f811161295f575b506020601f82116001146128e4578190600e999a9b9c9d9e6000926128d9575b50508160011b916000199060031b1c19161760048701555b600586015542600686015560078501556008808501919091556009840180546001600160a81b0319169390911b610100600160a81b03169290921760011790915560ff1990600a830155600b82018181541690556001600d830191825416179055018151916001600160401b038311612110576801000000000000000083116121105760209082548484558085106128bc575b509086949392910190600052602060002060005b8381106128a5575050505061289f7fbd34ba7c23e010b2fa639a38c057cf452062c6645a1c102adbee46d0b37b866991604051918291602083526020830190612301565b0390a390565b82518183015587955060209092019160010161285b565b6128d390846000528584600020918201910161255b565b38612847565b01519050388061279c565b6004880160005260206000209d60005b601f198416811061294257509d8291600e9a9b9c9d9e9f600194601f19811610612929575b505050811b0160048701556127b4565b015160001960f88460031b161c19169055388080612919565b909e8f60016020928584930151815501930191019e90919e6128f4565b61298f90600489016000526020600020601f840160051c81019160208510612995575b601f0160051c019061255b565b3861277c565b9091508190612982565b01519050388061273e565b9250600389016000526020600020906000935b601f1984168510612a01576001945083601f198116106129e8575b505050811b016003870155612756565b015160001960f88460031b161c191690553880806129d8565b818101518355602094850194600190930192909101906129bd565b612a4b9060038b016000526020600020601f850160051c8101916020861061299557601f0160051c019061255b565b38612727565b90508a0151386126e7565b91506002890160005260206000206000925b8c601f1984168510612ab357506001935082601f19811610612a9a575b5050811b0160028801556126fe565b8c015160001960f88460031b161c191690553880612a8b565b810151825560209384019360019092019101612a6e565b612af99060028a016000526020600020601f840160051c8101916020851061299557601f0160051c019061255b565b386126d0565b60405162461bcd60e51b815260206004820152602360248201527f496e636f7272656374206e61746976652072657761726420616d6f756e742073604482015262195b9d60ea1b6064820152608490fd5b9150612cf757853b15612ca3576040516370a0823160e01b808252306004830152602092918381602481865afa918215612c5d57888e8693600095612c69575b5090612b9e91309087612f50565b60246040518095819382523060048301525afa8015612c5d578792600091612c29575b5090612bcc916124f2565b03612bd7575061266a565b6084906040519062461bcd60e51b82526004820152602560248201527f52657761726420746f6b656e207472616e7366657220616d6f756e74206d69736044820152640dac2e8c6d60db1b6064820152fd5b9192508382813d8311612c56575b612c4181836120ef565b8101031261036b575051869190612bcc612bc1565b503d612c37565b6040513d6000823e3d90fd5b938092508491509492943d8311612c9c575b612c8581836120ef565b8101031261036b575051908390888e612b9e612b90565b503d612c7b565b60405162461bcd60e51b815260206004820152602660248201527f52657761726420746f6b656e2061646472657373206973206e6f74206120636f6044820152651b9d1c9858dd60d21b6064820152608490fd5b60405162461bcd60e51b815260206004820152602e60248201527f446f206e6f742073656e64206e61746976652063757272656e6379207769746860448201526d20746f6b656e207265776172647360901b6064820152608490fd5b60405162461bcd60e51b815260206004820152601d60248201527f546f74616c20726577617264206d75737420626520706f7369746976650000006044820152606490fd5b60405162461bcd60e51b815260206004820152601d60248201527f526567697374726174696f6e20706572696f6420746f6f2073686f72740000006044820152606490fd5b60405162461bcd60e51b815260206004820152602e60248201527f53746172742074696d65206d757374206265206166746572207265676973747260448201526d6174696f6e20656e642074696d6560901b6064820152608490fd5b60405162461bcd60e51b815260206004820152602b60248201527f526567697374726174696f6e20656e642074696d65206d75737420626520696e60448201526a207468652066757475726560a81b6064820152608490fd5b60405162461bcd60e51b815260206004820152601c60248201527f45786365656473206d61782077696e6e657220706f736974696f6e73000000006044820152606490fd5b60405162461bcd60e51b8152602060048201526015602482015274139bc81c1bdcda5d1a5bdb9cc81c1c9bdd9a591959605a1b6044820152606490fd5b60405162461bcd60e51b81526020600482015260146024820152734e616d652063616e6e6f7420626520656d70747960601b6044820152606490fd5b6040516323b872dd60e01b60208201526001600160a01b03928316602482015292909116604483015260648083019390935291815260a08101918183106001600160401b0384111761211057612299926040525b60018060a01b031690612fce600080836020829551910182875af1612fc76123ee565b908461241e565b908151918215159283612ffe575b505050612fe65750565b60249060405190635274afe760e01b82526004820152fd5b81929350906020918101031261036757602001519081159182150361036b5750388080612fdc565b1561302d57565b60405162461bcd60e51b815260206004820152601960248201527f546f75726e616d656e7420646f6573206e6f74206578697374000000000000006044820152606490fd5b1561307957565b60405162461bcd60e51b8152602060048201526015602482015274546f75726e616d656e74206e6f742061637469766560581b6044820152606490fd5b156130bd57565b60405162461bcd60e51b815260206004820152601960248201527f526567697374726174696f6e20706572696f6420656e646564000000000000006044820152606490fd5b1561310957565b60405162461bcd60e51b8152602060048201526012602482015271105b1c9958591e481c9959da5cdd195c995960721b6044820152606490fd5b1561314a57565b60405162461bcd60e51b8152602060048201526012602482015271151bdd5c9b985b595b9d081a5cc8199d5b1b60721b6044820152606490fd5b1561318b57565b60405162461bcd60e51b815260206004820152601b60248201527f546f75726e616d656e7420686173206e6f20656e7472792066656500000000006044820152606490fd5b90600d820180549260ff84166135555760ff600982015416156134f857600b8101546131fe60ff8216613184565b601182015494600c830154958681029681880414901517156124ff5785156134e8575060fa850285810460fa036124ff5761271090049461323f86826124f2565b60008051602061388a8339815191525490926001600160a01b0392918316919060081c8316806133e45750471061338b5760009081808080878760018b0154165af16132896123ee565b50156133385781808981935af161329e6123ee565b50156132e75760016040937f48111311b30366b1c196f3a6a4818d02a01c7fcb89bc97023643c5e27c5df6cb955b8260ff198254161790550154169482519182526020820152a3565b60405162461bcd60e51b815260206004820152602360248201527f4e617469766520666565207472616e7366657220746f206f776e6572206661696044820152621b195960ea1b6064820152608490fd5b60405162461bcd60e51b815260206004820152602560248201527f4e617469766520666565207472616e7366657220746f2063726561746f722066604482015264185a5b195960da1b6064820152608490fd5b60405162461bcd60e51b815260206004820152603960248201526000805160206138ca83398151915260448201527f72206e61746976652066656520646973747269627574696f6e000000000000006064820152608490fd5b9194906040516370a0823160e01b8152306004820152602081602481875afa908115612c5d576000916134b7575b501061345e577f48111311b30366b1c196f3a6a4818d02a01c7fcb89bc97023643c5e27c5df6cb9561345989604097600195613454898989890154168361359a565b61359a565b6132cc565b60405162461bcd60e51b815260206004820152603860248201526000805160206138ca83398151915260448201527f7220746f6b656e2066656520646973747269627574696f6e00000000000000006064820152608490fd5b906020823d82116134e0575b816134d0602093836120ef565b8101031261036b57505138613412565b3d91506134c3565b60ff191660011790925550505050565b60405162461bcd60e51b815260206004820152602f60248201527f43616e6e6f742064697374726962757465206665657320666f722063616e636560448201526e1b1b1959081d1bdd5c9b985b595b9d608a1b6064820152608490fd5b60405162461bcd60e51b815260206004820152601860248201527f4665657320616c726561647920646973747269627574656400000000000000006044820152606490fd5b60405163a9059cbb60e01b60208201526001600160a01b03909216602483015260448083019390935291815260808101916001600160401b038311828410176121105761229992604052612fa4565b156135f057565b60405162461bcd60e51b81526020600482015260166024820152752737ba103a37bab93730b6b2b73a1031b932b0ba37b960511b6044820152606490fd5b1561363557565b60405162461bcd60e51b8152602060048201526016602482015275092dcecc2d8d2c840e0dee6d2e8d2dedc40d2dcc8caf60531b6044820152606490fd5b1561367a57565b60405162461bcd60e51b815260206004820152601860248201527f506f736974696f6e20616c726561647920636c61696d656400000000000000006044820152606490fd5b939290916136d2600e860154821061362e565b60009481865260206010820181526040936136f360ff868a20541615613673565b6001600160a01b031691821561382d57600781015442106137e9576011810154613782575b838852600f01815283872080546001600160a01b031916831790556001830192831061376e577f8981fdd74bd05da9ef8f2aeb472f541ee871b1e9e3908c19d01a9bf51ce5f7ab949596508351928352820152a2565b634e487b7160e01b87526011600452602487fd5b82885260128101825260ff858920541661371857845162461bcd60e51b815260048101839052602660248201527f57696e6e6572206973206e6f742061207265676973746572656420706172746960448201526518da5c185b9d60d21b6064820152608490fd5b845162461bcd60e51b815260048101839052601e60248201527f546f75726e616d656e7420686173206e6f7420737461727465642079657400006044820152606490fd5b845162461bcd60e51b815260048101839052601d60248201527f57696e6e65722063616e6e6f74206265207a65726f20616464726573730000006044820152606490fd5b8054821015612538576000526020600020019060009056fe9016d09d72d40fdae2fd8ceac6b6234c7706214fd39c1cd1e609a0528c1993009b779b17422d0df92223018b32b4d1fa46e071723d6817e2486d003becc55f00496e73756666696369656e7420636f6e74726163742062616c616e636520666fa264697066735822122037091ca090e9a853c58f04bb4222f881774e009ede0442c142c1c1b160ee37da64736f6c63430008140033",
  "linkReferences": {},
  "deployedLinkReferences": {}
}