{
  "_format": "hh-sol-artifact-1",
  "contractName": "TournamentEscrow",
  "sourceName": "contracts/TournamentEscrow.sol",
  "abi": [
    {
      "anonymous": false,
      "inputs": [
        {
          "indexed": true,
          "internalType": "address",
          "name": "previousOwner",
          "type": "address"
        },
        {
          "indexed": true,
          "internalType": "address",
          "name": "newOwner",
          "type": "address"
        }
      ],
      "name": "OwnershipTransferred",
      "type": "event"
    },
    {
      "anonymous": false,
      "inputs": [
        {
          "indexed": true,
          "internalType": "uint256",
          "name": "tournamentId",
          "type": "uint256"
        },
        {
          "indexed": false,
          "internalType": "uint256",
          "name": "position",
          "type": "uint256"
        },
        {
          "indexed": false,
          "internalType": "address",
          "name": "winner",
          "type": "address"
        },
        {
          "indexed": false,
          "internalType": "uint256",
          "name": "amount",
          "type": "uint256"
        }
      ],
      "name": "RewardClaimed",
      "type": "event"
    },
    {
      "anonymous": false,
      "inputs": [
        {
          "indexed": true,
          "internalType": "uint256",
          "name": "tournamentId",
          "type": "uint256"
        }
      ],
      "name": "TournamentCancelled",
      "type": "event"
    },
    {
      "anonymous": false,
      "inputs": [
        {
          "indexed": true,
          "internalType": "uint256",
          "name": "tournamentId",
          "type": "uint256"
        },
        {
          "indexed": true,
          "internalType": "address",
          "name": "creator",
          "type": "address"
        },
        {
          "indexed": false,
          "internalType": "string",
          "name": "name",
          "type": "string"
        }
      ],
      "name": "TournamentCreated",
      "type": "event"
    },
    {
      "anonymous": false,
      "inputs": [
        {
          "indexed": true,
          "internalType": "uint256",
          "name": "tournamentId",
          "type": "uint256"
        },
        {
          "indexed": false,
          "internalType": "uint256",
          "name": "position",
          "type": "uint256"
        },
        {
          "indexed": false,
          "internalType": "address",
          "name": "winner",
          "type": "address"
        }
      ],
      "name": "WinnerDeclared",
      "type": "event"
    },
    {
      "inputs": [
        {
          "internalType": "uint256",
          "name": "tournamentId",
          "type": "uint256"
        }
      ],
      "name": "cancelTournament",
      "outputs": [],
      "stateMutability": "nonpayable",
      "type": "function"
    },
    {
      "inputs": [
        {
          "internalType": "uint256",
          "name": "tournamentId",
          "type": "uint256"
        },
        {
          "internalType": "uint256",
          "name": "position",
          "type": "uint256"
        }
      ],
      "name": "claimReward",
      "outputs": [],
      "stateMutability": "nonpayable",
      "type": "function"
    },
    {
      "inputs": [
        {
          "internalType": "string",
          "name": "name",
          "type": "string"
        },
        {
          "internalType": "string",
          "name": "description",
          "type": "string"
        },
        {
          "internalType": "string",
          "name": "gameId",
          "type": "string"
        },
        {
          "internalType": "uint8",
          "name": "tournamentType",
          "type": "uint8"
        },
        {
          "internalType": "uint256",
          "name": "maxParticipants",
          "type": "uint256"
        },
        {
          "internalType": "uint256",
          "name": "registrationEndTime",
          "type": "uint256"
        },
        {
          "internalType": "uint256",
          "name": "startTime",
          "type": "uint256"
        },
        {
          "internalType": "address",
          "name": "rewardTokenAddress",
          "type": "address"
        },
        {
          "internalType": "uint256[]",
          "name": "positionRewardAmounts",
          "type": "uint256[]"
        }
      ],
      "name": "createTournament",
      "outputs": [
        {
          "internalType": "uint256",
          "name": "",
          "type": "uint256"
        }
      ],
      "stateMutability": "payable",
      "type": "function"
    },
    {
      "inputs": [
        {
          "internalType": "uint256",
          "name": "tournamentId",
          "type": "uint256"
        },
        {
          "internalType": "uint256",
          "name": "position",
          "type": "uint256"
        },
        {
          "internalType": "address",
          "name": "winner",
          "type": "address"
        }
      ],
      "name": "declareWinner",
      "outputs": [],
      "stateMutability": "nonpayable",
      "type": "function"
    },
    {
      "inputs": [
        {
          "internalType": "uint256",
          "name": "tournamentId",
          "type": "uint256"
        },
        {
          "internalType": "uint256",
          "name": "position",
          "type": "uint256"
        }
      ],
      "name": "getPositionInfo",
      "outputs": [
        {
          "internalType": "uint256",
          "name": "rewardAmount",
          "type": "uint256"
        },
        {
          "internalType": "address",
          "name": "winner",
          "type": "address"
        },
        {
          "internalType": "bool",
          "name": "claimed",
          "type": "bool"
        }
      ],
      "stateMutability": "view",
      "type": "function"
    },
    {
      "inputs": [
        {
          "internalType": "uint256",
          "name": "tournamentId",
          "type": "uint256"
        }
      ],
      "name": "getPositionRewardAmounts",
      "outputs": [
        {
          "internalType": "uint256[]",
          "name": "",
          "type": "uint256[]"
        }
      ],
      "stateMutability": "view",
      "type": "function"
    },
    {
      "inputs": [
        {
          "internalType": "uint256",
          "name": "tournamentId",
          "type": "uint256"
        }
      ],
      "name": "getTournamentInfo",
      "outputs": [
        {
          "internalType": "address",
          "name": "creator",
          "type": "address"
        },
        {
          "internalType": "string",
          "name": "name",
          "type": "string"
        },
        {
          "internalType": "string",
          "name": "description",
          "type": "string"
        },
        {
          "internalType": "string",
          "name": "gameId",
          "type": "string"
        },
        {
          "internalType": "uint8",
          "name": "tournamentType",
          "type": "uint8"
        },
        {
          "internalType": "uint256",
          "name": "maxParticipants",
          "type": "uint256"
        },
        {
          "internalType": "uint256",
          "name": "createdAt",
          "type": "uint256"
        },
        {
          "internalType": "uint256",
          "name": "startTime",
          "type": "uint256"
        },
        {
          "internalType": "uint256",
          "name": "registrationEndTime",
          "type": "uint256"
        },
        {
          "internalType": "bool",
          "name": "isActive",
          "type": "bool"
        },
        {
          "internalType": "address",
          "name": "rewardTokenAddress",
          "type": "address"
        },
        {
          "internalType": "uint256",
          "name": "totalRewardAmount",
          "type": "uint256"
        },
        {
          "internalType": "uint256",
          "name": "positionCount",
          "type": "uint256"
        }
      ],
      "stateMutability": "view",
      "type": "function"
    },
    {
      "inputs": [],
      "name": "nextTournamentId",
      "outputs": [
        {
          "internalType": "uint256",
          "name": "",
          "type": "uint256"
        }
      ],
      "stateMutability": "view",
      "type": "function"
    },
    {
      "inputs": [],
      "name": "owner",
      "outputs": [
        {
          "internalType": "address",
          "name": "",
          "type": "address"
        }
      ],
      "stateMutability": "view",
      "type": "function"
    },
    {
      "inputs": [],
      "name": "renounceOwnership",
      "outputs": [],
      "stateMutability": "nonpayable",
      "type": "function"
    },
    {
      "inputs": [
        {
          "internalType": "uint256",
          "name": "",
          "type": "uint256"
        }
      ],
      "name": "tournaments",
      "outputs": [
        {
          "internalType": "uint256",
          "name": "id",
          "type": "uint256"
        },
        {
          "internalType": "address",
          "name": "creator",
          "type": "address"
        },
        {
          "internalType": "string",
          "name": "name",
          "type": "string"
        },
        {
          "internalType": "string",
          "name": "description",
          "type": "string"
        },
        {
          "internalType": "string",
          "name": "gameId",
          "type": "string"
        },
        {
          "internalType": "uint8",
          "name": "tournamentType",
          "type": "uint8"
        },
        {
          "internalType": "uint256",
          "name": "maxParticipants",
          "type": "uint256"
        },
        {
          "internalType": "uint256",
          "name": "createdAt",
          "type": "uint256"
        },
        {
          "internalType": "uint256",
          "name": "startTime",
          "type": "uint256"
        },
        {
          "internalType": "uint256",
          "name": "registrationEndTime",
          "type": "uint256"
        },
        {
          "internalType": "bool",
          "name": "isActive",
          "type": "bool"
        },
        {
          "internalType": "address",
          "name": "rewardTokenAddress",
          "type": "address"
        },
        {
          "internalType": "uint256",
          "name": "totalRewardAmount",
          "type": "uint256"
        }
      ],
      "stateMutability": "view",
      "type": "function"
    },
    {
      "inputs": [
        {
          "internalType": "address",
          "name": "newOwner",
          "type": "address"
        }
      ],
      "name": "transferOwnership",
      "outputs": [],
      "stateMutability": "nonpayable",
      "type": "function"
    }
  ],
  "bytecode": "0x608080604052346100645760008054336001600160a01b0319821681178355916001600160a01b03909116907f8be0079c531659141344cd1fd0a4f28419497f9722a3daafe3b4186f6b6457e09080a36001805560016003556115c5908161006a8239f35b600080fdfe6080604052600436101561001257600080fd5b60003560e01c80633243223314610f9b57806367e820ad14610f1e578063715018a614610ec55780637503e1b714610dbd57806379c13f8a14610645578063852efc3d1461062757806386bb8f371461042d5780638da5cb5b14610404578063cac766d2146102f9578063d533344f14610214578063f2fde38b1461014e5763f37aa509146100a057600080fd5b34610149576020806003193601126101495760043560005260028152600c60406000200160405190818382549182815201908192600052846000209060005b868282106101355786866100f58288038361119e565b604051928392818401908285525180915260408401929160005b82811061011e57505050500390f35b83518552869550938101939281019260010161010f565b8354855290930192600192830192016100df565b600080fd5b34610149576020366003190112610149576004356001600160a01b03818116918290036101495761017d6112fd565b81156101c057600054826001600160601b0360a01b821617600055167f8be0079c531659141344cd1fd0a4f28419497f9722a3daafe3b4186f6b6457e0600080a3005b60405162461bcd60e51b815260206004820152602660248201527f4f776e61626c653a206e6577206f776e657220697320746865207a65726f206160448201526564647265737360d01b6064820152608490fd5b34610149576060366003190112610149576004356044356001600160a01b038181169160243590839003610149577f8981fdd74bd05da9ef8f2aeb472f541ee871b1e9e3908c19d01a9bf51ce5f7ab92600d604093610271611425565b86600052600260205261028f8560002091600183015416331461147b565b61029f60ff600a830154166114c0565b6102ae600c8201548510611504565b83600052600e81016020526102ca60ff86600020541615611543565b836000520160205282600020816001600160601b0360a01b82541617905582519182526020820152a260018055005b346101495760203660031901126101495760043560005260026020526040600020600160a01b600190038060018301541690600583015460ff169060068401549060078501549060088601546009870154600a88015491600b89015494600c8a01549660028b01610369906111c0565b9a610376600382016111c0565b90600401610383906111c0565b906040519c8d9c8d528c6101a06020819201528d016103a191611266565b8c810360408e01526103b291611266565b8b810360608d01526103c391611266565b9860808b015260a08a015260c089015260e088015261010087015260ff8116151561012087015260081c166101408501526101608401526101808301520390f35b34610149576000366003190112610149576000546040516001600160a01b039091168152602090f35b346101495761043b3661114e565b610443611425565b81600052602060028152604060002091600a83019261046560ff8554166114c0565b600c810161047581548410611504565b600d600e8301928460005283865261049560ff6040600020541615611543565b60008581529101855260409020546001600160a01b039290831633036105f1576104d69184918260005286526040600020600160ff1982541617905561140d565b90549060031b1c935460081c1680156000146105585750826000811561054f575b600080809381933390f115610543577fa8325f46ec9623d7ced8f695ff820511a4acef4f5d5c4933bd5d992141a2b905926060925b60405192835233908301526040820152a260018055005b6040513d6000823e3d90fd5b506108fc6104f7565b60405163a9059cbb60e01b81523360048201526024810185905293908390859060449082906000905af1928315610543576105bf6060947fa8325f46ec9623d7ced8f695ff820511a4acef4f5d5c4933bd5d992141a2b905966000916105c4575b506113c9565b61052c565b6105e49150833d85116105ea575b6105dc818361119e565b8101906113b1565b886105b9565b503d6105d2565b60405162461bcd60e51b815260048101869052600e60248201526d2737ba103a3432903bb4b73732b960911b6044820152606490fd5b34610149576000366003190112610149576020600354604051908152f35b6101203660031901126101495760043567ffffffffffffffff8111610149576106729036906004016112a6565b60243567ffffffffffffffff8111610149576106929036906004016112a6565b9060443567ffffffffffffffff8111610149576106b39036906004016112a6565b916064359160ff831683036101495760e4356001600160a01b038116900361014957610104359167ffffffffffffffff831161014957366023840112156101495782600401359267ffffffffffffffff84116109a557604051938060051b9061071f602083018761119e565b8552602460208601918301019136831161014957602401905b828210610dad5750505061074a611425565b825115610d7057600094855b84518710156107835761077761077d91610770898861137a565b51906113a4565b96611355565b95610756565b8491908660e4356001600160a01b0316610cad57813403610c68575b600354926107ac84611355565b60035583600052600260205260406000209584875560018701336001600160601b0360a01b825416179055875167ffffffffffffffff81116109a5576107f56002890154611164565b601f8111610c21575b50806020601f8211600114610bb357600091610ba8575b508160011b916000199060031b1c19161760028801555b80519067ffffffffffffffff82116109a557819061084d60038a0154611164565b601f8111610b55575b50602090601f8311600114610ae357600092610ad8575b50508160011b916000199060031b1c19161760038701555b80519067ffffffffffffffff82116109a55781906108a66004890154611164565b601f8111610a85575b50602090601f8311600114610a1057600092610a05575b50508160011b916000199060031b1c19161760048601559493945b60ff60058701911660ff19825416179055608435600686015542600786015560c435600886015560a4356009860155600a8501600181546101008260a81b0360e43560081b16906affffffffffffffffffffff60a81b1617179055600b850155600c60009401935b82518110156109bb5761095c818461137a565b5190855491680100000000000000008310156109a5576109858360016109a0950189558861140d565b819291549060031b91821b91600019901b1916179055611355565b610949565b634e487b7160e01b600052604160045260246000fd5b60208285817fbd34ba7c23e010b2fa639a38c057cf452062c6645a1c102adbee46d0b37b8669604051858152806109f6339588830190611266565b0390a360018055604051908152f35b0151905088806108c6565b9250600488016000526020600020906000935b601f1984168510610a6a576001945083601f19811610610a51575b505050811b0160048601559493946108e1565b015160001960f88460031b161c19169055888080610a3e565b81810151835560209485019460019093019290910190610a23565b909150600488016000526020600020601f840160051c810160208510610ad1575b90849392915b601f830160051c82018110610ac25750506108af565b60008155859450600101610aac565b5080610aa6565b01519050898061086d565b9250600389016000526020600020906000935b601f1984168510610b3a576001945083601f19811610610b21575b505050811b016003870155610885565b015160001960f88460031b161c19169055898080610b11565b81810151835560209485019460019093019290910190610af6565b909150600389016000526020600020601f840160051c810160208510610ba1575b90849392915b601f830160051c82018110610b92575050610856565b60008155859450600101610b7c565b5080610b76565b90508901518a610815565b91506002890160005260206000206000925b8b601f1984168510610c0a57506001935082601f19811610610bf1575b5050811b01600288015561082c565b8b015160001960f88460031b161c191690558a80610be2565b810151825560209384019360019092019101610bc5565b600289016000526020600020601f830160051c810160208410610c61575b601f830160051c82018110610c555750506107fe565b60008155600101610c3f565b5080610c3f565b60405162461bcd60e51b815260206004820152601c60248201527f496e636f72726563742072657761726420616d6f756e742073656e74000000006044820152606490fd5b34610d1d576040516323b872dd60e01b815233600482015230602482015260448101839052602081606481600060e4356001600160a01b03165af1801561054357610cff91600091610d0457506113c9565b61079f565b6105e4915060203d6020116105ea576105dc818361119e565b60405162461bcd60e51b815260206004820152602560248201527f446f6e27742073656e6420524f4e207769746820746f6b656e20746f75726e616044820152646d656e747360d81b6064820152608490fd5b60405162461bcd60e51b8152602060048201526015602482015274139bc81c1bdcda5d1a5bdb9cc81c1c9bdd9a591959605a1b6044820152606490fd5b8135815260209182019101610738565b3461014957602036600319011261014957600435600052600260205260406000208054600160a01b6001900391826001820154169260028201610dff906111c0565b90610e0c600384016111c0565b92610e19600482016111c0565b93600582015460ff16946006830154600784015490600885015492600986015494600a87015496600b0154986040519c8d9c8d5260208d01528b6101a06040819201528c01610e6791611266565b8b810360608d0152610e7891611266565b8a810360808c0152610e8991611266565b9760a08a015260c089015260e088015261010087015261012086015260ff8116151561014086015260081c166101608401526101808301520390f35b3461014957600036600319011261014957610ede6112fd565b600080546001600160a01b0319811682556001600160a01b03167f8be0079c531659141344cd1fd0a4f28419497f9722a3daafe3b4186f6b6457e08280a3005b34610149576060610f2e3661114e565b906000526002602052604060002090610f5681600c8401610f5181548310611504565b61140d565b92905491600052600d8101602052600e60018060a01b0360406000205416910160205260ff60406000205416916040519360031b1c8352602083015215156040820152f35b34610149576020806003193601126101495760043590610fb9611425565b816000526002815260406000206001810160018060a01b03908181541693610fe285331461147b565b600a84019485549460ff96610ff88888166114c0565b60ff1987169055600c810180546000989092600e01895b8481106111045750505050508515948515611051575b877ffa61ec8d7e5a58ceba17772b10ba0c6caa65b40b200302be35f00efc264c7895600080a260018055005b60081c8416908161108e575050506000938493849384935416908390611085575bf115610543575b81808080808080611025565b506108fc611072565b60405163a9059cbb60e01b81526001600160a01b0391909116600482015260248101969096529094935084925083915060449082906000905af1908115610543576110e2926000926110e7575b50506113c9565b611079565b6110fd9250803d106105ea576105dc818361119e565b83806110db565b80600052818752826040600020541615611127575b61112290611355565b61100f565b99611146611122916111398d8761140d565b90549060031b1c906113a4565b9a9050611119565b6040906003190112610149576004359060243590565b90600182811c92168015611194575b602083101461117e57565b634e487b7160e01b600052602260045260246000fd5b91607f1691611173565b90601f8019910116810190811067ffffffffffffffff8211176109a557604052565b90604051918260008254926111d484611164565b9081845260019485811690816000146112435750600114611200575b50506111fe9250038361119e565b565b9093915060005260209081600020936000915b81831061122b5750506111fe935082010138806111f0565b85548884018501529485019487945091830191611213565b9150506111fe94506020925060ff191682840152151560051b82010138806111f0565b919082519283825260005b848110611292575050826000602080949584010152601f8019910116010190565b602081830181015184830182015201611271565b81601f820112156101495780359067ffffffffffffffff82116109a557604051926112db601f8401601f19166020018561119e565b8284526020838301011161014957816000926020809301838601378301015290565b6000546001600160a01b0316330361131157565b606460405162461bcd60e51b815260206004820152602060248201527f4f776e61626c653a2063616c6c6572206973206e6f7420746865206f776e65726044820152fd5b60001981146113645760010190565b634e487b7160e01b600052601160045260246000fd5b805182101561138e5760209160051b010190565b634e487b7160e01b600052603260045260246000fd5b9190820180921161136457565b90816020910312610149575180151581036101495790565b156113d057565b60405162461bcd60e51b8152602060048201526015602482015274151bdad95b881d1c985b9cd9995c8819985a5b1959605a1b6044820152606490fd5b805482101561138e5760005260206000200190600090565b600260015414611436576002600155565b60405162461bcd60e51b815260206004820152601f60248201527f5265656e7472616e637947756172643a207265656e7472616e742063616c6c006044820152606490fd5b1561148257565b60405162461bcd60e51b81526020600482015260166024820152752737ba103a37bab93730b6b2b73a1031b932b0ba37b960511b6044820152606490fd5b156114c757565b60405162461bcd60e51b8152602060048201526015602482015274546f75726e616d656e74206e6f742061637469766560581b6044820152606490fd5b1561150b57565b60405162461bcd60e51b815260206004820152601060248201526f24b73b30b634b2103837b9b4ba34b7b760811b6044820152606490fd5b1561154a57565b60405162461bcd60e51b815260206004820152601860248201527f506f736974696f6e20616c726561647920636c61696d656400000000000000006044820152606490fdfea2646970667358221220093693949f03d8e975dc76bf1d311b73ea947dd7bff952c61c6973c4f7c4ebec64736f6c63430008140033",
  "linkReferences": {},
  "deployedLinkReferences": {}
}